{
  "contractName": "LotteryStake",
  "abi": [
    {
      "anonymous": false,
      "inputs": [
        {
          "indexed": true,
          "internalType": "address",
          "name": "previousOwner",
          "type": "address"
        },
        {
          "indexed": true,
          "internalType": "address",
          "name": "newOwner",
          "type": "address"
        }
      ],
      "name": "OwnershipTransferred",
      "type": "event"
    },
    {
      "anonymous": false,
      "inputs": [
        {
          "indexed": false,
          "internalType": "address",
          "name": "owner",
          "type": "address"
        },
        {
          "indexed": false,
          "internalType": "uint256",
          "name": "amount",
          "type": "uint256"
        }
      ],
      "name": "Staked",
      "type": "event"
    },
    {
      "anonymous": false,
      "inputs": [
        {
          "indexed": false,
          "internalType": "address",
          "name": "owner",
          "type": "address"
        },
        {
          "indexed": false,
          "internalType": "uint256",
          "name": "amount",
          "type": "uint256"
        }
      ],
      "name": "Unstaked",
      "type": "event"
    },
    {
      "inputs": [],
      "name": "fungibleToken",
      "outputs": [
        {
          "internalType": "contract IERC20",
          "name": "",
          "type": "address"
        }
      ],
      "stateMutability": "view",
      "type": "function",
      "constant": true
    },
    {
      "inputs": [],
      "name": "nonFungibleToken",
      "outputs": [
        {
          "internalType": "contract IERC721",
          "name": "",
          "type": "address"
        }
      ],
      "stateMutability": "view",
      "type": "function",
      "constant": true
    },
    {
      "inputs": [],
      "name": "owner",
      "outputs": [
        {
          "internalType": "address",
          "name": "",
          "type": "address"
        }
      ],
      "stateMutability": "view",
      "type": "function",
      "constant": true
    },
    {
      "inputs": [],
      "name": "renounceOwnership",
      "outputs": [],
      "stateMutability": "nonpayable",
      "type": "function"
    },
    {
      "inputs": [
        {
          "internalType": "uint256",
          "name": "",
          "type": "uint256"
        }
      ],
      "name": "tokenOwner",
      "outputs": [
        {
          "internalType": "address",
          "name": "",
          "type": "address"
        }
      ],
      "stateMutability": "view",
      "type": "function",
      "constant": true
    },
    {
      "inputs": [
        {
          "internalType": "address",
          "name": "newOwner",
          "type": "address"
        }
      ],
      "name": "transferOwnership",
      "outputs": [],
      "stateMutability": "nonpayable",
      "type": "function"
    },
    {
      "inputs": [
        {
          "internalType": "contract IERC20",
          "name": "_fungibleToken",
          "type": "address"
        },
        {
          "internalType": "contract IERC721",
          "name": "_nonFungibleToken",
          "type": "address"
        }
      ],
      "name": "initialize",
      "outputs": [],
      "stateMutability": "nonpayable",
      "type": "function"
    }
  ],
  "bytecode": "0x608060405234801561001057600080fd5b5061002d61002261003260201b60201c565b61003a60201b60201c565b6100fe565b600033905090565b60008060009054906101000a900473ffffffffffffffffffffffffffffffffffffffff169050816000806101000a81548173ffffffffffffffffffffffffffffffffffffffff021916908373ffffffffffffffffffffffffffffffffffffffff1602179055508173ffffffffffffffffffffffffffffffffffffffff168173ffffffffffffffffffffffffffffffffffffffff167f8be0079c531659141344cd1fd0a4f28419497f9722a3daafe3b4186f6b6457e060405160405180910390a35050565b6109ef8061010d6000396000f3fe608060405234801561001057600080fd5b506004361061007d5760003560e01c80637ac27d191161005b5780637ac27d19146100d85780638da5cb5b146100f6578063e5873ec214610114578063f2fde38b146101325761007d565b80631caaa48714610082578063485cc955146100b2578063715018a6146100ce575b600080fd5b61009c600480360381019061009791906105ea565b61014e565b6040516100a99190610658565b60405180910390f35b6100cc60048036038101906100c791906106ef565b610181565b005b6100d66102ee565b005b6100e0610376565b6040516100ed919061078e565b60405180910390f35b6100fe61039c565b60405161010b9190610658565b60405180910390f35b61011c6103c5565b60405161012991906107ca565b60405180910390f35b61014c60048036038101906101479190610811565b6103eb565b005b60046020528060005260406000206000915054906101000a900473ffffffffffffffffffffffffffffffffffffffff1681565b6101896104e3565b73ffffffffffffffffffffffffffffffffffffffff166101a761039c565b73ffffffffffffffffffffffffffffffffffffffff16146101fd576040517f08c379a00000000000000000000000000000000000000000000000000000000081526004016101f49061089b565b60405180910390fd5b600260149054906101000a900460ff161561024d576040517f08c379a000000000000000000000000000000000000000000000000000000000815260040161024490610907565b60405180910390fd5b6001600260146101000a81548160ff02191690831515021790555081600160006101000a81548173ffffffffffffffffffffffffffffffffffffffff021916908373ffffffffffffffffffffffffffffffffffffffff16021790555080600260006101000a81548173ffffffffffffffffffffffffffffffffffffffff021916908373ffffffffffffffffffffffffffffffffffffffff1602179055505050565b6102f66104e3565b73ffffffffffffffffffffffffffffffffffffffff1661031461039c565b73ffffffffffffffffffffffffffffffffffffffff161461036a576040517f08c379a00000000000000000000000000000000000000000000000000000000081526004016103619061089b565b60405180910390fd5b61037460006104eb565b565b600260009054906101000a900473ffffffffffffffffffffffffffffffffffffffff1681565b60008060009054906101000a900473ffffffffffffffffffffffffffffffffffffffff16905090565b600160009054906101000a900473ffffffffffffffffffffffffffffffffffffffff1681565b6103f36104e3565b73ffffffffffffffffffffffffffffffffffffffff1661041161039c565b73ffffffffffffffffffffffffffffffffffffffff1614610467576040517f08c379a000000000000000000000000000000000000000000000000000000000815260040161045e9061089b565b60405180910390fd5b600073ffffffffffffffffffffffffffffffffffffffff168173ffffffffffffffffffffffffffffffffffffffff1614156104d7576040517f08c379a00000000000000000000000000000000000000000000000000000000081526004016104ce90610999565b60405180910390fd5b6104e0816104eb565b50565b600033905090565b60008060009054906101000a900473ffffffffffffffffffffffffffffffffffffffff169050816000806101000a81548173ffffffffffffffffffffffffffffffffffffffff021916908373ffffffffffffffffffffffffffffffffffffffff1602179055508173ffffffffffffffffffffffffffffffffffffffff168173ffffffffffffffffffffffffffffffffffffffff167f8be0079c531659141344cd1fd0a4f28419497f9722a3daafe3b4186f6b6457e060405160405180910390a35050565b600080fd5b6000819050919050565b6105c7816105b4565b81146105d257600080fd5b50565b6000813590506105e4816105be565b92915050565b600060208284031215610600576105ff6105af565b5b600061060e848285016105d5565b91505092915050565b600073ffffffffffffffffffffffffffffffffffffffff82169050919050565b600061064282610617565b9050919050565b61065281610637565b82525050565b600060208201905061066d6000830184610649565b92915050565b600061067e82610637565b9050919050565b61068e81610673565b811461069957600080fd5b50565b6000813590506106ab81610685565b92915050565b60006106bc82610637565b9050919050565b6106cc816106b1565b81146106d757600080fd5b50565b6000813590506106e9816106c3565b92915050565b60008060408385031215610706576107056105af565b5b60006107148582860161069c565b9250506020610725858286016106da565b9150509250929050565b6000819050919050565b600061075461074f61074a84610617565b61072f565b610617565b9050919050565b600061076682610739565b9050919050565b60006107788261075b565b9050919050565b6107888161076d565b82525050565b60006020820190506107a3600083018461077f565b92915050565b60006107b48261075b565b9050919050565b6107c4816107a9565b82525050565b60006020820190506107df60008301846107bb565b92915050565b6107ee81610637565b81146107f957600080fd5b50565b60008135905061080b816107e5565b92915050565b600060208284031215610827576108266105af565b5b6000610835848285016107fc565b91505092915050565b600082825260208201905092915050565b7f4f776e61626c653a2063616c6c6572206973206e6f7420746865206f776e6572600082015250565b600061088560208361083e565b91506108908261084f565b602082019050919050565b600060208201905081810360008301526108b481610878565b9050919050565b7f416c726561647920696e697469616c697a656400000000000000000000000000600082015250565b60006108f160138361083e565b91506108fc826108bb565b602082019050919050565b60006020820190508181036000830152610920816108e4565b9050919050565b7f4f776e61626c653a206e6577206f776e657220697320746865207a65726f206160008201527f6464726573730000000000000000000000000000000000000000000000000000602082015250565b600061098360268361083e565b915061098e82610927565b604082019050919050565b600060208201905081810360008301526109b281610976565b905091905056fea2646970667358221220fbeb8005a08e67f05e6e4fb6632f3c62b64f8d8517f8a808cc903ce3dc9dde2d64736f6c634300080a0033",
  "immutableReferences": {},
  "source": "// SPDX-License-Identifier: MIT\npragma solidity ^0.8.2;\n\nimport \"@openzeppelin/contracts/token/ERC20/IERC20.sol\";\nimport \"@openzeppelin/contracts/token/ERC721/IERC721.sol\";\nimport \"@openzeppelin/contracts/access/Ownable.sol\";\nimport \"@openzeppelin/contracts/utils/math/safemath.sol\";\n\ncontract LotteryStake is Ownable {\n    using SafeMath for uint256;\n\n    IERC20 public fungibleToken;\n    IERC721 public nonFungibleToken;\n    bool _initialized;\n\n    struct Staker {\n        uint256[] tokenIds;\n    }\n\n    mapping (address => Staker) stakers;\n    mapping (uint256 => address) public tokenOwner;\n\n    event Staked(address owner, uint256 amount);\n    event Unstaked(address owner, uint256 amount);\n\n    function initialize(\n        IERC20 _fungibleToken,\n        IERC721 _nonFungibleToken) external onlyOwner {\n        require(!_initialized, \"Already initialized\");\n        _initialized = true;\n        fungibleToken = _fungibleToken;\n        nonFungibleToken = _nonFungibleToken;\n    }\n\n    function _stake(\n        address _user,\n        uint256 _tokenId\n    )\n        internal\n    {\n        Staker storage staker = stakers[_user];\n\n        staker.tokenIds.push(_tokenId);\n        tokenOwner[_tokenId] = _user;\n        nonFungibleToken.safeTransferFrom(\n            _user,\n            address(this),\n            _tokenId\n        );\n\n        emit Staked(_user, _tokenId);\n    }\n}",
  "sourcePath": "/Users/warrenschwartz/Projects/MintedHistory_Lottery/lottery/contracts/LotteryStake.sol",
  "compiler": {
    "name": "solc",
    "version": "0.8.10+commit.fc410830.Emscripten.clang"
  },
  "schemaVersion": "3.4.3",
  "updatedAt": "2021-12-20T12:46:55.994Z",
  "networkType": "ethereum",
  "devdoc": {
    "kind": "dev",
    "methods": {
      "owner()": {
        "details": "Returns the address of the current owner."
      },
      "renounceOwnership()": {
        "details": "Leaves the contract without owner. It will not be possible to call `onlyOwner` functions anymore. Can only be called by the current owner. NOTE: Renouncing ownership will leave the contract without an owner, thereby removing any functionality that is only available to the owner."
      },
      "transferOwnership(address)": {
        "details": "Transfers ownership of the contract to a new account (`newOwner`). Can only be called by the current owner."
      }
    },
    "version": 1
  },
  "userdoc": {
    "kind": "user",
    "methods": {},
    "version": 1
  }
}