{
  "contractName": "LotteryStake",
  "abi": [
    {
      "anonymous": false,
      "inputs": [
        {
          "indexed": true,
          "internalType": "address",
          "name": "previousOwner",
          "type": "address"
        },
        {
          "indexed": true,
          "internalType": "address",
          "name": "newOwner",
          "type": "address"
        }
      ],
      "name": "OwnershipTransferred",
      "type": "event"
    },
    {
      "inputs": [],
      "name": "fungibleToken",
      "outputs": [
        {
          "internalType": "contract IFungibleToken",
          "name": "",
          "type": "address"
        }
      ],
      "stateMutability": "view",
      "type": "function"
    },
    {
      "inputs": [],
      "name": "nftSupply",
      "outputs": [
        {
          "internalType": "uint256",
          "name": "",
          "type": "uint256"
        }
      ],
      "stateMutability": "view",
      "type": "function"
    },
    {
      "inputs": [],
      "name": "nonFungibleToken",
      "outputs": [
        {
          "internalType": "contract IERC721",
          "name": "",
          "type": "address"
        }
      ],
      "stateMutability": "view",
      "type": "function"
    },
    {
      "inputs": [],
      "name": "owner",
      "outputs": [
        {
          "internalType": "address",
          "name": "",
          "type": "address"
        }
      ],
      "stateMutability": "view",
      "type": "function"
    },
    {
      "inputs": [],
      "name": "renounceOwnership",
      "outputs": [],
      "stateMutability": "nonpayable",
      "type": "function"
    },
    {
      "inputs": [],
      "name": "stakingPaused",
      "outputs": [
        {
          "internalType": "bool",
          "name": "",
          "type": "bool"
        }
      ],
      "stateMutability": "view",
      "type": "function"
    },
    {
      "inputs": [
        {
          "internalType": "address",
          "name": "newOwner",
          "type": "address"
        }
      ],
      "name": "transferOwnership",
      "outputs": [],
      "stateMutability": "nonpayable",
      "type": "function"
    },
    {
      "inputs": [
        {
          "internalType": "address",
          "name": "_fungibleToken",
          "type": "address"
        },
        {
          "internalType": "address",
          "name": "_nonFungibleToken",
          "type": "address"
        },
        {
          "internalType": "uint256",
          "name": "_nftSupply",
          "type": "uint256"
        }
      ],
      "name": "initialize",
      "outputs": [],
      "stateMutability": "nonpayable",
      "type": "function"
    },
    {
      "inputs": [
        {
          "internalType": "uint256",
          "name": "supply",
          "type": "uint256"
        }
      ],
      "name": "changeNftSupply",
      "outputs": [],
      "stateMutability": "nonpayable",
      "type": "function"
    },
    {
      "inputs": [
        {
          "internalType": "uint256",
          "name": "tokenId",
          "type": "uint256"
        }
      ],
      "name": "deposit",
      "outputs": [],
      "stateMutability": "nonpayable",
      "type": "function"
    },
    {
      "inputs": [
        {
          "internalType": "uint8",
          "name": "month",
          "type": "uint8"
        },
        {
          "internalType": "uint16",
          "name": "year",
          "type": "uint16"
        }
      ],
      "name": "getDaysInMonth",
      "outputs": [
        {
          "internalType": "uint8",
          "name": "",
          "type": "uint8"
        }
      ],
      "stateMutability": "pure",
      "type": "function"
    },
    {
      "inputs": [
        {
          "internalType": "uint256",
          "name": "timestamp",
          "type": "uint256"
        }
      ],
      "name": "getYear",
      "outputs": [
        {
          "internalType": "uint16",
          "name": "",
          "type": "uint16"
        }
      ],
      "stateMutability": "pure",
      "type": "function"
    },
    {
      "inputs": [
        {
          "internalType": "uint16",
          "name": "year",
          "type": "uint16"
        }
      ],
      "name": "isLeapYear",
      "outputs": [
        {
          "internalType": "bool",
          "name": "",
          "type": "bool"
        }
      ],
      "stateMutability": "pure",
      "type": "function"
    },
    {
      "inputs": [
        {
          "internalType": "uint256",
          "name": "year",
          "type": "uint256"
        }
      ],
      "name": "leapYearsBefore",
      "outputs": [
        {
          "internalType": "uint256",
          "name": "",
          "type": "uint256"
        }
      ],
      "stateMutability": "pure",
      "type": "function"
    },
    {
      "inputs": [
        {
          "internalType": "uint8",
          "name": "month",
          "type": "uint8"
        },
        {
          "internalType": "uint16",
          "name": "year",
          "type": "uint16"
        }
      ],
      "name": "randomDraw",
      "outputs": [
        {
          "internalType": "address",
          "name": "",
          "type": "address"
        }
      ],
      "stateMutability": "nonpayable",
      "type": "function"
    },
    {
      "inputs": [
        {
          "internalType": "uint256[]",
          "name": "s4e1",
          "type": "uint256[]"
        },
        {
          "internalType": "uint256[]",
          "name": "s3e1",
          "type": "uint256[]"
        },
        {
          "internalType": "uint256[]",
          "name": "s2e1",
          "type": "uint256[]"
        },
        {
          "internalType": "uint256[]",
          "name": "s1e1",
          "type": "uint256[]"
        },
        {
          "internalType": "uint256[]",
          "name": "s4e2",
          "type": "uint256[]"
        },
        {
          "internalType": "uint256[]",
          "name": "s3e2",
          "type": "uint256[]"
        },
        {
          "internalType": "uint256[]",
          "name": "s2e2",
          "type": "uint256[]"
        },
        {
          "internalType": "uint256[]",
          "name": "s1e2",
          "type": "uint256[]"
        }
      ],
      "name": "reward",
      "outputs": [],
      "stateMutability": "nonpayable",
      "type": "function"
    },
    {
      "inputs": [],
      "name": "stakingPause",
      "outputs": [],
      "stateMutability": "nonpayable",
      "type": "function"
    },
    {
      "inputs": [],
      "name": "stakingStart",
      "outputs": [],
      "stateMutability": "nonpayable",
      "type": "function"
    },
    {
      "inputs": [
        {
          "internalType": "uint256",
          "name": "tokenId",
          "type": "uint256"
        }
      ],
      "name": "withdraw",
      "outputs": [],
      "stateMutability": "nonpayable",
      "type": "function"
    }
  ],
  "bytecode": "0x60806040523480156200001157600080fd5b5062000032620000266200003860201b60201c565b6200004060201b60201c565b62000104565b600033905090565b60008060009054906101000a900473ffffffffffffffffffffffffffffffffffffffff169050816000806101000a81548173ffffffffffffffffffffffffffffffffffffffff021916908373ffffffffffffffffffffffffffffffffffffffff1602179055508173ffffffffffffffffffffffffffffffffffffffff168173ffffffffffffffffffffffffffffffffffffffff167f8be0079c531659141344cd1fd0a4f28419497f9722a3daafe3b4186f6b6457e060405160405180910390a35050565b612e9480620001146000396000f3fe608060405234801561001057600080fd5b50600436106101215760003560e01c806392d66313116100ad578063bbb781cc11610071578063bbb781cc146102f4578063d318f51014610312578063d771b0a61461032e578063e5873ec214610338578063f2fde38b1461035657610121565b806392d6631314610218578063a6f0e57714610248578063b199993714610278578063b238ad0e146102a8578063b6b55f25146102d857610121565b806355455df2116100f457806355455df2146101ac57806362791645146101b6578063715018a6146101d25780637ac27d19146101dc5780638da5cb5b146101fa57610121565b806301790e011461012657806306947d76146101445780631794bb3c146101745780632e1a7d4d14610190575b600080fd5b61012e610372565b60405161013b9190611f11565b60405180910390f35b61015e60048036038101906101599190611fb3565b610378565b60405161016b9190612034565b60405180910390f35b61018e600480360381019061018991906120a7565b610712565b005b6101aa60048036038101906101a591906120fa565b610837565b005b6101b46109b9565b005b6101d060048036038101906101cb9190612280565b610aa8565b005b6101da611131565b005b6101e46111b9565b6040516101f19190612475565b60405180910390f35b6102026111df565b60405161020f9190612034565b60405180910390f35b610232600480360381019061022d91906120fa565b611208565b60405161023f919061249f565b60405180910390f35b610262600480360381019061025d91906124ba565b61131f565b60405161026f9190612502565b60405180910390f35b610292600480360381019061028d91906120fa565b61138e565b60405161029f9190611f11565b60405180910390f35b6102c260048036038101906102bd9190611fb3565b6113e2565b6040516102cf919061252c565b60405180910390f35b6102f260048036038101906102ed91906120fa565b6114ae565b005b6102fc61170b565b6040516103099190612502565b60405180910390f35b61032c600480360381019061032791906120fa565b61171e565b005b6103366117a4565b005b610340611893565b60405161034d9190612568565b60405180910390f35b610370600480360381019061036b9190612583565b6118b9565b005b60075481565b60006103826119b1565b73ffffffffffffffffffffffffffffffffffffffff166103a06111df565b73ffffffffffffffffffffffffffffffffffffffff16146103f6576040517f08c379a00000000000000000000000000000000000000000000000000000000081526004016103ed9061260d565b60405180910390fd5b60006104258460ff1661041760648661ffff166119b990919063ffffffff16565b6119cf90919063ffffffff16565b905060006003600083815260200190815260200160002090508060000160009054906101000a900460ff1615610490576040517f08c379a00000000000000000000000000000000000000000000000000000000081526004016104879061269f565b60405180910390fd5b6004600061049e9190611e67565b60005b6007548110156105ea57600073ffffffffffffffffffffffffffffffffffffffff166002600083815260200190815260200160002060009054906101000a900473ffffffffffffffffffffffffffffffffffffffff1673ffffffffffffffffffffffffffffffffffffffff16146105d7576000826001016000838152602001908152602001600020905060005b81600101548110156105d45760048260000160009054906101000a900473ffffffffffffffffffffffffffffffffffffffff169080600181540180825580915050600190039060005260206000200160009091909190916101000a81548173ffffffffffffffffffffffffffffffffffffffff021916908373ffffffffffffffffffffffffffffffffffffffff16021790555080806105cc906126ee565b91505061052e565b50505b80806105e2906126ee565b9150506104a1565b50600061060760016004805490506106029190612737565b6119e5565b905060018260000160006101000a81548160ff0219169083151502179055506004818154811061063a5761063961276b565b5b9060005260206000200160009054906101000a900473ffffffffffffffffffffffffffffffffffffffff168260000160016101000a81548173ffffffffffffffffffffffffffffffffffffffff021916908373ffffffffffffffffffffffffffffffffffffffff160217905550600460006106b59190611e67565b6106e28260000160019054906101000a900473ffffffffffffffffffffffffffffffffffffffff16611a0a565b8160000160019054906101000a900473ffffffffffffffffffffffffffffffffffffffff16935050505092915050565b61071a6119b1565b73ffffffffffffffffffffffffffffffffffffffff166107386111df565b73ffffffffffffffffffffffffffffffffffffffff161461078e576040517f08c379a00000000000000000000000000000000000000000000000000000000081526004016107859061260d565b60405180910390fd5b82600560006101000a81548173ffffffffffffffffffffffffffffffffffffffff021916908373ffffffffffffffffffffffffffffffffffffffff16021790555081600660006101000a81548173ffffffffffffffffffffffffffffffffffffffff021916908373ffffffffffffffffffffffffffffffffffffffff160217905550806007819055506001600860006101000a81548160ff021916908315150217905550505050565b3373ffffffffffffffffffffffffffffffffffffffff166002600083815260200190815260200160002060009054906101000a900473ffffffffffffffffffffffffffffffffffffffff1673ffffffffffffffffffffffffffffffffffffffff16146108d8576040517f08c379a00000000000000000000000000000000000000000000000000000000081526004016108cf906127e6565b60405180910390fd5b600660009054906101000a900473ffffffffffffffffffffffffffffffffffffffff1673ffffffffffffffffffffffffffffffffffffffff166323b872dd3033846040518463ffffffff1660e01b815260040161093793929190612806565b600060405180830381600087803b15801561095157600080fd5b505af1158015610965573d6000803e3d6000fd5b505050506002600082815260200190815260200160002060006101000a81549073ffffffffffffffffffffffffffffffffffffffff0219169055600160008281526020019081526020016000206000905550565b6109c16119b1565b73ffffffffffffffffffffffffffffffffffffffff166109df6111df565b73ffffffffffffffffffffffffffffffffffffffff1614610a35576040517f08c379a0000000000000000000000000000000000000000000000000000000008152600401610a2c9061260d565b60405180910390fd5b60001515600860009054906101000a900460ff16151514610a8b576040517f08c379a0000000000000000000000000000000000000000000000000000000008152600401610a8290612889565b60405180910390fd5b6001600860006101000a81548160ff021916908315150217905550565b610ab06119b1565b73ffffffffffffffffffffffffffffffffffffffff16610ace6111df565b73ffffffffffffffffffffffffffffffffffffffff1614610b24576040517f08c379a0000000000000000000000000000000000000000000000000000000008152600401610b1b9061260d565b60405180910390fd5b6000610b2e611a54565b905060005b60075481101561112557600073ffffffffffffffffffffffffffffffffffffffff166002600083815260200190815260200160002060009054906101000a900473ffffffffffffffffffffffffffffffffffffffff1673ffffffffffffffffffffffffffffffffffffffff161461111257610bba6201518042611abb90919063ffffffff16565b600160008381526020019081526020016000205410156111115760005b8a51811015610c73578a8181518110610bf357610bf261276b565b5b6020026020010151821415610c6057610c5b83836002600086815260200190815260200160002060009054906101000a900473ffffffffffffffffffffffffffffffffffffffff16610c56600860ff16600260ff166119b990919063ffffffff16565b611ad1565b610c73565b8080610c6b906126ee565b915050610bd7565b5060005b8951811015610d1357898181518110610c9357610c9261276b565b5b6020026020010151821415610d0057610cfb83836002600086815260200190815260200160002060009054906101000a900473ffffffffffffffffffffffffffffffffffffffff16610cf6600460ff16600260ff166119b990919063ffffffff16565b611ad1565b610d13565b8080610d0b906126ee565b915050610c77565b5060005b8851811015610db357888181518110610d3357610d3261276b565b5b6020026020010151821415610da057610d9b83836002600086815260200190815260200160002060009054906101000a900473ffffffffffffffffffffffffffffffffffffffff16610d96600260ff16600260ff166119b990919063ffffffff16565b611ad1565b610db3565b8080610dab906126ee565b915050610d17565b5060005b8751811015610e5357878181518110610dd357610dd261276b565b5b6020026020010151821415610e4057610e3b83836002600086815260200190815260200160002060009054906101000a900473ffffffffffffffffffffffffffffffffffffffff16610e36600160ff16600260ff166119b990919063ffffffff16565b611ad1565b610e53565b8080610e4b906126ee565b915050610db7565b5060005b8651811015610ef357868181518110610e7357610e7261276b565b5b6020026020010151821415610ee057610edb83836002600086815260200190815260200160002060009054906101000a900473ffffffffffffffffffffffffffffffffffffffff16610ed6600860ff16600160ff166119b990919063ffffffff16565b611ad1565b610ef3565b8080610eeb906126ee565b915050610e57565b5060005b8551811015610f9357858181518110610f1357610f1261276b565b5b6020026020010151821415610f8057610f7b83836002600086815260200190815260200160002060009054906101000a900473ffffffffffffffffffffffffffffffffffffffff16610f76600460ff16600160ff166119b990919063ffffffff16565b611ad1565b610f93565b8080610f8b906126ee565b915050610ef7565b5060005b845181101561103357848181518110610fb357610fb261276b565b5b60200260200101518214156110205761101b83836002600086815260200190815260200160002060009054906101000a900473ffffffffffffffffffffffffffffffffffffffff16611016600260ff16600160ff166119b990919063ffffffff16565b611ad1565b611033565b808061102b906126ee565b915050610f97565b5060005b83518110156110d3578381815181106110535761105261276b565b5b60200260200101518214156110c0576110bb83836002600086815260200190815260200160002060009054906101000a900473ffffffffffffffffffffffffffffffffffffffff166110b6600160ff16600160ff166119b990919063ffffffff16565b611ad1565b6110d3565b80806110cb906126ee565b915050611037565b506111106002600083815260200190815260200160002060009054906101000a900473ffffffffffffffffffffffffffffffffffffffff16611b4f565b5b5b808061111d906126ee565b915050610b33565b50505050505050505050565b6111396119b1565b73ffffffffffffffffffffffffffffffffffffffff166111576111df565b73ffffffffffffffffffffffffffffffffffffffff16146111ad576040517f08c379a00000000000000000000000000000000000000000000000000000000081526004016111a49061260d565b60405180910390fd5b6111b76000611bfa565b565b600660009054906101000a900473ffffffffffffffffffffffffffffffffffffffff1681565b60008060009054906101000a900473ffffffffffffffffffffffffffffffffffffffff16905090565b600080600090506000806301e133808561122291906128d8565b6107b261ffff166112339190612909565b91506112446107b261ffff1661138e565b6112518361ffff1661138e565b61125b9190612737565b9050806301e2850061126d919061295f565b836112789190612909565b9250806107b28361128991906129b9565b61ffff166112979190612737565b6301e133806112a6919061295f565b836112b19190612909565b92505b84831115611314576112d16001836112cc91906129b9565b61131f565b156112ed576301e28500836112e69190612737565b9250611300565b6301e13380836112fd9190612737565b92505b60018261130d91906129b9565b91506112b4565b819350505050919050565b60008060048361132f91906129ed565b61ffff16146113415760009050611389565b600060648361135091906129ed565b61ffff16146113625760019050611389565b60006101908361137291906129ed565b61ffff16146113845760009050611389565b600190505b919050565b600060018261139d9190612737565b9150610190826113ad91906128d8565b6064836113ba91906128d8565b6004846113c791906128d8565b6113d19190612737565b6113db9190612909565b9050919050565b600060018360ff1614806113f9575060038360ff16145b80611407575060058360ff16145b80611415575060078360ff16145b80611423575060088360ff16145b806114315750600a8360ff16145b8061143f5750600c8360ff16145b1561144d57601f90506114a8565b60048360ff161480611462575060068360ff16145b80611470575060098360ff16145b8061147e5750600b8360ff16145b1561148c57601e90506114a8565b6114958261131f565b156114a357601d90506114a8565b601c90505b92915050565b60001515600860009054906101000a900460ff16151514611504576040517f08c379a00000000000000000000000000000000000000000000000000000000081526004016114fb90612a6a565b60405180910390fd5b600660009054906101000a900473ffffffffffffffffffffffffffffffffffffffff1673ffffffffffffffffffffffffffffffffffffffff16636352211e826040518263ffffffff1660e01b815260040161155f9190611f11565b602060405180830381865afa15801561157c573d6000803e3d6000fd5b505050506040513d601f19601f820116820180604052508101906115a09190612a9f565b73ffffffffffffffffffffffffffffffffffffffff163373ffffffffffffffffffffffffffffffffffffffff161461160d576040517f08c379a000000000000000000000000000000000000000000000000000000000815260040161160490612b3e565b60405180910390fd5b600660009054906101000a900473ffffffffffffffffffffffffffffffffffffffff1673ffffffffffffffffffffffffffffffffffffffff166323b872dd3330846040518463ffffffff1660e01b815260040161166c93929190612806565b600060405180830381600087803b15801561168657600080fd5b505af115801561169a573d6000803e3d6000fd5b50505050336002600083815260200190815260200160002060006101000a81548173ffffffffffffffffffffffffffffffffffffffff021916908373ffffffffffffffffffffffffffffffffffffffff16021790555042600160008381526020019081526020016000208190555050565b600860009054906101000a900460ff1681565b6117266119b1565b73ffffffffffffffffffffffffffffffffffffffff166117446111df565b73ffffffffffffffffffffffffffffffffffffffff161461179a576040517f08c379a00000000000000000000000000000000000000000000000000000000081526004016117919061260d565b60405180910390fd5b8060078190555050565b6117ac6119b1565b73ffffffffffffffffffffffffffffffffffffffff166117ca6111df565b73ffffffffffffffffffffffffffffffffffffffff1614611820576040517f08c379a00000000000000000000000000000000000000000000000000000000081526004016118179061260d565b60405180910390fd5b60011515600860009054906101000a900460ff16151514611876576040517f08c379a000000000000000000000000000000000000000000000000000000000815260040161186d90612baa565b60405180910390fd5b6000600860006101000a81548160ff021916908315150217905550565b600560009054906101000a900473ffffffffffffffffffffffffffffffffffffffff1681565b6118c16119b1565b73ffffffffffffffffffffffffffffffffffffffff166118df6111df565b73ffffffffffffffffffffffffffffffffffffffff1614611935576040517f08c379a000000000000000000000000000000000000000000000000000000000815260040161192c9061260d565b60405180910390fd5b600073ffffffffffffffffffffffffffffffffffffffff168173ffffffffffffffffffffffffffffffffffffffff1614156119a5576040517f08c379a000000000000000000000000000000000000000000000000000000000815260040161199c90612c3c565b60405180910390fd5b6119ae81611bfa565b50565b600033905090565b600081836119c7919061295f565b905092915050565b600081836119dd9190612909565b905092915050565b6000816001436119f59190612737565b4060001c611a039190612c5c565b9050919050565b8073ffffffffffffffffffffffffffffffffffffffff166108fc479081150290604051600060405180830381858888f19350505050158015611a50573d6000803e3d6000fd5b5050565b6000804290506000611a6582611cbe565b90506000611a9e826020015160ff16611a906064856000015161ffff166119b990919063ffffffff16565b6119cf90919063ffffffff16565b905060036000828152602001908152602001600020935050505090565b60008183611ac99190612737565b905092915050565b60008460010160008581526020019081526020016000209050828160000160006101000a81548173ffffffffffffffffffffffffffffffffffffffff021916908373ffffffffffffffffffffffffffffffffffffffff16021790555081816001016000828254611b419190612909565b925050819055505050505050565b600560009054906101000a900473ffffffffffffffffffffffffffffffffffffffff1673ffffffffffffffffffffffffffffffffffffffff166340c10f19826012600a611b9c9190612dc0565b6001611ba8919061295f565b6040518363ffffffff1660e01b8152600401611bc5929190612e0b565b600060405180830381600087803b158015611bdf57600080fd5b505af1158015611bf3573d6000803e3d6000fd5b5050505050565b60008060009054906101000a900473ffffffffffffffffffffffffffffffffffffffff169050816000806101000a81548173ffffffffffffffffffffffffffffffffffffffff021916908373ffffffffffffffffffffffffffffffffffffffff1602179055508173ffffffffffffffffffffffffffffffffffffffff168173ffffffffffffffffffffffffffffffffffffffff167f8be0079c531659141344cd1fd0a4f28419497f9722a3daafe3b4186f6b6457e060405160405180910390a35050565b611cc6611e88565b60008080611cd385611208565b846000019061ffff16908161ffff1681525050611cf56107b261ffff1661138e565b611d06856000015161ffff1661138e565b611d109190612737565b9150816301e28500611d22919061295f565b83611d2d9190612909565b9250816107b28560000151611d4291906129b9565b61ffff16611d509190612737565b6301e13380611d5f919061295f565b83611d6a9190612909565b92506000600191505b600c8260ff1611611dea57611d8c8286600001516113e2565b60ff1662015180611d9d919061295f565b9050858482611dac9190612909565b1115611dc95781856020019060ff16908160ff1681525050611dea565b8084611dd59190612909565b93508180611de290612e34565b925050611d73565b600191505b611e01856020015186600001516113e2565b60ff168260ff1611611e5e57858462015180611e1d9190612909565b1115611e3a5781856040019060ff16908160ff1681525050611e5e565b6201518084611e499190612909565b93508180611e5690612e34565b925050611def565b50505050919050565b5080546000825590600052602060002090810190611e859190611edb565b50565b6040518060e00160405280600061ffff168152602001600060ff168152602001600060ff168152602001600060ff168152602001600060ff168152602001600060ff168152602001600060ff1681525090565b5b80821115611ef4576000816000905550600101611edc565b5090565b6000819050919050565b611f0b81611ef8565b82525050565b6000602082019050611f266000830184611f02565b92915050565b6000604051905090565b600080fd5b600080fd5b600060ff82169050919050565b611f5681611f40565b8114611f6157600080fd5b50565b600081359050611f7381611f4d565b92915050565b600061ffff82169050919050565b611f9081611f79565b8114611f9b57600080fd5b50565b600081359050611fad81611f87565b92915050565b60008060408385031215611fca57611fc9611f36565b5b6000611fd885828601611f64565b9250506020611fe985828601611f9e565b9150509250929050565b600073ffffffffffffffffffffffffffffffffffffffff82169050919050565b600061201e82611ff3565b9050919050565b61202e81612013565b82525050565b60006020820190506120496000830184612025565b92915050565b61205881612013565b811461206357600080fd5b50565b6000813590506120758161204f565b92915050565b61208481611ef8565b811461208f57600080fd5b50565b6000813590506120a18161207b565b92915050565b6000806000606084860312156120c0576120bf611f36565b5b60006120ce86828701612066565b93505060206120df86828701612066565b92505060406120f086828701612092565b9150509250925092565b6000602082840312156121105761210f611f36565b5b600061211e84828501612092565b91505092915050565b600080fd5b6000601f19601f8301169050919050565b7f4e487b7100000000000000000000000000000000000000000000000000000000600052604160045260246000fd5b6121758261212c565b810181811067ffffffffffffffff821117156121945761219361213d565b5b80604052505050565b60006121a7611f2c565b90506121b3828261216c565b919050565b600067ffffffffffffffff8211156121d3576121d261213d565b5b602082029050602081019050919050565b600080fd5b60006121fc6121f7846121b8565b61219d565b9050808382526020820190506020840283018581111561221f5761221e6121e4565b5b835b8181101561224857806122348882612092565b845260208401935050602081019050612221565b5050509392505050565b600082601f83011261226757612266612127565b5b81356122778482602086016121e9565b91505092915050565b600080600080600080600080610100898b0312156122a1576122a0611f36565b5b600089013567ffffffffffffffff8111156122bf576122be611f3b565b5b6122cb8b828c01612252565b985050602089013567ffffffffffffffff8111156122ec576122eb611f3b565b5b6122f88b828c01612252565b975050604089013567ffffffffffffffff81111561231957612318611f3b565b5b6123258b828c01612252565b965050606089013567ffffffffffffffff81111561234657612345611f3b565b5b6123528b828c01612252565b955050608089013567ffffffffffffffff81111561237357612372611f3b565b5b61237f8b828c01612252565b94505060a089013567ffffffffffffffff8111156123a05761239f611f3b565b5b6123ac8b828c01612252565b93505060c089013567ffffffffffffffff8111156123cd576123cc611f3b565b5b6123d98b828c01612252565b92505060e089013567ffffffffffffffff8111156123fa576123f9611f3b565b5b6124068b828c01612252565b9150509295985092959890939650565b6000819050919050565b600061243b61243661243184611ff3565b612416565b611ff3565b9050919050565b600061244d82612420565b9050919050565b600061245f82612442565b9050919050565b61246f81612454565b82525050565b600060208201905061248a6000830184612466565b92915050565b61249981611f79565b82525050565b60006020820190506124b46000830184612490565b92915050565b6000602082840312156124d0576124cf611f36565b5b60006124de84828501611f9e565b91505092915050565b60008115159050919050565b6124fc816124e7565b82525050565b600060208201905061251760008301846124f3565b92915050565b61252681611f40565b82525050565b6000602082019050612541600083018461251d565b92915050565b600061255282612442565b9050919050565b61256281612547565b82525050565b600060208201905061257d6000830184612559565b92915050565b60006020828403121561259957612598611f36565b5b60006125a784828501612066565b91505092915050565b600082825260208201905092915050565b7f4f776e61626c653a2063616c6c6572206973206e6f7420746865206f776e6572600082015250565b60006125f76020836125b0565b9150612602826125c1565b602082019050919050565b60006020820190508181036000830152612626816125ea565b9050919050565b7f54686973206c6f74746572792068617320616c7265616479206265656e20647260008201527f61776e0000000000000000000000000000000000000000000000000000000000602082015250565b60006126896023836125b0565b91506126948261262d565b604082019050919050565b600060208201905081810360008301526126b88161267c565b9050919050565b7f4e487b7100000000000000000000000000000000000000000000000000000000600052601160045260246000fd5b60006126f982611ef8565b91507fffffffffffffffffffffffffffffffffffffffffffffffffffffffffffffffff82141561272c5761272b6126bf565b5b600182019050919050565b600061274282611ef8565b915061274d83611ef8565b9250828210156127605761275f6126bf565b5b828203905092915050565b7f4e487b7100000000000000000000000000000000000000000000000000000000600052603260045260246000fd5b7f596f7520646964206e6f74207374616b65207468697320746f6b656e00000000600082015250565b60006127d0601c836125b0565b91506127db8261279a565b602082019050919050565b600060208201905081810360008301526127ff816127c3565b9050919050565b600060608201905061281b6000830186612025565b6128286020830185612025565b6128356040830184611f02565b949350505050565b7f5374616b696e6720697320616c72656164792070617573656400000000000000600082015250565b60006128736019836125b0565b915061287e8261283d565b602082019050919050565b600060208201905081810360008301526128a281612866565b9050919050565b7f4e487b7100000000000000000000000000000000000000000000000000000000600052601260045260246000fd5b60006128e382611ef8565b91506128ee83611ef8565b9250826128fe576128fd6128a9565b5b828204905092915050565b600061291482611ef8565b915061291f83611ef8565b9250827fffffffffffffffffffffffffffffffffffffffffffffffffffffffffffffffff03821115612954576129536126bf565b5b828201905092915050565b600061296a82611ef8565b915061297583611ef8565b9250817fffffffffffffffffffffffffffffffffffffffffffffffffffffffffffffffff04831182151516156129ae576129ad6126bf565b5b828202905092915050565b60006129c482611f79565b91506129cf83611f79565b9250828210156129e2576129e16126bf565b5b828203905092915050565b60006129f882611f79565b9150612a0383611f79565b925082612a1357612a126128a9565b5b828206905092915050565b7f5374616b696e672069732063757272656e746c79207061757365640000000000600082015250565b6000612a54601b836125b0565b9150612a5f82612a1e565b602082019050919050565b60006020820190508181036000830152612a8381612a47565b9050919050565b600081519050612a998161204f565b92915050565b600060208284031215612ab557612ab4611f36565b5b6000612ac384828501612a8a565b91505092915050565b7f596f7520617265206e6f7420746865206f776e6572206f66207468697320746f60008201527f6b656e0000000000000000000000000000000000000000000000000000000000602082015250565b6000612b286023836125b0565b9150612b3382612acc565b604082019050919050565b60006020820190508181036000830152612b5781612b1b565b9050919050565b7f5374616b696e672068617320616c726561647920737461727465640000000000600082015250565b6000612b94601b836125b0565b9150612b9f82612b5e565b602082019050919050565b60006020820190508181036000830152612bc381612b87565b9050919050565b7f4f776e61626c653a206e6577206f776e657220697320746865207a65726f206160008201527f6464726573730000000000000000000000000000000000000000000000000000602082015250565b6000612c266026836125b0565b9150612c3182612bca565b604082019050919050565b60006020820190508181036000830152612c5581612c19565b9050919050565b6000612c6782611ef8565b9150612c7283611ef8565b925082612c8257612c816128a9565b5b828206905092915050565b60008160011c9050919050565b6000808291508390505b6001851115612ce457808604811115612cc057612cbf6126bf565b5b6001851615612ccf5780820291505b8081029050612cdd85612c8d565b9450612ca4565b94509492505050565b600082612cfd5760019050612db9565b81612d0b5760009050612db9565b8160018114612d215760028114612d2b57612d5a565b6001915050612db9565b60ff841115612d3d57612d3c6126bf565b5b8360020a915084821115612d5457612d536126bf565b5b50612db9565b5060208310610133831016604e8410600b8410161715612d8f5782820a905083811115612d8a57612d896126bf565b5b612db9565b612d9c8484846001612c9a565b92509050818404811115612db357612db26126bf565b5b81810290505b9392505050565b6000612dcb82611ef8565b9150612dd683611f40565b9250612e037fffffffffffffffffffffffffffffffffffffffffffffffffffffffffffffffff8484612ced565b905092915050565b6000604082019050612e206000830185612025565b612e2d6020830184611f02565b9392505050565b6000612e3f82611f40565b915060ff821415612e5357612e526126bf565b5b60018201905091905056fea2646970667358221220fa0614b4e38022a3a1c7cf08e22b340ef151f12c253996e679f93be3658769ca64736f6c634300080a0033",
  "immutableReferences": {},
  "source": "// SPDX-License-Identifier: MIT\npragma solidity ^0.8.2;\n\nimport \"@openzeppelin/contracts/token/ERC20/IERC20.sol\";\nimport \"@openzeppelin/contracts/token/ERC721/IERC721Receiver.sol\";\nimport \"@openzeppelin/contracts/token/ERC721/IERC721.sol\";\nimport \"@openzeppelin/contracts/access/Ownable.sol\";\nimport \"@openzeppelin/contracts/utils/math/safemath.sol\";\n\ninterface IFungibleToken is IERC20 {\n    function mint(address to, uint256 amount) external;\n}\n\ncontract LotteryStake is Ownable {\n    \n    using SafeMath for uint8;\n    using SafeMath for uint16;\n    using SafeMath for uint256;\n\n    struct _DateTime {\n        uint16 year;\n        uint8 month;\n        uint8 day;\n        uint8 hour;\n        uint8 minute;\n        uint8 second;\n        uint8 weekday;\n    }\n\n    struct Token {\n        address owner;\n        uint points;\n    }\n\n    struct Lottery {\n        bool drawExecuted;\n        address drawWinner;\n        uint8 month;\n        uint16 year;\n        mapping(uint => Token) stakedTokens; \n    }\n    \n    mapping (uint => uint) checkpoints;     //tokenId => timestamp\n    mapping (uint => address) deposits;     //tokenId => address\n    mapping (uint => Lottery) lotteries;\n    \n    address[] tickets;\n\n    IFungibleToken public fungibleToken;\n    IERC721 public nonFungibleToken;\n    uint public nftSupply;\n    bool public stakingPaused;\n\n    uint constant DAY_IN_SECONDS = 86400;\n    uint constant DAILY_TOKEN_REWARD = 1;\n    uint8 constant E1_MULTIPLIER = 2;\n    uint8 constant E2_MULTIPLIER = 1;\n    uint constant LEAP_YEAR_IN_SECONDS = 31622400;\n    uint16 constant ORIGIN_YEAR = 1970;\n    uint8 constant S1 = 1;\n    uint8 constant S2 = 2;\n    uint8 constant S3 = 4;\n    uint8 constant S4 = 8;\n    uint constant YEAR_IN_SECONDS = 31536000;\n    \n    function initialize(\n        address _fungibleToken,\n        address _nonFungibleToken,\n        uint _nftSupply\n    ) onlyOwner external   \n    {\n        fungibleToken = IFungibleToken(_fungibleToken);\n        nonFungibleToken = IERC721(_nonFungibleToken);\n        nftSupply = _nftSupply;\n        stakingPaused = true;\n    }\n\n    function awardPoints(Lottery storage lt, uint tokenId, address recipient, uint256 points) internal {\n        Token storage token = lt.stakedTokens[tokenId];\n        token.owner = recipient;\n        token.points += points;\n    }\n\n    function awardToken(address recipient) internal {\n        fungibleToken.mint(recipient, DAILY_TOKEN_REWARD * (uint256(10) ** 18));\n    }\n\n    function currentLottery() internal view returns (Lottery storage lt) {\n        uint time = block.timestamp;\n        _DateTime memory dt = parseTimestamp(time);\n\n        uint index = dt.year.mul(100).add(dt.month);\n\n        lt = lotteries[index];\n        \n        return lt;\n    }\n\n    function changeNftSupply(uint supply) external onlyOwner {\n        nftSupply = supply;\n    }\n\n    function deposit(uint tokenId) external {\n        require(stakingPaused == false, \"Staking is currently paused\");\n        require(msg.sender == nonFungibleToken.ownerOf(tokenId), \"You are not the owner of this token\");\n        nonFungibleToken.transferFrom(msg.sender, address(this), tokenId);\n        deposits[tokenId] = msg.sender;\n        checkpoints[tokenId] = block.timestamp;\n    }\n\n    function getDaysInMonth(uint8 month, uint16 year) public pure returns (uint8) {\n        if (month == 1 || month == 3 || month == 5 || month == 7 || month == 8 || month == 10 || month == 12) {\n            return 31;\n        }\n        else if (month == 4 || month == 6 || month == 9 || month == 11) {\n            return 30;\n        }\n        else if (isLeapYear(year)) {\n            return 29;\n        }\n        else {\n            return 28;\n        }\n    }\n\n    function getYear(uint timestamp) public pure returns (uint16) {\n        uint secondsAccountedFor = 0;\n        uint16 year;\n        uint numLeapYears;\n\n        // Year\n        year = uint16(ORIGIN_YEAR + timestamp / YEAR_IN_SECONDS);\n        numLeapYears = leapYearsBefore(year) - leapYearsBefore(ORIGIN_YEAR);\n\n        secondsAccountedFor += LEAP_YEAR_IN_SECONDS * numLeapYears;\n        secondsAccountedFor += YEAR_IN_SECONDS * (year - ORIGIN_YEAR - numLeapYears);\n\n        while (secondsAccountedFor > timestamp) {\n            if (isLeapYear(uint16(year - 1))) {\n                secondsAccountedFor -= LEAP_YEAR_IN_SECONDS;\n            }\n            else {\n                secondsAccountedFor -= YEAR_IN_SECONDS;\n            }\n            year -= 1;\n        }\n        return year;\n    }\n\n    function isLeapYear(uint16 year) public pure returns (bool) {\n        if (year % 4 != 0) {\n                return false;\n        }\n        if (year % 100 != 0) {\n                return true;\n        }\n        if (year % 400 != 0) {\n                return false;\n        }\n        return true;\n    }\n\n    function leapYearsBefore(uint year) public pure returns (uint) {\n        year -= 1;\n        return year / 4 - year / 100 + year / 400;\n    }\n\n    function parseTimestamp(uint timestamp) internal pure returns (_DateTime memory dt) {\n        uint secondsAccountedFor = 0;\n        uint buf;\n        uint8 i;\n\n        // Year\n        dt.year = getYear(timestamp);\n        buf = leapYearsBefore(dt.year) - leapYearsBefore(ORIGIN_YEAR);\n\n        secondsAccountedFor += LEAP_YEAR_IN_SECONDS * buf;\n        secondsAccountedFor += YEAR_IN_SECONDS * (dt.year - ORIGIN_YEAR - buf);\n\n        // Month\n        uint secondsInMonth;\n        for (i = 1; i <= 12; i++) {\n            secondsInMonth = DAY_IN_SECONDS * getDaysInMonth(i, dt.year);\n            if (secondsInMonth + secondsAccountedFor > timestamp) {\n                dt.month = i;\n                break;\n            }\n            secondsAccountedFor += secondsInMonth;\n        }\n\n        // Day\n        for (i = 1; i <= getDaysInMonth(dt.month, dt.year); i++) {\n            if (DAY_IN_SECONDS + secondsAccountedFor > timestamp) {\n                dt.day = i;\n                break;\n            }\n            secondsAccountedFor += DAY_IN_SECONDS;\n        }\n    }\n\n    function payContractBalance(address payable winner) internal {\n        winner.transfer(address(this).balance);\n    }\n\n    function random(uint max) internal view returns (uint) {\n        return uint(blockhash(block.number - 1)) % max;\n    }\n\n    function randomDraw(uint8 month, uint16 year) external onlyOwner returns (address) {\n        uint index = year.mul(100).add(month);\n        Lottery storage lt = lotteries[index];\n        require(!lt.drawExecuted, \"This lottery has already been drawn\");\n        delete tickets;\n\n        for (uint x = 0; x < nftSupply; x++) {\n            if (deposits[x] != address(0)) {\n                Token storage tok = lt.stakedTokens[x];\n                for (uint y = 0; y < tok.points; y++) {\n                    tickets.push(tok.owner);\n                }\n            }\n        }\n\n        uint selectedNumber = random(tickets.length - 1);\n\n        lt.drawExecuted = true;\n        lt.drawWinner = tickets[selectedNumber];\n\n        delete tickets;\n\n        //pay the winner\n        payContractBalance(payable(lt.drawWinner));\n\n        return lt.drawWinner;\n    }\n\n    function reward(\n        uint[] memory s4e1, \n        uint[] memory s3e1, \n        uint[] memory s2e1,\n        uint[] memory s1e1,\n        uint[] memory s4e2, \n        uint[] memory s3e2, \n        uint[] memory s2e2,\n        uint[] memory s1e2\n    ) external onlyOwner {\n        Lottery storage lt = currentLottery();\n        \n        for (uint x = 0; x < nftSupply; x++) {\n            if (deposits[x] != address(0)) {\n                \n                //confirm that staked longer than a day\n                if (checkpoints[x] < block.timestamp.sub(DAY_IN_SECONDS)) {\n\n                    //4 star - edition 1\n                    for (uint s = 0; s < s4e1.length; s++) {\n                        if (x == s4e1[s]) {\n                            awardPoints(lt, x, deposits[x], E1_MULTIPLIER.mul(S4));\n                            break;\n                        }\n                    }\n\n                    //3 star - edition 1\n                    for (uint s = 0; s < s3e1.length; s++) {\n                        if (x == s3e1[s]) {\n                            awardPoints(lt, x, deposits[x], E1_MULTIPLIER.mul(S3));\n                            break;\n                        }\n                    }\n\n                    //2 star - edition 1\n                    for (uint s = 0; s < s2e1.length; s++) {\n                        if (x == s2e1[s]) {\n                            awardPoints(lt, x, deposits[x], E1_MULTIPLIER.mul(S2));\n                            break;\n                        }\n                    }\n\n                    //1 star - edition 1\n                    for (uint s = 0; s < s1e1.length; s++) {\n                        if (x == s1e1[s]) {\n                            awardPoints(lt, x, deposits[x], E1_MULTIPLIER.mul(S1));\n                            break;\n                        }\n                    }\n\n                    //4 star - edition 2\n                    for (uint s = 0; s < s4e2.length; s++) {\n                        if (x == s4e2[s]) {\n                            awardPoints(lt, x, deposits[x], E2_MULTIPLIER.mul(S4));\n                            break;\n                        }\n                    }\n\n                    //3 star - edition 2\n                    for (uint s = 0; s < s3e2.length; s++) {\n                        if (x == s3e2[s]) {\n                            awardPoints(lt, x, deposits[x], E2_MULTIPLIER.mul(S3));\n                            break;\n                        }\n                    }\n\n                    //2 star - edition 2\n                    for (uint s = 0; s < s2e2.length; s++) {\n                        if (x == s2e2[s]) {\n                            awardPoints(lt, x, deposits[x], E2_MULTIPLIER.mul(S2));\n                            break;\n                        }\n                    }\n\n                    //1 star - edition 2\n                    for (uint s = 0; s < s1e2.length; s++) {\n                        if (x == s1e2[s]) {\n                            awardPoints(lt, x, deposits[x], E2_MULTIPLIER.mul(S1));\n                            break;\n                        }\n                    }\n\n                    awardToken(deposits[x]);\n                }\n            }\n        }\n    }\n\n    function stakingPause() external onlyOwner {\n        require(stakingPaused == false, \"Staking is already paused\");\n        stakingPaused = true;\n    }\n\n    function stakingStart() external onlyOwner {\n        require(stakingPaused == true, \"Staking has already started\");\n        stakingPaused = false;\n    }\n\n    function withdraw(uint tokenId) external {\n        require(deposits[tokenId] == msg.sender, \"You did not stake this token\");\n        nonFungibleToken.transferFrom(address(this), msg.sender, tokenId);\n        delete deposits[tokenId];\n        delete checkpoints[tokenId];\n    }\n}",
  "sourcePath": "/Users/warrenschwartz/Projects/MintedHistory_Lottery/lottery/contracts/LotteryStake.sol",
  "compiler": {
    "name": "solc",
    "version": "0.8.10+commit.fc410830.Emscripten.clang"
  },
  "schemaVersion": "3.4.3",
  "updatedAt": "2022-01-06T08:09:21.300Z",
  "devdoc": {
    "kind": "dev",
    "methods": {
      "owner()": {
        "details": "Returns the address of the current owner."
      },
      "renounceOwnership()": {
        "details": "Leaves the contract without owner. It will not be possible to call `onlyOwner` functions anymore. Can only be called by the current owner. NOTE: Renouncing ownership will leave the contract without an owner, thereby removing any functionality that is only available to the owner."
      },
      "transferOwnership(address)": {
        "details": "Transfers ownership of the contract to a new account (`newOwner`). Can only be called by the current owner."
      }
    },
    "version": 1
  },
  "userdoc": {
    "kind": "user",
    "methods": {},
    "version": 1
  }
}