{
  "contractName": "LotteryStake",
  "abi": [
    {
      "anonymous": false,
      "inputs": [
        {
          "indexed": true,
          "internalType": "address",
          "name": "previousOwner",
          "type": "address"
        },
        {
          "indexed": true,
          "internalType": "address",
          "name": "newOwner",
          "type": "address"
        }
      ],
      "name": "OwnershipTransferred",
      "type": "event"
    },
    {
      "inputs": [
        {
          "internalType": "uint256",
          "name": "",
          "type": "uint256"
        }
      ],
      "name": "checkpoints",
      "outputs": [
        {
          "internalType": "uint256",
          "name": "",
          "type": "uint256"
        }
      ],
      "stateMutability": "view",
      "type": "function"
    },
    {
      "inputs": [
        {
          "internalType": "uint256",
          "name": "",
          "type": "uint256"
        }
      ],
      "name": "deposits",
      "outputs": [
        {
          "internalType": "address",
          "name": "",
          "type": "address"
        }
      ],
      "stateMutability": "view",
      "type": "function"
    },
    {
      "inputs": [],
      "name": "fungibleToken",
      "outputs": [
        {
          "internalType": "contract IFungibleToken",
          "name": "",
          "type": "address"
        }
      ],
      "stateMutability": "view",
      "type": "function"
    },
    {
      "inputs": [
        {
          "internalType": "uint256",
          "name": "",
          "type": "uint256"
        }
      ],
      "name": "lotteries",
      "outputs": [
        {
          "internalType": "bool",
          "name": "drawExecuted",
          "type": "bool"
        },
        {
          "internalType": "address",
          "name": "drawWinner",
          "type": "address"
        },
        {
          "internalType": "uint8",
          "name": "month",
          "type": "uint8"
        },
        {
          "internalType": "uint16",
          "name": "year",
          "type": "uint16"
        }
      ],
      "stateMutability": "view",
      "type": "function"
    },
    {
      "inputs": [
        {
          "internalType": "uint256",
          "name": "",
          "type": "uint256"
        }
      ],
      "name": "lotteryPoints",
      "outputs": [
        {
          "internalType": "uint8",
          "name": "month",
          "type": "uint8"
        },
        {
          "internalType": "address",
          "name": "participant",
          "type": "address"
        },
        {
          "internalType": "uint256",
          "name": "points",
          "type": "uint256"
        },
        {
          "internalType": "uint16",
          "name": "year",
          "type": "uint16"
        }
      ],
      "stateMutability": "view",
      "type": "function"
    },
    {
      "inputs": [],
      "name": "nftSupply",
      "outputs": [
        {
          "internalType": "uint256",
          "name": "",
          "type": "uint256"
        }
      ],
      "stateMutability": "view",
      "type": "function"
    },
    {
      "inputs": [],
      "name": "nonFungibleToken",
      "outputs": [
        {
          "internalType": "contract IERC721",
          "name": "",
          "type": "address"
        }
      ],
      "stateMutability": "view",
      "type": "function"
    },
    {
      "inputs": [],
      "name": "owner",
      "outputs": [
        {
          "internalType": "address",
          "name": "",
          "type": "address"
        }
      ],
      "stateMutability": "view",
      "type": "function"
    },
    {
      "inputs": [],
      "name": "renounceOwnership",
      "outputs": [],
      "stateMutability": "nonpayable",
      "type": "function"
    },
    {
      "inputs": [],
      "name": "secondsBeforeEarning",
      "outputs": [
        {
          "internalType": "uint256",
          "name": "",
          "type": "uint256"
        }
      ],
      "stateMutability": "view",
      "type": "function"
    },
    {
      "inputs": [],
      "name": "stakedTokens",
      "outputs": [
        {
          "internalType": "uint256",
          "name": "",
          "type": "uint256"
        }
      ],
      "stateMutability": "view",
      "type": "function"
    },
    {
      "inputs": [],
      "name": "stakingPaused",
      "outputs": [
        {
          "internalType": "bool",
          "name": "",
          "type": "bool"
        }
      ],
      "stateMutability": "view",
      "type": "function"
    },
    {
      "inputs": [
        {
          "internalType": "address",
          "name": "newOwner",
          "type": "address"
        }
      ],
      "name": "transferOwnership",
      "outputs": [],
      "stateMutability": "nonpayable",
      "type": "function"
    },
    {
      "inputs": [
        {
          "internalType": "address",
          "name": "_fungibleToken",
          "type": "address"
        },
        {
          "internalType": "address",
          "name": "_nonFungibleToken",
          "type": "address"
        },
        {
          "internalType": "uint256",
          "name": "_nftSupply",
          "type": "uint256"
        },
        {
          "internalType": "uint256",
          "name": "_secondsBeforeEarning",
          "type": "uint256"
        }
      ],
      "name": "initialize",
      "outputs": [],
      "stateMutability": "nonpayable",
      "type": "function"
    },
    {
      "inputs": [
        {
          "internalType": "address",
          "name": "recipient",
          "type": "address"
        },
        {
          "internalType": "uint256",
          "name": "points",
          "type": "uint256"
        }
      ],
      "name": "bonusPoints",
      "outputs": [],
      "stateMutability": "nonpayable",
      "type": "function"
    },
    {
      "inputs": [
        {
          "internalType": "uint256",
          "name": "supply",
          "type": "uint256"
        }
      ],
      "name": "changeNftSupply",
      "outputs": [],
      "stateMutability": "nonpayable",
      "type": "function"
    },
    {
      "inputs": [
        {
          "internalType": "uint256",
          "name": "tokenId",
          "type": "uint256"
        }
      ],
      "name": "deposit",
      "outputs": [],
      "stateMutability": "nonpayable",
      "type": "function"
    },
    {
      "inputs": [],
      "name": "fundLottery",
      "outputs": [],
      "stateMutability": "payable",
      "type": "function"
    },
    {
      "inputs": [
        {
          "internalType": "uint8",
          "name": "month",
          "type": "uint8"
        },
        {
          "internalType": "uint16",
          "name": "year",
          "type": "uint16"
        }
      ],
      "name": "getDaysInMonth",
      "outputs": [
        {
          "internalType": "uint8",
          "name": "",
          "type": "uint8"
        }
      ],
      "stateMutability": "pure",
      "type": "function"
    },
    {
      "inputs": [
        {
          "internalType": "uint16",
          "name": "year",
          "type": "uint16"
        },
        {
          "internalType": "uint8",
          "name": "month",
          "type": "uint8"
        }
      ],
      "name": "getLotteryPoints",
      "outputs": [
        {
          "components": [
            {
              "internalType": "uint8",
              "name": "month",
              "type": "uint8"
            },
            {
              "internalType": "address",
              "name": "participant",
              "type": "address"
            },
            {
              "internalType": "uint256",
              "name": "points",
              "type": "uint256"
            },
            {
              "internalType": "uint16",
              "name": "year",
              "type": "uint16"
            }
          ],
          "internalType": "struct LotteryStake.Points[]",
          "name": "",
          "type": "tuple[]"
        }
      ],
      "stateMutability": "view",
      "type": "function"
    },
    {
      "inputs": [
        {
          "internalType": "uint256",
          "name": "timestamp",
          "type": "uint256"
        }
      ],
      "name": "getYear",
      "outputs": [
        {
          "internalType": "uint16",
          "name": "",
          "type": "uint16"
        }
      ],
      "stateMutability": "pure",
      "type": "function"
    },
    {
      "inputs": [
        {
          "internalType": "uint16",
          "name": "year",
          "type": "uint16"
        }
      ],
      "name": "isLeapYear",
      "outputs": [
        {
          "internalType": "bool",
          "name": "",
          "type": "bool"
        }
      ],
      "stateMutability": "pure",
      "type": "function"
    },
    {
      "inputs": [
        {
          "internalType": "uint256",
          "name": "year",
          "type": "uint256"
        }
      ],
      "name": "leapYearsBefore",
      "outputs": [
        {
          "internalType": "uint256",
          "name": "",
          "type": "uint256"
        }
      ],
      "stateMutability": "pure",
      "type": "function"
    },
    {
      "inputs": [
        {
          "internalType": "uint256",
          "name": "max",
          "type": "uint256"
        }
      ],
      "name": "random",
      "outputs": [
        {
          "internalType": "uint256",
          "name": "",
          "type": "uint256"
        }
      ],
      "stateMutability": "view",
      "type": "function"
    },
    {
      "inputs": [
        {
          "internalType": "uint8",
          "name": "month",
          "type": "uint8"
        },
        {
          "internalType": "uint16",
          "name": "year",
          "type": "uint16"
        }
      ],
      "name": "randomDraw",
      "outputs": [
        {
          "internalType": "address",
          "name": "",
          "type": "address"
        }
      ],
      "stateMutability": "nonpayable",
      "type": "function"
    },
    {
      "inputs": [
        {
          "internalType": "uint256[]",
          "name": "s4e1",
          "type": "uint256[]"
        },
        {
          "internalType": "uint256[]",
          "name": "s3e1",
          "type": "uint256[]"
        },
        {
          "internalType": "uint256[]",
          "name": "s2e1",
          "type": "uint256[]"
        },
        {
          "internalType": "uint256[]",
          "name": "s1e1",
          "type": "uint256[]"
        },
        {
          "internalType": "uint256[]",
          "name": "s4e2",
          "type": "uint256[]"
        },
        {
          "internalType": "uint256[]",
          "name": "s3e2",
          "type": "uint256[]"
        },
        {
          "internalType": "uint256[]",
          "name": "s2e2",
          "type": "uint256[]"
        },
        {
          "internalType": "uint256[]",
          "name": "s1e2",
          "type": "uint256[]"
        }
      ],
      "name": "reward",
      "outputs": [],
      "stateMutability": "nonpayable",
      "type": "function"
    },
    {
      "inputs": [],
      "name": "stakingPause",
      "outputs": [],
      "stateMutability": "nonpayable",
      "type": "function"
    },
    {
      "inputs": [],
      "name": "stakingStart",
      "outputs": [],
      "stateMutability": "nonpayable",
      "type": "function"
    },
    {
      "inputs": [
        {
          "internalType": "address",
          "name": "staker",
          "type": "address"
        }
      ],
      "name": "tokensStaked",
      "outputs": [
        {
          "internalType": "uint256[]",
          "name": "",
          "type": "uint256[]"
        }
      ],
      "stateMutability": "view",
      "type": "function"
    },
    {
      "inputs": [
        {
          "internalType": "uint256",
          "name": "tokenId",
          "type": "uint256"
        }
      ],
      "name": "withdraw",
      "outputs": [],
      "stateMutability": "nonpayable",
      "type": "function"
    }
  ],
  "bytecode": "0x60806040523480156200001157600080fd5b5062000032620000266200003860201b60201c565b6200004060201b60201c565b62000104565b600033905090565b60008060009054906101000a900473ffffffffffffffffffffffffffffffffffffffff169050816000806101000a81548173ffffffffffffffffffffffffffffffffffffffff021916908373ffffffffffffffffffffffffffffffffffffffff1602179055508173ffffffffffffffffffffffffffffffffffffffff168173ffffffffffffffffffffffffffffffffffffffff167f8be0079c531659141344cd1fd0a4f28419497f9722a3daafe3b4186f6b6457e060405160405180910390a35050565b613f0980620001146000396000f3fe6080604052600436106101cd5760003560e01c8063b1999937116100f7578063b8a66f6d11610095578063d771b0a611610064578063d771b0a6146106bb578063e5873ec2146106d2578063eb990c59146106fd578063f2fde38b14610726576101cd565b8063b8a66f6d146105fc578063bbb781cc1461063c578063cb62900914610667578063d318f51014610692576101cd565b8063b6b55f25116100d1578063b6b55f2514610530578063b8221e9814610559578063b863bd3714610582578063b8a24252146105bf576101cd565b8063b1999937146104ac578063b238ad0e146104e9578063b5cc453914610526576101cd565b806355455df21161016f5780638da5cb5b1161013e5780638da5cb5b146103ca57806392d66313146103f5578063a6f0e57714610432578063b02c43d01461046f576101cd565b806355455df214610348578063627916451461035f578063715018a6146103885780637ac27d191461039f576101cd565b80632cf01b55116101ab5780632cf01b551461027a5780632e1a7d4d146102b75780633ea88897146102e0578063403b98b21461030b576101cd565b806301790e01146101d257806306947d76146101fd5780631398e0761461023a575b600080fd5b3480156101de57600080fd5b506101e761074f565b6040516101f49190612c0b565b60405180910390f35b34801561020957600080fd5b50610224600480360381019061021f9190612cad565b610755565b6040516102319190612d2e565b60405180910390f35b34801561024657600080fd5b50610261600480360381019061025c9190612d75565b610b39565b6040516102719493929190612ddb565b60405180910390f35b34801561028657600080fd5b506102a1600480360381019061029c9190612e4c565b610bb1565b6040516102ae9190612f37565b60405180910390f35b3480156102c357600080fd5b506102de60048036038101906102d99190612d75565b610cca565b005b3480156102ec57600080fd5b506102f5610e64565b6040516103029190612c0b565b60405180910390f35b34801561031757600080fd5b50610332600480360381019061032d9190612f59565b610e6a565b60405161033f91906130ca565b60405180910390f35b34801561035457600080fd5b5061035d61112c565b005b34801561036b57600080fd5b5061038660048036038101906103819190613245565b61121b565b005b34801561039457600080fd5b5061039d611a0f565b005b3480156103ab57600080fd5b506103b4611a97565b6040516103c1919061343a565b60405180910390f35b3480156103d657600080fd5b506103df611abd565b6040516103ec9190612d2e565b60405180910390f35b34801561040157600080fd5b5061041c60048036038101906104179190612d75565b611ae6565b6040516104299190613455565b60405180910390f35b34801561043e57600080fd5b5061045960048036038101906104549190613470565b611bfd565b604051610466919061349d565b60405180910390f35b34801561047b57600080fd5b5061049660048036038101906104919190612d75565b611c6c565b6040516104a39190612d2e565b60405180910390f35b3480156104b857600080fd5b506104d360048036038101906104ce9190612d75565b611c9f565b6040516104e09190612c0b565b60405180910390f35b3480156104f557600080fd5b50610510600480360381019061050b9190612cad565b611cf3565b60405161051d91906134b8565b60405180910390f35b61052e611dbf565b005b34801561053c57600080fd5b5061055760048036038101906105529190612d75565b611dc1565b005b34801561056557600080fd5b50610580600480360381019061057b91906134d3565b612036565b005b34801561058e57600080fd5b506105a960048036038101906105a49190612d75565b6120ce565b6040516105b69190612c0b565b60405180910390f35b3480156105cb57600080fd5b506105e660048036038101906105e19190612d75565b6120f3565b6040516105f39190612c0b565b60405180910390f35b34801561060857600080fd5b50610623600480360381019061061e9190612d75565b61210b565b6040516106339493929190613513565b60405180910390f35b34801561064857600080fd5b50610651612186565b60405161065e919061349d565b60405180910390f35b34801561067357600080fd5b5061067c612199565b6040516106899190612c0b565b60405180910390f35b34801561069e57600080fd5b506106b960048036038101906106b49190612d75565b61219f565b005b3480156106c757600080fd5b506106d0612225565b005b3480156106de57600080fd5b506106e7612314565b6040516106f49190613579565b60405180910390f35b34801561070957600080fd5b50610724600480360381019061071f9190613594565b61233a565b005b34801561073257600080fd5b5061074d60048036038101906107489190612e4c565b612467565b005b60085481565b600061075f61255f565b73ffffffffffffffffffffffffffffffffffffffff1661077d611abd565b73ffffffffffffffffffffffffffffffffffffffff16146107d3576040517f08c379a00000000000000000000000000000000000000000000000000000000081526004016107ca90613658565b60405180910390fd5b60006108028460ff166107f460648661ffff1661256790919063ffffffff16565b61257d90919063ffffffff16565b905060006003600083815260200190815260200160002090508060000160009054906101000a900460ff161561086d576040517f08c379a0000000000000000000000000000000000000000000000000000000008152600401610864906136ea565b60405180910390fd5b6005600061087b9190612b1c565b60005b600480549050811015610a11578560ff16600482815481106108a3576108a261370a565b5b906000526020600020906003020160000160009054906101000a900460ff1660ff1614801561090c57508461ffff16600482815481106108e6576108e561370a565b5b906000526020600020906003020160020160009054906101000a900461ffff1661ffff16145b156109fe5760005b600482815481106109285761092761370a565b5b9060005260206000209060030201600101548110156109fc576005600483815481106109575761095661370a565b5b906000526020600020906003020160000160019054906101000a900473ffffffffffffffffffffffffffffffffffffffff169080600181540180825580915050600190039060005260206000200160009091909190916101000a81548173ffffffffffffffffffffffffffffffffffffffff021916908373ffffffffffffffffffffffffffffffffffffffff16021790555080806109f490613768565b915050610914565b505b8080610a0990613768565b91505061087e565b506000610a2e6001600580549050610a2991906137b1565b6120ce565b905060018260000160006101000a81548160ff02191690831515021790555060058181548110610a6157610a6061370a565b5b9060005260206000200160009054906101000a900473ffffffffffffffffffffffffffffffffffffffff168260000160016101000a81548173ffffffffffffffffffffffffffffffffffffffff021916908373ffffffffffffffffffffffffffffffffffffffff16021790555060056000610adc9190612b1c565b610b098260000160019054906101000a900473ffffffffffffffffffffffffffffffffffffffff16612593565b8160000160019054906101000a900473ffffffffffffffffffffffffffffffffffffffff16935050505092915050565b60036020528060005260406000206000915090508060000160009054906101000a900460ff16908060000160019054906101000a900473ffffffffffffffffffffffffffffffffffffffff16908060000160159054906101000a900460ff16908060000160169054906101000a900461ffff16905084565b60606000610bbe836125dd565b67ffffffffffffffff811115610bd757610bd6613102565b5b604051908082528060200260200182016040528015610c055781602001602082028036833780820191505090505b5090506000805b600854811015610cbf578473ffffffffffffffffffffffffffffffffffffffff166002600083815260200190815260200160002060009054906101000a900473ffffffffffffffffffffffffffffffffffffffff1673ffffffffffffffffffffffffffffffffffffffff161415610cac5780838381518110610c9157610c9061370a565b5b6020026020010181815250508180610ca890613768565b9250505b8080610cb790613768565b915050610c0c565b508192505050919050565b3373ffffffffffffffffffffffffffffffffffffffff166002600083815260200190815260200160002060009054906101000a900473ffffffffffffffffffffffffffffffffffffffff1673ffffffffffffffffffffffffffffffffffffffff1614610d6b576040517f08c379a0000000000000000000000000000000000000000000000000000000008152600401610d6290613831565b60405180910390fd5b600760009054906101000a900473ffffffffffffffffffffffffffffffffffffffff1673ffffffffffffffffffffffffffffffffffffffff166323b872dd3033846040518463ffffffff1660e01b8152600401610dca93929190613851565b600060405180830381600087803b158015610de457600080fd5b505af1158015610df8573d6000803e3d6000fd5b505050506002600082815260200190815260200160002060006101000a81549073ffffffffffffffffffffffffffffffffffffffff02191690556001600082815260200190815260200160002060009055600b6000815480929190610e5c90613888565b919050555050565b60095481565b60606000805b600480549050811015610f25578360ff1660048281548110610e9557610e9461370a565b5b906000526020600020906003020160000160009054906101000a900460ff1660ff16148015610efe57508461ffff1660048281548110610ed857610ed761370a565b5b906000526020600020906003020160020160009054906101000a900461ffff1661ffff16145b15610f12578180610f0e90613768565b9250505b8080610f1d90613768565b915050610e70565b5060008167ffffffffffffffff811115610f4257610f41613102565b5b604051908082528060200260200182016040528015610f7b57816020015b610f68612b3d565b815260200190600190039081610f605790505b5090506000805b60048054905081101561111f578560ff1660048281548110610fa757610fa661370a565b5b906000526020600020906003020160000160009054906101000a900460ff1660ff1614801561101057508661ffff1660048281548110610fea57610fe961370a565b5b906000526020600020906003020160020160009054906101000a900461ffff1661ffff16145b1561110c57600481815481106110295761102861370a565b5b90600052602060002090600302016040518060800160405290816000820160009054906101000a900460ff1660ff1660ff1681526020016000820160019054906101000a900473ffffffffffffffffffffffffffffffffffffffff1673ffffffffffffffffffffffffffffffffffffffff1673ffffffffffffffffffffffffffffffffffffffff168152602001600182015481526020016002820160009054906101000a900461ffff1661ffff1661ffff16815250508383815181106110f2576110f161370a565b5b6020026020010181905250818061110890613768565b9250505b808061111790613768565b915050610f82565b5081935050505092915050565b61113461255f565b73ffffffffffffffffffffffffffffffffffffffff16611152611abd565b73ffffffffffffffffffffffffffffffffffffffff16146111a8576040517f08c379a000000000000000000000000000000000000000000000000000000000815260040161119f90613658565b60405180910390fd5b60001515600a60009054906101000a900460ff161515146111fe576040517f08c379a00000000000000000000000000000000000000000000000000000000081526004016111f5906138fe565b60405180910390fd5b6001600a60006101000a81548160ff021916908315150217905550565b61122361255f565b73ffffffffffffffffffffffffffffffffffffffff16611241611abd565b73ffffffffffffffffffffffffffffffffffffffff1614611297576040517f08c379a000000000000000000000000000000000000000000000000000000000815260040161128e90613658565b60405180910390fd5b60006112a1612684565b905060005b600854811015611a0357600073ffffffffffffffffffffffffffffffffffffffff166002600083815260200190815260200160002060009054906101000a900473ffffffffffffffffffffffffffffffffffffffff1673ffffffffffffffffffffffffffffffffffffffff16146119f05760005b8a518110156113f1578a81815181106113365761133561370a565b5b60200260200101518214156113de5761139d836002600085815260200190815260200160002060009054906101000a900473ffffffffffffffffffffffffffffffffffffffff16611398600860ff16600260ff1661256790919063ffffffff16565b61272f565b6113d96002600084815260200190815260200160002060009054906101000a900473ffffffffffffffffffffffffffffffffffffffff16612804565b6113f1565b80806113e990613768565b91505061131a565b5060005b89518110156114cc578981815181106114115761141061370a565b5b60200260200101518214156114b957611478836002600085815260200190815260200160002060009054906101000a900473ffffffffffffffffffffffffffffffffffffffff16611473600460ff16600260ff1661256790919063ffffffff16565b61272f565b6114b46002600084815260200190815260200160002060009054906101000a900473ffffffffffffffffffffffffffffffffffffffff16612804565b6114cc565b80806114c490613768565b9150506113f5565b5060005b88518110156115a7578881815181106114ec576114eb61370a565b5b602002602001015182141561159457611553836002600085815260200190815260200160002060009054906101000a900473ffffffffffffffffffffffffffffffffffffffff1661154e600260ff16600260ff1661256790919063ffffffff16565b61272f565b61158f6002600084815260200190815260200160002060009054906101000a900473ffffffffffffffffffffffffffffffffffffffff16612804565b6115a7565b808061159f90613768565b9150506114d0565b5060005b8751811015611682578781815181106115c7576115c661370a565b5b602002602001015182141561166f5761162e836002600085815260200190815260200160002060009054906101000a900473ffffffffffffffffffffffffffffffffffffffff16611629600160ff16600260ff1661256790919063ffffffff16565b61272f565b61166a6002600084815260200190815260200160002060009054906101000a900473ffffffffffffffffffffffffffffffffffffffff16612804565b611682565b808061167a90613768565b9150506115ab565b5060005b865181101561175d578681815181106116a2576116a161370a565b5b602002602001015182141561174a57611709836002600085815260200190815260200160002060009054906101000a900473ffffffffffffffffffffffffffffffffffffffff16611704600860ff16600160ff1661256790919063ffffffff16565b61272f565b6117456002600084815260200190815260200160002060009054906101000a900473ffffffffffffffffffffffffffffffffffffffff16612804565b61175d565b808061175590613768565b915050611686565b5060005b85518110156118385785818151811061177d5761177c61370a565b5b6020026020010151821415611825576117e4836002600085815260200190815260200160002060009054906101000a900473ffffffffffffffffffffffffffffffffffffffff166117df600460ff16600160ff1661256790919063ffffffff16565b61272f565b6118206002600084815260200190815260200160002060009054906101000a900473ffffffffffffffffffffffffffffffffffffffff16612804565b611838565b808061183090613768565b915050611761565b5060005b8451811015611913578481815181106118585761185761370a565b5b6020026020010151821415611900576118bf836002600085815260200190815260200160002060009054906101000a900473ffffffffffffffffffffffffffffffffffffffff166118ba600260ff16600160ff1661256790919063ffffffff16565b61272f565b6118fb6002600084815260200190815260200160002060009054906101000a900473ffffffffffffffffffffffffffffffffffffffff16612804565b611913565b808061190b90613768565b91505061183c565b5060005b83518110156119ee578381815181106119335761193261370a565b5b60200260200101518214156119db5761199a836002600085815260200190815260200160002060009054906101000a900473ffffffffffffffffffffffffffffffffffffffff16611995600160ff16600160ff1661256790919063ffffffff16565b61272f565b6119d66002600084815260200190815260200160002060009054906101000a900473ffffffffffffffffffffffffffffffffffffffff16612804565b6119ee565b80806119e690613768565b915050611917565b505b80806119fb90613768565b9150506112a6565b50505050505050505050565b611a1761255f565b73ffffffffffffffffffffffffffffffffffffffff16611a35611abd565b73ffffffffffffffffffffffffffffffffffffffff1614611a8b576040517f08c379a0000000000000000000000000000000000000000000000000000000008152600401611a8290613658565b60405180910390fd5b611a9560006128af565b565b600760009054906101000a900473ffffffffffffffffffffffffffffffffffffffff1681565b60008060009054906101000a900473ffffffffffffffffffffffffffffffffffffffff16905090565b600080600090506000806301e1338085611b00919061394d565b6107b261ffff16611b11919061397e565b9150611b226107b261ffff16611c9f565b611b2f8361ffff16611c9f565b611b3991906137b1565b9050806301e28500611b4b91906139d4565b83611b56919061397e565b9250806107b283611b679190613a2e565b61ffff16611b7591906137b1565b6301e13380611b8491906139d4565b83611b8f919061397e565b92505b84831115611bf257611baf600183611baa9190613a2e565b611bfd565b15611bcb576301e2850083611bc491906137b1565b9250611bde565b6301e1338083611bdb91906137b1565b92505b600182611beb9190613a2e565b9150611b92565b819350505050919050565b600080600483611c0d9190613a62565b61ffff1614611c1f5760009050611c67565b6000606483611c2e9190613a62565b61ffff1614611c405760019050611c67565b600061019083611c509190613a62565b61ffff1614611c625760009050611c67565b600190505b919050565b60026020528060005260406000206000915054906101000a900473ffffffffffffffffffffffffffffffffffffffff1681565b6000600182611cae91906137b1565b915061019082611cbe919061394d565b606483611ccb919061394d565b600484611cd8919061394d565b611ce291906137b1565b611cec919061397e565b9050919050565b600060018360ff161480611d0a575060038360ff16145b80611d18575060058360ff16145b80611d26575060078360ff16145b80611d34575060088360ff16145b80611d425750600a8360ff16145b80611d505750600c8360ff16145b15611d5e57601f9050611db9565b60048360ff161480611d73575060068360ff16145b80611d81575060098360ff16145b80611d8f5750600b8360ff16145b15611d9d57601e9050611db9565b611da682611bfd565b15611db457601d9050611db9565b601c90505b92915050565b565b60001515600a60009054906101000a900460ff16151514611e17576040517f08c379a0000000000000000000000000000000000000000000000000000000008152600401611e0e90613adf565b60405180910390fd5b600760009054906101000a900473ffffffffffffffffffffffffffffffffffffffff1673ffffffffffffffffffffffffffffffffffffffff16636352211e826040518263ffffffff1660e01b8152600401611e729190612c0b565b602060405180830381865afa158015611e8f573d6000803e3d6000fd5b505050506040513d601f19601f82011682018060405250810190611eb39190613b14565b73ffffffffffffffffffffffffffffffffffffffff163373ffffffffffffffffffffffffffffffffffffffff1614611f20576040517f08c379a0000000000000000000000000000000000000000000000000000000008152600401611f1790613bb3565b60405180910390fd5b600760009054906101000a900473ffffffffffffffffffffffffffffffffffffffff1673ffffffffffffffffffffffffffffffffffffffff166323b872dd3330846040518463ffffffff1660e01b8152600401611f7f93929190613851565b600060405180830381600087803b158015611f9957600080fd5b505af1158015611fad573d6000803e3d6000fd5b50505050336002600083815260200190815260200160002060006101000a81548173ffffffffffffffffffffffffffffffffffffffff021916908373ffffffffffffffffffffffffffffffffffffffff160217905550426001600083815260200190815260200160002081905550600b600081548092919061202e90613768565b919050555050565b61203e61255f565b73ffffffffffffffffffffffffffffffffffffffff1661205c611abd565b73ffffffffffffffffffffffffffffffffffffffff16146120b2576040517f08c379a00000000000000000000000000000000000000000000000000000000081526004016120a990613658565b60405180910390fd5b60006120bc612684565b90506120c981848461272f565b505050565b6000816001436120de91906137b1565b4060001c6120ec9190613bd3565b9050919050565b60016020528060005260406000206000915090505481565b6004818154811061211b57600080fd5b90600052602060002090600302016000915090508060000160009054906101000a900460ff16908060000160019054906101000a900473ffffffffffffffffffffffffffffffffffffffff16908060010154908060020160009054906101000a900461ffff16905084565b600a60009054906101000a900460ff1681565b600b5481565b6121a761255f565b73ffffffffffffffffffffffffffffffffffffffff166121c5611abd565b73ffffffffffffffffffffffffffffffffffffffff161461221b576040517f08c379a000000000000000000000000000000000000000000000000000000000815260040161221290613658565b60405180910390fd5b8060088190555050565b61222d61255f565b73ffffffffffffffffffffffffffffffffffffffff1661224b611abd565b73ffffffffffffffffffffffffffffffffffffffff16146122a1576040517f08c379a000000000000000000000000000000000000000000000000000000000815260040161229890613658565b60405180910390fd5b60011515600a60009054906101000a900460ff161515146122f7576040517f08c379a00000000000000000000000000000000000000000000000000000000081526004016122ee90613c50565b60405180910390fd5b6000600a60006101000a81548160ff021916908315150217905550565b600660009054906101000a900473ffffffffffffffffffffffffffffffffffffffff1681565b61234261255f565b73ffffffffffffffffffffffffffffffffffffffff16612360611abd565b73ffffffffffffffffffffffffffffffffffffffff16146123b6576040517f08c379a00000000000000000000000000000000000000000000000000000000081526004016123ad90613658565b60405180910390fd5b83600660006101000a81548173ffffffffffffffffffffffffffffffffffffffff021916908373ffffffffffffffffffffffffffffffffffffffff16021790555082600760006101000a81548173ffffffffffffffffffffffffffffffffffffffff021916908373ffffffffffffffffffffffffffffffffffffffff16021790555081600881905550806009819055506001600a60006101000a81548160ff02191690831515021790555050505050565b61246f61255f565b73ffffffffffffffffffffffffffffffffffffffff1661248d611abd565b73ffffffffffffffffffffffffffffffffffffffff16146124e3576040517f08c379a00000000000000000000000000000000000000000000000000000000081526004016124da90613658565b60405180910390fd5b600073ffffffffffffffffffffffffffffffffffffffff168173ffffffffffffffffffffffffffffffffffffffff161415612553576040517f08c379a000000000000000000000000000000000000000000000000000000000815260040161254a90613ce2565b60405180910390fd5b61255c816128af565b50565b600033905090565b6000818361257591906139d4565b905092915050565b6000818361258b919061397e565b905092915050565b8073ffffffffffffffffffffffffffffffffffffffff166108fc479081150290604051600060405180830381858888f193505050501580156125d9573d6000803e3d6000fd5b5050565b6000806000905060005b60085481101561267a578373ffffffffffffffffffffffffffffffffffffffff166002600083815260200190815260200160002060009054906101000a900473ffffffffffffffffffffffffffffffffffffffff1673ffffffffffffffffffffffffffffffffffffffff16141561266757818061266390613768565b9250505b808061267290613768565b9150506125e7565b5080915050919050565b600080429050600061269582612973565b905060006126ce826020015160ff166126c06064856000015161ffff1661256790919063ffffffff16565b61257d90919063ffffffff16565b905060036000828152602001908152602001600020935081600001518460000160166101000a81548161ffff021916908361ffff16021790555081602001518460000160156101000a81548160ff021916908360ff16021790555050505090565b6000600460018160018154018082558091505003906000526020600020906003020190508360000160159054906101000a900460ff168160000160006101000a81548160ff021916908360ff160217905550828160000160016101000a81548173ffffffffffffffffffffffffffffffffffffffff021916908373ffffffffffffffffffffffffffffffffffffffff1602179055508181600101819055508360000160169054906101000a900461ffff168160020160006101000a81548161ffff021916908361ffff16021790555050505050565b600660009054906101000a900473ffffffffffffffffffffffffffffffffffffffff1673ffffffffffffffffffffffffffffffffffffffff166340c10f19826012600a6128519190613e35565b600161285d91906139d4565b6040518363ffffffff1660e01b815260040161287a929190613e80565b600060405180830381600087803b15801561289457600080fd5b505af11580156128a8573d6000803e3d6000fd5b5050505050565b60008060009054906101000a900473ffffffffffffffffffffffffffffffffffffffff169050816000806101000a81548173ffffffffffffffffffffffffffffffffffffffff021916908373ffffffffffffffffffffffffffffffffffffffff1602179055508173ffffffffffffffffffffffffffffffffffffffff168173ffffffffffffffffffffffffffffffffffffffff167f8be0079c531659141344cd1fd0a4f28419497f9722a3daafe3b4186f6b6457e060405160405180910390a35050565b61297b612b82565b6000808061298885611ae6565b846000019061ffff16908161ffff16815250506129aa6107b261ffff16611c9f565b6129bb856000015161ffff16611c9f565b6129c591906137b1565b9150816301e285006129d791906139d4565b836129e2919061397e565b9250816107b285600001516129f79190613a2e565b61ffff16612a0591906137b1565b6301e13380612a1491906139d4565b83612a1f919061397e565b92506000600191505b600c8260ff1611612a9f57612a41828660000151611cf3565b60ff1662015180612a5291906139d4565b9050858482612a61919061397e565b1115612a7e5781856020019060ff16908160ff1681525050612a9f565b8084612a8a919061397e565b93508180612a9790613ea9565b925050612a28565b600191505b612ab685602001518660000151611cf3565b60ff168260ff1611612b1357858462015180612ad2919061397e565b1115612aef5781856040019060ff16908160ff1681525050612b13565b6201518084612afe919061397e565b93508180612b0b90613ea9565b925050612aa4565b50505050919050565b5080546000825590600052602060002090810190612b3a9190612bd5565b50565b6040518060800160405280600060ff168152602001600073ffffffffffffffffffffffffffffffffffffffff16815260200160008152602001600061ffff1681525090565b6040518060e00160405280600061ffff168152602001600060ff168152602001600060ff168152602001600060ff168152602001600060ff168152602001600060ff168152602001600060ff1681525090565b5b80821115612bee576000816000905550600101612bd6565b5090565b6000819050919050565b612c0581612bf2565b82525050565b6000602082019050612c206000830184612bfc565b92915050565b6000604051905090565b600080fd5b600080fd5b600060ff82169050919050565b612c5081612c3a565b8114612c5b57600080fd5b50565b600081359050612c6d81612c47565b92915050565b600061ffff82169050919050565b612c8a81612c73565b8114612c9557600080fd5b50565b600081359050612ca781612c81565b92915050565b60008060408385031215612cc457612cc3612c30565b5b6000612cd285828601612c5e565b9250506020612ce385828601612c98565b9150509250929050565b600073ffffffffffffffffffffffffffffffffffffffff82169050919050565b6000612d1882612ced565b9050919050565b612d2881612d0d565b82525050565b6000602082019050612d436000830184612d1f565b92915050565b612d5281612bf2565b8114612d5d57600080fd5b50565b600081359050612d6f81612d49565b92915050565b600060208284031215612d8b57612d8a612c30565b5b6000612d9984828501612d60565b91505092915050565b60008115159050919050565b612db781612da2565b82525050565b612dc681612c3a565b82525050565b612dd581612c73565b82525050565b6000608082019050612df06000830187612dae565b612dfd6020830186612d1f565b612e0a6040830185612dbd565b612e176060830184612dcc565b95945050505050565b612e2981612d0d565b8114612e3457600080fd5b50565b600081359050612e4681612e20565b92915050565b600060208284031215612e6257612e61612c30565b5b6000612e7084828501612e37565b91505092915050565b600081519050919050565b600082825260208201905092915050565b6000819050602082019050919050565b612eae81612bf2565b82525050565b6000612ec08383612ea5565b60208301905092915050565b6000602082019050919050565b6000612ee482612e79565b612eee8185612e84565b9350612ef983612e95565b8060005b83811015612f2a578151612f118882612eb4565b9750612f1c83612ecc565b925050600181019050612efd565b5085935050505092915050565b60006020820190508181036000830152612f518184612ed9565b905092915050565b60008060408385031215612f7057612f6f612c30565b5b6000612f7e85828601612c98565b9250506020612f8f85828601612c5e565b9150509250929050565b600081519050919050565b600082825260208201905092915050565b6000819050602082019050919050565b612fce81612c3a565b82525050565b612fdd81612d0d565b82525050565b612fec81612c73565b82525050565b6080820160008201516130086000850182612fc5565b50602082015161301b6020850182612fd4565b50604082015161302e6040850182612ea5565b5060608201516130416060850182612fe3565b50505050565b60006130538383612ff2565b60808301905092915050565b6000602082019050919050565b600061307782612f99565b6130818185612fa4565b935061308c83612fb5565b8060005b838110156130bd5781516130a48882613047565b97506130af8361305f565b925050600181019050613090565b5085935050505092915050565b600060208201905081810360008301526130e4818461306c565b905092915050565b600080fd5b6000601f19601f8301169050919050565b7f4e487b7100000000000000000000000000000000000000000000000000000000600052604160045260246000fd5b61313a826130f1565b810181811067ffffffffffffffff8211171561315957613158613102565b5b80604052505050565b600061316c612c26565b90506131788282613131565b919050565b600067ffffffffffffffff82111561319857613197613102565b5b602082029050602081019050919050565b600080fd5b60006131c16131bc8461317d565b613162565b905080838252602082019050602084028301858111156131e4576131e36131a9565b5b835b8181101561320d57806131f98882612d60565b8452602084019350506020810190506131e6565b5050509392505050565b600082601f83011261322c5761322b6130ec565b5b813561323c8482602086016131ae565b91505092915050565b600080600080600080600080610100898b03121561326657613265612c30565b5b600089013567ffffffffffffffff81111561328457613283612c35565b5b6132908b828c01613217565b985050602089013567ffffffffffffffff8111156132b1576132b0612c35565b5b6132bd8b828c01613217565b975050604089013567ffffffffffffffff8111156132de576132dd612c35565b5b6132ea8b828c01613217565b965050606089013567ffffffffffffffff81111561330b5761330a612c35565b5b6133178b828c01613217565b955050608089013567ffffffffffffffff81111561333857613337612c35565b5b6133448b828c01613217565b94505060a089013567ffffffffffffffff81111561336557613364612c35565b5b6133718b828c01613217565b93505060c089013567ffffffffffffffff81111561339257613391612c35565b5b61339e8b828c01613217565b92505060e089013567ffffffffffffffff8111156133bf576133be612c35565b5b6133cb8b828c01613217565b9150509295985092959890939650565b6000819050919050565b60006134006133fb6133f684612ced565b6133db565b612ced565b9050919050565b6000613412826133e5565b9050919050565b600061342482613407565b9050919050565b61343481613419565b82525050565b600060208201905061344f600083018461342b565b92915050565b600060208201905061346a6000830184612dcc565b92915050565b60006020828403121561348657613485612c30565b5b600061349484828501612c98565b91505092915050565b60006020820190506134b26000830184612dae565b92915050565b60006020820190506134cd6000830184612dbd565b92915050565b600080604083850312156134ea576134e9612c30565b5b60006134f885828601612e37565b925050602061350985828601612d60565b9150509250929050565b60006080820190506135286000830187612dbd565b6135356020830186612d1f565b6135426040830185612bfc565b61354f6060830184612dcc565b95945050505050565b600061356382613407565b9050919050565b61357381613558565b82525050565b600060208201905061358e600083018461356a565b92915050565b600080600080608085870312156135ae576135ad612c30565b5b60006135bc87828801612e37565b94505060206135cd87828801612e37565b93505060406135de87828801612d60565b92505060606135ef87828801612d60565b91505092959194509250565b600082825260208201905092915050565b7f4f776e61626c653a2063616c6c6572206973206e6f7420746865206f776e6572600082015250565b60006136426020836135fb565b915061364d8261360c565b602082019050919050565b6000602082019050818103600083015261367181613635565b9050919050565b7f54686973206c6f74746572792068617320616c7265616479206265656e20647260008201527f61776e0000000000000000000000000000000000000000000000000000000000602082015250565b60006136d46023836135fb565b91506136df82613678565b604082019050919050565b60006020820190508181036000830152613703816136c7565b9050919050565b7f4e487b7100000000000000000000000000000000000000000000000000000000600052603260045260246000fd5b7f4e487b7100000000000000000000000000000000000000000000000000000000600052601160045260246000fd5b600061377382612bf2565b91507fffffffffffffffffffffffffffffffffffffffffffffffffffffffffffffffff8214156137a6576137a5613739565b5b600182019050919050565b60006137bc82612bf2565b91506137c783612bf2565b9250828210156137da576137d9613739565b5b828203905092915050565b7f596f7520646964206e6f74207374616b65207468697320746f6b656e00000000600082015250565b600061381b601c836135fb565b9150613826826137e5565b602082019050919050565b6000602082019050818103600083015261384a8161380e565b9050919050565b60006060820190506138666000830186612d1f565b6138736020830185612d1f565b6138806040830184612bfc565b949350505050565b600061389382612bf2565b915060008214156138a7576138a6613739565b5b600182039050919050565b7f5374616b696e6720697320616c72656164792070617573656400000000000000600082015250565b60006138e86019836135fb565b91506138f3826138b2565b602082019050919050565b60006020820190508181036000830152613917816138db565b9050919050565b7f4e487b7100000000000000000000000000000000000000000000000000000000600052601260045260246000fd5b600061395882612bf2565b915061396383612bf2565b9250826139735761397261391e565b5b828204905092915050565b600061398982612bf2565b915061399483612bf2565b9250827fffffffffffffffffffffffffffffffffffffffffffffffffffffffffffffffff038211156139c9576139c8613739565b5b828201905092915050565b60006139df82612bf2565b91506139ea83612bf2565b9250817fffffffffffffffffffffffffffffffffffffffffffffffffffffffffffffffff0483118215151615613a2357613a22613739565b5b828202905092915050565b6000613a3982612c73565b9150613a4483612c73565b925082821015613a5757613a56613739565b5b828203905092915050565b6000613a6d82612c73565b9150613a7883612c73565b925082613a8857613a8761391e565b5b828206905092915050565b7f5374616b696e672069732063757272656e746c79207061757365640000000000600082015250565b6000613ac9601b836135fb565b9150613ad482613a93565b602082019050919050565b60006020820190508181036000830152613af881613abc565b9050919050565b600081519050613b0e81612e20565b92915050565b600060208284031215613b2a57613b29612c30565b5b6000613b3884828501613aff565b91505092915050565b7f596f7520617265206e6f7420746865206f776e6572206f66207468697320746f60008201527f6b656e0000000000000000000000000000000000000000000000000000000000602082015250565b6000613b9d6023836135fb565b9150613ba882613b41565b604082019050919050565b60006020820190508181036000830152613bcc81613b90565b9050919050565b6000613bde82612bf2565b9150613be983612bf2565b925082613bf957613bf861391e565b5b828206905092915050565b7f5374616b696e672068617320616c726561647920737461727465640000000000600082015250565b6000613c3a601b836135fb565b9150613c4582613c04565b602082019050919050565b60006020820190508181036000830152613c6981613c2d565b9050919050565b7f4f776e61626c653a206e6577206f776e657220697320746865207a65726f206160008201527f6464726573730000000000000000000000000000000000000000000000000000602082015250565b6000613ccc6026836135fb565b9150613cd782613c70565b604082019050919050565b60006020820190508181036000830152613cfb81613cbf565b9050919050565b60008160011c9050919050565b6000808291508390505b6001851115613d5957808604811115613d3557613d34613739565b5b6001851615613d445780820291505b8081029050613d5285613d02565b9450613d19565b94509492505050565b600082613d725760019050613e2e565b81613d805760009050613e2e565b8160018114613d965760028114613da057613dcf565b6001915050613e2e565b60ff841115613db257613db1613739565b5b8360020a915084821115613dc957613dc8613739565b5b50613e2e565b5060208310610133831016604e8410600b8410161715613e045782820a905083811115613dff57613dfe613739565b5b613e2e565b613e118484846001613d0f565b92509050818404811115613e2857613e27613739565b5b81810290505b9392505050565b6000613e4082612bf2565b9150613e4b83612c3a565b9250613e787fffffffffffffffffffffffffffffffffffffffffffffffffffffffffffffffff8484613d62565b905092915050565b6000604082019050613e956000830185612d1f565b613ea26020830184612bfc565b9392505050565b6000613eb482612c3a565b915060ff821415613ec857613ec7613739565b5b60018201905091905056fea2646970667358221220bbe2a9fde23087ace50cb90d1cf2e5155f8a6b3b3c85c34106f67dd4a1fce2a164736f6c634300080a0033",
  "immutableReferences": {},
  "source": "// SPDX-License-Identifier: MIT\npragma solidity ^0.8.2;\n\nimport \"@openzeppelin/contracts/token/ERC20/IERC20.sol\";\nimport \"@openzeppelin/contracts/token/ERC721/IERC721Receiver.sol\";\nimport \"@openzeppelin/contracts/token/ERC721/IERC721.sol\";\nimport \"@openzeppelin/contracts/access/Ownable.sol\";\nimport \"@openzeppelin/contracts/utils/math/safemath.sol\";\n\ninterface IFungibleToken is IERC20 {\n    function mint(address to, uint256 amount) external;\n}\n\ncontract LotteryStake is Ownable {\n    \n    using SafeMath for uint8;\n    using SafeMath for uint16;\n    using SafeMath for uint256;\n\n    struct _DateTime {\n        uint16 year;\n        uint8 month;\n        uint8 day;\n        uint8 hour;\n        uint8 minute;\n        uint8 second;\n        uint8 weekday;\n    }\n\n    struct Points {\n        uint8 month;\n        address participant;\n        uint points;\n        uint16 year;\n    }\n\n    struct Lottery {\n        bool drawExecuted;\n        address drawWinner;\n        uint8 month;\n        uint16 year;\n    }\n\n    mapping (uint => uint) public checkpoints;     //tokenId => timestamp\n    mapping (uint => address) public deposits;     //tokenId => address\n    mapping (uint => Lottery) public lotteries;\n    Points[] public lotteryPoints;\n    \n    address[] tickets;\n\n    IFungibleToken public fungibleToken;\n    IERC721 public nonFungibleToken;\n    uint public nftSupply;\n    uint public secondsBeforeEarning;\n    bool public stakingPaused;\n    uint public stakedTokens;\n\n    uint constant DAY_IN_SECONDS = 86400; \n    uint constant DAILY_TOKEN_REWARD = 1;\n    uint8 constant E1_MULTIPLIER = 2;\n    uint8 constant E2_MULTIPLIER = 1;\n    uint constant LEAP_YEAR_IN_SECONDS = 31622400;\n    uint16 constant ORIGIN_YEAR = 1970;\n    uint8 constant S1 = 1;\n    uint8 constant S2 = 2;\n    uint8 constant S3 = 4;\n    uint8 constant S4 = 8;\n    uint constant YEAR_IN_SECONDS = 31536000;\n    \n    function initialize(\n        address _fungibleToken,\n        address _nonFungibleToken,\n        uint _nftSupply,\n        uint _secondsBeforeEarning\n    ) onlyOwner external   \n    {\n        fungibleToken = IFungibleToken(_fungibleToken);\n        nonFungibleToken = IERC721(_nonFungibleToken);\n        nftSupply = _nftSupply;\n        secondsBeforeEarning = _secondsBeforeEarning;\n        stakingPaused = true;\n    }\n\n    function awardPoints(Lottery storage lt, address recipient, uint256 points) internal {\n        Points storage val = lotteryPoints.push();\n        val.month = lt.month;\n        val.participant = recipient;\n        val.points = points;\n        val.year = lt.year;\n    }\n\n    function awardToken(address recipient) internal {\n        fungibleToken.mint(recipient, DAILY_TOKEN_REWARD * (uint256(10) ** 18));\n    }\n\n    function bonusPoints(address recipient, uint points) external onlyOwner {\n        Lottery storage lt = currentLottery();\n        awardPoints(lt, recipient, points);\n    }\n\n    function currentLottery() internal returns (Lottery storage lt) {\n        uint time = block.timestamp;\n        _DateTime memory dt = parseTimestamp(time);\n\n        uint index = dt.year.mul(100).add(dt.month);\n\n        lt = lotteries[index];\n        lt.year = dt.year;\n        lt.month = dt.month;\n        \n        return lt;\n    }\n\n    function changeNftSupply(uint supply) external onlyOwner {\n        nftSupply = supply;\n    }\n\n    function deposit(uint tokenId) external {\n        require(stakingPaused == false, \"Staking is currently paused\");\n        require(msg.sender == nonFungibleToken.ownerOf(tokenId), \"You are not the owner of this token\");\n        nonFungibleToken.transferFrom(msg.sender, address(this), tokenId);\n        deposits[tokenId] = msg.sender;\n        checkpoints[tokenId] = block.timestamp;\n        stakedTokens++;\n    }\n\n    function fundLottery() payable external {\n\n    }\n\n    function getDaysInMonth(uint8 month, uint16 year) public pure returns (uint8) {\n        if (month == 1 || month == 3 || month == 5 || month == 7 || month == 8 || month == 10 || month == 12) {\n            return 31;\n        }\n        else if (month == 4 || month == 6 || month == 9 || month == 11) {\n            return 30;\n        }\n        else if (isLeapYear(year)) {\n            return 29;\n        }\n        else {\n            return 28;\n        }\n    }\n\n    function getLotteryPoints(uint16 year, uint8 month) public view returns (Points[] memory) {\n        uint count = 0;\n\n        for (uint x = 0; x < lotteryPoints.length; x++) {\n            if (lotteryPoints[x].month == month && lotteryPoints[x].year == year) {\n                count++;\n            }\n        }\n        \n        Points[] memory points = new Points[](count);\n        uint y = 0;\n\n        for (uint x = 0; x < lotteryPoints.length; x++) {\n            if (lotteryPoints[x].month == month && lotteryPoints[x].year == year) {\n                points[y] = lotteryPoints[x];\n                y++;\n            }\n        }\n\n        return points;\n    }\n\n    function getYear(uint timestamp) public pure returns (uint16) {\n        uint secondsAccountedFor = 0;\n        uint16 year;\n        uint numLeapYears;\n\n        // Year\n        year = uint16(ORIGIN_YEAR + timestamp / YEAR_IN_SECONDS);\n        numLeapYears = leapYearsBefore(year) - leapYearsBefore(ORIGIN_YEAR);\n\n        secondsAccountedFor += LEAP_YEAR_IN_SECONDS * numLeapYears;\n        secondsAccountedFor += YEAR_IN_SECONDS * (year - ORIGIN_YEAR - numLeapYears);\n\n        while (secondsAccountedFor > timestamp) {\n            if (isLeapYear(uint16(year - 1))) {\n                secondsAccountedFor -= LEAP_YEAR_IN_SECONDS;\n            }\n            else {\n                secondsAccountedFor -= YEAR_IN_SECONDS;\n            }\n            year -= 1;\n        }\n        return year;\n    }\n\n    function isLeapYear(uint16 year) public pure returns (bool) {\n        if (year % 4 != 0) {\n                return false;\n        }\n        if (year % 100 != 0) {\n                return true;\n        }\n        if (year % 400 != 0) {\n                return false;\n        }\n        return true;\n    }\n\n    function leapYearsBefore(uint year) public pure returns (uint) {\n        year -= 1;\n        return year / 4 - year / 100 + year / 400;\n    }\n\n    function parseTimestamp(uint timestamp) internal pure returns (_DateTime memory dt) {\n        uint secondsAccountedFor = 0;\n        uint buf;\n        uint8 i;\n\n        // Year\n        dt.year = getYear(timestamp);\n        buf = leapYearsBefore(dt.year) - leapYearsBefore(ORIGIN_YEAR);\n\n        secondsAccountedFor += LEAP_YEAR_IN_SECONDS * buf;\n        secondsAccountedFor += YEAR_IN_SECONDS * (dt.year - ORIGIN_YEAR - buf);\n\n        // Month\n        uint secondsInMonth;\n        for (i = 1; i <= 12; i++) {\n            secondsInMonth = DAY_IN_SECONDS * getDaysInMonth(i, dt.year);\n            if (secondsInMonth + secondsAccountedFor > timestamp) {\n                dt.month = i;\n                break;\n            }\n            secondsAccountedFor += secondsInMonth;\n        }\n\n        // Day\n        for (i = 1; i <= getDaysInMonth(dt.month, dt.year); i++) {\n            if (DAY_IN_SECONDS + secondsAccountedFor > timestamp) {\n                dt.day = i;\n                break;\n            }\n            secondsAccountedFor += DAY_IN_SECONDS;\n        }\n    }\n\n    function payContractBalance(address payable winner) internal {\n        winner.transfer(address(this).balance);\n    }\n\n    function random(uint max) public view returns (uint) {\n        return uint(blockhash(block.number - 1)) % max;\n    }\n\n    function randomDraw(uint8 month, uint16 year) external onlyOwner returns (address) {\n        uint index = year.mul(100).add(month);\n\n        Lottery storage lt = lotteries[index];\n        require(!lt.drawExecuted, \"This lottery has already been drawn\");\n        delete tickets;\n\n        for (uint x = 0; x < lotteryPoints.length; x++) {\n            if (lotteryPoints[x].month == month && lotteryPoints[x].year == year) {\n                for (uint y = 0; y < lotteryPoints[x].points; y++) {\n                    tickets.push(lotteryPoints[x].participant);\n                }\n            }\n        }\n\n        uint selectedNumber = random(tickets.length - 1);\n\n        lt.drawExecuted = true;\n        lt.drawWinner = tickets[selectedNumber];\n\n        delete tickets;\n\n        //pay the winner\n        payContractBalance(payable(lt.drawWinner));\n\n        return lt.drawWinner;\n    }\n\n    function reward(\n        uint[] memory s4e1, \n        uint[] memory s3e1, \n        uint[] memory s2e1,\n        uint[] memory s1e1,\n        uint[] memory s4e2, \n        uint[] memory s3e2, \n        uint[] memory s2e2,\n        uint[] memory s1e2\n    ) external onlyOwner {\n        Lottery storage lt = currentLottery();\n        \n        for (uint x = 0; x < nftSupply; x++) {\n            if (deposits[x] != address(0)) {\n                //if (checkpoints[x] <= block.timestamp.sub(secondsBeforeEarning)) {\n\n                    //4 star - edition 1\n                    for (uint s = 0; s < s4e1.length; s++) {\n                        if (x == s4e1[s]) {\n                            awardPoints(lt, deposits[x], E1_MULTIPLIER.mul(S4));\n                            awardToken(deposits[x]);\n                            break;\n                        }\n                    }\n\n                    //3 star - edition 1\n                    for (uint s = 0; s < s3e1.length; s++) {\n                        if (x == s3e1[s]) {\n                            awardPoints(lt, deposits[x], E1_MULTIPLIER.mul(S3));\n                            awardToken(deposits[x]);\n                            break;\n                        }\n                    }\n\n                    //2 star - edition 1\n                    for (uint s = 0; s < s2e1.length; s++) {\n                        if (x == s2e1[s]) {\n                            awardPoints(lt, deposits[x], E1_MULTIPLIER.mul(S2));\n                            awardToken(deposits[x]);\n                            break;\n                        }\n                    }\n\n                    //1 star - edition 1\n                    for (uint s = 0; s < s1e1.length; s++) {\n                        if (x == s1e1[s]) {\n                            awardPoints(lt, deposits[x], E1_MULTIPLIER.mul(S1));\n                            awardToken(deposits[x]);\n                            break;\n                        }\n                    }\n\n                    //4 star - edition 2\n                    for (uint s = 0; s < s4e2.length; s++) {\n                        if (x == s4e2[s]) {\n                            awardPoints(lt, deposits[x], E2_MULTIPLIER.mul(S4));\n                            awardToken(deposits[x]);\n                            break;\n                        }\n                    }\n\n                    //3 star - edition 2\n                    for (uint s = 0; s < s3e2.length; s++) {\n                        if (x == s3e2[s]) {\n                            awardPoints(lt, deposits[x], E2_MULTIPLIER.mul(S3));\n                            awardToken(deposits[x]);\n                            break;\n                        }\n                    }\n\n                    //2 star - edition 2\n                    for (uint s = 0; s < s2e2.length; s++) {\n                        if (x == s2e2[s]) {\n                            awardPoints(lt, deposits[x], E2_MULTIPLIER.mul(S2));\n                            awardToken(deposits[x]);\n                            break;\n                        }\n                    }\n\n                    //1 star - edition 2\n                    for (uint s = 0; s < s1e2.length; s++) {\n                        if (x == s1e2[s]) {\n                            awardPoints(lt, deposits[x], E2_MULTIPLIER.mul(S1));\n                            awardToken(deposits[x]);\n                            break;\n                        }\n                    }\n                //}\n            }\n        }\n    }\n\n    function stakingPause() external onlyOwner {\n        require(stakingPaused == false, \"Staking is already paused\");\n        stakingPaused = true;\n    }\n\n    function stakingStart() external onlyOwner {\n        require(stakingPaused == true, \"Staking has already started\");\n        stakingPaused = false;\n    }\n\n    function tokensStaked(address staker) external view returns (uint[] memory) {\n        uint[] memory results = new uint[](tokensCountStaked(staker));\n        uint index = 0;\n        for (uint x = 0; x < nftSupply; x++) {\n            if (deposits[x] == staker) {\n                results[index] = x;\n                index++;\n            }\n        }\n\n        return results;\n    }\n\n    function tokensCountStaked(address staker) internal view returns (uint) {\n        uint result = 0;\n        for (uint x = 0; x < nftSupply; x++) {\n            if (deposits[x] == staker) {\n                result++;\n            }\n        }\n        return result;\n    }\n\n    function withdraw(uint tokenId) external {\n        require(deposits[tokenId] == msg.sender, \"You did not stake this token\");\n        nonFungibleToken.transferFrom(address(this), msg.sender, tokenId);\n        delete deposits[tokenId];\n        delete checkpoints[tokenId];\n        stakedTokens--;\n    }\n}",
  "sourcePath": "/Users/warrenschwartz/Projects/MintedHistory_Lottery/lottery/contracts/LotteryStake.sol",
  "compiler": {
    "name": "solc",
    "version": "0.8.10+commit.fc410830.Emscripten.clang"
  },
  "schemaVersion": "3.4.3",
  "updatedAt": "2022-01-09T06:15:52.190Z",
  "devdoc": {
    "kind": "dev",
    "methods": {
      "owner()": {
        "details": "Returns the address of the current owner."
      },
      "renounceOwnership()": {
        "details": "Leaves the contract without owner. It will not be possible to call `onlyOwner` functions anymore. Can only be called by the current owner. NOTE: Renouncing ownership will leave the contract without an owner, thereby removing any functionality that is only available to the owner."
      },
      "transferOwnership(address)": {
        "details": "Transfers ownership of the contract to a new account (`newOwner`). Can only be called by the current owner."
      }
    },
    "version": 1
  },
  "userdoc": {
    "kind": "user",
    "methods": {},
    "version": 1
  }
}