{
  "contractName": "LotteryStake",
  "abi": [
    {
      "anonymous": false,
      "inputs": [
        {
          "indexed": true,
          "internalType": "address",
          "name": "previousOwner",
          "type": "address"
        },
        {
          "indexed": true,
          "internalType": "address",
          "name": "newOwner",
          "type": "address"
        }
      ],
      "name": "OwnershipTransferred",
      "type": "event"
    },
    {
      "inputs": [
        {
          "internalType": "uint256",
          "name": "",
          "type": "uint256"
        }
      ],
      "name": "checkpoints",
      "outputs": [
        {
          "internalType": "uint256",
          "name": "",
          "type": "uint256"
        }
      ],
      "stateMutability": "view",
      "type": "function"
    },
    {
      "inputs": [
        {
          "internalType": "uint256",
          "name": "",
          "type": "uint256"
        }
      ],
      "name": "deposits",
      "outputs": [
        {
          "internalType": "address",
          "name": "",
          "type": "address"
        }
      ],
      "stateMutability": "view",
      "type": "function"
    },
    {
      "inputs": [],
      "name": "fungibleToken",
      "outputs": [
        {
          "internalType": "contract IFungibleToken",
          "name": "",
          "type": "address"
        }
      ],
      "stateMutability": "view",
      "type": "function"
    },
    {
      "inputs": [
        {
          "internalType": "uint256",
          "name": "",
          "type": "uint256"
        }
      ],
      "name": "lotteries",
      "outputs": [
        {
          "internalType": "bool",
          "name": "drawExecuted",
          "type": "bool"
        },
        {
          "internalType": "address",
          "name": "drawWinner",
          "type": "address"
        },
        {
          "internalType": "uint8",
          "name": "month",
          "type": "uint8"
        },
        {
          "internalType": "uint16",
          "name": "year",
          "type": "uint16"
        }
      ],
      "stateMutability": "view",
      "type": "function"
    },
    {
      "inputs": [
        {
          "internalType": "uint256",
          "name": "",
          "type": "uint256"
        }
      ],
      "name": "lotteryPoints",
      "outputs": [
        {
          "internalType": "uint8",
          "name": "month",
          "type": "uint8"
        },
        {
          "internalType": "address",
          "name": "participant",
          "type": "address"
        },
        {
          "internalType": "uint256",
          "name": "points",
          "type": "uint256"
        },
        {
          "internalType": "uint16",
          "name": "year",
          "type": "uint16"
        }
      ],
      "stateMutability": "view",
      "type": "function"
    },
    {
      "inputs": [],
      "name": "nftSupply",
      "outputs": [
        {
          "internalType": "uint256",
          "name": "",
          "type": "uint256"
        }
      ],
      "stateMutability": "view",
      "type": "function"
    },
    {
      "inputs": [],
      "name": "nonFungibleToken",
      "outputs": [
        {
          "internalType": "contract IERC721",
          "name": "",
          "type": "address"
        }
      ],
      "stateMutability": "view",
      "type": "function"
    },
    {
      "inputs": [],
      "name": "owner",
      "outputs": [
        {
          "internalType": "address",
          "name": "",
          "type": "address"
        }
      ],
      "stateMutability": "view",
      "type": "function"
    },
    {
      "inputs": [],
      "name": "renounceOwnership",
      "outputs": [],
      "stateMutability": "nonpayable",
      "type": "function"
    },
    {
      "inputs": [],
      "name": "secondsBeforeEarning",
      "outputs": [
        {
          "internalType": "uint256",
          "name": "",
          "type": "uint256"
        }
      ],
      "stateMutability": "view",
      "type": "function"
    },
    {
      "inputs": [],
      "name": "stakedTokens",
      "outputs": [
        {
          "internalType": "uint256",
          "name": "",
          "type": "uint256"
        }
      ],
      "stateMutability": "view",
      "type": "function"
    },
    {
      "inputs": [],
      "name": "stakingPaused",
      "outputs": [
        {
          "internalType": "bool",
          "name": "",
          "type": "bool"
        }
      ],
      "stateMutability": "view",
      "type": "function"
    },
    {
      "inputs": [
        {
          "internalType": "address",
          "name": "newOwner",
          "type": "address"
        }
      ],
      "name": "transferOwnership",
      "outputs": [],
      "stateMutability": "nonpayable",
      "type": "function"
    },
    {
      "inputs": [
        {
          "internalType": "address",
          "name": "_fungibleToken",
          "type": "address"
        },
        {
          "internalType": "address",
          "name": "_nonFungibleToken",
          "type": "address"
        },
        {
          "internalType": "uint256",
          "name": "_nftSupply",
          "type": "uint256"
        },
        {
          "internalType": "uint256",
          "name": "_secondsBeforeEarning",
          "type": "uint256"
        }
      ],
      "name": "initialize",
      "outputs": [],
      "stateMutability": "nonpayable",
      "type": "function"
    },
    {
      "inputs": [
        {
          "internalType": "address",
          "name": "recipient",
          "type": "address"
        },
        {
          "internalType": "uint256",
          "name": "points",
          "type": "uint256"
        }
      ],
      "name": "bonusPoints",
      "outputs": [],
      "stateMutability": "nonpayable",
      "type": "function"
    },
    {
      "inputs": [
        {
          "internalType": "uint256",
          "name": "supply",
          "type": "uint256"
        }
      ],
      "name": "changeNftSupply",
      "outputs": [],
      "stateMutability": "nonpayable",
      "type": "function"
    },
    {
      "inputs": [
        {
          "internalType": "uint256",
          "name": "tokenId",
          "type": "uint256"
        }
      ],
      "name": "deposit",
      "outputs": [],
      "stateMutability": "nonpayable",
      "type": "function"
    },
    {
      "inputs": [],
      "name": "fundLottery",
      "outputs": [],
      "stateMutability": "payable",
      "type": "function"
    },
    {
      "inputs": [
        {
          "internalType": "uint8",
          "name": "month",
          "type": "uint8"
        },
        {
          "internalType": "uint16",
          "name": "year",
          "type": "uint16"
        }
      ],
      "name": "getDaysInMonth",
      "outputs": [
        {
          "internalType": "uint8",
          "name": "",
          "type": "uint8"
        }
      ],
      "stateMutability": "pure",
      "type": "function"
    },
    {
      "inputs": [
        {
          "internalType": "uint16",
          "name": "year",
          "type": "uint16"
        },
        {
          "internalType": "uint8",
          "name": "month",
          "type": "uint8"
        }
      ],
      "name": "getLotteryPoints",
      "outputs": [
        {
          "components": [
            {
              "internalType": "uint8",
              "name": "month",
              "type": "uint8"
            },
            {
              "internalType": "address",
              "name": "participant",
              "type": "address"
            },
            {
              "internalType": "uint256",
              "name": "points",
              "type": "uint256"
            },
            {
              "internalType": "uint16",
              "name": "year",
              "type": "uint16"
            }
          ],
          "internalType": "struct LotteryStake.Points[]",
          "name": "",
          "type": "tuple[]"
        }
      ],
      "stateMutability": "view",
      "type": "function"
    },
    {
      "inputs": [
        {
          "internalType": "uint256",
          "name": "timestamp",
          "type": "uint256"
        }
      ],
      "name": "getYear",
      "outputs": [
        {
          "internalType": "uint16",
          "name": "",
          "type": "uint16"
        }
      ],
      "stateMutability": "pure",
      "type": "function"
    },
    {
      "inputs": [
        {
          "internalType": "uint16",
          "name": "year",
          "type": "uint16"
        }
      ],
      "name": "isLeapYear",
      "outputs": [
        {
          "internalType": "bool",
          "name": "",
          "type": "bool"
        }
      ],
      "stateMutability": "pure",
      "type": "function"
    },
    {
      "inputs": [
        {
          "internalType": "uint256",
          "name": "year",
          "type": "uint256"
        }
      ],
      "name": "leapYearsBefore",
      "outputs": [
        {
          "internalType": "uint256",
          "name": "",
          "type": "uint256"
        }
      ],
      "stateMutability": "pure",
      "type": "function"
    },
    {
      "inputs": [
        {
          "internalType": "uint256",
          "name": "max",
          "type": "uint256"
        }
      ],
      "name": "random",
      "outputs": [
        {
          "internalType": "uint256",
          "name": "",
          "type": "uint256"
        }
      ],
      "stateMutability": "view",
      "type": "function"
    },
    {
      "inputs": [
        {
          "internalType": "uint8",
          "name": "month",
          "type": "uint8"
        },
        {
          "internalType": "uint16",
          "name": "year",
          "type": "uint16"
        }
      ],
      "name": "randomDraw",
      "outputs": [
        {
          "internalType": "address",
          "name": "",
          "type": "address"
        }
      ],
      "stateMutability": "nonpayable",
      "type": "function"
    },
    {
      "inputs": [
        {
          "internalType": "uint256[]",
          "name": "s4e1",
          "type": "uint256[]"
        },
        {
          "internalType": "uint256[]",
          "name": "s3e1",
          "type": "uint256[]"
        },
        {
          "internalType": "uint256[]",
          "name": "s2e1",
          "type": "uint256[]"
        },
        {
          "internalType": "uint256[]",
          "name": "s1e1",
          "type": "uint256[]"
        },
        {
          "internalType": "uint256[]",
          "name": "s4e2",
          "type": "uint256[]"
        },
        {
          "internalType": "uint256[]",
          "name": "s3e2",
          "type": "uint256[]"
        },
        {
          "internalType": "uint256[]",
          "name": "s2e2",
          "type": "uint256[]"
        },
        {
          "internalType": "uint256[]",
          "name": "s1e2",
          "type": "uint256[]"
        }
      ],
      "name": "reward",
      "outputs": [],
      "stateMutability": "nonpayable",
      "type": "function"
    },
    {
      "inputs": [],
      "name": "stakingPause",
      "outputs": [],
      "stateMutability": "nonpayable",
      "type": "function"
    },
    {
      "inputs": [],
      "name": "stakingStart",
      "outputs": [],
      "stateMutability": "nonpayable",
      "type": "function"
    },
    {
      "inputs": [
        {
          "internalType": "address",
          "name": "staker",
          "type": "address"
        }
      ],
      "name": "tokensStaked",
      "outputs": [
        {
          "internalType": "uint256[]",
          "name": "",
          "type": "uint256[]"
        }
      ],
      "stateMutability": "view",
      "type": "function"
    },
    {
      "inputs": [
        {
          "internalType": "uint256",
          "name": "tokenId",
          "type": "uint256"
        }
      ],
      "name": "withdraw",
      "outputs": [],
      "stateMutability": "nonpayable",
      "type": "function"
    }
  ],
  "bytecode": "0x60806040523480156200001157600080fd5b5062000032620000266200003860201b60201c565b6200004060201b60201c565b62000104565b600033905090565b60008060009054906101000a900473ffffffffffffffffffffffffffffffffffffffff169050816000806101000a81548173ffffffffffffffffffffffffffffffffffffffff021916908373ffffffffffffffffffffffffffffffffffffffff1602179055508173ffffffffffffffffffffffffffffffffffffffff168173ffffffffffffffffffffffffffffffffffffffff167f8be0079c531659141344cd1fd0a4f28419497f9722a3daafe3b4186f6b6457e060405160405180910390a35050565b613f4e80620001146000396000f3fe6080604052600436106101cd5760003560e01c8063b1999937116100f7578063b8a66f6d11610095578063d771b0a611610064578063d771b0a6146106bb578063e5873ec2146106d2578063eb990c59146106fd578063f2fde38b14610726576101cd565b8063b8a66f6d146105fc578063bbb781cc1461063c578063cb62900914610667578063d318f51014610692576101cd565b8063b6b55f25116100d1578063b6b55f2514610530578063b8221e9814610559578063b863bd3714610582578063b8a24252146105bf576101cd565b8063b1999937146104ac578063b238ad0e146104e9578063b5cc453914610526576101cd565b806355455df21161016f5780638da5cb5b1161013e5780638da5cb5b146103ca57806392d66313146103f5578063a6f0e57714610432578063b02c43d01461046f576101cd565b806355455df214610348578063627916451461035f578063715018a6146103885780637ac27d191461039f576101cd565b80632cf01b55116101ab5780632cf01b551461027a5780632e1a7d4d146102b75780633ea88897146102e0578063403b98b21461030b576101cd565b806301790e01146101d257806306947d76146101fd5780631398e0761461023a575b600080fd5b3480156101de57600080fd5b506101e761074f565b6040516101f49190612c50565b60405180910390f35b34801561020957600080fd5b50610224600480360381019061021f9190612cf2565b610755565b6040516102319190612d73565b60405180910390f35b34801561024657600080fd5b50610261600480360381019061025c9190612dba565b610b39565b6040516102719493929190612e20565b60405180910390f35b34801561028657600080fd5b506102a1600480360381019061029c9190612e91565b610bb1565b6040516102ae9190612f7c565b60405180910390f35b3480156102c357600080fd5b506102de60048036038101906102d99190612dba565b610cca565b005b3480156102ec57600080fd5b506102f5610e64565b6040516103029190612c50565b60405180910390f35b34801561031757600080fd5b50610332600480360381019061032d9190612f9e565b610e6a565b60405161033f919061310f565b60405180910390f35b34801561035457600080fd5b5061035d61112c565b005b34801561036b57600080fd5b506103866004803603810190610381919061328a565b61121b565b005b34801561039457600080fd5b5061039d611a3e565b005b3480156103ab57600080fd5b506103b4611ac6565b6040516103c1919061347f565b60405180910390f35b3480156103d657600080fd5b506103df611aec565b6040516103ec9190612d73565b60405180910390f35b34801561040157600080fd5b5061041c60048036038101906104179190612dba565b611b15565b604051610429919061349a565b60405180910390f35b34801561043e57600080fd5b50610459600480360381019061045491906134b5565b611c2c565b60405161046691906134e2565b60405180910390f35b34801561047b57600080fd5b5061049660048036038101906104919190612dba565b611c9b565b6040516104a39190612d73565b60405180910390f35b3480156104b857600080fd5b506104d360048036038101906104ce9190612dba565b611cce565b6040516104e09190612c50565b60405180910390f35b3480156104f557600080fd5b50610510600480360381019061050b9190612cf2565b611d22565b60405161051d91906134fd565b60405180910390f35b61052e611dee565b005b34801561053c57600080fd5b5061055760048036038101906105529190612dba565b611df0565b005b34801561056557600080fd5b50610580600480360381019061057b9190613518565b612065565b005b34801561058e57600080fd5b506105a960048036038101906105a49190612dba565b6120fd565b6040516105b69190612c50565b60405180910390f35b3480156105cb57600080fd5b506105e660048036038101906105e19190612dba565b612122565b6040516105f39190612c50565b60405180910390f35b34801561060857600080fd5b50610623600480360381019061061e9190612dba565b61213a565b6040516106339493929190613558565b60405180910390f35b34801561064857600080fd5b506106516121b5565b60405161065e91906134e2565b60405180910390f35b34801561067357600080fd5b5061067c6121c8565b6040516106899190612c50565b60405180910390f35b34801561069e57600080fd5b506106b960048036038101906106b49190612dba565b6121ce565b005b3480156106c757600080fd5b506106d0612254565b005b3480156106de57600080fd5b506106e7612343565b6040516106f491906135be565b60405180910390f35b34801561070957600080fd5b50610724600480360381019061071f91906135d9565b612369565b005b34801561073257600080fd5b5061074d60048036038101906107489190612e91565b612496565b005b60085481565b600061075f61258e565b73ffffffffffffffffffffffffffffffffffffffff1661077d611aec565b73ffffffffffffffffffffffffffffffffffffffff16146107d3576040517f08c379a00000000000000000000000000000000000000000000000000000000081526004016107ca9061369d565b60405180910390fd5b60006108028460ff166107f460648661ffff1661259690919063ffffffff16565b6125ac90919063ffffffff16565b905060006003600083815260200190815260200160002090508060000160009054906101000a900460ff161561086d576040517f08c379a00000000000000000000000000000000000000000000000000000000081526004016108649061372f565b60405180910390fd5b6005600061087b9190612b61565b60005b600480549050811015610a11578560ff16600482815481106108a3576108a261374f565b5b906000526020600020906003020160000160009054906101000a900460ff1660ff1614801561090c57508461ffff16600482815481106108e6576108e561374f565b5b906000526020600020906003020160020160009054906101000a900461ffff1661ffff16145b156109fe5760005b600482815481106109285761092761374f565b5b9060005260206000209060030201600101548110156109fc576005600483815481106109575761095661374f565b5b906000526020600020906003020160000160019054906101000a900473ffffffffffffffffffffffffffffffffffffffff169080600181540180825580915050600190039060005260206000200160009091909190916101000a81548173ffffffffffffffffffffffffffffffffffffffff021916908373ffffffffffffffffffffffffffffffffffffffff16021790555080806109f4906137ad565b915050610914565b505b8080610a09906137ad565b91505061087e565b506000610a2e6001600580549050610a2991906137f6565b6120fd565b905060018260000160006101000a81548160ff02191690831515021790555060058181548110610a6157610a6061374f565b5b9060005260206000200160009054906101000a900473ffffffffffffffffffffffffffffffffffffffff168260000160016101000a81548173ffffffffffffffffffffffffffffffffffffffff021916908373ffffffffffffffffffffffffffffffffffffffff16021790555060056000610adc9190612b61565b610b098260000160019054906101000a900473ffffffffffffffffffffffffffffffffffffffff166125c2565b8160000160019054906101000a900473ffffffffffffffffffffffffffffffffffffffff16935050505092915050565b60036020528060005260406000206000915090508060000160009054906101000a900460ff16908060000160019054906101000a900473ffffffffffffffffffffffffffffffffffffffff16908060000160159054906101000a900460ff16908060000160169054906101000a900461ffff16905084565b60606000610bbe8361260c565b67ffffffffffffffff811115610bd757610bd6613147565b5b604051908082528060200260200182016040528015610c055781602001602082028036833780820191505090505b5090506000805b600854811015610cbf578473ffffffffffffffffffffffffffffffffffffffff166002600083815260200190815260200160002060009054906101000a900473ffffffffffffffffffffffffffffffffffffffff1673ffffffffffffffffffffffffffffffffffffffff161415610cac5780838381518110610c9157610c9061374f565b5b6020026020010181815250508180610ca8906137ad565b9250505b8080610cb7906137ad565b915050610c0c565b508192505050919050565b3373ffffffffffffffffffffffffffffffffffffffff166002600083815260200190815260200160002060009054906101000a900473ffffffffffffffffffffffffffffffffffffffff1673ffffffffffffffffffffffffffffffffffffffff1614610d6b576040517f08c379a0000000000000000000000000000000000000000000000000000000008152600401610d6290613876565b60405180910390fd5b600760009054906101000a900473ffffffffffffffffffffffffffffffffffffffff1673ffffffffffffffffffffffffffffffffffffffff166323b872dd3033846040518463ffffffff1660e01b8152600401610dca93929190613896565b600060405180830381600087803b158015610de457600080fd5b505af1158015610df8573d6000803e3d6000fd5b505050506002600082815260200190815260200160002060006101000a81549073ffffffffffffffffffffffffffffffffffffffff02191690556001600082815260200190815260200160002060009055600b6000815480929190610e5c906138cd565b919050555050565b60095481565b60606000805b600480549050811015610f25578360ff1660048281548110610e9557610e9461374f565b5b906000526020600020906003020160000160009054906101000a900460ff1660ff16148015610efe57508461ffff1660048281548110610ed857610ed761374f565b5b906000526020600020906003020160020160009054906101000a900461ffff1661ffff16145b15610f12578180610f0e906137ad565b9250505b8080610f1d906137ad565b915050610e70565b5060008167ffffffffffffffff811115610f4257610f41613147565b5b604051908082528060200260200182016040528015610f7b57816020015b610f68612b82565b815260200190600190039081610f605790505b5090506000805b60048054905081101561111f578560ff1660048281548110610fa757610fa661374f565b5b906000526020600020906003020160000160009054906101000a900460ff1660ff1614801561101057508661ffff1660048281548110610fea57610fe961374f565b5b906000526020600020906003020160020160009054906101000a900461ffff1661ffff16145b1561110c57600481815481106110295761102861374f565b5b90600052602060002090600302016040518060800160405290816000820160009054906101000a900460ff1660ff1660ff1681526020016000820160019054906101000a900473ffffffffffffffffffffffffffffffffffffffff1673ffffffffffffffffffffffffffffffffffffffff1673ffffffffffffffffffffffffffffffffffffffff168152602001600182015481526020016002820160009054906101000a900461ffff1661ffff1661ffff16815250508383815181106110f2576110f161374f565b5b60200260200101819052508180611108906137ad565b9250505b8080611117906137ad565b915050610f82565b5081935050505092915050565b61113461258e565b73ffffffffffffffffffffffffffffffffffffffff16611152611aec565b73ffffffffffffffffffffffffffffffffffffffff16146111a8576040517f08c379a000000000000000000000000000000000000000000000000000000000815260040161119f9061369d565b60405180910390fd5b60001515600a60009054906101000a900460ff161515146111fe576040517f08c379a00000000000000000000000000000000000000000000000000000000081526004016111f590613943565b60405180910390fd5b6001600a60006101000a81548160ff021916908315150217905550565b61122361258e565b73ffffffffffffffffffffffffffffffffffffffff16611241611aec565b73ffffffffffffffffffffffffffffffffffffffff1614611297576040517f08c379a000000000000000000000000000000000000000000000000000000000815260040161128e9061369d565b60405180910390fd5b60006112a16126b3565b905060005b600854811015611a3257600073ffffffffffffffffffffffffffffffffffffffff166002600083815260200190815260200160002060009054906101000a900473ffffffffffffffffffffffffffffffffffffffff1673ffffffffffffffffffffffffffffffffffffffff1614611a1f5761132c6009544261275e90919063ffffffff16565b600160008381526020019081526020016000205411611a1e5760005b8a5181101561141f578a81815181106113645761136361374f565b5b602002602001015182141561140c576113cb836002600085815260200190815260200160002060009054906101000a900473ffffffffffffffffffffffffffffffffffffffff166113c6600860ff16600260ff1661259690919063ffffffff16565b612774565b6114076002600084815260200190815260200160002060009054906101000a900473ffffffffffffffffffffffffffffffffffffffff16612849565b61141f565b8080611417906137ad565b915050611348565b5060005b89518110156114fa5789818151811061143f5761143e61374f565b5b60200260200101518214156114e7576114a6836002600085815260200190815260200160002060009054906101000a900473ffffffffffffffffffffffffffffffffffffffff166114a1600460ff16600260ff1661259690919063ffffffff16565b612774565b6114e26002600084815260200190815260200160002060009054906101000a900473ffffffffffffffffffffffffffffffffffffffff16612849565b6114fa565b80806114f2906137ad565b915050611423565b5060005b88518110156115d55788818151811061151a5761151961374f565b5b60200260200101518214156115c257611581836002600085815260200190815260200160002060009054906101000a900473ffffffffffffffffffffffffffffffffffffffff1661157c600260ff16600260ff1661259690919063ffffffff16565b612774565b6115bd6002600084815260200190815260200160002060009054906101000a900473ffffffffffffffffffffffffffffffffffffffff16612849565b6115d5565b80806115cd906137ad565b9150506114fe565b5060005b87518110156116b0578781815181106115f5576115f461374f565b5b602002602001015182141561169d5761165c836002600085815260200190815260200160002060009054906101000a900473ffffffffffffffffffffffffffffffffffffffff16611657600160ff16600260ff1661259690919063ffffffff16565b612774565b6116986002600084815260200190815260200160002060009054906101000a900473ffffffffffffffffffffffffffffffffffffffff16612849565b6116b0565b80806116a8906137ad565b9150506115d9565b5060005b865181101561178b578681815181106116d0576116cf61374f565b5b602002602001015182141561177857611737836002600085815260200190815260200160002060009054906101000a900473ffffffffffffffffffffffffffffffffffffffff16611732600860ff16600160ff1661259690919063ffffffff16565b612774565b6117736002600084815260200190815260200160002060009054906101000a900473ffffffffffffffffffffffffffffffffffffffff16612849565b61178b565b8080611783906137ad565b9150506116b4565b5060005b8551811015611866578581815181106117ab576117aa61374f565b5b602002602001015182141561185357611812836002600085815260200190815260200160002060009054906101000a900473ffffffffffffffffffffffffffffffffffffffff1661180d600460ff16600160ff1661259690919063ffffffff16565b612774565b61184e6002600084815260200190815260200160002060009054906101000a900473ffffffffffffffffffffffffffffffffffffffff16612849565b611866565b808061185e906137ad565b91505061178f565b5060005b8451811015611941578481815181106118865761188561374f565b5b602002602001015182141561192e576118ed836002600085815260200190815260200160002060009054906101000a900473ffffffffffffffffffffffffffffffffffffffff166118e8600260ff16600160ff1661259690919063ffffffff16565b612774565b6119296002600084815260200190815260200160002060009054906101000a900473ffffffffffffffffffffffffffffffffffffffff16612849565b611941565b8080611939906137ad565b91505061186a565b5060005b8351811015611a1c578381815181106119615761196061374f565b5b6020026020010151821415611a09576119c8836002600085815260200190815260200160002060009054906101000a900473ffffffffffffffffffffffffffffffffffffffff166119c3600160ff16600160ff1661259690919063ffffffff16565b612774565b611a046002600084815260200190815260200160002060009054906101000a900473ffffffffffffffffffffffffffffffffffffffff16612849565b611a1c565b8080611a14906137ad565b915050611945565b505b5b8080611a2a906137ad565b9150506112a6565b50505050505050505050565b611a4661258e565b73ffffffffffffffffffffffffffffffffffffffff16611a64611aec565b73ffffffffffffffffffffffffffffffffffffffff1614611aba576040517f08c379a0000000000000000000000000000000000000000000000000000000008152600401611ab19061369d565b60405180910390fd5b611ac460006128f4565b565b600760009054906101000a900473ffffffffffffffffffffffffffffffffffffffff1681565b60008060009054906101000a900473ffffffffffffffffffffffffffffffffffffffff16905090565b600080600090506000806301e1338085611b2f9190613992565b6107b261ffff16611b4091906139c3565b9150611b516107b261ffff16611cce565b611b5e8361ffff16611cce565b611b6891906137f6565b9050806301e28500611b7a9190613a19565b83611b8591906139c3565b9250806107b283611b969190613a73565b61ffff16611ba491906137f6565b6301e13380611bb39190613a19565b83611bbe91906139c3565b92505b84831115611c2157611bde600183611bd99190613a73565b611c2c565b15611bfa576301e2850083611bf391906137f6565b9250611c0d565b6301e1338083611c0a91906137f6565b92505b600182611c1a9190613a73565b9150611bc1565b819350505050919050565b600080600483611c3c9190613aa7565b61ffff1614611c4e5760009050611c96565b6000606483611c5d9190613aa7565b61ffff1614611c6f5760019050611c96565b600061019083611c7f9190613aa7565b61ffff1614611c915760009050611c96565b600190505b919050565b60026020528060005260406000206000915054906101000a900473ffffffffffffffffffffffffffffffffffffffff1681565b6000600182611cdd91906137f6565b915061019082611ced9190613992565b606483611cfa9190613992565b600484611d079190613992565b611d1191906137f6565b611d1b91906139c3565b9050919050565b600060018360ff161480611d39575060038360ff16145b80611d47575060058360ff16145b80611d55575060078360ff16145b80611d63575060088360ff16145b80611d715750600a8360ff16145b80611d7f5750600c8360ff16145b15611d8d57601f9050611de8565b60048360ff161480611da2575060068360ff16145b80611db0575060098360ff16145b80611dbe5750600b8360ff16145b15611dcc57601e9050611de8565b611dd582611c2c565b15611de357601d9050611de8565b601c90505b92915050565b565b60001515600a60009054906101000a900460ff16151514611e46576040517f08c379a0000000000000000000000000000000000000000000000000000000008152600401611e3d90613b24565b60405180910390fd5b600760009054906101000a900473ffffffffffffffffffffffffffffffffffffffff1673ffffffffffffffffffffffffffffffffffffffff16636352211e826040518263ffffffff1660e01b8152600401611ea19190612c50565b602060405180830381865afa158015611ebe573d6000803e3d6000fd5b505050506040513d601f19601f82011682018060405250810190611ee29190613b59565b73ffffffffffffffffffffffffffffffffffffffff163373ffffffffffffffffffffffffffffffffffffffff1614611f4f576040517f08c379a0000000000000000000000000000000000000000000000000000000008152600401611f4690613bf8565b60405180910390fd5b600760009054906101000a900473ffffffffffffffffffffffffffffffffffffffff1673ffffffffffffffffffffffffffffffffffffffff166323b872dd3330846040518463ffffffff1660e01b8152600401611fae93929190613896565b600060405180830381600087803b158015611fc857600080fd5b505af1158015611fdc573d6000803e3d6000fd5b50505050336002600083815260200190815260200160002060006101000a81548173ffffffffffffffffffffffffffffffffffffffff021916908373ffffffffffffffffffffffffffffffffffffffff160217905550426001600083815260200190815260200160002081905550600b600081548092919061205d906137ad565b919050555050565b61206d61258e565b73ffffffffffffffffffffffffffffffffffffffff1661208b611aec565b73ffffffffffffffffffffffffffffffffffffffff16146120e1576040517f08c379a00000000000000000000000000000000000000000000000000000000081526004016120d89061369d565b60405180910390fd5b60006120eb6126b3565b90506120f8818484612774565b505050565b60008160014361210d91906137f6565b4060001c61211b9190613c18565b9050919050565b60016020528060005260406000206000915090505481565b6004818154811061214a57600080fd5b90600052602060002090600302016000915090508060000160009054906101000a900460ff16908060000160019054906101000a900473ffffffffffffffffffffffffffffffffffffffff16908060010154908060020160009054906101000a900461ffff16905084565b600a60009054906101000a900460ff1681565b600b5481565b6121d661258e565b73ffffffffffffffffffffffffffffffffffffffff166121f4611aec565b73ffffffffffffffffffffffffffffffffffffffff161461224a576040517f08c379a00000000000000000000000000000000000000000000000000000000081526004016122419061369d565b60405180910390fd5b8060088190555050565b61225c61258e565b73ffffffffffffffffffffffffffffffffffffffff1661227a611aec565b73ffffffffffffffffffffffffffffffffffffffff16146122d0576040517f08c379a00000000000000000000000000000000000000000000000000000000081526004016122c79061369d565b60405180910390fd5b60011515600a60009054906101000a900460ff16151514612326576040517f08c379a000000000000000000000000000000000000000000000000000000000815260040161231d90613c95565b60405180910390fd5b6000600a60006101000a81548160ff021916908315150217905550565b600660009054906101000a900473ffffffffffffffffffffffffffffffffffffffff1681565b61237161258e565b73ffffffffffffffffffffffffffffffffffffffff1661238f611aec565b73ffffffffffffffffffffffffffffffffffffffff16146123e5576040517f08c379a00000000000000000000000000000000000000000000000000000000081526004016123dc9061369d565b60405180910390fd5b83600660006101000a81548173ffffffffffffffffffffffffffffffffffffffff021916908373ffffffffffffffffffffffffffffffffffffffff16021790555082600760006101000a81548173ffffffffffffffffffffffffffffffffffffffff021916908373ffffffffffffffffffffffffffffffffffffffff16021790555081600881905550806009819055506001600a60006101000a81548160ff02191690831515021790555050505050565b61249e61258e565b73ffffffffffffffffffffffffffffffffffffffff166124bc611aec565b73ffffffffffffffffffffffffffffffffffffffff1614612512576040517f08c379a00000000000000000000000000000000000000000000000000000000081526004016125099061369d565b60405180910390fd5b600073ffffffffffffffffffffffffffffffffffffffff168173ffffffffffffffffffffffffffffffffffffffff161415612582576040517f08c379a000000000000000000000000000000000000000000000000000000000815260040161257990613d27565b60405180910390fd5b61258b816128f4565b50565b600033905090565b600081836125a49190613a19565b905092915050565b600081836125ba91906139c3565b905092915050565b8073ffffffffffffffffffffffffffffffffffffffff166108fc479081150290604051600060405180830381858888f19350505050158015612608573d6000803e3d6000fd5b5050565b6000806000905060005b6008548110156126a9578373ffffffffffffffffffffffffffffffffffffffff166002600083815260200190815260200160002060009054906101000a900473ffffffffffffffffffffffffffffffffffffffff1673ffffffffffffffffffffffffffffffffffffffff161415612696578180612692906137ad565b9250505b80806126a1906137ad565b915050612616565b5080915050919050565b60008042905060006126c4826129b8565b905060006126fd826020015160ff166126ef6064856000015161ffff1661259690919063ffffffff16565b6125ac90919063ffffffff16565b905060036000828152602001908152602001600020935081600001518460000160166101000a81548161ffff021916908361ffff16021790555081602001518460000160156101000a81548160ff021916908360ff16021790555050505090565b6000818361276c91906137f6565b905092915050565b6000600460018160018154018082558091505003906000526020600020906003020190508360000160159054906101000a900460ff168160000160006101000a81548160ff021916908360ff160217905550828160000160016101000a81548173ffffffffffffffffffffffffffffffffffffffff021916908373ffffffffffffffffffffffffffffffffffffffff1602179055508181600101819055508360000160169054906101000a900461ffff168160020160006101000a81548161ffff021916908361ffff16021790555050505050565b600660009054906101000a900473ffffffffffffffffffffffffffffffffffffffff1673ffffffffffffffffffffffffffffffffffffffff166340c10f19826012600a6128969190613e7a565b60016128a29190613a19565b6040518363ffffffff1660e01b81526004016128bf929190613ec5565b600060405180830381600087803b1580156128d957600080fd5b505af11580156128ed573d6000803e3d6000fd5b5050505050565b60008060009054906101000a900473ffffffffffffffffffffffffffffffffffffffff169050816000806101000a81548173ffffffffffffffffffffffffffffffffffffffff021916908373ffffffffffffffffffffffffffffffffffffffff1602179055508173ffffffffffffffffffffffffffffffffffffffff168173ffffffffffffffffffffffffffffffffffffffff167f8be0079c531659141344cd1fd0a4f28419497f9722a3daafe3b4186f6b6457e060405160405180910390a35050565b6129c0612bc7565b600080806129cd85611b15565b846000019061ffff16908161ffff16815250506129ef6107b261ffff16611cce565b612a00856000015161ffff16611cce565b612a0a91906137f6565b9150816301e28500612a1c9190613a19565b83612a2791906139c3565b9250816107b28560000151612a3c9190613a73565b61ffff16612a4a91906137f6565b6301e13380612a599190613a19565b83612a6491906139c3565b92506000600191505b600c8260ff1611612ae457612a86828660000151611d22565b60ff1662015180612a979190613a19565b9050858482612aa691906139c3565b1115612ac35781856020019060ff16908160ff1681525050612ae4565b8084612acf91906139c3565b93508180612adc90613eee565b925050612a6d565b600191505b612afb85602001518660000151611d22565b60ff168260ff1611612b5857858462015180612b1791906139c3565b1115612b345781856040019060ff16908160ff1681525050612b58565b6201518084612b4391906139c3565b93508180612b5090613eee565b925050612ae9565b50505050919050565b5080546000825590600052602060002090810190612b7f9190612c1a565b50565b6040518060800160405280600060ff168152602001600073ffffffffffffffffffffffffffffffffffffffff16815260200160008152602001600061ffff1681525090565b6040518060e00160405280600061ffff168152602001600060ff168152602001600060ff168152602001600060ff168152602001600060ff168152602001600060ff168152602001600060ff1681525090565b5b80821115612c33576000816000905550600101612c1b565b5090565b6000819050919050565b612c4a81612c37565b82525050565b6000602082019050612c656000830184612c41565b92915050565b6000604051905090565b600080fd5b600080fd5b600060ff82169050919050565b612c9581612c7f565b8114612ca057600080fd5b50565b600081359050612cb281612c8c565b92915050565b600061ffff82169050919050565b612ccf81612cb8565b8114612cda57600080fd5b50565b600081359050612cec81612cc6565b92915050565b60008060408385031215612d0957612d08612c75565b5b6000612d1785828601612ca3565b9250506020612d2885828601612cdd565b9150509250929050565b600073ffffffffffffffffffffffffffffffffffffffff82169050919050565b6000612d5d82612d32565b9050919050565b612d6d81612d52565b82525050565b6000602082019050612d886000830184612d64565b92915050565b612d9781612c37565b8114612da257600080fd5b50565b600081359050612db481612d8e565b92915050565b600060208284031215612dd057612dcf612c75565b5b6000612dde84828501612da5565b91505092915050565b60008115159050919050565b612dfc81612de7565b82525050565b612e0b81612c7f565b82525050565b612e1a81612cb8565b82525050565b6000608082019050612e356000830187612df3565b612e426020830186612d64565b612e4f6040830185612e02565b612e5c6060830184612e11565b95945050505050565b612e6e81612d52565b8114612e7957600080fd5b50565b600081359050612e8b81612e65565b92915050565b600060208284031215612ea757612ea6612c75565b5b6000612eb584828501612e7c565b91505092915050565b600081519050919050565b600082825260208201905092915050565b6000819050602082019050919050565b612ef381612c37565b82525050565b6000612f058383612eea565b60208301905092915050565b6000602082019050919050565b6000612f2982612ebe565b612f338185612ec9565b9350612f3e83612eda565b8060005b83811015612f6f578151612f568882612ef9565b9750612f6183612f11565b925050600181019050612f42565b5085935050505092915050565b60006020820190508181036000830152612f968184612f1e565b905092915050565b60008060408385031215612fb557612fb4612c75565b5b6000612fc385828601612cdd565b9250506020612fd485828601612ca3565b9150509250929050565b600081519050919050565b600082825260208201905092915050565b6000819050602082019050919050565b61301381612c7f565b82525050565b61302281612d52565b82525050565b61303181612cb8565b82525050565b60808201600082015161304d600085018261300a565b5060208201516130606020850182613019565b5060408201516130736040850182612eea565b5060608201516130866060850182613028565b50505050565b60006130988383613037565b60808301905092915050565b6000602082019050919050565b60006130bc82612fde565b6130c68185612fe9565b93506130d183612ffa565b8060005b838110156131025781516130e9888261308c565b97506130f4836130a4565b9250506001810190506130d5565b5085935050505092915050565b6000602082019050818103600083015261312981846130b1565b905092915050565b600080fd5b6000601f19601f8301169050919050565b7f4e487b7100000000000000000000000000000000000000000000000000000000600052604160045260246000fd5b61317f82613136565b810181811067ffffffffffffffff8211171561319e5761319d613147565b5b80604052505050565b60006131b1612c6b565b90506131bd8282613176565b919050565b600067ffffffffffffffff8211156131dd576131dc613147565b5b602082029050602081019050919050565b600080fd5b6000613206613201846131c2565b6131a7565b90508083825260208201905060208402830185811115613229576132286131ee565b5b835b81811015613252578061323e8882612da5565b84526020840193505060208101905061322b565b5050509392505050565b600082601f83011261327157613270613131565b5b81356132818482602086016131f3565b91505092915050565b600080600080600080600080610100898b0312156132ab576132aa612c75565b5b600089013567ffffffffffffffff8111156132c9576132c8612c7a565b5b6132d58b828c0161325c565b985050602089013567ffffffffffffffff8111156132f6576132f5612c7a565b5b6133028b828c0161325c565b975050604089013567ffffffffffffffff81111561332357613322612c7a565b5b61332f8b828c0161325c565b965050606089013567ffffffffffffffff8111156133505761334f612c7a565b5b61335c8b828c0161325c565b955050608089013567ffffffffffffffff81111561337d5761337c612c7a565b5b6133898b828c0161325c565b94505060a089013567ffffffffffffffff8111156133aa576133a9612c7a565b5b6133b68b828c0161325c565b93505060c089013567ffffffffffffffff8111156133d7576133d6612c7a565b5b6133e38b828c0161325c565b92505060e089013567ffffffffffffffff81111561340457613403612c7a565b5b6134108b828c0161325c565b9150509295985092959890939650565b6000819050919050565b600061344561344061343b84612d32565b613420565b612d32565b9050919050565b60006134578261342a565b9050919050565b60006134698261344c565b9050919050565b6134798161345e565b82525050565b60006020820190506134946000830184613470565b92915050565b60006020820190506134af6000830184612e11565b92915050565b6000602082840312156134cb576134ca612c75565b5b60006134d984828501612cdd565b91505092915050565b60006020820190506134f76000830184612df3565b92915050565b60006020820190506135126000830184612e02565b92915050565b6000806040838503121561352f5761352e612c75565b5b600061353d85828601612e7c565b925050602061354e85828601612da5565b9150509250929050565b600060808201905061356d6000830187612e02565b61357a6020830186612d64565b6135876040830185612c41565b6135946060830184612e11565b95945050505050565b60006135a88261344c565b9050919050565b6135b88161359d565b82525050565b60006020820190506135d360008301846135af565b92915050565b600080600080608085870312156135f3576135f2612c75565b5b600061360187828801612e7c565b945050602061361287828801612e7c565b935050604061362387828801612da5565b925050606061363487828801612da5565b91505092959194509250565b600082825260208201905092915050565b7f4f776e61626c653a2063616c6c6572206973206e6f7420746865206f776e6572600082015250565b6000613687602083613640565b915061369282613651565b602082019050919050565b600060208201905081810360008301526136b68161367a565b9050919050565b7f54686973206c6f74746572792068617320616c7265616479206265656e20647260008201527f61776e0000000000000000000000000000000000000000000000000000000000602082015250565b6000613719602383613640565b9150613724826136bd565b604082019050919050565b600060208201905081810360008301526137488161370c565b9050919050565b7f4e487b7100000000000000000000000000000000000000000000000000000000600052603260045260246000fd5b7f4e487b7100000000000000000000000000000000000000000000000000000000600052601160045260246000fd5b60006137b882612c37565b91507fffffffffffffffffffffffffffffffffffffffffffffffffffffffffffffffff8214156137eb576137ea61377e565b5b600182019050919050565b600061380182612c37565b915061380c83612c37565b92508282101561381f5761381e61377e565b5b828203905092915050565b7f596f7520646964206e6f74207374616b65207468697320746f6b656e00000000600082015250565b6000613860601c83613640565b915061386b8261382a565b602082019050919050565b6000602082019050818103600083015261388f81613853565b9050919050565b60006060820190506138ab6000830186612d64565b6138b86020830185612d64565b6138c56040830184612c41565b949350505050565b60006138d882612c37565b915060008214156138ec576138eb61377e565b5b600182039050919050565b7f5374616b696e6720697320616c72656164792070617573656400000000000000600082015250565b600061392d601983613640565b9150613938826138f7565b602082019050919050565b6000602082019050818103600083015261395c81613920565b9050919050565b7f4e487b7100000000000000000000000000000000000000000000000000000000600052601260045260246000fd5b600061399d82612c37565b91506139a883612c37565b9250826139b8576139b7613963565b5b828204905092915050565b60006139ce82612c37565b91506139d983612c37565b9250827fffffffffffffffffffffffffffffffffffffffffffffffffffffffffffffffff03821115613a0e57613a0d61377e565b5b828201905092915050565b6000613a2482612c37565b9150613a2f83612c37565b9250817fffffffffffffffffffffffffffffffffffffffffffffffffffffffffffffffff0483118215151615613a6857613a6761377e565b5b828202905092915050565b6000613a7e82612cb8565b9150613a8983612cb8565b925082821015613a9c57613a9b61377e565b5b828203905092915050565b6000613ab282612cb8565b9150613abd83612cb8565b925082613acd57613acc613963565b5b828206905092915050565b7f5374616b696e672069732063757272656e746c79207061757365640000000000600082015250565b6000613b0e601b83613640565b9150613b1982613ad8565b602082019050919050565b60006020820190508181036000830152613b3d81613b01565b9050919050565b600081519050613b5381612e65565b92915050565b600060208284031215613b6f57613b6e612c75565b5b6000613b7d84828501613b44565b91505092915050565b7f596f7520617265206e6f7420746865206f776e6572206f66207468697320746f60008201527f6b656e0000000000000000000000000000000000000000000000000000000000602082015250565b6000613be2602383613640565b9150613bed82613b86565b604082019050919050565b60006020820190508181036000830152613c1181613bd5565b9050919050565b6000613c2382612c37565b9150613c2e83612c37565b925082613c3e57613c3d613963565b5b828206905092915050565b7f5374616b696e672068617320616c726561647920737461727465640000000000600082015250565b6000613c7f601b83613640565b9150613c8a82613c49565b602082019050919050565b60006020820190508181036000830152613cae81613c72565b9050919050565b7f4f776e61626c653a206e6577206f776e657220697320746865207a65726f206160008201527f6464726573730000000000000000000000000000000000000000000000000000602082015250565b6000613d11602683613640565b9150613d1c82613cb5565b604082019050919050565b60006020820190508181036000830152613d4081613d04565b9050919050565b60008160011c9050919050565b6000808291508390505b6001851115613d9e57808604811115613d7a57613d7961377e565b5b6001851615613d895780820291505b8081029050613d9785613d47565b9450613d5e565b94509492505050565b600082613db75760019050613e73565b81613dc55760009050613e73565b8160018114613ddb5760028114613de557613e14565b6001915050613e73565b60ff841115613df757613df661377e565b5b8360020a915084821115613e0e57613e0d61377e565b5b50613e73565b5060208310610133831016604e8410600b8410161715613e495782820a905083811115613e4457613e4361377e565b5b613e73565b613e568484846001613d54565b92509050818404811115613e6d57613e6c61377e565b5b81810290505b9392505050565b6000613e8582612c37565b9150613e9083612c7f565b9250613ebd7fffffffffffffffffffffffffffffffffffffffffffffffffffffffffffffffff8484613da7565b905092915050565b6000604082019050613eda6000830185612d64565b613ee76020830184612c41565b9392505050565b6000613ef982612c7f565b915060ff821415613f0d57613f0c61377e565b5b60018201905091905056fea2646970667358221220887775cfbf64b055553e75769511e3e5bb1d4a5c2e76b0aecf98613f3e2fee0064736f6c634300080a0033",
  "immutableReferences": {},
  "source": "// SPDX-License-Identifier: MIT\npragma solidity ^0.8.2;\n\nimport \"@openzeppelin/contracts/token/ERC721/IERC721Receiver.sol\";\nimport \"@openzeppelin/contracts/token/ERC721/IERC721.sol\";\nimport \"@openzeppelin/contracts/access/Ownable.sol\";\nimport \"@openzeppelin/contracts/utils/math/safemath.sol\";\nimport \"./IFungibleToken.sol\";\n\ncontract LotteryStake is Ownable {\n    \n    using SafeMath for uint8;\n    using SafeMath for uint16;\n    using SafeMath for uint256;\n\n    struct _DateTime {\n        uint16 year;\n        uint8 month;\n        uint8 day;\n        uint8 hour;\n        uint8 minute;\n        uint8 second;\n        uint8 weekday;\n    }\n\n    struct Points {\n        uint8 month;\n        address participant;\n        uint points;\n        uint16 year;\n    }\n\n    struct Lottery {\n        bool drawExecuted;\n        address drawWinner;\n        uint8 month;\n        uint16 year;\n    }\n\n    mapping (uint => uint) public checkpoints;     //tokenId => timestamp\n    mapping (uint => address) public deposits;     //tokenId => address\n    mapping (uint => Lottery) public lotteries;\n    Points[] public lotteryPoints;\n    \n    address[] tickets;\n\n    IFungibleToken public fungibleToken;\n    IERC721 public nonFungibleToken;\n    uint public nftSupply;\n    uint public secondsBeforeEarning;\n    bool public stakingPaused;\n    uint public stakedTokens;\n\n    uint constant DAY_IN_SECONDS = 86400; \n    uint constant DAILY_TOKEN_REWARD = 1;\n    uint8 constant E1_MULTIPLIER = 2;\n    uint8 constant E2_MULTIPLIER = 1;\n    uint constant LEAP_YEAR_IN_SECONDS = 31622400;\n    uint16 constant ORIGIN_YEAR = 1970;\n    uint8 constant S1 = 1;\n    uint8 constant S2 = 2;\n    uint8 constant S3 = 4;\n    uint8 constant S4 = 8;\n    uint constant YEAR_IN_SECONDS = 31536000;\n    \n    function initialize(\n        address _fungibleToken,\n        address _nonFungibleToken,\n        uint _nftSupply,\n        uint _secondsBeforeEarning\n    ) onlyOwner external   \n    {\n        fungibleToken = IFungibleToken(_fungibleToken);\n        nonFungibleToken = IERC721(_nonFungibleToken);\n        nftSupply = _nftSupply;\n        secondsBeforeEarning = _secondsBeforeEarning;\n        stakingPaused = true;\n    }\n\n    function awardPoints(Lottery storage lt, address recipient, uint256 points) internal {\n        Points storage val = lotteryPoints.push();\n        val.month = lt.month;\n        val.participant = recipient;\n        val.points = points;\n        val.year = lt.year;\n    }\n\n    function awardToken(address recipient) internal {\n        fungibleToken.mint(recipient, DAILY_TOKEN_REWARD * (uint256(10) ** 18));\n    }\n\n    function bonusPoints(address recipient, uint points) external onlyOwner {\n        Lottery storage lt = currentLottery();\n        awardPoints(lt, recipient, points);\n    }\n\n    function currentLottery() internal returns (Lottery storage lt) {\n        uint time = block.timestamp;\n        _DateTime memory dt = parseTimestamp(time);\n\n        uint index = dt.year.mul(100).add(dt.month);\n\n        lt = lotteries[index];\n        lt.year = dt.year;\n        lt.month = dt.month;\n        \n        return lt;\n    }\n\n    function changeNftSupply(uint supply) external onlyOwner {\n        nftSupply = supply;\n    }\n\n    function deposit(uint tokenId) external {\n        require(stakingPaused == false, \"Staking is currently paused\");\n        require(msg.sender == nonFungibleToken.ownerOf(tokenId), \"You are not the owner of this token\");\n        nonFungibleToken.transferFrom(msg.sender, address(this), tokenId);\n        deposits[tokenId] = msg.sender;\n        checkpoints[tokenId] = block.timestamp;\n        stakedTokens++;\n    }\n\n    function fundLottery() payable external {\n\n    }\n\n    function getDaysInMonth(uint8 month, uint16 year) public pure returns (uint8) {\n        if (month == 1 || month == 3 || month == 5 || month == 7 || month == 8 || month == 10 || month == 12) {\n            return 31;\n        }\n        else if (month == 4 || month == 6 || month == 9 || month == 11) {\n            return 30;\n        }\n        else if (isLeapYear(year)) {\n            return 29;\n        }\n        else {\n            return 28;\n        }\n    }\n\n    function getLotteryPoints(uint16 year, uint8 month) public view returns (Points[] memory) {\n        uint count = 0;\n\n        for (uint x = 0; x < lotteryPoints.length; x++) {\n            if (lotteryPoints[x].month == month && lotteryPoints[x].year == year) {\n                count++;\n            }\n        }\n        \n        Points[] memory points = new Points[](count);\n        uint y = 0;\n\n        for (uint x = 0; x < lotteryPoints.length; x++) {\n            if (lotteryPoints[x].month == month && lotteryPoints[x].year == year) {\n                points[y] = lotteryPoints[x];\n                y++;\n            }\n        }\n\n        return points;\n    }\n\n    function getYear(uint timestamp) public pure returns (uint16) {\n        uint secondsAccountedFor = 0;\n        uint16 year;\n        uint numLeapYears;\n\n        // Year\n        year = uint16(ORIGIN_YEAR + timestamp / YEAR_IN_SECONDS);\n        numLeapYears = leapYearsBefore(year) - leapYearsBefore(ORIGIN_YEAR);\n\n        secondsAccountedFor += LEAP_YEAR_IN_SECONDS * numLeapYears;\n        secondsAccountedFor += YEAR_IN_SECONDS * (year - ORIGIN_YEAR - numLeapYears);\n\n        while (secondsAccountedFor > timestamp) {\n            if (isLeapYear(uint16(year - 1))) {\n                secondsAccountedFor -= LEAP_YEAR_IN_SECONDS;\n            }\n            else {\n                secondsAccountedFor -= YEAR_IN_SECONDS;\n            }\n            year -= 1;\n        }\n        return year;\n    }\n\n    function isLeapYear(uint16 year) public pure returns (bool) {\n        if (year % 4 != 0) {\n                return false;\n        }\n        if (year % 100 != 0) {\n                return true;\n        }\n        if (year % 400 != 0) {\n                return false;\n        }\n        return true;\n    }\n\n    function leapYearsBefore(uint year) public pure returns (uint) {\n        year -= 1;\n        return year / 4 - year / 100 + year / 400;\n    }\n\n    function parseTimestamp(uint timestamp) internal pure returns (_DateTime memory dt) {\n        uint secondsAccountedFor = 0;\n        uint buf;\n        uint8 i;\n\n        // Year\n        dt.year = getYear(timestamp);\n        buf = leapYearsBefore(dt.year) - leapYearsBefore(ORIGIN_YEAR);\n\n        secondsAccountedFor += LEAP_YEAR_IN_SECONDS * buf;\n        secondsAccountedFor += YEAR_IN_SECONDS * (dt.year - ORIGIN_YEAR - buf);\n\n        // Month\n        uint secondsInMonth;\n        for (i = 1; i <= 12; i++) {\n            secondsInMonth = DAY_IN_SECONDS * getDaysInMonth(i, dt.year);\n            if (secondsInMonth + secondsAccountedFor > timestamp) {\n                dt.month = i;\n                break;\n            }\n            secondsAccountedFor += secondsInMonth;\n        }\n\n        // Day\n        for (i = 1; i <= getDaysInMonth(dt.month, dt.year); i++) {\n            if (DAY_IN_SECONDS + secondsAccountedFor > timestamp) {\n                dt.day = i;\n                break;\n            }\n            secondsAccountedFor += DAY_IN_SECONDS;\n        }\n    }\n\n    function payContractBalance(address payable winner) internal {\n        winner.transfer(address(this).balance);\n    }\n\n    function random(uint max) public view returns (uint) {\n        return uint(blockhash(block.number - 1)) % max;\n    }\n\n    function randomDraw(uint8 month, uint16 year) external onlyOwner returns (address) {\n        uint index = year.mul(100).add(month);\n\n        Lottery storage lt = lotteries[index];\n        require(!lt.drawExecuted, \"This lottery has already been drawn\");\n        delete tickets;\n\n        for (uint x = 0; x < lotteryPoints.length; x++) {\n            if (lotteryPoints[x].month == month && lotteryPoints[x].year == year) {\n                for (uint y = 0; y < lotteryPoints[x].points; y++) {\n                    tickets.push(lotteryPoints[x].participant);\n                }\n            }\n        }\n\n        uint selectedNumber = random(tickets.length - 1);\n\n        lt.drawExecuted = true;\n        lt.drawWinner = tickets[selectedNumber];\n\n        delete tickets;\n\n        //pay the winner\n        payContractBalance(payable(lt.drawWinner));\n\n        return lt.drawWinner;\n    }\n\n    function reward(\n        uint[] memory s4e1, \n        uint[] memory s3e1, \n        uint[] memory s2e1,\n        uint[] memory s1e1,\n        uint[] memory s4e2, \n        uint[] memory s3e2, \n        uint[] memory s2e2,\n        uint[] memory s1e2\n    ) external onlyOwner {\n        Lottery storage lt = currentLottery();\n        \n        for (uint x = 0; x < nftSupply; x++) {\n            if (deposits[x] != address(0)) {\n                if (checkpoints[x] <= block.timestamp.sub(secondsBeforeEarning)) {\n\n                    //4 star - edition 1\n                    for (uint s = 0; s < s4e1.length; s++) {\n                        if (x == s4e1[s]) {\n                            awardPoints(lt, deposits[x], E1_MULTIPLIER.mul(S4));\n                            awardToken(deposits[x]);\n                            break;\n                        }\n                    }\n\n                    //3 star - edition 1\n                    for (uint s = 0; s < s3e1.length; s++) {\n                        if (x == s3e1[s]) {\n                            awardPoints(lt, deposits[x], E1_MULTIPLIER.mul(S3));\n                            awardToken(deposits[x]);\n                            break;\n                        }\n                    }\n\n                    //2 star - edition 1\n                    for (uint s = 0; s < s2e1.length; s++) {\n                        if (x == s2e1[s]) {\n                            awardPoints(lt, deposits[x], E1_MULTIPLIER.mul(S2));\n                            awardToken(deposits[x]);\n                            break;\n                        }\n                    }\n\n                    //1 star - edition 1\n                    for (uint s = 0; s < s1e1.length; s++) {\n                        if (x == s1e1[s]) {\n                            awardPoints(lt, deposits[x], E1_MULTIPLIER.mul(S1));\n                            awardToken(deposits[x]);\n                            break;\n                        }\n                    }\n\n                    //4 star - edition 2\n                    for (uint s = 0; s < s4e2.length; s++) {\n                        if (x == s4e2[s]) {\n                            awardPoints(lt, deposits[x], E2_MULTIPLIER.mul(S4));\n                            awardToken(deposits[x]);\n                            break;\n                        }\n                    }\n\n                    //3 star - edition 2\n                    for (uint s = 0; s < s3e2.length; s++) {\n                        if (x == s3e2[s]) {\n                            awardPoints(lt, deposits[x], E2_MULTIPLIER.mul(S3));\n                            awardToken(deposits[x]);\n                            break;\n                        }\n                    }\n\n                    //2 star - edition 2\n                    for (uint s = 0; s < s2e2.length; s++) {\n                        if (x == s2e2[s]) {\n                            awardPoints(lt, deposits[x], E2_MULTIPLIER.mul(S2));\n                            awardToken(deposits[x]);\n                            break;\n                        }\n                    }\n\n                    //1 star - edition 2\n                    for (uint s = 0; s < s1e2.length; s++) {\n                        if (x == s1e2[s]) {\n                            awardPoints(lt, deposits[x], E2_MULTIPLIER.mul(S1));\n                            awardToken(deposits[x]);\n                            break;\n                        }\n                    }\n                }\n            }\n        }\n    }\n\n    function stakingPause() external onlyOwner {\n        require(stakingPaused == false, \"Staking is already paused\");\n        stakingPaused = true;\n    }\n\n    function stakingStart() external onlyOwner {\n        require(stakingPaused == true, \"Staking has already started\");\n        stakingPaused = false;\n    }\n\n    function tokensStaked(address staker) external view returns (uint[] memory) {\n        uint[] memory results = new uint[](tokensCountStaked(staker));\n        uint index = 0;\n        for (uint x = 0; x < nftSupply; x++) {\n            if (deposits[x] == staker) {\n                results[index] = x;\n                index++;\n            }\n        }\n\n        return results;\n    }\n\n    function tokensCountStaked(address staker) internal view returns (uint) {\n        uint result = 0;\n        for (uint x = 0; x < nftSupply; x++) {\n            if (deposits[x] == staker) {\n                result++;\n            }\n        }\n        return result;\n    }\n\n    function withdraw(uint tokenId) external {\n        require(deposits[tokenId] == msg.sender, \"You did not stake this token\");\n        nonFungibleToken.transferFrom(address(this), msg.sender, tokenId);\n        delete deposits[tokenId];\n        delete checkpoints[tokenId];\n        stakedTokens--;\n    }\n}",
  "sourcePath": "/Users/warrenschwartz/Projects/MintedHistory_Lottery/lottery/contracts/LotteryStake.sol",
  "compiler": {
    "name": "solc",
    "version": "0.8.10+commit.fc410830.Emscripten.clang"
  },
  "schemaVersion": "3.4.3",
  "updatedAt": "2022-01-15T04:50:58.213Z",
  "devdoc": {
    "kind": "dev",
    "methods": {
      "owner()": {
        "details": "Returns the address of the current owner."
      },
      "renounceOwnership()": {
        "details": "Leaves the contract without owner. It will not be possible to call `onlyOwner` functions anymore. Can only be called by the current owner. NOTE: Renouncing ownership will leave the contract without an owner, thereby removing any functionality that is only available to the owner."
      },
      "transferOwnership(address)": {
        "details": "Transfers ownership of the contract to a new account (`newOwner`). Can only be called by the current owner."
      }
    },
    "version": 1
  },
  "userdoc": {
    "kind": "user",
    "methods": {},
    "version": 1
  }
}