{
  "contractName": "LotteryStake",
  "abi": [
    {
      "inputs": [
        {
          "internalType": "address",
          "name": "_fungibleToken",
          "type": "address"
        },
        {
          "internalType": "address",
          "name": "_nonFungibleToken",
          "type": "address"
        },
        {
          "internalType": "uint256",
          "name": "_nftSupply",
          "type": "uint256"
        }
      ],
      "stateMutability": "nonpayable",
      "type": "constructor"
    },
    {
      "anonymous": false,
      "inputs": [
        {
          "indexed": true,
          "internalType": "address",
          "name": "previousOwner",
          "type": "address"
        },
        {
          "indexed": true,
          "internalType": "address",
          "name": "newOwner",
          "type": "address"
        }
      ],
      "name": "OwnershipTransferred",
      "type": "event"
    },
    {
      "inputs": [],
      "name": "fungibleToken",
      "outputs": [
        {
          "internalType": "contract IFungibleToken",
          "name": "",
          "type": "address"
        }
      ],
      "stateMutability": "view",
      "type": "function"
    },
    {
      "inputs": [],
      "name": "nftSupply",
      "outputs": [
        {
          "internalType": "uint256",
          "name": "",
          "type": "uint256"
        }
      ],
      "stateMutability": "view",
      "type": "function"
    },
    {
      "inputs": [],
      "name": "nonFungibleToken",
      "outputs": [
        {
          "internalType": "contract IERC721",
          "name": "",
          "type": "address"
        }
      ],
      "stateMutability": "view",
      "type": "function"
    },
    {
      "inputs": [],
      "name": "owner",
      "outputs": [
        {
          "internalType": "address",
          "name": "",
          "type": "address"
        }
      ],
      "stateMutability": "view",
      "type": "function"
    },
    {
      "inputs": [],
      "name": "renounceOwnership",
      "outputs": [],
      "stateMutability": "nonpayable",
      "type": "function"
    },
    {
      "inputs": [
        {
          "internalType": "address",
          "name": "newOwner",
          "type": "address"
        }
      ],
      "name": "transferOwnership",
      "outputs": [],
      "stateMutability": "nonpayable",
      "type": "function"
    },
    {
      "inputs": [
        {
          "internalType": "uint256",
          "name": "tokenId",
          "type": "uint256"
        }
      ],
      "name": "deposit",
      "outputs": [],
      "stateMutability": "nonpayable",
      "type": "function"
    },
    {
      "inputs": [
        {
          "internalType": "uint8",
          "name": "month",
          "type": "uint8"
        },
        {
          "internalType": "uint16",
          "name": "year",
          "type": "uint16"
        }
      ],
      "name": "getDaysInMonth",
      "outputs": [
        {
          "internalType": "uint8",
          "name": "",
          "type": "uint8"
        }
      ],
      "stateMutability": "pure",
      "type": "function"
    },
    {
      "inputs": [
        {
          "internalType": "uint256",
          "name": "timestamp",
          "type": "uint256"
        }
      ],
      "name": "getYear",
      "outputs": [
        {
          "internalType": "uint16",
          "name": "",
          "type": "uint16"
        }
      ],
      "stateMutability": "pure",
      "type": "function"
    },
    {
      "inputs": [
        {
          "internalType": "uint16",
          "name": "year",
          "type": "uint16"
        }
      ],
      "name": "isLeapYear",
      "outputs": [
        {
          "internalType": "bool",
          "name": "",
          "type": "bool"
        }
      ],
      "stateMutability": "pure",
      "type": "function"
    },
    {
      "inputs": [
        {
          "internalType": "uint256",
          "name": "year",
          "type": "uint256"
        }
      ],
      "name": "leapYearsBefore",
      "outputs": [
        {
          "internalType": "uint256",
          "name": "",
          "type": "uint256"
        }
      ],
      "stateMutability": "pure",
      "type": "function"
    },
    {
      "inputs": [
        {
          "internalType": "uint8",
          "name": "month",
          "type": "uint8"
        },
        {
          "internalType": "uint16",
          "name": "year",
          "type": "uint16"
        }
      ],
      "name": "randomDraw",
      "outputs": [
        {
          "internalType": "address",
          "name": "",
          "type": "address"
        }
      ],
      "stateMutability": "nonpayable",
      "type": "function"
    },
    {
      "inputs": [
        {
          "internalType": "uint256[]",
          "name": "s4e1",
          "type": "uint256[]"
        },
        {
          "internalType": "uint256[]",
          "name": "s3e1",
          "type": "uint256[]"
        },
        {
          "internalType": "uint256[]",
          "name": "s2e1",
          "type": "uint256[]"
        },
        {
          "internalType": "uint256[]",
          "name": "s1e1",
          "type": "uint256[]"
        },
        {
          "internalType": "uint256[]",
          "name": "s4e2",
          "type": "uint256[]"
        },
        {
          "internalType": "uint256[]",
          "name": "s3e2",
          "type": "uint256[]"
        },
        {
          "internalType": "uint256[]",
          "name": "s2e2",
          "type": "uint256[]"
        },
        {
          "internalType": "uint256[]",
          "name": "s1e2",
          "type": "uint256[]"
        }
      ],
      "name": "reward",
      "outputs": [],
      "stateMutability": "nonpayable",
      "type": "function"
    },
    {
      "inputs": [
        {
          "internalType": "uint256",
          "name": "tokenId",
          "type": "uint256"
        }
      ],
      "name": "withdraw",
      "outputs": [],
      "stateMutability": "nonpayable",
      "type": "function"
    }
  ],
  "bytecode": "0x60806040523480156200001157600080fd5b5060405162002ab938038062002ab983398181016040528101906200003791906200025a565b620000576200004b620000e960201b60201c565b620000f160201b60201c565b82600560006101000a81548173ffffffffffffffffffffffffffffffffffffffff021916908373ffffffffffffffffffffffffffffffffffffffff16021790555081600660006101000a81548173ffffffffffffffffffffffffffffffffffffffff021916908373ffffffffffffffffffffffffffffffffffffffff16021790555080600781905550505050620002b6565b600033905090565b60008060009054906101000a900473ffffffffffffffffffffffffffffffffffffffff169050816000806101000a81548173ffffffffffffffffffffffffffffffffffffffff021916908373ffffffffffffffffffffffffffffffffffffffff1602179055508173ffffffffffffffffffffffffffffffffffffffff168173ffffffffffffffffffffffffffffffffffffffff167f8be0079c531659141344cd1fd0a4f28419497f9722a3daafe3b4186f6b6457e060405160405180910390a35050565b600080fd5b600073ffffffffffffffffffffffffffffffffffffffff82169050919050565b6000620001e782620001ba565b9050919050565b620001f981620001da565b81146200020557600080fd5b50565b6000815190506200021981620001ee565b92915050565b6000819050919050565b62000234816200021f565b81146200024057600080fd5b50565b600081519050620002548162000229565b92915050565b600080600060608486031215620002765762000275620001b5565b5b6000620002868682870162000208565b9350506020620002998682870162000208565b9250506040620002ac8682870162000243565b9150509250925092565b6127f380620002c66000396000f3fe608060405234801561001057600080fd5b50600436106100ea5760003560e01c806392d663131161008c578063b238ad0e11610066578063b238ad0e1461024b578063b6b55f251461027b578063e5873ec214610297578063f2fde38b146102b5576100ea565b806392d66313146101bb578063a6f0e577146101eb578063b19999371461021b576100ea565b806362791645116100c85780636279164514610159578063715018a6146101755780637ac27d191461017f5780638da5cb5b1461019d576100ea565b806301790e01146100ef57806306947d761461010d5780632e1a7d4d1461013d575b600080fd5b6100f76102d1565b6040516101049190611a07565b60405180910390f35b61012760048036038101906101229190611aa9565b6102d7565b6040516101349190611b2a565b60405180910390f35b61015760048036038101906101529190611b71565b610644565b005b610173600480360381019061016e9190611cf7565b6107c6565b005b61017d610e4f565b005b610187610ed7565b6040516101949190611eec565b60405180910390f35b6101a5610efd565b6040516101b29190611b2a565b60405180910390f35b6101d560048036038101906101d09190611b71565b610f26565b6040516101e29190611f16565b60405180910390f35b61020560048036038101906102009190611f31565b61103d565b6040516102129190611f79565b60405180910390f35b61023560048036038101906102309190611b71565b6110ac565b6040516102429190611a07565b60405180910390f35b61026560048036038101906102609190611aa9565b611100565b6040516102729190611fa3565b60405180910390f35b61029560048036038101906102909190611b71565b6111cc565b005b61029f6113d3565b6040516102ac9190611fdf565b60405180910390f35b6102cf60048036038101906102ca9190612026565b6113f9565b005b60075481565b60006102e16114f1565b73ffffffffffffffffffffffffffffffffffffffff166102ff610efd565b73ffffffffffffffffffffffffffffffffffffffff1614610355576040517f08c379a000000000000000000000000000000000000000000000000000000000815260040161034c906120b0565b60405180910390fd5b60006103848460ff1661037660648661ffff166114f990919063ffffffff16565b61150f90919063ffffffff16565b905060006003600083815260200190815260200160002090508060000160009054906101000a900460ff16156103ef576040517f08c379a00000000000000000000000000000000000000000000000000000000081526004016103e690612142565b60405180910390fd5b600460006103fd919061195d565b60005b60075481101561054957600073ffffffffffffffffffffffffffffffffffffffff166002600083815260200190815260200160002060009054906101000a900473ffffffffffffffffffffffffffffffffffffffff1673ffffffffffffffffffffffffffffffffffffffff1614610536576000826001016000838152602001908152602001600020905060005b81600101548110156105335760048260000160009054906101000a900473ffffffffffffffffffffffffffffffffffffffff169080600181540180825580915050600190039060005260206000200160009091909190916101000a81548173ffffffffffffffffffffffffffffffffffffffff021916908373ffffffffffffffffffffffffffffffffffffffff160217905550808061052b90612191565b91505061048d565b50505b808061054190612191565b915050610400565b506000610566600160048054905061056191906121da565b611525565b905060018260000160006101000a81548160ff021916908315150217905550600481815481106105995761059861220e565b5b9060005260206000200160009054906101000a900473ffffffffffffffffffffffffffffffffffffffff168260000160016101000a81548173ffffffffffffffffffffffffffffffffffffffff021916908373ffffffffffffffffffffffffffffffffffffffff16021790555060046000610614919061195d565b8160000160019054906101000a900473ffffffffffffffffffffffffffffffffffffffff16935050505092915050565b3373ffffffffffffffffffffffffffffffffffffffff166002600083815260200190815260200160002060009054906101000a900473ffffffffffffffffffffffffffffffffffffffff1673ffffffffffffffffffffffffffffffffffffffff16146106e5576040517f08c379a00000000000000000000000000000000000000000000000000000000081526004016106dc90612289565b60405180910390fd5b600660009054906101000a900473ffffffffffffffffffffffffffffffffffffffff1673ffffffffffffffffffffffffffffffffffffffff166323b872dd3033846040518463ffffffff1660e01b8152600401610744939291906122a9565b600060405180830381600087803b15801561075e57600080fd5b505af1158015610772573d6000803e3d6000fd5b505050506002600082815260200190815260200160002060006101000a81549073ffffffffffffffffffffffffffffffffffffffff0219169055600160008281526020019081526020016000206000905550565b6107ce6114f1565b73ffffffffffffffffffffffffffffffffffffffff166107ec610efd565b73ffffffffffffffffffffffffffffffffffffffff1614610842576040517f08c379a0000000000000000000000000000000000000000000000000000000008152600401610839906120b0565b60405180910390fd5b600061084c61154a565b905060005b600754811015610e4357600073ffffffffffffffffffffffffffffffffffffffff166002600083815260200190815260200160002060009054906101000a900473ffffffffffffffffffffffffffffffffffffffff1673ffffffffffffffffffffffffffffffffffffffff1614610e30576108d862015180426115b190919063ffffffff16565b60016000838152602001908152602001600020541015610e2f5760005b8a51811015610991578a81815181106109115761091061220e565b5b602002602001015182141561097e5761097983836002600086815260200190815260200160002060009054906101000a900473ffffffffffffffffffffffffffffffffffffffff16610974600860ff16600260ff166114f990919063ffffffff16565b6115c7565b610991565b808061098990612191565b9150506108f5565b5060005b8951811015610a31578981815181106109b1576109b061220e565b5b6020026020010151821415610a1e57610a1983836002600086815260200190815260200160002060009054906101000a900473ffffffffffffffffffffffffffffffffffffffff16610a14600460ff16600260ff166114f990919063ffffffff16565b6115c7565b610a31565b8080610a2990612191565b915050610995565b5060005b8851811015610ad157888181518110610a5157610a5061220e565b5b6020026020010151821415610abe57610ab983836002600086815260200190815260200160002060009054906101000a900473ffffffffffffffffffffffffffffffffffffffff16610ab4600260ff16600260ff166114f990919063ffffffff16565b6115c7565b610ad1565b8080610ac990612191565b915050610a35565b5060005b8751811015610b7157878181518110610af157610af061220e565b5b6020026020010151821415610b5e57610b5983836002600086815260200190815260200160002060009054906101000a900473ffffffffffffffffffffffffffffffffffffffff16610b54600160ff16600260ff166114f990919063ffffffff16565b6115c7565b610b71565b8080610b6990612191565b915050610ad5565b5060005b8651811015610c1157868181518110610b9157610b9061220e565b5b6020026020010151821415610bfe57610bf983836002600086815260200190815260200160002060009054906101000a900473ffffffffffffffffffffffffffffffffffffffff16610bf4600860ff16600160ff166114f990919063ffffffff16565b6115c7565b610c11565b8080610c0990612191565b915050610b75565b5060005b8551811015610cb157858181518110610c3157610c3061220e565b5b6020026020010151821415610c9e57610c9983836002600086815260200190815260200160002060009054906101000a900473ffffffffffffffffffffffffffffffffffffffff16610c94600460ff16600160ff166114f990919063ffffffff16565b6115c7565b610cb1565b8080610ca990612191565b915050610c15565b5060005b8451811015610d5157848181518110610cd157610cd061220e565b5b6020026020010151821415610d3e57610d3983836002600086815260200190815260200160002060009054906101000a900473ffffffffffffffffffffffffffffffffffffffff16610d34600260ff16600160ff166114f990919063ffffffff16565b6115c7565b610d51565b8080610d4990612191565b915050610cb5565b5060005b8351811015610df157838181518110610d7157610d7061220e565b5b6020026020010151821415610dde57610dd983836002600086815260200190815260200160002060009054906101000a900473ffffffffffffffffffffffffffffffffffffffff16610dd4600160ff16600160ff166114f990919063ffffffff16565b6115c7565b610df1565b8080610de990612191565b915050610d55565b50610e2e6002600083815260200190815260200160002060009054906101000a900473ffffffffffffffffffffffffffffffffffffffff16611645565b5b5b8080610e3b90612191565b915050610851565b50505050505050505050565b610e576114f1565b73ffffffffffffffffffffffffffffffffffffffff16610e75610efd565b73ffffffffffffffffffffffffffffffffffffffff1614610ecb576040517f08c379a0000000000000000000000000000000000000000000000000000000008152600401610ec2906120b0565b60405180910390fd5b610ed560006116f0565b565b600660009054906101000a900473ffffffffffffffffffffffffffffffffffffffff1681565b60008060009054906101000a900473ffffffffffffffffffffffffffffffffffffffff16905090565b600080600090506000806301e1338085610f40919061230f565b6107b261ffff16610f519190612340565b9150610f626107b261ffff166110ac565b610f6f8361ffff166110ac565b610f7991906121da565b9050806301e28500610f8b9190612396565b83610f969190612340565b9250806107b283610fa791906123f0565b61ffff16610fb591906121da565b6301e13380610fc49190612396565b83610fcf9190612340565b92505b8483111561103257610fef600183610fea91906123f0565b61103d565b1561100b576301e285008361100491906121da565b925061101e565b6301e133808361101b91906121da565b92505b60018261102b91906123f0565b9150610fd2565b819350505050919050565b60008060048361104d9190612424565b61ffff161461105f57600090506110a7565b600060648361106e9190612424565b61ffff161461108057600190506110a7565b6000610190836110909190612424565b61ffff16146110a257600090506110a7565b600190505b919050565b60006001826110bb91906121da565b9150610190826110cb919061230f565b6064836110d8919061230f565b6004846110e5919061230f565b6110ef91906121da565b6110f99190612340565b9050919050565b600060018360ff161480611117575060038360ff16145b80611125575060058360ff16145b80611133575060078360ff16145b80611141575060088360ff16145b8061114f5750600a8360ff16145b8061115d5750600c8360ff16145b1561116b57601f90506111c6565b60048360ff161480611180575060068360ff16145b8061118e575060098360ff16145b8061119c5750600b8360ff16145b156111aa57601e90506111c6565b6111b38261103d565b156111c157601d90506111c6565b601c90505b92915050565b600660009054906101000a900473ffffffffffffffffffffffffffffffffffffffff1673ffffffffffffffffffffffffffffffffffffffff16636352211e826040518263ffffffff1660e01b81526004016112279190611a07565b602060405180830381865afa158015611244573d6000803e3d6000fd5b505050506040513d601f19601f82011682018060405250810190611268919061246a565b73ffffffffffffffffffffffffffffffffffffffff163373ffffffffffffffffffffffffffffffffffffffff16146112d5576040517f08c379a00000000000000000000000000000000000000000000000000000000081526004016112cc90612509565b60405180910390fd5b600660009054906101000a900473ffffffffffffffffffffffffffffffffffffffff1673ffffffffffffffffffffffffffffffffffffffff166323b872dd3330846040518463ffffffff1660e01b8152600401611334939291906122a9565b600060405180830381600087803b15801561134e57600080fd5b505af1158015611362573d6000803e3d6000fd5b50505050336002600083815260200190815260200160002060006101000a81548173ffffffffffffffffffffffffffffffffffffffff021916908373ffffffffffffffffffffffffffffffffffffffff16021790555042600160008381526020019081526020016000208190555050565b600560009054906101000a900473ffffffffffffffffffffffffffffffffffffffff1681565b6114016114f1565b73ffffffffffffffffffffffffffffffffffffffff1661141f610efd565b73ffffffffffffffffffffffffffffffffffffffff1614611475576040517f08c379a000000000000000000000000000000000000000000000000000000000815260040161146c906120b0565b60405180910390fd5b600073ffffffffffffffffffffffffffffffffffffffff168173ffffffffffffffffffffffffffffffffffffffff1614156114e5576040517f08c379a00000000000000000000000000000000000000000000000000000000081526004016114dc9061259b565b60405180910390fd5b6114ee816116f0565b50565b600033905090565b600081836115079190612396565b905092915050565b6000818361151d9190612340565b905092915050565b60008160014361153591906121da565b4060001c61154391906125bb565b9050919050565b600080429050600061155b826117b4565b90506000611594826020015160ff166115866064856000015161ffff166114f990919063ffffffff16565b61150f90919063ffffffff16565b905060036000828152602001908152602001600020935050505090565b600081836115bf91906121da565b905092915050565b60008460010160008581526020019081526020016000209050828160000160006101000a81548173ffffffffffffffffffffffffffffffffffffffff021916908373ffffffffffffffffffffffffffffffffffffffff160217905550818160010160008282546116379190612340565b925050819055505050505050565b600560009054906101000a900473ffffffffffffffffffffffffffffffffffffffff1673ffffffffffffffffffffffffffffffffffffffff166340c10f19826012600a611692919061271f565b600161169e9190612396565b6040518363ffffffff1660e01b81526004016116bb92919061276a565b600060405180830381600087803b1580156116d557600080fd5b505af11580156116e9573d6000803e3d6000fd5b5050505050565b60008060009054906101000a900473ffffffffffffffffffffffffffffffffffffffff169050816000806101000a81548173ffffffffffffffffffffffffffffffffffffffff021916908373ffffffffffffffffffffffffffffffffffffffff1602179055508173ffffffffffffffffffffffffffffffffffffffff168173ffffffffffffffffffffffffffffffffffffffff167f8be0079c531659141344cd1fd0a4f28419497f9722a3daafe3b4186f6b6457e060405160405180910390a35050565b6117bc61197e565b600080806117c985610f26565b846000019061ffff16908161ffff16815250506117eb6107b261ffff166110ac565b6117fc856000015161ffff166110ac565b61180691906121da565b9150816301e285006118189190612396565b836118239190612340565b9250816107b2856000015161183891906123f0565b61ffff1661184691906121da565b6301e133806118559190612396565b836118609190612340565b92506000600191505b600c8260ff16116118e057611882828660000151611100565b60ff16620151806118939190612396565b90508584826118a29190612340565b11156118bf5781856020019060ff16908160ff16815250506118e0565b80846118cb9190612340565b935081806118d890612793565b925050611869565b600191505b6118f785602001518660000151611100565b60ff168260ff1611611954578584620151806119139190612340565b11156119305781856040019060ff16908160ff1681525050611954565b620151808461193f9190612340565b9350818061194c90612793565b9250506118e5565b50505050919050565b508054600082559060005260206000209081019061197b91906119d1565b50565b6040518060e00160405280600061ffff168152602001600060ff168152602001600060ff168152602001600060ff168152602001600060ff168152602001600060ff168152602001600060ff1681525090565b5b808211156119ea5760008160009055506001016119d2565b5090565b6000819050919050565b611a01816119ee565b82525050565b6000602082019050611a1c60008301846119f8565b92915050565b6000604051905090565b600080fd5b600080fd5b600060ff82169050919050565b611a4c81611a36565b8114611a5757600080fd5b50565b600081359050611a6981611a43565b92915050565b600061ffff82169050919050565b611a8681611a6f565b8114611a9157600080fd5b50565b600081359050611aa381611a7d565b92915050565b60008060408385031215611ac057611abf611a2c565b5b6000611ace85828601611a5a565b9250506020611adf85828601611a94565b9150509250929050565b600073ffffffffffffffffffffffffffffffffffffffff82169050919050565b6000611b1482611ae9565b9050919050565b611b2481611b09565b82525050565b6000602082019050611b3f6000830184611b1b565b92915050565b611b4e816119ee565b8114611b5957600080fd5b50565b600081359050611b6b81611b45565b92915050565b600060208284031215611b8757611b86611a2c565b5b6000611b9584828501611b5c565b91505092915050565b600080fd5b6000601f19601f8301169050919050565b7f4e487b7100000000000000000000000000000000000000000000000000000000600052604160045260246000fd5b611bec82611ba3565b810181811067ffffffffffffffff82111715611c0b57611c0a611bb4565b5b80604052505050565b6000611c1e611a22565b9050611c2a8282611be3565b919050565b600067ffffffffffffffff821115611c4a57611c49611bb4565b5b602082029050602081019050919050565b600080fd5b6000611c73611c6e84611c2f565b611c14565b90508083825260208201905060208402830185811115611c9657611c95611c5b565b5b835b81811015611cbf5780611cab8882611b5c565b845260208401935050602081019050611c98565b5050509392505050565b600082601f830112611cde57611cdd611b9e565b5b8135611cee848260208601611c60565b91505092915050565b600080600080600080600080610100898b031215611d1857611d17611a2c565b5b600089013567ffffffffffffffff811115611d3657611d35611a31565b5b611d428b828c01611cc9565b985050602089013567ffffffffffffffff811115611d6357611d62611a31565b5b611d6f8b828c01611cc9565b975050604089013567ffffffffffffffff811115611d9057611d8f611a31565b5b611d9c8b828c01611cc9565b965050606089013567ffffffffffffffff811115611dbd57611dbc611a31565b5b611dc98b828c01611cc9565b955050608089013567ffffffffffffffff811115611dea57611de9611a31565b5b611df68b828c01611cc9565b94505060a089013567ffffffffffffffff811115611e1757611e16611a31565b5b611e238b828c01611cc9565b93505060c089013567ffffffffffffffff811115611e4457611e43611a31565b5b611e508b828c01611cc9565b92505060e089013567ffffffffffffffff811115611e7157611e70611a31565b5b611e7d8b828c01611cc9565b9150509295985092959890939650565b6000819050919050565b6000611eb2611ead611ea884611ae9565b611e8d565b611ae9565b9050919050565b6000611ec482611e97565b9050919050565b6000611ed682611eb9565b9050919050565b611ee681611ecb565b82525050565b6000602082019050611f016000830184611edd565b92915050565b611f1081611a6f565b82525050565b6000602082019050611f2b6000830184611f07565b92915050565b600060208284031215611f4757611f46611a2c565b5b6000611f5584828501611a94565b91505092915050565b60008115159050919050565b611f7381611f5e565b82525050565b6000602082019050611f8e6000830184611f6a565b92915050565b611f9d81611a36565b82525050565b6000602082019050611fb86000830184611f94565b92915050565b6000611fc982611eb9565b9050919050565b611fd981611fbe565b82525050565b6000602082019050611ff46000830184611fd0565b92915050565b61200381611b09565b811461200e57600080fd5b50565b60008135905061202081611ffa565b92915050565b60006020828403121561203c5761203b611a2c565b5b600061204a84828501612011565b91505092915050565b600082825260208201905092915050565b7f4f776e61626c653a2063616c6c6572206973206e6f7420746865206f776e6572600082015250565b600061209a602083612053565b91506120a582612064565b602082019050919050565b600060208201905081810360008301526120c98161208d565b9050919050565b7f54686973206c6f74746572792068617320616c7265616479206265656e20647260008201527f61776e0000000000000000000000000000000000000000000000000000000000602082015250565b600061212c602383612053565b9150612137826120d0565b604082019050919050565b6000602082019050818103600083015261215b8161211f565b9050919050565b7f4e487b7100000000000000000000000000000000000000000000000000000000600052601160045260246000fd5b600061219c826119ee565b91507fffffffffffffffffffffffffffffffffffffffffffffffffffffffffffffffff8214156121cf576121ce612162565b5b600182019050919050565b60006121e5826119ee565b91506121f0836119ee565b92508282101561220357612202612162565b5b828203905092915050565b7f4e487b7100000000000000000000000000000000000000000000000000000000600052603260045260246000fd5b7f596f7520646964206e6f74207374616b65207468697320746f6b656e00000000600082015250565b6000612273601c83612053565b915061227e8261223d565b602082019050919050565b600060208201905081810360008301526122a281612266565b9050919050565b60006060820190506122be6000830186611b1b565b6122cb6020830185611b1b565b6122d860408301846119f8565b949350505050565b7f4e487b7100000000000000000000000000000000000000000000000000000000600052601260045260246000fd5b600061231a826119ee565b9150612325836119ee565b925082612335576123346122e0565b5b828204905092915050565b600061234b826119ee565b9150612356836119ee565b9250827fffffffffffffffffffffffffffffffffffffffffffffffffffffffffffffffff0382111561238b5761238a612162565b5b828201905092915050565b60006123a1826119ee565b91506123ac836119ee565b9250817fffffffffffffffffffffffffffffffffffffffffffffffffffffffffffffffff04831182151516156123e5576123e4612162565b5b828202905092915050565b60006123fb82611a6f565b915061240683611a6f565b92508282101561241957612418612162565b5b828203905092915050565b600061242f82611a6f565b915061243a83611a6f565b92508261244a576124496122e0565b5b828206905092915050565b60008151905061246481611ffa565b92915050565b6000602082840312156124805761247f611a2c565b5b600061248e84828501612455565b91505092915050565b7f596f7520617265206e6f7420746865206f776e6572206f66207468697320746f60008201527f6b656e0000000000000000000000000000000000000000000000000000000000602082015250565b60006124f3602383612053565b91506124fe82612497565b604082019050919050565b60006020820190508181036000830152612522816124e6565b9050919050565b7f4f776e61626c653a206e6577206f776e657220697320746865207a65726f206160008201527f6464726573730000000000000000000000000000000000000000000000000000602082015250565b6000612585602683612053565b915061259082612529565b604082019050919050565b600060208201905081810360008301526125b481612578565b9050919050565b60006125c6826119ee565b91506125d1836119ee565b9250826125e1576125e06122e0565b5b828206905092915050565b60008160011c9050919050565b6000808291508390505b60018511156126435780860481111561261f5761261e612162565b5b600185161561262e5780820291505b808102905061263c856125ec565b9450612603565b94509492505050565b60008261265c5760019050612718565b8161266a5760009050612718565b8160018114612680576002811461268a576126b9565b6001915050612718565b60ff84111561269c5761269b612162565b5b8360020a9150848211156126b3576126b2612162565b5b50612718565b5060208310610133831016604e8410600b84101617156126ee5782820a9050838111156126e9576126e8612162565b5b612718565b6126fb84848460016125f9565b9250905081840481111561271257612711612162565b5b81810290505b9392505050565b600061272a826119ee565b915061273583611a36565b92506127627fffffffffffffffffffffffffffffffffffffffffffffffffffffffffffffffff848461264c565b905092915050565b600060408201905061277f6000830185611b1b565b61278c60208301846119f8565b9392505050565b600061279e82611a36565b915060ff8214156127b2576127b1612162565b5b60018201905091905056fea2646970667358221220bbe7f4e93a3178ec28b766c566d03336e6e9d53aefa78191a35eb084ea95b30364736f6c634300080a0033",
  "immutableReferences": {},
  "source": "// SPDX-License-Identifier: MIT\npragma solidity ^0.8.2;\n\nimport \"@openzeppelin/contracts/token/ERC20/IERC20.sol\";\nimport \"@openzeppelin/contracts/token/ERC721/IERC721Receiver.sol\";\nimport \"@openzeppelin/contracts/token/ERC721/IERC721.sol\";\nimport \"@openzeppelin/contracts/access/Ownable.sol\";\nimport \"@openzeppelin/contracts/utils/math/safemath.sol\";\n\ninterface IFungibleToken is IERC20 {\n    function mint(address to, uint256 amount) external;\n}\n\ncontract LotteryStake is Ownable {\n    \n    using SafeMath for uint8;\n    using SafeMath for uint16;\n    using SafeMath for uint256;\n\n    struct _DateTime {\n        uint16 year;\n        uint8 month;\n        uint8 day;\n        uint8 hour;\n        uint8 minute;\n        uint8 second;\n        uint8 weekday;\n    }\n\n    struct Token {\n        address owner;\n        uint points;\n    }\n\n    struct Lottery {\n        bool drawExecuted;\n        address drawWinner;\n        uint8 month;\n        uint16 year;\n        mapping(uint => Token) stakedTokens; \n    }\n    \n    mapping (uint => uint) checkpoints;     //tokenId => timestamp\n    mapping (uint => address) deposits;     //tokenId => address\n    mapping (uint => Lottery) lotteries;\n    \n    address[] tickets;\n\n    IFungibleToken public fungibleToken;\n    IERC721 public nonFungibleToken;\n    uint public nftSupply;\n\n    uint constant DAY_IN_SECONDS = 86400;\n    uint constant DAILY_TOKEN_REWARD = 1;\n    uint8 constant E1_MULTIPLIER = 2;\n    uint8 constant E2_MULTIPLIER = 1;\n    uint constant LEAP_YEAR_IN_SECONDS = 31622400;\n    uint16 constant ORIGIN_YEAR = 1970;\n    uint8 constant S1 = 1;\n    uint8 constant S2 = 2;\n    uint8 constant S3 = 4;\n    uint8 constant S4 = 8;\n    uint constant YEAR_IN_SECONDS = 31536000;\n    \n    constructor(\n        address _fungibleToken,\n        address _nonFungibleToken,\n        uint _nftSupply\n    )   \n    {\n        fungibleToken = IFungibleToken(_fungibleToken);\n        nonFungibleToken = IERC721(_nonFungibleToken);\n        nftSupply = _nftSupply;\n    }\n\n    function awardPoints(Lottery storage lt, uint tokenId, address recipient, uint256 points) internal {\n        Token storage token = lt.stakedTokens[tokenId];\n        token.owner = recipient;\n        token.points += points;\n    }\n\n    function awardToken(address recipient) internal {\n        fungibleToken.mint(recipient, DAILY_TOKEN_REWARD * (uint256(10) ** 18));\n    }\n\n    function currentLottery() internal view returns (Lottery storage lt) {\n        uint time = block.timestamp;\n        _DateTime memory dt = parseTimestamp(time);\n\n        uint index = dt.year.mul(100).add(dt.month);\n\n        lt = lotteries[index];\n        \n        return lt;\n    }\n\n    function deposit(uint tokenId) external {\n        require(msg.sender == nonFungibleToken.ownerOf(tokenId), \"You are not the owner of this token\");\n        nonFungibleToken.transferFrom(msg.sender, address(this), tokenId);\n        deposits[tokenId] = msg.sender;\n        checkpoints[tokenId] = block.timestamp;\n    }\n\n    function getDaysInMonth(uint8 month, uint16 year) public pure returns (uint8) {\n        if (month == 1 || month == 3 || month == 5 || month == 7 || month == 8 || month == 10 || month == 12) {\n            return 31;\n        }\n        else if (month == 4 || month == 6 || month == 9 || month == 11) {\n            return 30;\n        }\n        else if (isLeapYear(year)) {\n            return 29;\n        }\n        else {\n            return 28;\n        }\n    }\n\n    function getYear(uint timestamp) public pure returns (uint16) {\n        uint secondsAccountedFor = 0;\n        uint16 year;\n        uint numLeapYears;\n\n        // Year\n        year = uint16(ORIGIN_YEAR + timestamp / YEAR_IN_SECONDS);\n        numLeapYears = leapYearsBefore(year) - leapYearsBefore(ORIGIN_YEAR);\n\n        secondsAccountedFor += LEAP_YEAR_IN_SECONDS * numLeapYears;\n        secondsAccountedFor += YEAR_IN_SECONDS * (year - ORIGIN_YEAR - numLeapYears);\n\n        while (secondsAccountedFor > timestamp) {\n            if (isLeapYear(uint16(year - 1))) {\n                secondsAccountedFor -= LEAP_YEAR_IN_SECONDS;\n            }\n            else {\n                secondsAccountedFor -= YEAR_IN_SECONDS;\n            }\n            year -= 1;\n        }\n        return year;\n    }\n\n    function isLeapYear(uint16 year) public pure returns (bool) {\n        if (year % 4 != 0) {\n                return false;\n        }\n        if (year % 100 != 0) {\n                return true;\n        }\n        if (year % 400 != 0) {\n                return false;\n        }\n        return true;\n    }\n\n    function leapYearsBefore(uint year) public pure returns (uint) {\n        year -= 1;\n        return year / 4 - year / 100 + year / 400;\n    }\n\n    function parseTimestamp(uint timestamp) internal pure returns (_DateTime memory dt) {\n        uint secondsAccountedFor = 0;\n        uint buf;\n        uint8 i;\n\n        // Year\n        dt.year = getYear(timestamp);\n        buf = leapYearsBefore(dt.year) - leapYearsBefore(ORIGIN_YEAR);\n\n        secondsAccountedFor += LEAP_YEAR_IN_SECONDS * buf;\n        secondsAccountedFor += YEAR_IN_SECONDS * (dt.year - ORIGIN_YEAR - buf);\n\n        // Month\n        uint secondsInMonth;\n        for (i = 1; i <= 12; i++) {\n            secondsInMonth = DAY_IN_SECONDS * getDaysInMonth(i, dt.year);\n            if (secondsInMonth + secondsAccountedFor > timestamp) {\n                dt.month = i;\n                break;\n            }\n            secondsAccountedFor += secondsInMonth;\n        }\n\n        // Day\n        for (i = 1; i <= getDaysInMonth(dt.month, dt.year); i++) {\n            if (DAY_IN_SECONDS + secondsAccountedFor > timestamp) {\n                dt.day = i;\n                break;\n            }\n            secondsAccountedFor += DAY_IN_SECONDS;\n        }\n    }\n\n    function random(uint max) internal view returns (uint) {\n        return uint(blockhash(block.number - 1)) % max;\n    }\n\n    function randomDraw(uint8 month, uint16 year) external onlyOwner returns (address) {\n        uint index = year.mul(100).add(month);\n        Lottery storage lt = lotteries[index];\n        require(!lt.drawExecuted, \"This lottery has already been drawn\");\n        delete tickets;\n\n        for (uint x = 0; x < nftSupply; x++) {\n            if (deposits[x] != address(0)) {\n                Token storage tok = lt.stakedTokens[x];\n                for (uint y = 0; y < tok.points; y++) {\n                    tickets.push(tok.owner);\n                }\n            }\n        }\n\n        uint selectedNumber = random(tickets.length - 1);\n\n        lt.drawExecuted = true;\n        lt.drawWinner = tickets[selectedNumber];\n\n        delete tickets;\n\n        return lt.drawWinner;\n    }\n\n    function reward(\n        uint[] memory s4e1, \n        uint[] memory s3e1, \n        uint[] memory s2e1,\n        uint[] memory s1e1,\n        uint[] memory s4e2, \n        uint[] memory s3e2, \n        uint[] memory s2e2,\n        uint[] memory s1e2\n    ) external onlyOwner {\n        Lottery storage lt = currentLottery();\n        \n        for (uint x = 0; x < nftSupply; x++) {\n            if (deposits[x] != address(0)) {\n                \n                //confirm that staked longer than a day\n                if (checkpoints[x] < block.timestamp.sub(DAY_IN_SECONDS)) {\n\n                    //4 star - edition 1\n                    for (uint s = 0; s < s4e1.length; s++) {\n                        if (x == s4e1[s]) {\n                            awardPoints(lt, x, deposits[x], E1_MULTIPLIER.mul(S4));\n                            break;\n                        }\n                    }\n\n                    //3 star - edition 1\n                    for (uint s = 0; s < s3e1.length; s++) {\n                        if (x == s3e1[s]) {\n                            awardPoints(lt, x, deposits[x], E1_MULTIPLIER.mul(S3));\n                            break;\n                        }\n                    }\n\n                    //2 star - edition 1\n                    for (uint s = 0; s < s2e1.length; s++) {\n                        if (x == s2e1[s]) {\n                            awardPoints(lt, x, deposits[x], E1_MULTIPLIER.mul(S2));\n                            break;\n                        }\n                    }\n\n                    //1 star - edition 1\n                    for (uint s = 0; s < s1e1.length; s++) {\n                        if (x == s1e1[s]) {\n                            awardPoints(lt, x, deposits[x], E1_MULTIPLIER.mul(S1));\n                            break;\n                        }\n                    }\n\n                    //4 star - edition 2\n                    for (uint s = 0; s < s4e2.length; s++) {\n                        if (x == s4e2[s]) {\n                            awardPoints(lt, x, deposits[x], E2_MULTIPLIER.mul(S4));\n                            break;\n                        }\n                    }\n\n                    //3 star - edition 2\n                    for (uint s = 0; s < s3e2.length; s++) {\n                        if (x == s3e2[s]) {\n                            awardPoints(lt, x, deposits[x], E2_MULTIPLIER.mul(S3));\n                            break;\n                        }\n                    }\n\n                    //2 star - edition 2\n                    for (uint s = 0; s < s2e2.length; s++) {\n                        if (x == s2e2[s]) {\n                            awardPoints(lt, x, deposits[x], E2_MULTIPLIER.mul(S2));\n                            break;\n                        }\n                    }\n\n                    //1 star - edition 2\n                    for (uint s = 0; s < s1e2.length; s++) {\n                        if (x == s1e2[s]) {\n                            awardPoints(lt, x, deposits[x], E2_MULTIPLIER.mul(S1));\n                            break;\n                        }\n                    }\n\n                    awardToken(deposits[x]);\n                }\n            }\n        }\n    }\n\n    function withdraw(uint tokenId) external {\n        require(deposits[tokenId] == msg.sender, \"You did not stake this token\");\n        nonFungibleToken.transferFrom(address(this), msg.sender, tokenId);\n        delete deposits[tokenId];\n        delete checkpoints[tokenId];\n    }\n}",
  "sourcePath": "/Users/warrenschwartz/Projects/MintedHistory_Lottery/lottery/contracts/LotteryStake.sol",
  "compiler": {
    "name": "solc",
    "version": "0.8.10+commit.fc410830.Emscripten.clang"
  },
  "schemaVersion": "3.4.3",
  "updatedAt": "2021-12-23T10:49:16.309Z",
  "devdoc": {
    "kind": "dev",
    "methods": {
      "owner()": {
        "details": "Returns the address of the current owner."
      },
      "renounceOwnership()": {
        "details": "Leaves the contract without owner. It will not be possible to call `onlyOwner` functions anymore. Can only be called by the current owner. NOTE: Renouncing ownership will leave the contract without an owner, thereby removing any functionality that is only available to the owner."
      },
      "transferOwnership(address)": {
        "details": "Transfers ownership of the contract to a new account (`newOwner`). Can only be called by the current owner."
      }
    },
    "version": 1
  },
  "userdoc": {
    "kind": "user",
    "methods": {},
    "version": 1
  }
}