{
  "contractName": "LotteryStake",
  "abi": [
    {
      "inputs": [
        {
          "internalType": "address",
          "name": "_fungibleToken",
          "type": "address"
        },
        {
          "internalType": "address",
          "name": "_nonFungibleToken",
          "type": "address"
        },
        {
          "internalType": "uint256",
          "name": "_nftSupply",
          "type": "uint256"
        }
      ],
      "stateMutability": "nonpayable",
      "type": "constructor"
    },
    {
      "anonymous": false,
      "inputs": [
        {
          "indexed": true,
          "internalType": "address",
          "name": "previousOwner",
          "type": "address"
        },
        {
          "indexed": true,
          "internalType": "address",
          "name": "newOwner",
          "type": "address"
        }
      ],
      "name": "OwnershipTransferred",
      "type": "event"
    },
    {
      "inputs": [],
      "name": "fungibleToken",
      "outputs": [
        {
          "internalType": "contract IFungibleToken",
          "name": "",
          "type": "address"
        }
      ],
      "stateMutability": "view",
      "type": "function"
    },
    {
      "inputs": [],
      "name": "nftSupply",
      "outputs": [
        {
          "internalType": "uint256",
          "name": "",
          "type": "uint256"
        }
      ],
      "stateMutability": "view",
      "type": "function"
    },
    {
      "inputs": [],
      "name": "nonFungibleToken",
      "outputs": [
        {
          "internalType": "contract IERC721",
          "name": "",
          "type": "address"
        }
      ],
      "stateMutability": "view",
      "type": "function"
    },
    {
      "inputs": [],
      "name": "owner",
      "outputs": [
        {
          "internalType": "address",
          "name": "",
          "type": "address"
        }
      ],
      "stateMutability": "view",
      "type": "function"
    },
    {
      "inputs": [],
      "name": "renounceOwnership",
      "outputs": [],
      "stateMutability": "nonpayable",
      "type": "function"
    },
    {
      "inputs": [
        {
          "internalType": "address",
          "name": "newOwner",
          "type": "address"
        }
      ],
      "name": "transferOwnership",
      "outputs": [],
      "stateMutability": "nonpayable",
      "type": "function"
    },
    {
      "inputs": [
        {
          "internalType": "uint256",
          "name": "tokenId",
          "type": "uint256"
        }
      ],
      "name": "deposit",
      "outputs": [],
      "stateMutability": "nonpayable",
      "type": "function"
    },
    {
      "inputs": [
        {
          "internalType": "uint8",
          "name": "month",
          "type": "uint8"
        },
        {
          "internalType": "uint16",
          "name": "year",
          "type": "uint16"
        }
      ],
      "name": "getDaysInMonth",
      "outputs": [
        {
          "internalType": "uint8",
          "name": "",
          "type": "uint8"
        }
      ],
      "stateMutability": "pure",
      "type": "function"
    },
    {
      "inputs": [
        {
          "internalType": "uint256",
          "name": "timestamp",
          "type": "uint256"
        }
      ],
      "name": "getYear",
      "outputs": [
        {
          "internalType": "uint16",
          "name": "",
          "type": "uint16"
        }
      ],
      "stateMutability": "pure",
      "type": "function"
    },
    {
      "inputs": [
        {
          "internalType": "uint16",
          "name": "year",
          "type": "uint16"
        }
      ],
      "name": "isLeapYear",
      "outputs": [
        {
          "internalType": "bool",
          "name": "",
          "type": "bool"
        }
      ],
      "stateMutability": "pure",
      "type": "function"
    },
    {
      "inputs": [
        {
          "internalType": "uint256",
          "name": "year",
          "type": "uint256"
        }
      ],
      "name": "leapYearsBefore",
      "outputs": [
        {
          "internalType": "uint256",
          "name": "",
          "type": "uint256"
        }
      ],
      "stateMutability": "pure",
      "type": "function"
    },
    {
      "inputs": [
        {
          "internalType": "uint256[]",
          "name": "s4e1",
          "type": "uint256[]"
        },
        {
          "internalType": "uint256[]",
          "name": "s3e1",
          "type": "uint256[]"
        },
        {
          "internalType": "uint256[]",
          "name": "s2e1",
          "type": "uint256[]"
        },
        {
          "internalType": "uint256[]",
          "name": "s1e1",
          "type": "uint256[]"
        },
        {
          "internalType": "uint256[]",
          "name": "s4e2",
          "type": "uint256[]"
        },
        {
          "internalType": "uint256[]",
          "name": "s3e2",
          "type": "uint256[]"
        },
        {
          "internalType": "uint256[]",
          "name": "s2e2",
          "type": "uint256[]"
        },
        {
          "internalType": "uint256[]",
          "name": "s1e2",
          "type": "uint256[]"
        }
      ],
      "name": "reward",
      "outputs": [],
      "stateMutability": "nonpayable",
      "type": "function"
    },
    {
      "inputs": [
        {
          "internalType": "uint256",
          "name": "tokenId",
          "type": "uint256"
        }
      ],
      "name": "withdraw",
      "outputs": [],
      "stateMutability": "nonpayable",
      "type": "function"
    }
  ],
  "bytecode": "0x60806040523480156200001157600080fd5b50604051620025b2380380620025b283398181016040528101906200003791906200025a565b620000576200004b620000e960201b60201c565b620000f160201b60201c565b82600460006101000a81548173ffffffffffffffffffffffffffffffffffffffff021916908373ffffffffffffffffffffffffffffffffffffffff16021790555081600560006101000a81548173ffffffffffffffffffffffffffffffffffffffff021916908373ffffffffffffffffffffffffffffffffffffffff16021790555080600681905550505050620002b6565b600033905090565b60008060009054906101000a900473ffffffffffffffffffffffffffffffffffffffff169050816000806101000a81548173ffffffffffffffffffffffffffffffffffffffff021916908373ffffffffffffffffffffffffffffffffffffffff1602179055508173ffffffffffffffffffffffffffffffffffffffff168173ffffffffffffffffffffffffffffffffffffffff167f8be0079c531659141344cd1fd0a4f28419497f9722a3daafe3b4186f6b6457e060405160405180910390a35050565b600080fd5b600073ffffffffffffffffffffffffffffffffffffffff82169050919050565b6000620001e782620001ba565b9050919050565b620001f981620001da565b81146200020557600080fd5b50565b6000815190506200021981620001ee565b92915050565b6000819050919050565b62000234816200021f565b81146200024057600080fd5b50565b600081519050620002548162000229565b92915050565b600080600060608486031215620002765762000275620001b5565b5b6000620002868682870162000208565b9350506020620002998682870162000208565b9250506040620002ac8682870162000243565b9150509250925092565b6122ec80620002c66000396000f3fe608060405234801561001057600080fd5b50600436106100cf5760003560e01c806392d663131161008c578063b238ad0e11610066578063b238ad0e14610200578063b6b55f2514610230578063e5873ec21461024c578063f2fde38b1461026a576100cf565b806392d6631314610170578063a6f0e577146101a0578063b1999937146101d0576100cf565b806301790e01146100d45780632e1a7d4d146100f2578063627916451461010e578063715018a61461012a5780637ac27d19146101345780638da5cb5b14610152575b600080fd5b6100dc610286565b6040516100e991906115c3565b60405180910390f35b61010c6004803603810190610107919061161e565b61028c565b005b610128600480360381019061012391906117a4565b61040e565b005b610132610a8f565b005b61013c610b17565b60405161014991906119b9565b60405180910390f35b61015a610b3d565b60405161016791906119f5565b60405180910390f35b61018a6004803603810190610185919061161e565b610b66565b6040516101979190611a2d565b60405180910390f35b6101ba60048036038101906101b59190611a74565b610c7d565b6040516101c79190611abc565b60405180910390f35b6101ea60048036038101906101e5919061161e565b610cec565b6040516101f791906115c3565b60405180910390f35b61021a60048036038101906102159190611b10565b610d40565b6040516102279190611b5f565b60405180910390f35b61024a6004803603810190610245919061161e565b610e0c565b005b610254611013565b6040516102619190611b9b565b60405180910390f35b610284600480360381019061027f9190611be2565b611039565b005b60065481565b3373ffffffffffffffffffffffffffffffffffffffff166002600083815260200190815260200160002060009054906101000a900473ffffffffffffffffffffffffffffffffffffffff1673ffffffffffffffffffffffffffffffffffffffff161461032d576040517f08c379a000000000000000000000000000000000000000000000000000000000815260040161032490611c6c565b60405180910390fd5b600560009054906101000a900473ffffffffffffffffffffffffffffffffffffffff1673ffffffffffffffffffffffffffffffffffffffff166323b872dd3033846040518463ffffffff1660e01b815260040161038c93929190611c8c565b600060405180830381600087803b1580156103a657600080fd5b505af11580156103ba573d6000803e3d6000fd5b505050506002600082815260200190815260200160002060006101000a81549073ffffffffffffffffffffffffffffffffffffffff0219169055600160008281526020019081526020016000206000905550565b610416611131565b73ffffffffffffffffffffffffffffffffffffffff16610434610b3d565b73ffffffffffffffffffffffffffffffffffffffff161461048a576040517f08c379a000000000000000000000000000000000000000000000000000000000815260040161048190611d0f565b60405180910390fd5b6000610494611139565b905060005b600654811015610a8357600073ffffffffffffffffffffffffffffffffffffffff166002600083815260200190815260200160002060009054906101000a900473ffffffffffffffffffffffffffffffffffffffff1673ffffffffffffffffffffffffffffffffffffffff1614610a705761052062015180426111a090919063ffffffff16565b60016000838152602001908152602001600020541015610a6f5760005b8a518110156105d8578a818151811061055957610558611d2f565b5b60200260200101518214156105c5576105c0836002600085815260200190815260200160002060009054906101000a900473ffffffffffffffffffffffffffffffffffffffff166105bb600860ff16600260ff166111b690919063ffffffff16565b6111cc565b6105d8565b80806105d090611d8d565b91505061053d565b5060005b8951811015610677578981815181106105f8576105f7611d2f565b5b60200260200101518214156106645761065f836002600085815260200190815260200160002060009054906101000a900473ffffffffffffffffffffffffffffffffffffffff1661065a600460ff16600260ff166111b690919063ffffffff16565b6111cc565b610677565b808061066f90611d8d565b9150506105dc565b5060005b88518110156107165788818151811061069757610696611d2f565b5b6020026020010151821415610703576106fe836002600085815260200190815260200160002060009054906101000a900473ffffffffffffffffffffffffffffffffffffffff166106f9600260ff16600260ff166111b690919063ffffffff16565b6111cc565b610716565b808061070e90611d8d565b91505061067b565b5060005b87518110156107b55787818151811061073657610735611d2f565b5b60200260200101518214156107a25761079d836002600085815260200190815260200160002060009054906101000a900473ffffffffffffffffffffffffffffffffffffffff16610798600160ff16600260ff166111b690919063ffffffff16565b6111cc565b6107b5565b80806107ad90611d8d565b91505061071a565b5060005b8651811015610854578681815181106107d5576107d4611d2f565b5b60200260200101518214156108415761083c836002600085815260200190815260200160002060009054906101000a900473ffffffffffffffffffffffffffffffffffffffff16610837600860ff16600160ff166111b690919063ffffffff16565b6111cc565b610854565b808061084c90611d8d565b9150506107b9565b5060005b85518110156108f35785818151811061087457610873611d2f565b5b60200260200101518214156108e0576108db836002600085815260200190815260200160002060009054906101000a900473ffffffffffffffffffffffffffffffffffffffff166108d6600460ff16600160ff166111b690919063ffffffff16565b6111cc565b6108f3565b80806108eb90611d8d565b915050610858565b5060005b84518110156109925784818151811061091357610912611d2f565b5b602002602001015182141561097f5761097a836002600085815260200190815260200160002060009054906101000a900473ffffffffffffffffffffffffffffffffffffffff16610975600260ff16600160ff166111b690919063ffffffff16565b6111cc565b610992565b808061098a90611d8d565b9150506108f7565b5060005b8351811015610a31578381815181106109b2576109b1611d2f565b5b6020026020010151821415610a1e57610a19836002600085815260200190815260200160002060009054906101000a900473ffffffffffffffffffffffffffffffffffffffff16610a14600160ff16600160ff166111b690919063ffffffff16565b6111cc565b610a31565b8080610a2990611d8d565b915050610996565b50610a6e6002600083815260200190815260200160002060009054906101000a900473ffffffffffffffffffffffffffffffffffffffff16611229565b5b5b8080610a7b90611d8d565b915050610499565b50505050505050505050565b610a97611131565b73ffffffffffffffffffffffffffffffffffffffff16610ab5610b3d565b73ffffffffffffffffffffffffffffffffffffffff1614610b0b576040517f08c379a0000000000000000000000000000000000000000000000000000000008152600401610b0290611d0f565b60405180910390fd5b610b1560006112d4565b565b600560009054906101000a900473ffffffffffffffffffffffffffffffffffffffff1681565b60008060009054906101000a900473ffffffffffffffffffffffffffffffffffffffff16905090565b600080600090506000806301e1338085610b809190611e05565b6107b261ffff16610b919190611e36565b9150610ba26107b261ffff16610cec565b610baf8361ffff16610cec565b610bb99190611e8c565b9050806301e28500610bcb9190611ec0565b83610bd69190611e36565b9250806107b283610be79190611f1a565b61ffff16610bf59190611e8c565b6301e13380610c049190611ec0565b83610c0f9190611e36565b92505b84831115610c7257610c2f600183610c2a9190611f1a565b610c7d565b15610c4b576301e2850083610c449190611e8c565b9250610c5e565b6301e1338083610c5b9190611e8c565b92505b600182610c6b9190611f1a565b9150610c12565b819350505050919050565b600080600483610c8d9190611f4e565b61ffff1614610c9f5760009050610ce7565b6000606483610cae9190611f4e565b61ffff1614610cc05760019050610ce7565b600061019083610cd09190611f4e565b61ffff1614610ce25760009050610ce7565b600190505b919050565b6000600182610cfb9190611e8c565b915061019082610d0b9190611e05565b606483610d189190611e05565b600484610d259190611e05565b610d2f9190611e8c565b610d399190611e36565b9050919050565b600060018360ff161480610d57575060038360ff16145b80610d65575060058360ff16145b80610d73575060078360ff16145b80610d81575060088360ff16145b80610d8f5750600a8360ff16145b80610d9d5750600c8360ff16145b15610dab57601f9050610e06565b60048360ff161480610dc0575060068360ff16145b80610dce575060098360ff16145b80610ddc5750600b8360ff16145b15610dea57601e9050610e06565b610df382610c7d565b15610e0157601d9050610e06565b601c90505b92915050565b600560009054906101000a900473ffffffffffffffffffffffffffffffffffffffff1673ffffffffffffffffffffffffffffffffffffffff16636352211e826040518263ffffffff1660e01b8152600401610e6791906115c3565b602060405180830381865afa158015610e84573d6000803e3d6000fd5b505050506040513d601f19601f82011682018060405250810190610ea89190611f94565b73ffffffffffffffffffffffffffffffffffffffff163373ffffffffffffffffffffffffffffffffffffffff1614610f15576040517f08c379a0000000000000000000000000000000000000000000000000000000008152600401610f0c90612033565b60405180910390fd5b600560009054906101000a900473ffffffffffffffffffffffffffffffffffffffff1673ffffffffffffffffffffffffffffffffffffffff166323b872dd3330846040518463ffffffff1660e01b8152600401610f7493929190611c8c565b600060405180830381600087803b158015610f8e57600080fd5b505af1158015610fa2573d6000803e3d6000fd5b50505050336002600083815260200190815260200160002060006101000a81548173ffffffffffffffffffffffffffffffffffffffff021916908373ffffffffffffffffffffffffffffffffffffffff16021790555042600160008381526020019081526020016000208190555050565b600460009054906101000a900473ffffffffffffffffffffffffffffffffffffffff1681565b611041611131565b73ffffffffffffffffffffffffffffffffffffffff1661105f610b3d565b73ffffffffffffffffffffffffffffffffffffffff16146110b5576040517f08c379a00000000000000000000000000000000000000000000000000000000081526004016110ac90611d0f565b60405180910390fd5b600073ffffffffffffffffffffffffffffffffffffffff168173ffffffffffffffffffffffffffffffffffffffff161415611125576040517f08c379a000000000000000000000000000000000000000000000000000000000815260040161111c906120c5565b60405180910390fd5b61112e816112d4565b50565b600033905090565b600080429050600061114a82611398565b90506000611183826020015160ff166111756064856000015161ffff166111b690919063ffffffff16565b61154190919063ffffffff16565b905060036000828152602001908152602001600020935050505090565b600081836111ae9190611e8c565b905092915050565b600081836111c49190611ec0565b905092915050565b808360010160008473ffffffffffffffffffffffffffffffffffffffff1673ffffffffffffffffffffffffffffffffffffffff168152602001908152602001600020600082825461121d9190611e36565b92505081905550505050565b600460009054906101000a900473ffffffffffffffffffffffffffffffffffffffff1673ffffffffffffffffffffffffffffffffffffffff166340c10f19826012600a6112769190612218565b60016112829190611ec0565b6040518363ffffffff1660e01b815260040161129f929190612263565b600060405180830381600087803b1580156112b957600080fd5b505af11580156112cd573d6000803e3d6000fd5b5050505050565b60008060009054906101000a900473ffffffffffffffffffffffffffffffffffffffff169050816000806101000a81548173ffffffffffffffffffffffffffffffffffffffff021916908373ffffffffffffffffffffffffffffffffffffffff1602179055508173ffffffffffffffffffffffffffffffffffffffff168173ffffffffffffffffffffffffffffffffffffffff167f8be0079c531659141344cd1fd0a4f28419497f9722a3daafe3b4186f6b6457e060405160405180910390a35050565b6113a0611557565b600080806113ad85610b66565b846000019061ffff16908161ffff16815250506113cf6107b261ffff16610cec565b6113e0856000015161ffff16610cec565b6113ea9190611e8c565b9150816301e285006113fc9190611ec0565b836114079190611e36565b9250816107b2856000015161141c9190611f1a565b61ffff1661142a9190611e8c565b6301e133806114399190611ec0565b836114449190611e36565b92506000600191505b600c8260ff16116114c457611466828660000151610d40565b60ff16620151806114779190611ec0565b90508584826114869190611e36565b11156114a35781856020019060ff16908160ff16815250506114c4565b80846114af9190611e36565b935081806114bc9061228c565b92505061144d565b600191505b6114db85602001518660000151610d40565b60ff168260ff1611611538578584620151806114f79190611e36565b11156115145781856040019060ff16908160ff1681525050611538565b62015180846115239190611e36565b935081806115309061228c565b9250506114c9565b50505050919050565b6000818361154f9190611e36565b905092915050565b6040518060e00160405280600061ffff168152602001600060ff168152602001600060ff168152602001600060ff168152602001600060ff168152602001600060ff168152602001600060ff1681525090565b6000819050919050565b6115bd816115aa565b82525050565b60006020820190506115d860008301846115b4565b92915050565b6000604051905090565b600080fd5b600080fd5b6115fb816115aa565b811461160657600080fd5b50565b600081359050611618816115f2565b92915050565b600060208284031215611634576116336115e8565b5b600061164284828501611609565b91505092915050565b600080fd5b6000601f19601f8301169050919050565b7f4e487b7100000000000000000000000000000000000000000000000000000000600052604160045260246000fd5b61169982611650565b810181811067ffffffffffffffff821117156116b8576116b7611661565b5b80604052505050565b60006116cb6115de565b90506116d78282611690565b919050565b600067ffffffffffffffff8211156116f7576116f6611661565b5b602082029050602081019050919050565b600080fd5b600061172061171b846116dc565b6116c1565b9050808382526020820190506020840283018581111561174357611742611708565b5b835b8181101561176c57806117588882611609565b845260208401935050602081019050611745565b5050509392505050565b600082601f83011261178b5761178a61164b565b5b813561179b84826020860161170d565b91505092915050565b600080600080600080600080610100898b0312156117c5576117c46115e8565b5b600089013567ffffffffffffffff8111156117e3576117e26115ed565b5b6117ef8b828c01611776565b985050602089013567ffffffffffffffff8111156118105761180f6115ed565b5b61181c8b828c01611776565b975050604089013567ffffffffffffffff81111561183d5761183c6115ed565b5b6118498b828c01611776565b965050606089013567ffffffffffffffff81111561186a576118696115ed565b5b6118768b828c01611776565b955050608089013567ffffffffffffffff811115611897576118966115ed565b5b6118a38b828c01611776565b94505060a089013567ffffffffffffffff8111156118c4576118c36115ed565b5b6118d08b828c01611776565b93505060c089013567ffffffffffffffff8111156118f1576118f06115ed565b5b6118fd8b828c01611776565b92505060e089013567ffffffffffffffff81111561191e5761191d6115ed565b5b61192a8b828c01611776565b9150509295985092959890939650565b600073ffffffffffffffffffffffffffffffffffffffff82169050919050565b6000819050919050565b600061197f61197a6119758461193a565b61195a565b61193a565b9050919050565b600061199182611964565b9050919050565b60006119a382611986565b9050919050565b6119b381611998565b82525050565b60006020820190506119ce60008301846119aa565b92915050565b60006119df8261193a565b9050919050565b6119ef816119d4565b82525050565b6000602082019050611a0a60008301846119e6565b92915050565b600061ffff82169050919050565b611a2781611a10565b82525050565b6000602082019050611a426000830184611a1e565b92915050565b611a5181611a10565b8114611a5c57600080fd5b50565b600081359050611a6e81611a48565b92915050565b600060208284031215611a8a57611a896115e8565b5b6000611a9884828501611a5f565b91505092915050565b60008115159050919050565b611ab681611aa1565b82525050565b6000602082019050611ad16000830184611aad565b92915050565b600060ff82169050919050565b611aed81611ad7565b8114611af857600080fd5b50565b600081359050611b0a81611ae4565b92915050565b60008060408385031215611b2757611b266115e8565b5b6000611b3585828601611afb565b9250506020611b4685828601611a5f565b9150509250929050565b611b5981611ad7565b82525050565b6000602082019050611b746000830184611b50565b92915050565b6000611b8582611986565b9050919050565b611b9581611b7a565b82525050565b6000602082019050611bb06000830184611b8c565b92915050565b611bbf816119d4565b8114611bca57600080fd5b50565b600081359050611bdc81611bb6565b92915050565b600060208284031215611bf857611bf76115e8565b5b6000611c0684828501611bcd565b91505092915050565b600082825260208201905092915050565b7f596f7520646964206e6f74207374616b65207468697320746f6b656e00000000600082015250565b6000611c56601c83611c0f565b9150611c6182611c20565b602082019050919050565b60006020820190508181036000830152611c8581611c49565b9050919050565b6000606082019050611ca160008301866119e6565b611cae60208301856119e6565b611cbb60408301846115b4565b949350505050565b7f4f776e61626c653a2063616c6c6572206973206e6f7420746865206f776e6572600082015250565b6000611cf9602083611c0f565b9150611d0482611cc3565b602082019050919050565b60006020820190508181036000830152611d2881611cec565b9050919050565b7f4e487b7100000000000000000000000000000000000000000000000000000000600052603260045260246000fd5b7f4e487b7100000000000000000000000000000000000000000000000000000000600052601160045260246000fd5b6000611d98826115aa565b91507fffffffffffffffffffffffffffffffffffffffffffffffffffffffffffffffff821415611dcb57611dca611d5e565b5b600182019050919050565b7f4e487b7100000000000000000000000000000000000000000000000000000000600052601260045260246000fd5b6000611e10826115aa565b9150611e1b836115aa565b925082611e2b57611e2a611dd6565b5b828204905092915050565b6000611e41826115aa565b9150611e4c836115aa565b9250827fffffffffffffffffffffffffffffffffffffffffffffffffffffffffffffffff03821115611e8157611e80611d5e565b5b828201905092915050565b6000611e97826115aa565b9150611ea2836115aa565b925082821015611eb557611eb4611d5e565b5b828203905092915050565b6000611ecb826115aa565b9150611ed6836115aa565b9250817fffffffffffffffffffffffffffffffffffffffffffffffffffffffffffffffff0483118215151615611f0f57611f0e611d5e565b5b828202905092915050565b6000611f2582611a10565b9150611f3083611a10565b925082821015611f4357611f42611d5e565b5b828203905092915050565b6000611f5982611a10565b9150611f6483611a10565b925082611f7457611f73611dd6565b5b828206905092915050565b600081519050611f8e81611bb6565b92915050565b600060208284031215611faa57611fa96115e8565b5b6000611fb884828501611f7f565b91505092915050565b7f596f7520617265206e6f7420746865206f776e6572206f66207468697320746f60008201527f6b656e0000000000000000000000000000000000000000000000000000000000602082015250565b600061201d602383611c0f565b915061202882611fc1565b604082019050919050565b6000602082019050818103600083015261204c81612010565b9050919050565b7f4f776e61626c653a206e6577206f776e657220697320746865207a65726f206160008201527f6464726573730000000000000000000000000000000000000000000000000000602082015250565b60006120af602683611c0f565b91506120ba82612053565b604082019050919050565b600060208201905081810360008301526120de816120a2565b9050919050565b60008160011c9050919050565b6000808291508390505b600185111561213c5780860481111561211857612117611d5e565b5b60018516156121275780820291505b8081029050612135856120e5565b94506120fc565b94509492505050565b6000826121555760019050612211565b816121635760009050612211565b81600181146121795760028114612183576121b2565b6001915050612211565b60ff84111561219557612194611d5e565b5b8360020a9150848211156121ac576121ab611d5e565b5b50612211565b5060208310610133831016604e8410600b84101617156121e75782820a9050838111156121e2576121e1611d5e565b5b612211565b6121f484848460016120f2565b9250905081840481111561220b5761220a611d5e565b5b81810290505b9392505050565b6000612223826115aa565b915061222e83611ad7565b925061225b7fffffffffffffffffffffffffffffffffffffffffffffffffffffffffffffffff8484612145565b905092915050565b600060408201905061227860008301856119e6565b61228560208301846115b4565b9392505050565b600061229782611ad7565b915060ff8214156122ab576122aa611d5e565b5b60018201905091905056fea264697066735822122049c44f3d84522564f350b862b883886dab4980b35bc195f23f6afd643c10758e64736f6c634300080a0033",
  "immutableReferences": {},
  "source": "// SPDX-License-Identifier: MIT\npragma solidity ^0.8.2;\n\nimport \"@openzeppelin/contracts/token/ERC20/IERC20.sol\";\nimport \"@openzeppelin/contracts/token/ERC721/IERC721Receiver.sol\";\nimport \"@openzeppelin/contracts/token/ERC721/IERC721.sol\";\nimport \"@openzeppelin/contracts/access/Ownable.sol\";\nimport \"@openzeppelin/contracts/utils/math/safemath.sol\";\n\ninterface IFungibleToken is IERC20 {\n    function mint(address to, uint256 amount) external;\n}\n\ncontract LotteryStake is Ownable {\n    \n    using SafeMath for uint8;\n    using SafeMath for uint16;\n    using SafeMath for uint256;\n\n    struct _DateTime {\n        uint16 year;\n        uint8 month;\n        uint8 day;\n        uint8 hour;\n        uint8 minute;\n        uint8 second;\n        uint8 weekday;\n    }\n\n    struct Lottery {\n        uint8 month;\n        uint16 year;\n        mapping(address => uint) points; \n    }\n    \n    mapping (uint => uint) checkpoints;     //tokenId => timestamp\n    mapping (uint => address) deposits;     //tokenId => address\n    mapping (uint => Lottery) lotteries;\n\n    IFungibleToken public fungibleToken;\n    IERC721 public nonFungibleToken;\n    uint public nftSupply;\n\n    uint constant DAY_IN_SECONDS = 86400;\n    uint constant DAILY_TOKEN_REWARD = 1;\n    uint8 constant E1_MULTIPLIER = 2;\n    uint8 constant E2_MULTIPLIER = 1;\n    uint constant LEAP_YEAR_IN_SECONDS = 31622400;\n    uint16 constant ORIGIN_YEAR = 1970;\n    uint8 constant S1 = 1;\n    uint8 constant S2 = 2;\n    uint8 constant S3 = 4;\n    uint8 constant S4 = 8;\n    uint constant YEAR_IN_SECONDS = 31536000;\n    \n    constructor(\n        address _fungibleToken,\n        address _nonFungibleToken,\n        uint _nftSupply\n    )   \n    {\n        fungibleToken = IFungibleToken(_fungibleToken);\n        nonFungibleToken = IERC721(_nonFungibleToken);\n        nftSupply = _nftSupply;\n    }\n\n    function awardPoints(Lottery storage lt, address recipient, uint256 points) internal {\n        lt.points[recipient] += points;\n    }\n\n    function awardToken(address recipient) internal {\n        fungibleToken.mint(recipient, DAILY_TOKEN_REWARD * (uint256(10) ** 18));\n    }\n\n    function currentLottery() internal view returns (Lottery storage lt) {\n        uint time = block.timestamp;\n        _DateTime memory dt = parseTimestamp(time);\n\n        uint index = dt.year.mul(100).add(dt.month);\n\n        lt = lotteries[index];\n        \n        return lt;\n    }\n\n    function deposit(uint tokenId) external {\n        require(msg.sender == nonFungibleToken.ownerOf(tokenId), \"You are not the owner of this token\");\n        nonFungibleToken.transferFrom(msg.sender, address(this), tokenId);\n        deposits[tokenId] = msg.sender;\n        checkpoints[tokenId] = block.timestamp;\n    }\n\n    function getDaysInMonth(uint8 month, uint16 year) public pure returns (uint8) {\n        if (month == 1 || month == 3 || month == 5 || month == 7 || month == 8 || month == 10 || month == 12) {\n            return 31;\n        }\n        else if (month == 4 || month == 6 || month == 9 || month == 11) {\n            return 30;\n        }\n        else if (isLeapYear(year)) {\n            return 29;\n        }\n        else {\n            return 28;\n        }\n    }\n\n    function getYear(uint timestamp) public pure returns (uint16) {\n        uint secondsAccountedFor = 0;\n        uint16 year;\n        uint numLeapYears;\n\n        // Year\n        year = uint16(ORIGIN_YEAR + timestamp / YEAR_IN_SECONDS);\n        numLeapYears = leapYearsBefore(year) - leapYearsBefore(ORIGIN_YEAR);\n\n        secondsAccountedFor += LEAP_YEAR_IN_SECONDS * numLeapYears;\n        secondsAccountedFor += YEAR_IN_SECONDS * (year - ORIGIN_YEAR - numLeapYears);\n\n        while (secondsAccountedFor > timestamp) {\n            if (isLeapYear(uint16(year - 1))) {\n                secondsAccountedFor -= LEAP_YEAR_IN_SECONDS;\n            }\n            else {\n                secondsAccountedFor -= YEAR_IN_SECONDS;\n            }\n            year -= 1;\n        }\n        return year;\n    }\n\n    function isLeapYear(uint16 year) public pure returns (bool) {\n        if (year % 4 != 0) {\n                return false;\n        }\n        if (year % 100 != 0) {\n                return true;\n        }\n        if (year % 400 != 0) {\n                return false;\n        }\n        return true;\n    }\n\n    function leapYearsBefore(uint year) public pure returns (uint) {\n        year -= 1;\n        return year / 4 - year / 100 + year / 400;\n    }\n\n    function parseTimestamp(uint timestamp) internal pure returns (_DateTime memory dt) {\n        uint secondsAccountedFor = 0;\n        uint buf;\n        uint8 i;\n\n        // Year\n        dt.year = getYear(timestamp);\n        buf = leapYearsBefore(dt.year) - leapYearsBefore(ORIGIN_YEAR);\n\n        secondsAccountedFor += LEAP_YEAR_IN_SECONDS * buf;\n        secondsAccountedFor += YEAR_IN_SECONDS * (dt.year - ORIGIN_YEAR - buf);\n\n        // Month\n        uint secondsInMonth;\n        for (i = 1; i <= 12; i++) {\n            secondsInMonth = DAY_IN_SECONDS * getDaysInMonth(i, dt.year);\n            if (secondsInMonth + secondsAccountedFor > timestamp) {\n                dt.month = i;\n                break;\n            }\n            secondsAccountedFor += secondsInMonth;\n        }\n\n        // Day\n        for (i = 1; i <= getDaysInMonth(dt.month, dt.year); i++) {\n            if (DAY_IN_SECONDS + secondsAccountedFor > timestamp) {\n                dt.day = i;\n                break;\n            }\n            secondsAccountedFor += DAY_IN_SECONDS;\n        }\n    }\n\n    function reward(\n        uint[] memory s4e1, \n        uint[] memory s3e1, \n        uint[] memory s2e1,\n        uint[] memory s1e1,\n        uint[] memory s4e2, \n        uint[] memory s3e2, \n        uint[] memory s2e2,\n        uint[] memory s1e2\n    ) external onlyOwner {\n        Lottery storage lt = currentLottery();\n        \n        for (uint x = 0; x < nftSupply; x++) {\n            if (deposits[x] != address(0)) {\n                \n                //confirm that staked longer than a day\n                if (checkpoints[x] < block.timestamp.sub(DAY_IN_SECONDS)) {\n\n                    //4 star - edition 1\n                    for (uint s = 0; s < s4e1.length; s++) {\n                        if (x == s4e1[s]) {\n                            awardPoints(lt, deposits[x], E1_MULTIPLIER.mul(S4));\n                            break;\n                        }\n                    }\n\n                    //3 star - edition 1\n                    for (uint s = 0; s < s3e1.length; s++) {\n                        if (x == s3e1[s]) {\n                            awardPoints(lt, deposits[x], E1_MULTIPLIER.mul(S3));\n                            break;\n                        }\n                    }\n\n                    //2 star - edition 1\n                    for (uint s = 0; s < s2e1.length; s++) {\n                        if (x == s2e1[s]) {\n                            awardPoints(lt, deposits[x], E1_MULTIPLIER.mul(S2));\n                            break;\n                        }\n                    }\n\n                    //1 star - edition 1\n                    for (uint s = 0; s < s1e1.length; s++) {\n                        if (x == s1e1[s]) {\n                            awardPoints(lt, deposits[x], E1_MULTIPLIER.mul(S1));\n                            break;\n                        }\n                    }\n\n                    //4 star - edition 2\n                    for (uint s = 0; s < s4e2.length; s++) {\n                        if (x == s4e2[s]) {\n                            awardPoints(lt, deposits[x], E2_MULTIPLIER.mul(S4));\n                            break;\n                        }\n                    }\n\n                    //3 star - edition 2\n                    for (uint s = 0; s < s3e2.length; s++) {\n                        if (x == s3e2[s]) {\n                            awardPoints(lt, deposits[x], E2_MULTIPLIER.mul(S3));\n                            break;\n                        }\n                    }\n\n                    //2 star - edition 2\n                    for (uint s = 0; s < s2e2.length; s++) {\n                        if (x == s2e2[s]) {\n                            awardPoints(lt, deposits[x], E2_MULTIPLIER.mul(S2));\n                            break;\n                        }\n                    }\n\n                    //1 star - edition 2\n                    for (uint s = 0; s < s1e2.length; s++) {\n                        if (x == s1e2[s]) {\n                            awardPoints(lt, deposits[x], E2_MULTIPLIER.mul(S1));\n                            break;\n                        }\n                    }\n\n                    awardToken(deposits[x]);\n                }\n            }\n        }\n    }\n\n    function withdraw(uint tokenId) external {\n        require(deposits[tokenId] == msg.sender, \"You did not stake this token\");\n        nonFungibleToken.transferFrom(address(this), msg.sender, tokenId);\n        delete deposits[tokenId];\n        delete checkpoints[tokenId];\n        //** Remove user points from latest lottery */\n    }\n}",
  "sourcePath": "/Users/warrenschwartz/Projects/MintedHistory_Lottery/lottery/contracts/LotteryStake.sol",
  "compiler": {
    "name": "solc",
    "version": "0.8.10+commit.fc410830.Emscripten.clang"
  },
  "schemaVersion": "3.4.3",
  "updatedAt": "2021-12-23T04:46:53.063Z",
  "devdoc": {
    "kind": "dev",
    "methods": {
      "owner()": {
        "details": "Returns the address of the current owner."
      },
      "renounceOwnership()": {
        "details": "Leaves the contract without owner. It will not be possible to call `onlyOwner` functions anymore. Can only be called by the current owner. NOTE: Renouncing ownership will leave the contract without an owner, thereby removing any functionality that is only available to the owner."
      },
      "transferOwnership(address)": {
        "details": "Transfers ownership of the contract to a new account (`newOwner`). Can only be called by the current owner."
      }
    },
    "version": 1
  },
  "userdoc": {
    "kind": "user",
    "methods": {},
    "version": 1
  }
}