{
  "contractName": "LotteryStake",
  "abi": [
    {
      "anonymous": false,
      "inputs": [
        {
          "indexed": true,
          "internalType": "address",
          "name": "previousOwner",
          "type": "address"
        },
        {
          "indexed": true,
          "internalType": "address",
          "name": "newOwner",
          "type": "address"
        }
      ],
      "name": "OwnershipTransferred",
      "type": "event"
    },
    {
      "inputs": [
        {
          "internalType": "uint256",
          "name": "",
          "type": "uint256"
        }
      ],
      "name": "checkpoints",
      "outputs": [
        {
          "internalType": "uint256",
          "name": "",
          "type": "uint256"
        }
      ],
      "stateMutability": "view",
      "type": "function"
    },
    {
      "inputs": [
        {
          "internalType": "uint256",
          "name": "",
          "type": "uint256"
        }
      ],
      "name": "deposits",
      "outputs": [
        {
          "internalType": "address",
          "name": "",
          "type": "address"
        }
      ],
      "stateMutability": "view",
      "type": "function"
    },
    {
      "inputs": [],
      "name": "fungibleToken",
      "outputs": [
        {
          "internalType": "contract IFungibleToken",
          "name": "",
          "type": "address"
        }
      ],
      "stateMutability": "view",
      "type": "function"
    },
    {
      "inputs": [
        {
          "internalType": "uint256",
          "name": "",
          "type": "uint256"
        }
      ],
      "name": "lotteries",
      "outputs": [
        {
          "internalType": "bool",
          "name": "drawExecuted",
          "type": "bool"
        },
        {
          "internalType": "address",
          "name": "drawWinner",
          "type": "address"
        },
        {
          "internalType": "uint8",
          "name": "month",
          "type": "uint8"
        },
        {
          "internalType": "uint16",
          "name": "year",
          "type": "uint16"
        }
      ],
      "stateMutability": "view",
      "type": "function"
    },
    {
      "inputs": [],
      "name": "nftSupply",
      "outputs": [
        {
          "internalType": "uint256",
          "name": "",
          "type": "uint256"
        }
      ],
      "stateMutability": "view",
      "type": "function"
    },
    {
      "inputs": [],
      "name": "nonFungibleToken",
      "outputs": [
        {
          "internalType": "contract IERC721",
          "name": "",
          "type": "address"
        }
      ],
      "stateMutability": "view",
      "type": "function"
    },
    {
      "inputs": [],
      "name": "owner",
      "outputs": [
        {
          "internalType": "address",
          "name": "",
          "type": "address"
        }
      ],
      "stateMutability": "view",
      "type": "function"
    },
    {
      "inputs": [],
      "name": "renounceOwnership",
      "outputs": [],
      "stateMutability": "nonpayable",
      "type": "function"
    },
    {
      "inputs": [],
      "name": "stakingPaused",
      "outputs": [
        {
          "internalType": "bool",
          "name": "",
          "type": "bool"
        }
      ],
      "stateMutability": "view",
      "type": "function"
    },
    {
      "inputs": [
        {
          "internalType": "address",
          "name": "newOwner",
          "type": "address"
        }
      ],
      "name": "transferOwnership",
      "outputs": [],
      "stateMutability": "nonpayable",
      "type": "function"
    },
    {
      "inputs": [
        {
          "internalType": "address",
          "name": "_fungibleToken",
          "type": "address"
        },
        {
          "internalType": "address",
          "name": "_nonFungibleToken",
          "type": "address"
        },
        {
          "internalType": "uint256",
          "name": "_nftSupply",
          "type": "uint256"
        }
      ],
      "name": "initialize",
      "outputs": [],
      "stateMutability": "nonpayable",
      "type": "function"
    },
    {
      "inputs": [
        {
          "internalType": "uint256",
          "name": "supply",
          "type": "uint256"
        }
      ],
      "name": "changeNftSupply",
      "outputs": [],
      "stateMutability": "nonpayable",
      "type": "function"
    },
    {
      "inputs": [
        {
          "internalType": "uint256",
          "name": "tokenId",
          "type": "uint256"
        }
      ],
      "name": "deposit",
      "outputs": [],
      "stateMutability": "nonpayable",
      "type": "function"
    },
    {
      "inputs": [
        {
          "internalType": "uint8",
          "name": "month",
          "type": "uint8"
        },
        {
          "internalType": "uint16",
          "name": "year",
          "type": "uint16"
        }
      ],
      "name": "getDaysInMonth",
      "outputs": [
        {
          "internalType": "uint8",
          "name": "",
          "type": "uint8"
        }
      ],
      "stateMutability": "pure",
      "type": "function"
    },
    {
      "inputs": [
        {
          "internalType": "uint256",
          "name": "index",
          "type": "uint256"
        }
      ],
      "name": "getLotteryPoints",
      "outputs": [
        {
          "components": [
            {
              "internalType": "address",
              "name": "owner",
              "type": "address"
            },
            {
              "internalType": "uint256",
              "name": "points",
              "type": "uint256"
            }
          ],
          "internalType": "struct LotteryStake.Token[]",
          "name": "",
          "type": "tuple[]"
        }
      ],
      "stateMutability": "view",
      "type": "function"
    },
    {
      "inputs": [
        {
          "internalType": "uint256",
          "name": "timestamp",
          "type": "uint256"
        }
      ],
      "name": "getYear",
      "outputs": [
        {
          "internalType": "uint16",
          "name": "",
          "type": "uint16"
        }
      ],
      "stateMutability": "pure",
      "type": "function"
    },
    {
      "inputs": [
        {
          "internalType": "uint16",
          "name": "year",
          "type": "uint16"
        }
      ],
      "name": "isLeapYear",
      "outputs": [
        {
          "internalType": "bool",
          "name": "",
          "type": "bool"
        }
      ],
      "stateMutability": "pure",
      "type": "function"
    },
    {
      "inputs": [
        {
          "internalType": "uint256",
          "name": "year",
          "type": "uint256"
        }
      ],
      "name": "leapYearsBefore",
      "outputs": [
        {
          "internalType": "uint256",
          "name": "",
          "type": "uint256"
        }
      ],
      "stateMutability": "pure",
      "type": "function"
    },
    {
      "inputs": [
        {
          "internalType": "uint8",
          "name": "month",
          "type": "uint8"
        },
        {
          "internalType": "uint16",
          "name": "year",
          "type": "uint16"
        }
      ],
      "name": "randomDraw",
      "outputs": [
        {
          "internalType": "address",
          "name": "",
          "type": "address"
        }
      ],
      "stateMutability": "nonpayable",
      "type": "function"
    },
    {
      "inputs": [
        {
          "internalType": "uint256[]",
          "name": "s4e1",
          "type": "uint256[]"
        },
        {
          "internalType": "uint256[]",
          "name": "s3e1",
          "type": "uint256[]"
        },
        {
          "internalType": "uint256[]",
          "name": "s2e1",
          "type": "uint256[]"
        },
        {
          "internalType": "uint256[]",
          "name": "s1e1",
          "type": "uint256[]"
        },
        {
          "internalType": "uint256[]",
          "name": "s4e2",
          "type": "uint256[]"
        },
        {
          "internalType": "uint256[]",
          "name": "s3e2",
          "type": "uint256[]"
        },
        {
          "internalType": "uint256[]",
          "name": "s2e2",
          "type": "uint256[]"
        },
        {
          "internalType": "uint256[]",
          "name": "s1e2",
          "type": "uint256[]"
        }
      ],
      "name": "reward",
      "outputs": [],
      "stateMutability": "nonpayable",
      "type": "function"
    },
    {
      "inputs": [],
      "name": "stakingPause",
      "outputs": [],
      "stateMutability": "nonpayable",
      "type": "function"
    },
    {
      "inputs": [],
      "name": "stakingStart",
      "outputs": [],
      "stateMutability": "nonpayable",
      "type": "function"
    },
    {
      "inputs": [
        {
          "internalType": "uint256",
          "name": "tokenId",
          "type": "uint256"
        }
      ],
      "name": "withdraw",
      "outputs": [],
      "stateMutability": "nonpayable",
      "type": "function"
    }
  ],
  "bytecode": "0x60806040523480156200001157600080fd5b5062000032620000266200003860201b60201c565b6200004060201b60201c565b62000104565b600033905090565b60008060009054906101000a900473ffffffffffffffffffffffffffffffffffffffff169050816000806101000a81548173ffffffffffffffffffffffffffffffffffffffff021916908373ffffffffffffffffffffffffffffffffffffffff1602179055508173ffffffffffffffffffffffffffffffffffffffff168173ffffffffffffffffffffffffffffffffffffffff167f8be0079c531659141344cd1fd0a4f28419497f9722a3daafe3b4186f6b6457e060405160405180910390a35050565b61347180620001146000396000f3fe608060405234801561001057600080fd5b506004361061014d5760003560e01c806392d66313116100c3578063b8a242521161007c578063b8a24252146103b3578063bbb781cc146103e3578063d318f51014610401578063d771b0a61461041d578063e5873ec214610427578063f2fde38b146104455761014d565b806392d66313146102a7578063a6f0e577146102d7578063b02c43d014610307578063b199993714610337578063b238ad0e14610367578063b6b55f25146103975761014d565b80634ad24663116101155780634ad246631461020b57806355455df21461023b5780636279164514610245578063715018a6146102615780637ac27d191461026b5780638da5cb5b146102895761014d565b806301790e011461015257806306947d76146101705780631398e076146101a05780631794bb3c146101d35780632e1a7d4d146101ef575b600080fd5b61015a610461565b604051610167919061238b565b60405180910390f35b61018a6004803603810190610185919061242d565b610467565b60405161019791906124ae565b60405180910390f35b6101ba60048036038101906101b591906124f5565b610801565b6040516101ca949392919061255b565b60405180910390f35b6101ed60048036038101906101e891906125cc565b610879565b005b610209600480360381019061020491906124f5565b61099e565b005b610225600480360381019061022091906124f5565b610b20565b604051610232919061271b565b60405180910390f35b610243610d70565b005b61025f600480360381019061025a9190612896565b610e5f565b005b6102696114ec565b005b610273611574565b6040516102809190612a8b565b60405180910390f35b61029161159a565b60405161029e91906124ae565b60405180910390f35b6102c160048036038101906102bc91906124f5565b6115c3565b6040516102ce9190612aa6565b60405180910390f35b6102f160048036038101906102ec9190612ac1565b6116da565b6040516102fe9190612aee565b60405180910390f35b610321600480360381019061031c91906124f5565b611749565b60405161032e91906124ae565b60405180910390f35b610351600480360381019061034c91906124f5565b61177c565b60405161035e919061238b565b60405180910390f35b610381600480360381019061037c919061242d565b6117d0565b60405161038e9190612b09565b60405180910390f35b6103b160048036038101906103ac91906124f5565b61189c565b005b6103cd60048036038101906103c891906124f5565b611af9565b6040516103da919061238b565b60405180910390f35b6103eb611b11565b6040516103f89190612aee565b60405180910390f35b61041b600480360381019061041691906124f5565b611b24565b005b610425611baa565b005b61042f611c99565b60405161043c9190612b45565b60405180910390f35b61045f600480360381019061045a9190612b60565b611cbf565b005b60075481565b6000610471611db7565b73ffffffffffffffffffffffffffffffffffffffff1661048f61159a565b73ffffffffffffffffffffffffffffffffffffffff16146104e5576040517f08c379a00000000000000000000000000000000000000000000000000000000081526004016104dc90612bea565b60405180910390fd5b60006105148460ff1661050660648661ffff16611dbf90919063ffffffff16565b611dd590919063ffffffff16565b905060006003600083815260200190815260200160002090508060000160009054906101000a900460ff161561057f576040517f08c379a000000000000000000000000000000000000000000000000000000000815260040161057690612c7c565b60405180910390fd5b6004600061058d91906122b1565b60005b6007548110156106d957600073ffffffffffffffffffffffffffffffffffffffff166002600083815260200190815260200160002060009054906101000a900473ffffffffffffffffffffffffffffffffffffffff1673ffffffffffffffffffffffffffffffffffffffff16146106c6576000826001016000838152602001908152602001600020905060005b81600101548110156106c35760048260000160009054906101000a900473ffffffffffffffffffffffffffffffffffffffff169080600181540180825580915050600190039060005260206000200160009091909190916101000a81548173ffffffffffffffffffffffffffffffffffffffff021916908373ffffffffffffffffffffffffffffffffffffffff16021790555080806106bb90612ccb565b91505061061d565b50505b80806106d190612ccb565b915050610590565b5060006106f660016004805490506106f19190612d14565b611deb565b905060018260000160006101000a81548160ff0219169083151502179055506004818154811061072957610728612d48565b5b9060005260206000200160009054906101000a900473ffffffffffffffffffffffffffffffffffffffff168260000160016101000a81548173ffffffffffffffffffffffffffffffffffffffff021916908373ffffffffffffffffffffffffffffffffffffffff160217905550600460006107a491906122b1565b6107d18260000160019054906101000a900473ffffffffffffffffffffffffffffffffffffffff16611e10565b8160000160019054906101000a900473ffffffffffffffffffffffffffffffffffffffff16935050505092915050565b60036020528060005260406000206000915090508060000160009054906101000a900460ff16908060000160019054906101000a900473ffffffffffffffffffffffffffffffffffffffff16908060000160159054906101000a900460ff16908060000160169054906101000a900461ffff16905084565b610881611db7565b73ffffffffffffffffffffffffffffffffffffffff1661089f61159a565b73ffffffffffffffffffffffffffffffffffffffff16146108f5576040517f08c379a00000000000000000000000000000000000000000000000000000000081526004016108ec90612bea565b60405180910390fd5b82600560006101000a81548173ffffffffffffffffffffffffffffffffffffffff021916908373ffffffffffffffffffffffffffffffffffffffff16021790555081600660006101000a81548173ffffffffffffffffffffffffffffffffffffffff021916908373ffffffffffffffffffffffffffffffffffffffff160217905550806007819055506001600860006101000a81548160ff021916908315150217905550505050565b3373ffffffffffffffffffffffffffffffffffffffff166002600083815260200190815260200160002060009054906101000a900473ffffffffffffffffffffffffffffffffffffffff1673ffffffffffffffffffffffffffffffffffffffff1614610a3f576040517f08c379a0000000000000000000000000000000000000000000000000000000008152600401610a3690612dc3565b60405180910390fd5b600660009054906101000a900473ffffffffffffffffffffffffffffffffffffffff1673ffffffffffffffffffffffffffffffffffffffff166323b872dd3033846040518463ffffffff1660e01b8152600401610a9e93929190612de3565b600060405180830381600087803b158015610ab857600080fd5b505af1158015610acc573d6000803e3d6000fd5b505050506002600082815260200190815260200160002060006101000a81549073ffffffffffffffffffffffffffffffffffffffff0219169055600160008281526020019081526020016000206000905550565b60606000600360008481526020019081526020016000209050600060075467ffffffffffffffff811115610b5757610b56612753565b5b604051908082528060200260200182016040528015610b9057816020015b610b7d6122d2565b815260200190600190039081610b755790505b50905060005b600754811015610d65576000836001016000838152602001908152602001600020905060006001600754610bca9190612e1a565b905060005b8451811015610c69578260000160009054906101000a900473ffffffffffffffffffffffffffffffffffffffff1673ffffffffffffffffffffffffffffffffffffffff16858281518110610c2657610c25612d48565b5b60200260200101516000015173ffffffffffffffffffffffffffffffffffffffff161415610c5657809150610c69565b8080610c6190612ccb565b915050610bcf565b506007548111610caf578160010154848281518110610c8b57610c8a612d48565b5b6020026020010151602001818151610ca39190612e1a565b91508181525050610d50565b8160000160009054906101000a900473ffffffffffffffffffffffffffffffffffffffff1684855181518110610ce857610ce7612d48565b5b60200260200101516000019073ffffffffffffffffffffffffffffffffffffffff16908173ffffffffffffffffffffffffffffffffffffffff1681525050816001015484855181518110610d3f57610d3e612d48565b5b602002602001015160200181815250505b50508080610d5d90612ccb565b915050610b96565b508092505050919050565b610d78611db7565b73ffffffffffffffffffffffffffffffffffffffff16610d9661159a565b73ffffffffffffffffffffffffffffffffffffffff1614610dec576040517f08c379a0000000000000000000000000000000000000000000000000000000008152600401610de390612bea565b60405180910390fd5b60001515600860009054906101000a900460ff16151514610e42576040517f08c379a0000000000000000000000000000000000000000000000000000000008152600401610e3990612ebc565b60405180910390fd5b6001600860006101000a81548160ff021916908315150217905550565b610e67611db7565b73ffffffffffffffffffffffffffffffffffffffff16610e8561159a565b73ffffffffffffffffffffffffffffffffffffffff1614610edb576040517f08c379a0000000000000000000000000000000000000000000000000000000008152600401610ed290612bea565b60405180910390fd5b6000610ee5611e5a565b905060005b6007548110156114e057600073ffffffffffffffffffffffffffffffffffffffff166002600083815260200190815260200160002060009054906101000a900473ffffffffffffffffffffffffffffffffffffffff1673ffffffffffffffffffffffffffffffffffffffff16146114cd576000600a9050610f748142611f0590919063ffffffff16565b600160008481526020019081526020016000205410156114cb5760005b8b5181101561102d578b8181518110610fad57610fac612d48565b5b602002602001015183141561101a5761101584846002600087815260200190815260200160002060009054906101000a900473ffffffffffffffffffffffffffffffffffffffff16611010600860ff16600260ff16611dbf90919063ffffffff16565b611f1b565b61102d565b808061102590612ccb565b915050610f91565b5060005b8a518110156110cd578a818151811061104d5761104c612d48565b5b60200260200101518314156110ba576110b584846002600087815260200190815260200160002060009054906101000a900473ffffffffffffffffffffffffffffffffffffffff166110b0600460ff16600260ff16611dbf90919063ffffffff16565b611f1b565b6110cd565b80806110c590612ccb565b915050611031565b5060005b895181101561116d578981815181106110ed576110ec612d48565b5b602002602001015183141561115a5761115584846002600087815260200190815260200160002060009054906101000a900473ffffffffffffffffffffffffffffffffffffffff16611150600260ff16600260ff16611dbf90919063ffffffff16565b611f1b565b61116d565b808061116590612ccb565b9150506110d1565b5060005b885181101561120d5788818151811061118d5761118c612d48565b5b60200260200101518314156111fa576111f584846002600087815260200190815260200160002060009054906101000a900473ffffffffffffffffffffffffffffffffffffffff166111f0600160ff16600260ff16611dbf90919063ffffffff16565b611f1b565b61120d565b808061120590612ccb565b915050611171565b5060005b87518110156112ad5787818151811061122d5761122c612d48565b5b602002602001015183141561129a5761129584846002600087815260200190815260200160002060009054906101000a900473ffffffffffffffffffffffffffffffffffffffff16611290600860ff16600160ff16611dbf90919063ffffffff16565b611f1b565b6112ad565b80806112a590612ccb565b915050611211565b5060005b865181101561134d578681815181106112cd576112cc612d48565b5b602002602001015183141561133a5761133584846002600087815260200190815260200160002060009054906101000a900473ffffffffffffffffffffffffffffffffffffffff16611330600460ff16600160ff16611dbf90919063ffffffff16565b611f1b565b61134d565b808061134590612ccb565b9150506112b1565b5060005b85518110156113ed5785818151811061136d5761136c612d48565b5b60200260200101518314156113da576113d584846002600087815260200190815260200160002060009054906101000a900473ffffffffffffffffffffffffffffffffffffffff166113d0600260ff16600160ff16611dbf90919063ffffffff16565b611f1b565b6113ed565b80806113e590612ccb565b915050611351565b5060005b845181101561148d5784818151811061140d5761140c612d48565b5b602002602001015183141561147a5761147584846002600087815260200190815260200160002060009054906101000a900473ffffffffffffffffffffffffffffffffffffffff16611470600160ff16600160ff16611dbf90919063ffffffff16565b611f1b565b61148d565b808061148590612ccb565b9150506113f1565b506114ca6002600084815260200190815260200160002060009054906101000a900473ffffffffffffffffffffffffffffffffffffffff16611f99565b5b505b80806114d890612ccb565b915050610eea565b50505050505050505050565b6114f4611db7565b73ffffffffffffffffffffffffffffffffffffffff1661151261159a565b73ffffffffffffffffffffffffffffffffffffffff1614611568576040517f08c379a000000000000000000000000000000000000000000000000000000000815260040161155f90612bea565b60405180910390fd5b6115726000612044565b565b600660009054906101000a900473ffffffffffffffffffffffffffffffffffffffff1681565b60008060009054906101000a900473ffffffffffffffffffffffffffffffffffffffff16905090565b600080600090506000806301e13380856115dd9190612f0b565b6107b261ffff166115ee9190612e1a565b91506115ff6107b261ffff1661177c565b61160c8361ffff1661177c565b6116169190612d14565b9050806301e285006116289190612f3c565b836116339190612e1a565b9250806107b2836116449190612f96565b61ffff166116529190612d14565b6301e133806116619190612f3c565b8361166c9190612e1a565b92505b848311156116cf5761168c6001836116879190612f96565b6116da565b156116a8576301e28500836116a19190612d14565b92506116bb565b6301e13380836116b89190612d14565b92505b6001826116c89190612f96565b915061166f565b819350505050919050565b6000806004836116ea9190612fca565b61ffff16146116fc5760009050611744565b600060648361170b9190612fca565b61ffff161461171d5760019050611744565b60006101908361172d9190612fca565b61ffff161461173f5760009050611744565b600190505b919050565b60026020528060005260406000206000915054906101000a900473ffffffffffffffffffffffffffffffffffffffff1681565b600060018261178b9190612d14565b91506101908261179b9190612f0b565b6064836117a89190612f0b565b6004846117b59190612f0b565b6117bf9190612d14565b6117c99190612e1a565b9050919050565b600060018360ff1614806117e7575060038360ff16145b806117f5575060058360ff16145b80611803575060078360ff16145b80611811575060088360ff16145b8061181f5750600a8360ff16145b8061182d5750600c8360ff16145b1561183b57601f9050611896565b60048360ff161480611850575060068360ff16145b8061185e575060098360ff16145b8061186c5750600b8360ff16145b1561187a57601e9050611896565b611883826116da565b1561189157601d9050611896565b601c90505b92915050565b60001515600860009054906101000a900460ff161515146118f2576040517f08c379a00000000000000000000000000000000000000000000000000000000081526004016118e990613047565b60405180910390fd5b600660009054906101000a900473ffffffffffffffffffffffffffffffffffffffff1673ffffffffffffffffffffffffffffffffffffffff16636352211e826040518263ffffffff1660e01b815260040161194d919061238b565b602060405180830381865afa15801561196a573d6000803e3d6000fd5b505050506040513d601f19601f8201168201806040525081019061198e919061307c565b73ffffffffffffffffffffffffffffffffffffffff163373ffffffffffffffffffffffffffffffffffffffff16146119fb576040517f08c379a00000000000000000000000000000000000000000000000000000000081526004016119f29061311b565b60405180910390fd5b600660009054906101000a900473ffffffffffffffffffffffffffffffffffffffff1673ffffffffffffffffffffffffffffffffffffffff166323b872dd3330846040518463ffffffff1660e01b8152600401611a5a93929190612de3565b600060405180830381600087803b158015611a7457600080fd5b505af1158015611a88573d6000803e3d6000fd5b50505050336002600083815260200190815260200160002060006101000a81548173ffffffffffffffffffffffffffffffffffffffff021916908373ffffffffffffffffffffffffffffffffffffffff16021790555042600160008381526020019081526020016000208190555050565b60016020528060005260406000206000915090505481565b600860009054906101000a900460ff1681565b611b2c611db7565b73ffffffffffffffffffffffffffffffffffffffff16611b4a61159a565b73ffffffffffffffffffffffffffffffffffffffff1614611ba0576040517f08c379a0000000000000000000000000000000000000000000000000000000008152600401611b9790612bea565b60405180910390fd5b8060078190555050565b611bb2611db7565b73ffffffffffffffffffffffffffffffffffffffff16611bd061159a565b73ffffffffffffffffffffffffffffffffffffffff1614611c26576040517f08c379a0000000000000000000000000000000000000000000000000000000008152600401611c1d90612bea565b60405180910390fd5b60011515600860009054906101000a900460ff16151514611c7c576040517f08c379a0000000000000000000000000000000000000000000000000000000008152600401611c7390613187565b60405180910390fd5b6000600860006101000a81548160ff021916908315150217905550565b600560009054906101000a900473ffffffffffffffffffffffffffffffffffffffff1681565b611cc7611db7565b73ffffffffffffffffffffffffffffffffffffffff16611ce561159a565b73ffffffffffffffffffffffffffffffffffffffff1614611d3b576040517f08c379a0000000000000000000000000000000000000000000000000000000008152600401611d3290612bea565b60405180910390fd5b600073ffffffffffffffffffffffffffffffffffffffff168173ffffffffffffffffffffffffffffffffffffffff161415611dab576040517f08c379a0000000000000000000000000000000000000000000000000000000008152600401611da290613219565b60405180910390fd5b611db481612044565b50565b600033905090565b60008183611dcd9190612f3c565b905092915050565b60008183611de39190612e1a565b905092915050565b600081600143611dfb9190612d14565b4060001c611e099190613239565b9050919050565b8073ffffffffffffffffffffffffffffffffffffffff166108fc479081150290604051600060405180830381858888f19350505050158015611e56573d6000803e3d6000fd5b5050565b6000804290506000611e6b82612108565b90506000611ea4826020015160ff16611e966064856000015161ffff16611dbf90919063ffffffff16565b611dd590919063ffffffff16565b905060036000828152602001908152602001600020935081600001518460000160166101000a81548161ffff021916908361ffff16021790555081602001518460000160156101000a81548160ff021916908360ff16021790555050505090565b60008183611f139190612d14565b905092915050565b60008460010160008581526020019081526020016000209050828160000160006101000a81548173ffffffffffffffffffffffffffffffffffffffff021916908373ffffffffffffffffffffffffffffffffffffffff16021790555081816001016000828254611f8b9190612e1a565b925050819055505050505050565b600560009054906101000a900473ffffffffffffffffffffffffffffffffffffffff1673ffffffffffffffffffffffffffffffffffffffff166340c10f19826012600a611fe6919061339d565b6001611ff29190612f3c565b6040518363ffffffff1660e01b815260040161200f9291906133e8565b600060405180830381600087803b15801561202957600080fd5b505af115801561203d573d6000803e3d6000fd5b5050505050565b60008060009054906101000a900473ffffffffffffffffffffffffffffffffffffffff169050816000806101000a81548173ffffffffffffffffffffffffffffffffffffffff021916908373ffffffffffffffffffffffffffffffffffffffff1602179055508173ffffffffffffffffffffffffffffffffffffffff168173ffffffffffffffffffffffffffffffffffffffff167f8be0079c531659141344cd1fd0a4f28419497f9722a3daafe3b4186f6b6457e060405160405180910390a35050565b612110612302565b6000808061211d856115c3565b846000019061ffff16908161ffff168152505061213f6107b261ffff1661177c565b612150856000015161ffff1661177c565b61215a9190612d14565b9150816301e2850061216c9190612f3c565b836121779190612e1a565b9250816107b2856000015161218c9190612f96565b61ffff1661219a9190612d14565b6301e133806121a99190612f3c565b836121b49190612e1a565b92506000600191505b600c8260ff1611612234576121d68286600001516117d0565b60ff16620151806121e79190612f3c565b90508584826121f69190612e1a565b11156122135781856020019060ff16908160ff1681525050612234565b808461221f9190612e1a565b9350818061222c90613411565b9250506121bd565b600191505b61224b856020015186600001516117d0565b60ff168260ff16116122a8578584620151806122679190612e1a565b11156122845781856040019060ff16908160ff16815250506122a8565b62015180846122939190612e1a565b935081806122a090613411565b925050612239565b50505050919050565b50805460008255906000526020600020908101906122cf9190612355565b50565b6040518060400160405280600073ffffffffffffffffffffffffffffffffffffffff168152602001600081525090565b6040518060e00160405280600061ffff168152602001600060ff168152602001600060ff168152602001600060ff168152602001600060ff168152602001600060ff168152602001600060ff1681525090565b5b8082111561236e576000816000905550600101612356565b5090565b6000819050919050565b61238581612372565b82525050565b60006020820190506123a0600083018461237c565b92915050565b6000604051905090565b600080fd5b600080fd5b600060ff82169050919050565b6123d0816123ba565b81146123db57600080fd5b50565b6000813590506123ed816123c7565b92915050565b600061ffff82169050919050565b61240a816123f3565b811461241557600080fd5b50565b60008135905061242781612401565b92915050565b60008060408385031215612444576124436123b0565b5b6000612452858286016123de565b925050602061246385828601612418565b9150509250929050565b600073ffffffffffffffffffffffffffffffffffffffff82169050919050565b60006124988261246d565b9050919050565b6124a88161248d565b82525050565b60006020820190506124c3600083018461249f565b92915050565b6124d281612372565b81146124dd57600080fd5b50565b6000813590506124ef816124c9565b92915050565b60006020828403121561250b5761250a6123b0565b5b6000612519848285016124e0565b91505092915050565b60008115159050919050565b61253781612522565b82525050565b612546816123ba565b82525050565b612555816123f3565b82525050565b6000608082019050612570600083018761252e565b61257d602083018661249f565b61258a604083018561253d565b612597606083018461254c565b95945050505050565b6125a98161248d565b81146125b457600080fd5b50565b6000813590506125c6816125a0565b92915050565b6000806000606084860312156125e5576125e46123b0565b5b60006125f3868287016125b7565b9350506020612604868287016125b7565b9250506040612615868287016124e0565b9150509250925092565b600081519050919050565b600082825260208201905092915050565b6000819050602082019050919050565b6126548161248d565b82525050565b61266381612372565b82525050565b60408201600082015161267f600085018261264b565b506020820151612692602085018261265a565b50505050565b60006126a48383612669565b60408301905092915050565b6000602082019050919050565b60006126c88261261f565b6126d2818561262a565b93506126dd8361263b565b8060005b8381101561270e5781516126f58882612698565b9750612700836126b0565b9250506001810190506126e1565b5085935050505092915050565b6000602082019050818103600083015261273581846126bd565b905092915050565b600080fd5b6000601f19601f8301169050919050565b7f4e487b7100000000000000000000000000000000000000000000000000000000600052604160045260246000fd5b61278b82612742565b810181811067ffffffffffffffff821117156127aa576127a9612753565b5b80604052505050565b60006127bd6123a6565b90506127c98282612782565b919050565b600067ffffffffffffffff8211156127e9576127e8612753565b5b602082029050602081019050919050565b600080fd5b600061281261280d846127ce565b6127b3565b90508083825260208201905060208402830185811115612835576128346127fa565b5b835b8181101561285e578061284a88826124e0565b845260208401935050602081019050612837565b5050509392505050565b600082601f83011261287d5761287c61273d565b5b813561288d8482602086016127ff565b91505092915050565b600080600080600080600080610100898b0312156128b7576128b66123b0565b5b600089013567ffffffffffffffff8111156128d5576128d46123b5565b5b6128e18b828c01612868565b985050602089013567ffffffffffffffff811115612902576129016123b5565b5b61290e8b828c01612868565b975050604089013567ffffffffffffffff81111561292f5761292e6123b5565b5b61293b8b828c01612868565b965050606089013567ffffffffffffffff81111561295c5761295b6123b5565b5b6129688b828c01612868565b955050608089013567ffffffffffffffff811115612989576129886123b5565b5b6129958b828c01612868565b94505060a089013567ffffffffffffffff8111156129b6576129b56123b5565b5b6129c28b828c01612868565b93505060c089013567ffffffffffffffff8111156129e3576129e26123b5565b5b6129ef8b828c01612868565b92505060e089013567ffffffffffffffff811115612a1057612a0f6123b5565b5b612a1c8b828c01612868565b9150509295985092959890939650565b6000819050919050565b6000612a51612a4c612a478461246d565b612a2c565b61246d565b9050919050565b6000612a6382612a36565b9050919050565b6000612a7582612a58565b9050919050565b612a8581612a6a565b82525050565b6000602082019050612aa06000830184612a7c565b92915050565b6000602082019050612abb600083018461254c565b92915050565b600060208284031215612ad757612ad66123b0565b5b6000612ae584828501612418565b91505092915050565b6000602082019050612b03600083018461252e565b92915050565b6000602082019050612b1e600083018461253d565b92915050565b6000612b2f82612a58565b9050919050565b612b3f81612b24565b82525050565b6000602082019050612b5a6000830184612b36565b92915050565b600060208284031215612b7657612b756123b0565b5b6000612b84848285016125b7565b91505092915050565b600082825260208201905092915050565b7f4f776e61626c653a2063616c6c6572206973206e6f7420746865206f776e6572600082015250565b6000612bd4602083612b8d565b9150612bdf82612b9e565b602082019050919050565b60006020820190508181036000830152612c0381612bc7565b9050919050565b7f54686973206c6f74746572792068617320616c7265616479206265656e20647260008201527f61776e0000000000000000000000000000000000000000000000000000000000602082015250565b6000612c66602383612b8d565b9150612c7182612c0a565b604082019050919050565b60006020820190508181036000830152612c9581612c59565b9050919050565b7f4e487b7100000000000000000000000000000000000000000000000000000000600052601160045260246000fd5b6000612cd682612372565b91507fffffffffffffffffffffffffffffffffffffffffffffffffffffffffffffffff821415612d0957612d08612c9c565b5b600182019050919050565b6000612d1f82612372565b9150612d2a83612372565b925082821015612d3d57612d3c612c9c565b5b828203905092915050565b7f4e487b7100000000000000000000000000000000000000000000000000000000600052603260045260246000fd5b7f596f7520646964206e6f74207374616b65207468697320746f6b656e00000000600082015250565b6000612dad601c83612b8d565b9150612db882612d77565b602082019050919050565b60006020820190508181036000830152612ddc81612da0565b9050919050565b6000606082019050612df8600083018661249f565b612e05602083018561249f565b612e12604083018461237c565b949350505050565b6000612e2582612372565b9150612e3083612372565b9250827fffffffffffffffffffffffffffffffffffffffffffffffffffffffffffffffff03821115612e6557612e64612c9c565b5b828201905092915050565b7f5374616b696e6720697320616c72656164792070617573656400000000000000600082015250565b6000612ea6601983612b8d565b9150612eb182612e70565b602082019050919050565b60006020820190508181036000830152612ed581612e99565b9050919050565b7f4e487b7100000000000000000000000000000000000000000000000000000000600052601260045260246000fd5b6000612f1682612372565b9150612f2183612372565b925082612f3157612f30612edc565b5b828204905092915050565b6000612f4782612372565b9150612f5283612372565b9250817fffffffffffffffffffffffffffffffffffffffffffffffffffffffffffffffff0483118215151615612f8b57612f8a612c9c565b5b828202905092915050565b6000612fa1826123f3565b9150612fac836123f3565b925082821015612fbf57612fbe612c9c565b5b828203905092915050565b6000612fd5826123f3565b9150612fe0836123f3565b925082612ff057612fef612edc565b5b828206905092915050565b7f5374616b696e672069732063757272656e746c79207061757365640000000000600082015250565b6000613031601b83612b8d565b915061303c82612ffb565b602082019050919050565b6000602082019050818103600083015261306081613024565b9050919050565b600081519050613076816125a0565b92915050565b600060208284031215613092576130916123b0565b5b60006130a084828501613067565b91505092915050565b7f596f7520617265206e6f7420746865206f776e6572206f66207468697320746f60008201527f6b656e0000000000000000000000000000000000000000000000000000000000602082015250565b6000613105602383612b8d565b9150613110826130a9565b604082019050919050565b60006020820190508181036000830152613134816130f8565b9050919050565b7f5374616b696e672068617320616c726561647920737461727465640000000000600082015250565b6000613171601b83612b8d565b915061317c8261313b565b602082019050919050565b600060208201905081810360008301526131a081613164565b9050919050565b7f4f776e61626c653a206e6577206f776e657220697320746865207a65726f206160008201527f6464726573730000000000000000000000000000000000000000000000000000602082015250565b6000613203602683612b8d565b915061320e826131a7565b604082019050919050565b60006020820190508181036000830152613232816131f6565b9050919050565b600061324482612372565b915061324f83612372565b92508261325f5761325e612edc565b5b828206905092915050565b60008160011c9050919050565b6000808291508390505b60018511156132c15780860481111561329d5761329c612c9c565b5b60018516156132ac5780820291505b80810290506132ba8561326a565b9450613281565b94509492505050565b6000826132da5760019050613396565b816132e85760009050613396565b81600181146132fe576002811461330857613337565b6001915050613396565b60ff84111561331a57613319612c9c565b5b8360020a91508482111561333157613330612c9c565b5b50613396565b5060208310610133831016604e8410600b841016171561336c5782820a90508381111561336757613366612c9c565b5b613396565b6133798484846001613277565b925090508184048111156133905761338f612c9c565b5b81810290505b9392505050565b60006133a882612372565b91506133b3836123ba565b92506133e07fffffffffffffffffffffffffffffffffffffffffffffffffffffffffffffffff84846132ca565b905092915050565b60006040820190506133fd600083018561249f565b61340a602083018461237c565b9392505050565b600061341c826123ba565b915060ff8214156134305761342f612c9c565b5b60018201905091905056fea2646970667358221220404d2053b0aedbf1fd812c0b01b69668846b5e675bb148c9e7c80e5ab0e6734364736f6c634300080a0033",
  "immutableReferences": {},
  "source": "// SPDX-License-Identifier: MIT\npragma solidity ^0.8.2;\n\nimport \"@openzeppelin/contracts/token/ERC20/IERC20.sol\";\nimport \"@openzeppelin/contracts/token/ERC721/IERC721Receiver.sol\";\nimport \"@openzeppelin/contracts/token/ERC721/IERC721.sol\";\nimport \"@openzeppelin/contracts/access/Ownable.sol\";\nimport \"@openzeppelin/contracts/utils/math/safemath.sol\";\n\ninterface IFungibleToken is IERC20 {\n    function mint(address to, uint256 amount) external;\n}\n\ncontract LotteryStake is Ownable {\n    \n    using SafeMath for uint8;\n    using SafeMath for uint16;\n    using SafeMath for uint256;\n\n    struct _DateTime {\n        uint16 year;\n        uint8 month;\n        uint8 day;\n        uint8 hour;\n        uint8 minute;\n        uint8 second;\n        uint8 weekday;\n    }\n\n    struct Token {\n        address owner;\n        uint points;\n    }\n\n    struct Lottery {\n        bool drawExecuted;\n        address drawWinner;\n        uint8 month;\n        uint16 year;\n        mapping(uint => Token) stakedTokens; \n    }\n    \n    mapping (uint => uint) public checkpoints;     //tokenId => timestamp\n    mapping (uint => address) public deposits;     //tokenId => address\n    mapping (uint => Lottery) public lotteries;\n    \n    address[] tickets;\n\n    IFungibleToken public fungibleToken;\n    IERC721 public nonFungibleToken;\n    uint public nftSupply;\n    bool public stakingPaused;\n\n    uint constant DAY_IN_SECONDS = 86400; \n    uint constant DAILY_TOKEN_REWARD = 1;\n    uint8 constant E1_MULTIPLIER = 2;\n    uint8 constant E2_MULTIPLIER = 1;\n    uint constant LEAP_YEAR_IN_SECONDS = 31622400;\n    uint16 constant ORIGIN_YEAR = 1970;\n    uint8 constant S1 = 1;\n    uint8 constant S2 = 2;\n    uint8 constant S3 = 4;\n    uint8 constant S4 = 8;\n    uint constant YEAR_IN_SECONDS = 31536000;\n    \n    function initialize(\n        address _fungibleToken,\n        address _nonFungibleToken,\n        uint _nftSupply\n    ) onlyOwner external   \n    {\n        fungibleToken = IFungibleToken(_fungibleToken);\n        nonFungibleToken = IERC721(_nonFungibleToken);\n        nftSupply = _nftSupply;\n        stakingPaused = true;\n    }\n\n    function awardPoints(Lottery storage lt, uint tokenId, address recipient, uint256 points) internal {\n        Token storage token = lt.stakedTokens[tokenId];\n        token.owner = recipient;\n        token.points += points;\n    }\n\n    function awardToken(address recipient) internal {\n        fungibleToken.mint(recipient, DAILY_TOKEN_REWARD * (uint256(10) ** 18));\n    }\n\n    function currentLottery() internal returns (Lottery storage lt) {\n        uint time = block.timestamp;\n        _DateTime memory dt = parseTimestamp(time);\n\n        uint index = dt.year.mul(100).add(dt.month);\n\n        lt = lotteries[index];\n        lt.year = dt.year;\n        lt.month = dt.month;\n        \n        return lt;\n    }\n\n    function changeNftSupply(uint supply) external onlyOwner {\n        nftSupply = supply;\n    }\n\n    function deposit(uint tokenId) external {\n        require(stakingPaused == false, \"Staking is currently paused\");\n        require(msg.sender == nonFungibleToken.ownerOf(tokenId), \"You are not the owner of this token\");\n        nonFungibleToken.transferFrom(msg.sender, address(this), tokenId);\n        deposits[tokenId] = msg.sender;\n        checkpoints[tokenId] = block.timestamp;\n    }\n\n    function getDaysInMonth(uint8 month, uint16 year) public pure returns (uint8) {\n        if (month == 1 || month == 3 || month == 5 || month == 7 || month == 8 || month == 10 || month == 12) {\n            return 31;\n        }\n        else if (month == 4 || month == 6 || month == 9 || month == 11) {\n            return 30;\n        }\n        else if (isLeapYear(year)) {\n            return 29;\n        }\n        else {\n            return 28;\n        }\n    }\n\n    function getLotteryPoints(uint index) public view returns (Token[] memory) {\n        Lottery storage lt = lotteries[index];\n        Token[] memory results = new Token[](nftSupply);\n        \n        for (uint x = 0; x < nftSupply; x++) {\n            Token storage value = lt.stakedTokens[x];\n\n            uint addressIndex = nftSupply + 1;\n            for (uint y = 0; y < results.length; y++) {\n                if (results[y].owner == value.owner) {\n                    addressIndex = y;\n                    break;\n                }\n            }\n\n            if (addressIndex <= nftSupply) {\n                results[addressIndex].points += value.points;\n            } else {\n                results[results.length].owner = value.owner;\n                results[results.length].points = value.points;\n            }\n        }\n        \n        return results;\n    }\n\n    function getYear(uint timestamp) public pure returns (uint16) {\n        uint secondsAccountedFor = 0;\n        uint16 year;\n        uint numLeapYears;\n\n        // Year\n        year = uint16(ORIGIN_YEAR + timestamp / YEAR_IN_SECONDS);\n        numLeapYears = leapYearsBefore(year) - leapYearsBefore(ORIGIN_YEAR);\n\n        secondsAccountedFor += LEAP_YEAR_IN_SECONDS * numLeapYears;\n        secondsAccountedFor += YEAR_IN_SECONDS * (year - ORIGIN_YEAR - numLeapYears);\n\n        while (secondsAccountedFor > timestamp) {\n            if (isLeapYear(uint16(year - 1))) {\n                secondsAccountedFor -= LEAP_YEAR_IN_SECONDS;\n            }\n            else {\n                secondsAccountedFor -= YEAR_IN_SECONDS;\n            }\n            year -= 1;\n        }\n        return year;\n    }\n\n    function isLeapYear(uint16 year) public pure returns (bool) {\n        if (year % 4 != 0) {\n                return false;\n        }\n        if (year % 100 != 0) {\n                return true;\n        }\n        if (year % 400 != 0) {\n                return false;\n        }\n        return true;\n    }\n\n    function leapYearsBefore(uint year) public pure returns (uint) {\n        year -= 1;\n        return year / 4 - year / 100 + year / 400;\n    }\n\n    function parseTimestamp(uint timestamp) internal pure returns (_DateTime memory dt) {\n        uint secondsAccountedFor = 0;\n        uint buf;\n        uint8 i;\n\n        // Year\n        dt.year = getYear(timestamp);\n        buf = leapYearsBefore(dt.year) - leapYearsBefore(ORIGIN_YEAR);\n\n        secondsAccountedFor += LEAP_YEAR_IN_SECONDS * buf;\n        secondsAccountedFor += YEAR_IN_SECONDS * (dt.year - ORIGIN_YEAR - buf);\n\n        // Month\n        uint secondsInMonth;\n        for (i = 1; i <= 12; i++) {\n            secondsInMonth = DAY_IN_SECONDS * getDaysInMonth(i, dt.year);\n            if (secondsInMonth + secondsAccountedFor > timestamp) {\n                dt.month = i;\n                break;\n            }\n            secondsAccountedFor += secondsInMonth;\n        }\n\n        // Day\n        for (i = 1; i <= getDaysInMonth(dt.month, dt.year); i++) {\n            if (DAY_IN_SECONDS + secondsAccountedFor > timestamp) {\n                dt.day = i;\n                break;\n            }\n            secondsAccountedFor += DAY_IN_SECONDS;\n        }\n    }\n\n    function payContractBalance(address payable winner) internal {\n        winner.transfer(address(this).balance);\n    }\n\n    function random(uint max) internal view returns (uint) {\n        return uint(blockhash(block.number - 1)) % max;\n    }\n\n    function randomDraw(uint8 month, uint16 year) external onlyOwner returns (address) {\n        uint index = year.mul(100).add(month);\n        Lottery storage lt = lotteries[index];\n        require(!lt.drawExecuted, \"This lottery has already been drawn\");\n        delete tickets;\n\n        for (uint x = 0; x < nftSupply; x++) {\n            if (deposits[x] != address(0)) {\n                Token storage tok = lt.stakedTokens[x];\n                for (uint y = 0; y < tok.points; y++) {\n                    tickets.push(tok.owner);\n                }\n            }\n        }\n\n        uint selectedNumber = random(tickets.length - 1);\n\n        lt.drawExecuted = true;\n        lt.drawWinner = tickets[selectedNumber];\n\n        delete tickets;\n\n        //pay the winner\n        payContractBalance(payable(lt.drawWinner));\n\n        return lt.drawWinner;\n    }\n\n    function reward(\n        uint[] memory s4e1, \n        uint[] memory s3e1, \n        uint[] memory s2e1,\n        uint[] memory s1e1,\n        uint[] memory s4e2, \n        uint[] memory s3e2, \n        uint[] memory s2e2,\n        uint[] memory s1e2\n    ) external onlyOwner {\n        Lottery storage lt = currentLottery();\n        \n        for (uint x = 0; x < nftSupply; x++) {\n            if (deposits[x] != address(0)) {\n                \n                //confirm that staked longer than a day\n                //** testing */\n                //uint dayInSeconds = DAY_IN_SECONDS;\n                uint dayInSeconds = 10;\n\n                if (checkpoints[x] < block.timestamp.sub(dayInSeconds)) {\n\n                    //4 star - edition 1\n                    for (uint s = 0; s < s4e1.length; s++) {\n                        if (x == s4e1[s]) {\n                            awardPoints(lt, x, deposits[x], E1_MULTIPLIER.mul(S4));\n                            break;\n                        }\n                    }\n\n                    //3 star - edition 1\n                    for (uint s = 0; s < s3e1.length; s++) {\n                        if (x == s3e1[s]) {\n                            awardPoints(lt, x, deposits[x], E1_MULTIPLIER.mul(S3));\n                            break;\n                        }\n                    }\n\n                    //2 star - edition 1\n                    for (uint s = 0; s < s2e1.length; s++) {\n                        if (x == s2e1[s]) {\n                            awardPoints(lt, x, deposits[x], E1_MULTIPLIER.mul(S2));\n                            break;\n                        }\n                    }\n\n                    //1 star - edition 1\n                    for (uint s = 0; s < s1e1.length; s++) {\n                        if (x == s1e1[s]) {\n                            awardPoints(lt, x, deposits[x], E1_MULTIPLIER.mul(S1));\n                            break;\n                        }\n                    }\n\n                    //4 star - edition 2\n                    for (uint s = 0; s < s4e2.length; s++) {\n                        if (x == s4e2[s]) {\n                            awardPoints(lt, x, deposits[x], E2_MULTIPLIER.mul(S4));\n                            break;\n                        }\n                    }\n\n                    //3 star - edition 2\n                    for (uint s = 0; s < s3e2.length; s++) {\n                        if (x == s3e2[s]) {\n                            awardPoints(lt, x, deposits[x], E2_MULTIPLIER.mul(S3));\n                            break;\n                        }\n                    }\n\n                    //2 star - edition 2\n                    for (uint s = 0; s < s2e2.length; s++) {\n                        if (x == s2e2[s]) {\n                            awardPoints(lt, x, deposits[x], E2_MULTIPLIER.mul(S2));\n                            break;\n                        }\n                    }\n\n                    //1 star - edition 2\n                    for (uint s = 0; s < s1e2.length; s++) {\n                        if (x == s1e2[s]) {\n                            awardPoints(lt, x, deposits[x], E2_MULTIPLIER.mul(S1));\n                            break;\n                        }\n                    }\n\n                    awardToken(deposits[x]);\n                }\n            }\n        }\n    }\n\n    function stakingPause() external onlyOwner {\n        require(stakingPaused == false, \"Staking is already paused\");\n        stakingPaused = true;\n    }\n\n    function stakingStart() external onlyOwner {\n        require(stakingPaused == true, \"Staking has already started\");\n        stakingPaused = false;\n    }\n\n    function withdraw(uint tokenId) external {\n        require(deposits[tokenId] == msg.sender, \"You did not stake this token\");\n        nonFungibleToken.transferFrom(address(this), msg.sender, tokenId);\n        delete deposits[tokenId];\n        delete checkpoints[tokenId];\n    }\n}",
  "sourcePath": "/Users/warrenschwartz/Projects/MintedHistory_Lottery/lottery/contracts/LotteryStake.sol",
  "compiler": {
    "name": "solc",
    "version": "0.8.10+commit.fc410830.Emscripten.clang"
  },
  "schemaVersion": "3.4.3",
  "updatedAt": "2022-01-06T16:26:26.587Z",
  "devdoc": {
    "kind": "dev",
    "methods": {
      "owner()": {
        "details": "Returns the address of the current owner."
      },
      "renounceOwnership()": {
        "details": "Leaves the contract without owner. It will not be possible to call `onlyOwner` functions anymore. Can only be called by the current owner. NOTE: Renouncing ownership will leave the contract without an owner, thereby removing any functionality that is only available to the owner."
      },
      "transferOwnership(address)": {
        "details": "Transfers ownership of the contract to a new account (`newOwner`). Can only be called by the current owner."
      }
    },
    "version": 1
  },
  "userdoc": {
    "kind": "user",
    "methods": {},
    "version": 1
  }
}