{
  "contractName": "LotteryStake",
  "abi": [
    {
      "anonymous": false,
      "inputs": [
        {
          "indexed": true,
          "internalType": "address",
          "name": "previousOwner",
          "type": "address"
        },
        {
          "indexed": true,
          "internalType": "address",
          "name": "newOwner",
          "type": "address"
        }
      ],
      "name": "OwnershipTransferred",
      "type": "event"
    },
    {
      "inputs": [
        {
          "internalType": "uint256",
          "name": "",
          "type": "uint256"
        }
      ],
      "name": "checkpoints",
      "outputs": [
        {
          "internalType": "uint256",
          "name": "",
          "type": "uint256"
        }
      ],
      "stateMutability": "view",
      "type": "function"
    },
    {
      "inputs": [
        {
          "internalType": "uint256",
          "name": "",
          "type": "uint256"
        }
      ],
      "name": "deposits",
      "outputs": [
        {
          "internalType": "address",
          "name": "",
          "type": "address"
        }
      ],
      "stateMutability": "view",
      "type": "function"
    },
    {
      "inputs": [],
      "name": "fungibleToken",
      "outputs": [
        {
          "internalType": "contract IFungibleToken",
          "name": "",
          "type": "address"
        }
      ],
      "stateMutability": "view",
      "type": "function"
    },
    {
      "inputs": [
        {
          "internalType": "uint256",
          "name": "",
          "type": "uint256"
        }
      ],
      "name": "lotteries",
      "outputs": [
        {
          "internalType": "bool",
          "name": "drawExecuted",
          "type": "bool"
        },
        {
          "internalType": "address",
          "name": "drawWinner",
          "type": "address"
        },
        {
          "internalType": "uint8",
          "name": "month",
          "type": "uint8"
        },
        {
          "internalType": "uint16",
          "name": "year",
          "type": "uint16"
        }
      ],
      "stateMutability": "view",
      "type": "function"
    },
    {
      "inputs": [
        {
          "internalType": "uint256",
          "name": "",
          "type": "uint256"
        }
      ],
      "name": "lotteryPoints",
      "outputs": [
        {
          "internalType": "uint8",
          "name": "month",
          "type": "uint8"
        },
        {
          "internalType": "address",
          "name": "participant",
          "type": "address"
        },
        {
          "internalType": "uint256",
          "name": "points",
          "type": "uint256"
        },
        {
          "internalType": "uint16",
          "name": "year",
          "type": "uint16"
        }
      ],
      "stateMutability": "view",
      "type": "function"
    },
    {
      "inputs": [],
      "name": "nftSupply",
      "outputs": [
        {
          "internalType": "uint256",
          "name": "",
          "type": "uint256"
        }
      ],
      "stateMutability": "view",
      "type": "function"
    },
    {
      "inputs": [],
      "name": "nonFungibleToken",
      "outputs": [
        {
          "internalType": "contract IERC721",
          "name": "",
          "type": "address"
        }
      ],
      "stateMutability": "view",
      "type": "function"
    },
    {
      "inputs": [],
      "name": "owner",
      "outputs": [
        {
          "internalType": "address",
          "name": "",
          "type": "address"
        }
      ],
      "stateMutability": "view",
      "type": "function"
    },
    {
      "inputs": [],
      "name": "renounceOwnership",
      "outputs": [],
      "stateMutability": "nonpayable",
      "type": "function"
    },
    {
      "inputs": [],
      "name": "secondsBeforeEarning",
      "outputs": [
        {
          "internalType": "uint256",
          "name": "",
          "type": "uint256"
        }
      ],
      "stateMutability": "view",
      "type": "function"
    },
    {
      "inputs": [],
      "name": "stakedTokens",
      "outputs": [
        {
          "internalType": "uint256",
          "name": "",
          "type": "uint256"
        }
      ],
      "stateMutability": "view",
      "type": "function"
    },
    {
      "inputs": [],
      "name": "stakingPaused",
      "outputs": [
        {
          "internalType": "bool",
          "name": "",
          "type": "bool"
        }
      ],
      "stateMutability": "view",
      "type": "function"
    },
    {
      "inputs": [
        {
          "internalType": "address",
          "name": "newOwner",
          "type": "address"
        }
      ],
      "name": "transferOwnership",
      "outputs": [],
      "stateMutability": "nonpayable",
      "type": "function"
    },
    {
      "inputs": [
        {
          "internalType": "address",
          "name": "_fungibleToken",
          "type": "address"
        },
        {
          "internalType": "address",
          "name": "_nonFungibleToken",
          "type": "address"
        },
        {
          "internalType": "uint256",
          "name": "_nftSupply",
          "type": "uint256"
        },
        {
          "internalType": "uint256",
          "name": "_secondsBeforeEarning",
          "type": "uint256"
        }
      ],
      "name": "initialize",
      "outputs": [],
      "stateMutability": "nonpayable",
      "type": "function"
    },
    {
      "inputs": [
        {
          "internalType": "uint256",
          "name": "supply",
          "type": "uint256"
        }
      ],
      "name": "changeNftSupply",
      "outputs": [],
      "stateMutability": "nonpayable",
      "type": "function"
    },
    {
      "inputs": [
        {
          "internalType": "uint256",
          "name": "tokenId",
          "type": "uint256"
        }
      ],
      "name": "deposit",
      "outputs": [],
      "stateMutability": "nonpayable",
      "type": "function"
    },
    {
      "inputs": [
        {
          "internalType": "uint8",
          "name": "month",
          "type": "uint8"
        },
        {
          "internalType": "uint16",
          "name": "year",
          "type": "uint16"
        }
      ],
      "name": "getDaysInMonth",
      "outputs": [
        {
          "internalType": "uint8",
          "name": "",
          "type": "uint8"
        }
      ],
      "stateMutability": "pure",
      "type": "function"
    },
    {
      "inputs": [
        {
          "internalType": "uint16",
          "name": "year",
          "type": "uint16"
        },
        {
          "internalType": "uint8",
          "name": "month",
          "type": "uint8"
        }
      ],
      "name": "getLotteryPoints",
      "outputs": [
        {
          "components": [
            {
              "internalType": "uint8",
              "name": "month",
              "type": "uint8"
            },
            {
              "internalType": "address",
              "name": "participant",
              "type": "address"
            },
            {
              "internalType": "uint256",
              "name": "points",
              "type": "uint256"
            },
            {
              "internalType": "uint16",
              "name": "year",
              "type": "uint16"
            }
          ],
          "internalType": "struct LotteryStake.Points[]",
          "name": "",
          "type": "tuple[]"
        }
      ],
      "stateMutability": "view",
      "type": "function"
    },
    {
      "inputs": [
        {
          "internalType": "uint256",
          "name": "timestamp",
          "type": "uint256"
        }
      ],
      "name": "getYear",
      "outputs": [
        {
          "internalType": "uint16",
          "name": "",
          "type": "uint16"
        }
      ],
      "stateMutability": "pure",
      "type": "function"
    },
    {
      "inputs": [
        {
          "internalType": "uint16",
          "name": "year",
          "type": "uint16"
        }
      ],
      "name": "isLeapYear",
      "outputs": [
        {
          "internalType": "bool",
          "name": "",
          "type": "bool"
        }
      ],
      "stateMutability": "pure",
      "type": "function"
    },
    {
      "inputs": [
        {
          "internalType": "uint256",
          "name": "year",
          "type": "uint256"
        }
      ],
      "name": "leapYearsBefore",
      "outputs": [
        {
          "internalType": "uint256",
          "name": "",
          "type": "uint256"
        }
      ],
      "stateMutability": "pure",
      "type": "function"
    },
    {
      "inputs": [
        {
          "internalType": "uint8",
          "name": "month",
          "type": "uint8"
        },
        {
          "internalType": "uint16",
          "name": "year",
          "type": "uint16"
        }
      ],
      "name": "randomDraw",
      "outputs": [
        {
          "internalType": "address",
          "name": "",
          "type": "address"
        }
      ],
      "stateMutability": "nonpayable",
      "type": "function"
    },
    {
      "inputs": [
        {
          "internalType": "uint256[]",
          "name": "s4e1",
          "type": "uint256[]"
        },
        {
          "internalType": "uint256[]",
          "name": "s3e1",
          "type": "uint256[]"
        },
        {
          "internalType": "uint256[]",
          "name": "s2e1",
          "type": "uint256[]"
        },
        {
          "internalType": "uint256[]",
          "name": "s1e1",
          "type": "uint256[]"
        },
        {
          "internalType": "uint256[]",
          "name": "s4e2",
          "type": "uint256[]"
        },
        {
          "internalType": "uint256[]",
          "name": "s3e2",
          "type": "uint256[]"
        },
        {
          "internalType": "uint256[]",
          "name": "s2e2",
          "type": "uint256[]"
        },
        {
          "internalType": "uint256[]",
          "name": "s1e2",
          "type": "uint256[]"
        }
      ],
      "name": "reward",
      "outputs": [],
      "stateMutability": "nonpayable",
      "type": "function"
    },
    {
      "inputs": [],
      "name": "stakingPause",
      "outputs": [],
      "stateMutability": "nonpayable",
      "type": "function"
    },
    {
      "inputs": [],
      "name": "stakingStart",
      "outputs": [],
      "stateMutability": "nonpayable",
      "type": "function"
    },
    {
      "inputs": [
        {
          "internalType": "address",
          "name": "staker",
          "type": "address"
        }
      ],
      "name": "tokensStaked",
      "outputs": [
        {
          "internalType": "uint256[]",
          "name": "",
          "type": "uint256[]"
        }
      ],
      "stateMutability": "view",
      "type": "function"
    },
    {
      "inputs": [
        {
          "internalType": "uint256",
          "name": "tokenId",
          "type": "uint256"
        }
      ],
      "name": "withdraw",
      "outputs": [],
      "stateMutability": "nonpayable",
      "type": "function"
    }
  ],
  "bytecode": "0x60806040523480156200001157600080fd5b5062000032620000266200003860201b60201c565b6200004060201b60201c565b62000104565b600033905090565b60008060009054906101000a900473ffffffffffffffffffffffffffffffffffffffff169050816000806101000a81548173ffffffffffffffffffffffffffffffffffffffff021916908373ffffffffffffffffffffffffffffffffffffffff1602179055508173ffffffffffffffffffffffffffffffffffffffff168173ffffffffffffffffffffffffffffffffffffffff167f8be0079c531659141344cd1fd0a4f28419497f9722a3daafe3b4186f6b6457e060405160405180910390a35050565b613c3c80620001146000396000f3fe608060405234801561001057600080fd5b50600436106101a95760003560e01c8063a6f0e577116100f9578063bbb781cc11610097578063d771b0a611610071578063d771b0a6146104fc578063e5873ec214610506578063eb990c5914610524578063f2fde38b14610540576101a9565b8063bbb781cc146104a4578063cb629009146104c2578063d318f510146104e0576101a9565b8063b238ad0e116100d3578063b238ad0e146103f5578063b6b55f2514610425578063b8a2425214610441578063b8a66f6d14610471576101a9565b8063a6f0e57714610365578063b02c43d014610395578063b1999937146103c5576101a9565b8063403b98b211610166578063715018a611610140578063715018a6146102ef5780637ac27d19146102f95780638da5cb5b1461031757806392d6631314610335576101a9565b8063403b98b21461029957806355455df2146102c957806362791645146102d3576101a9565b806301790e01146101ae57806306947d76146101cc5780631398e076146101fc5780632cf01b551461022f5780632e1a7d4d1461025f5780633ea888971461027b575b600080fd5b6101b661055c565b6040516101c3919061297e565b60405180910390f35b6101e660048036038101906101e19190612a20565b610562565b6040516101f39190612aa1565b60405180910390f35b61021660048036038101906102119190612ae8565b610946565b6040516102269493929190612b4e565b60405180910390f35b61024960048036038101906102449190612bbf565b6109be565b6040516102569190612caa565b60405180910390f35b61027960048036038101906102749190612ae8565b610ad7565b005b610283610c71565b604051610290919061297e565b60405180910390f35b6102b360048036038101906102ae9190612ccc565b610c77565b6040516102c09190612e3d565b60405180910390f35b6102d1610f39565b005b6102ed60048036038101906102e89190612fb8565b611028565b005b6102f761181c565b005b6103016118a4565b60405161030e91906131ad565b60405180910390f35b61031f6118ca565b60405161032c9190612aa1565b60405180910390f35b61034f600480360381019061034a9190612ae8565b6118f3565b60405161035c91906131c8565b60405180910390f35b61037f600480360381019061037a91906131e3565b611a0a565b60405161038c9190613210565b60405180910390f35b6103af60048036038101906103aa9190612ae8565b611a79565b6040516103bc9190612aa1565b60405180910390f35b6103df60048036038101906103da9190612ae8565b611aac565b6040516103ec919061297e565b60405180910390f35b61040f600480360381019061040a9190612a20565b611b00565b60405161041c919061322b565b60405180910390f35b61043f600480360381019061043a9190612ae8565b611bcc565b005b61045b60048036038101906104569190612ae8565b611e41565b604051610468919061297e565b60405180910390f35b61048b60048036038101906104869190612ae8565b611e59565b60405161049b9493929190613246565b60405180910390f35b6104ac611ed4565b6040516104b99190613210565b60405180910390f35b6104ca611ee7565b6040516104d7919061297e565b60405180910390f35b6104fa60048036038101906104f59190612ae8565b611eed565b005b610504611f73565b005b61050e612062565b60405161051b91906132ac565b60405180910390f35b61053e600480360381019061053991906132c7565b612088565b005b61055a60048036038101906105559190612bbf565b6121b5565b005b60085481565b600061056c6122ad565b73ffffffffffffffffffffffffffffffffffffffff1661058a6118ca565b73ffffffffffffffffffffffffffffffffffffffff16146105e0576040517f08c379a00000000000000000000000000000000000000000000000000000000081526004016105d79061338b565b60405180910390fd5b600061060f8460ff1661060160648661ffff166122b590919063ffffffff16565b6122cb90919063ffffffff16565b905060006003600083815260200190815260200160002090508060000160009054906101000a900460ff161561067a576040517f08c379a00000000000000000000000000000000000000000000000000000000081526004016106719061341d565b60405180910390fd5b60056000610688919061288f565b60005b60048054905081101561081e578560ff16600482815481106106b0576106af61343d565b5b906000526020600020906003020160000160009054906101000a900460ff1660ff1614801561071957508461ffff16600482815481106106f3576106f261343d565b5b906000526020600020906003020160020160009054906101000a900461ffff1661ffff16145b1561080b5760005b600482815481106107355761073461343d565b5b906000526020600020906003020160010154811015610809576005600483815481106107645761076361343d565b5b906000526020600020906003020160000160019054906101000a900473ffffffffffffffffffffffffffffffffffffffff169080600181540180825580915050600190039060005260206000200160009091909190916101000a81548173ffffffffffffffffffffffffffffffffffffffff021916908373ffffffffffffffffffffffffffffffffffffffff16021790555080806108019061349b565b915050610721565b505b80806108169061349b565b91505061068b565b50600061083b600160058054905061083691906134e4565b6122e1565b905060018260000160006101000a81548160ff0219169083151502179055506005818154811061086e5761086d61343d565b5b9060005260206000200160009054906101000a900473ffffffffffffffffffffffffffffffffffffffff168260000160016101000a81548173ffffffffffffffffffffffffffffffffffffffff021916908373ffffffffffffffffffffffffffffffffffffffff160217905550600560006108e9919061288f565b6109168260000160019054906101000a900473ffffffffffffffffffffffffffffffffffffffff16612306565b8160000160019054906101000a900473ffffffffffffffffffffffffffffffffffffffff16935050505092915050565b60036020528060005260406000206000915090508060000160009054906101000a900460ff16908060000160019054906101000a900473ffffffffffffffffffffffffffffffffffffffff16908060000160159054906101000a900460ff16908060000160169054906101000a900461ffff16905084565b606060006109cb83612350565b67ffffffffffffffff8111156109e4576109e3612e75565b5b604051908082528060200260200182016040528015610a125781602001602082028036833780820191505090505b5090506000805b600854811015610acc578473ffffffffffffffffffffffffffffffffffffffff166002600083815260200190815260200160002060009054906101000a900473ffffffffffffffffffffffffffffffffffffffff1673ffffffffffffffffffffffffffffffffffffffff161415610ab95780838381518110610a9e57610a9d61343d565b5b6020026020010181815250508180610ab59061349b565b9250505b8080610ac49061349b565b915050610a19565b508192505050919050565b3373ffffffffffffffffffffffffffffffffffffffff166002600083815260200190815260200160002060009054906101000a900473ffffffffffffffffffffffffffffffffffffffff1673ffffffffffffffffffffffffffffffffffffffff1614610b78576040517f08c379a0000000000000000000000000000000000000000000000000000000008152600401610b6f90613564565b60405180910390fd5b600760009054906101000a900473ffffffffffffffffffffffffffffffffffffffff1673ffffffffffffffffffffffffffffffffffffffff166323b872dd3033846040518463ffffffff1660e01b8152600401610bd793929190613584565b600060405180830381600087803b158015610bf157600080fd5b505af1158015610c05573d6000803e3d6000fd5b505050506002600082815260200190815260200160002060006101000a81549073ffffffffffffffffffffffffffffffffffffffff02191690556001600082815260200190815260200160002060009055600b6000815480929190610c69906135bb565b919050555050565b60095481565b60606000805b600480549050811015610d32578360ff1660048281548110610ca257610ca161343d565b5b906000526020600020906003020160000160009054906101000a900460ff1660ff16148015610d0b57508461ffff1660048281548110610ce557610ce461343d565b5b906000526020600020906003020160020160009054906101000a900461ffff1661ffff16145b15610d1f578180610d1b9061349b565b9250505b8080610d2a9061349b565b915050610c7d565b5060008167ffffffffffffffff811115610d4f57610d4e612e75565b5b604051908082528060200260200182016040528015610d8857816020015b610d756128b0565b815260200190600190039081610d6d5790505b5090506000805b600480549050811015610f2c578560ff1660048281548110610db457610db361343d565b5b906000526020600020906003020160000160009054906101000a900460ff1660ff16148015610e1d57508661ffff1660048281548110610df757610df661343d565b5b906000526020600020906003020160020160009054906101000a900461ffff1661ffff16145b15610f195760048181548110610e3657610e3561343d565b5b90600052602060002090600302016040518060800160405290816000820160009054906101000a900460ff1660ff1660ff1681526020016000820160019054906101000a900473ffffffffffffffffffffffffffffffffffffffff1673ffffffffffffffffffffffffffffffffffffffff1673ffffffffffffffffffffffffffffffffffffffff168152602001600182015481526020016002820160009054906101000a900461ffff1661ffff1661ffff1681525050838381518110610eff57610efe61343d565b5b60200260200101819052508180610f159061349b565b9250505b8080610f249061349b565b915050610d8f565b5081935050505092915050565b610f416122ad565b73ffffffffffffffffffffffffffffffffffffffff16610f5f6118ca565b73ffffffffffffffffffffffffffffffffffffffff1614610fb5576040517f08c379a0000000000000000000000000000000000000000000000000000000008152600401610fac9061338b565b60405180910390fd5b60001515600a60009054906101000a900460ff1615151461100b576040517f08c379a000000000000000000000000000000000000000000000000000000000815260040161100290613631565b60405180910390fd5b6001600a60006101000a81548160ff021916908315150217905550565b6110306122ad565b73ffffffffffffffffffffffffffffffffffffffff1661104e6118ca565b73ffffffffffffffffffffffffffffffffffffffff16146110a4576040517f08c379a000000000000000000000000000000000000000000000000000000000815260040161109b9061338b565b60405180910390fd5b60006110ae6123f7565b905060005b60085481101561181057600073ffffffffffffffffffffffffffffffffffffffff166002600083815260200190815260200160002060009054906101000a900473ffffffffffffffffffffffffffffffffffffffff1673ffffffffffffffffffffffffffffffffffffffff16146117fd5760005b8a518110156111fe578a81815181106111435761114261343d565b5b60200260200101518214156111eb576111aa836002600085815260200190815260200160002060009054906101000a900473ffffffffffffffffffffffffffffffffffffffff166111a5600860ff16600260ff166122b590919063ffffffff16565b6124a2565b6111e66002600084815260200190815260200160002060009054906101000a900473ffffffffffffffffffffffffffffffffffffffff16612577565b6111fe565b80806111f69061349b565b915050611127565b5060005b89518110156112d95789818151811061121e5761121d61343d565b5b60200260200101518214156112c657611285836002600085815260200190815260200160002060009054906101000a900473ffffffffffffffffffffffffffffffffffffffff16611280600460ff16600260ff166122b590919063ffffffff16565b6124a2565b6112c16002600084815260200190815260200160002060009054906101000a900473ffffffffffffffffffffffffffffffffffffffff16612577565b6112d9565b80806112d19061349b565b915050611202565b5060005b88518110156113b4578881815181106112f9576112f861343d565b5b60200260200101518214156113a157611360836002600085815260200190815260200160002060009054906101000a900473ffffffffffffffffffffffffffffffffffffffff1661135b600260ff16600260ff166122b590919063ffffffff16565b6124a2565b61139c6002600084815260200190815260200160002060009054906101000a900473ffffffffffffffffffffffffffffffffffffffff16612577565b6113b4565b80806113ac9061349b565b9150506112dd565b5060005b875181101561148f578781815181106113d4576113d361343d565b5b602002602001015182141561147c5761143b836002600085815260200190815260200160002060009054906101000a900473ffffffffffffffffffffffffffffffffffffffff16611436600160ff16600260ff166122b590919063ffffffff16565b6124a2565b6114776002600084815260200190815260200160002060009054906101000a900473ffffffffffffffffffffffffffffffffffffffff16612577565b61148f565b80806114879061349b565b9150506113b8565b5060005b865181101561156a578681815181106114af576114ae61343d565b5b602002602001015182141561155757611516836002600085815260200190815260200160002060009054906101000a900473ffffffffffffffffffffffffffffffffffffffff16611511600860ff16600160ff166122b590919063ffffffff16565b6124a2565b6115526002600084815260200190815260200160002060009054906101000a900473ffffffffffffffffffffffffffffffffffffffff16612577565b61156a565b80806115629061349b565b915050611493565b5060005b85518110156116455785818151811061158a5761158961343d565b5b6020026020010151821415611632576115f1836002600085815260200190815260200160002060009054906101000a900473ffffffffffffffffffffffffffffffffffffffff166115ec600460ff16600160ff166122b590919063ffffffff16565b6124a2565b61162d6002600084815260200190815260200160002060009054906101000a900473ffffffffffffffffffffffffffffffffffffffff16612577565b611645565b808061163d9061349b565b91505061156e565b5060005b8451811015611720578481815181106116655761166461343d565b5b602002602001015182141561170d576116cc836002600085815260200190815260200160002060009054906101000a900473ffffffffffffffffffffffffffffffffffffffff166116c7600260ff16600160ff166122b590919063ffffffff16565b6124a2565b6117086002600084815260200190815260200160002060009054906101000a900473ffffffffffffffffffffffffffffffffffffffff16612577565b611720565b80806117189061349b565b915050611649565b5060005b83518110156117fb578381815181106117405761173f61343d565b5b60200260200101518214156117e8576117a7836002600085815260200190815260200160002060009054906101000a900473ffffffffffffffffffffffffffffffffffffffff166117a2600160ff16600160ff166122b590919063ffffffff16565b6124a2565b6117e36002600084815260200190815260200160002060009054906101000a900473ffffffffffffffffffffffffffffffffffffffff16612577565b6117fb565b80806117f39061349b565b915050611724565b505b80806118089061349b565b9150506110b3565b50505050505050505050565b6118246122ad565b73ffffffffffffffffffffffffffffffffffffffff166118426118ca565b73ffffffffffffffffffffffffffffffffffffffff1614611898576040517f08c379a000000000000000000000000000000000000000000000000000000000815260040161188f9061338b565b60405180910390fd5b6118a26000612622565b565b600760009054906101000a900473ffffffffffffffffffffffffffffffffffffffff1681565b60008060009054906101000a900473ffffffffffffffffffffffffffffffffffffffff16905090565b600080600090506000806301e133808561190d9190613680565b6107b261ffff1661191e91906136b1565b915061192f6107b261ffff16611aac565b61193c8361ffff16611aac565b61194691906134e4565b9050806301e285006119589190613707565b8361196391906136b1565b9250806107b2836119749190613761565b61ffff1661198291906134e4565b6301e133806119919190613707565b8361199c91906136b1565b92505b848311156119ff576119bc6001836119b79190613761565b611a0a565b156119d8576301e28500836119d191906134e4565b92506119eb565b6301e13380836119e891906134e4565b92505b6001826119f89190613761565b915061199f565b819350505050919050565b600080600483611a1a9190613795565b61ffff1614611a2c5760009050611a74565b6000606483611a3b9190613795565b61ffff1614611a4d5760019050611a74565b600061019083611a5d9190613795565b61ffff1614611a6f5760009050611a74565b600190505b919050565b60026020528060005260406000206000915054906101000a900473ffffffffffffffffffffffffffffffffffffffff1681565b6000600182611abb91906134e4565b915061019082611acb9190613680565b606483611ad89190613680565b600484611ae59190613680565b611aef91906134e4565b611af991906136b1565b9050919050565b600060018360ff161480611b17575060038360ff16145b80611b25575060058360ff16145b80611b33575060078360ff16145b80611b41575060088360ff16145b80611b4f5750600a8360ff16145b80611b5d5750600c8360ff16145b15611b6b57601f9050611bc6565b60048360ff161480611b80575060068360ff16145b80611b8e575060098360ff16145b80611b9c5750600b8360ff16145b15611baa57601e9050611bc6565b611bb382611a0a565b15611bc157601d9050611bc6565b601c90505b92915050565b60001515600a60009054906101000a900460ff16151514611c22576040517f08c379a0000000000000000000000000000000000000000000000000000000008152600401611c1990613812565b60405180910390fd5b600760009054906101000a900473ffffffffffffffffffffffffffffffffffffffff1673ffffffffffffffffffffffffffffffffffffffff16636352211e826040518263ffffffff1660e01b8152600401611c7d919061297e565b602060405180830381865afa158015611c9a573d6000803e3d6000fd5b505050506040513d601f19601f82011682018060405250810190611cbe9190613847565b73ffffffffffffffffffffffffffffffffffffffff163373ffffffffffffffffffffffffffffffffffffffff1614611d2b576040517f08c379a0000000000000000000000000000000000000000000000000000000008152600401611d22906138e6565b60405180910390fd5b600760009054906101000a900473ffffffffffffffffffffffffffffffffffffffff1673ffffffffffffffffffffffffffffffffffffffff166323b872dd3330846040518463ffffffff1660e01b8152600401611d8a93929190613584565b600060405180830381600087803b158015611da457600080fd5b505af1158015611db8573d6000803e3d6000fd5b50505050336002600083815260200190815260200160002060006101000a81548173ffffffffffffffffffffffffffffffffffffffff021916908373ffffffffffffffffffffffffffffffffffffffff160217905550426001600083815260200190815260200160002081905550600b6000815480929190611e399061349b565b919050555050565b60016020528060005260406000206000915090505481565b60048181548110611e6957600080fd5b90600052602060002090600302016000915090508060000160009054906101000a900460ff16908060000160019054906101000a900473ffffffffffffffffffffffffffffffffffffffff16908060010154908060020160009054906101000a900461ffff16905084565b600a60009054906101000a900460ff1681565b600b5481565b611ef56122ad565b73ffffffffffffffffffffffffffffffffffffffff16611f136118ca565b73ffffffffffffffffffffffffffffffffffffffff1614611f69576040517f08c379a0000000000000000000000000000000000000000000000000000000008152600401611f609061338b565b60405180910390fd5b8060088190555050565b611f7b6122ad565b73ffffffffffffffffffffffffffffffffffffffff16611f996118ca565b73ffffffffffffffffffffffffffffffffffffffff1614611fef576040517f08c379a0000000000000000000000000000000000000000000000000000000008152600401611fe69061338b565b60405180910390fd5b60011515600a60009054906101000a900460ff16151514612045576040517f08c379a000000000000000000000000000000000000000000000000000000000815260040161203c90613952565b60405180910390fd5b6000600a60006101000a81548160ff021916908315150217905550565b600660009054906101000a900473ffffffffffffffffffffffffffffffffffffffff1681565b6120906122ad565b73ffffffffffffffffffffffffffffffffffffffff166120ae6118ca565b73ffffffffffffffffffffffffffffffffffffffff1614612104576040517f08c379a00000000000000000000000000000000000000000000000000000000081526004016120fb9061338b565b60405180910390fd5b83600660006101000a81548173ffffffffffffffffffffffffffffffffffffffff021916908373ffffffffffffffffffffffffffffffffffffffff16021790555082600760006101000a81548173ffffffffffffffffffffffffffffffffffffffff021916908373ffffffffffffffffffffffffffffffffffffffff16021790555081600881905550806009819055506001600a60006101000a81548160ff02191690831515021790555050505050565b6121bd6122ad565b73ffffffffffffffffffffffffffffffffffffffff166121db6118ca565b73ffffffffffffffffffffffffffffffffffffffff1614612231576040517f08c379a00000000000000000000000000000000000000000000000000000000081526004016122289061338b565b60405180910390fd5b600073ffffffffffffffffffffffffffffffffffffffff168173ffffffffffffffffffffffffffffffffffffffff1614156122a1576040517f08c379a0000000000000000000000000000000000000000000000000000000008152600401612298906139e4565b60405180910390fd5b6122aa81612622565b50565b600033905090565b600081836122c39190613707565b905092915050565b600081836122d991906136b1565b905092915050565b6000816001436122f191906134e4565b4060001c6122ff9190613a04565b9050919050565b8073ffffffffffffffffffffffffffffffffffffffff166108fc479081150290604051600060405180830381858888f1935050505015801561234c573d6000803e3d6000fd5b5050565b6000806000905060005b6008548110156123ed578373ffffffffffffffffffffffffffffffffffffffff166002600083815260200190815260200160002060009054906101000a900473ffffffffffffffffffffffffffffffffffffffff1673ffffffffffffffffffffffffffffffffffffffff1614156123da5781806123d69061349b565b9250505b80806123e59061349b565b91505061235a565b5080915050919050565b6000804290506000612408826126e6565b90506000612441826020015160ff166124336064856000015161ffff166122b590919063ffffffff16565b6122cb90919063ffffffff16565b905060036000828152602001908152602001600020935081600001518460000160166101000a81548161ffff021916908361ffff16021790555081602001518460000160156101000a81548160ff021916908360ff16021790555050505090565b6000600460018160018154018082558091505003906000526020600020906003020190508360000160159054906101000a900460ff168160000160006101000a81548160ff021916908360ff160217905550828160000160016101000a81548173ffffffffffffffffffffffffffffffffffffffff021916908373ffffffffffffffffffffffffffffffffffffffff1602179055508181600101819055508360000160169054906101000a900461ffff168160020160006101000a81548161ffff021916908361ffff16021790555050505050565b600660009054906101000a900473ffffffffffffffffffffffffffffffffffffffff1673ffffffffffffffffffffffffffffffffffffffff166340c10f19826012600a6125c49190613b68565b60016125d09190613707565b6040518363ffffffff1660e01b81526004016125ed929190613bb3565b600060405180830381600087803b15801561260757600080fd5b505af115801561261b573d6000803e3d6000fd5b5050505050565b60008060009054906101000a900473ffffffffffffffffffffffffffffffffffffffff169050816000806101000a81548173ffffffffffffffffffffffffffffffffffffffff021916908373ffffffffffffffffffffffffffffffffffffffff1602179055508173ffffffffffffffffffffffffffffffffffffffff168173ffffffffffffffffffffffffffffffffffffffff167f8be0079c531659141344cd1fd0a4f28419497f9722a3daafe3b4186f6b6457e060405160405180910390a35050565b6126ee6128f5565b600080806126fb856118f3565b846000019061ffff16908161ffff168152505061271d6107b261ffff16611aac565b61272e856000015161ffff16611aac565b61273891906134e4565b9150816301e2850061274a9190613707565b8361275591906136b1565b9250816107b2856000015161276a9190613761565b61ffff1661277891906134e4565b6301e133806127879190613707565b8361279291906136b1565b92506000600191505b600c8260ff1611612812576127b4828660000151611b00565b60ff16620151806127c59190613707565b90508584826127d491906136b1565b11156127f15781856020019060ff16908160ff1681525050612812565b80846127fd91906136b1565b9350818061280a90613bdc565b92505061279b565b600191505b61282985602001518660000151611b00565b60ff168260ff16116128865785846201518061284591906136b1565b11156128625781856040019060ff16908160ff1681525050612886565b620151808461287191906136b1565b9350818061287e90613bdc565b925050612817565b50505050919050565b50805460008255906000526020600020908101906128ad9190612948565b50565b6040518060800160405280600060ff168152602001600073ffffffffffffffffffffffffffffffffffffffff16815260200160008152602001600061ffff1681525090565b6040518060e00160405280600061ffff168152602001600060ff168152602001600060ff168152602001600060ff168152602001600060ff168152602001600060ff168152602001600060ff1681525090565b5b80821115612961576000816000905550600101612949565b5090565b6000819050919050565b61297881612965565b82525050565b6000602082019050612993600083018461296f565b92915050565b6000604051905090565b600080fd5b600080fd5b600060ff82169050919050565b6129c3816129ad565b81146129ce57600080fd5b50565b6000813590506129e0816129ba565b92915050565b600061ffff82169050919050565b6129fd816129e6565b8114612a0857600080fd5b50565b600081359050612a1a816129f4565b92915050565b60008060408385031215612a3757612a366129a3565b5b6000612a45858286016129d1565b9250506020612a5685828601612a0b565b9150509250929050565b600073ffffffffffffffffffffffffffffffffffffffff82169050919050565b6000612a8b82612a60565b9050919050565b612a9b81612a80565b82525050565b6000602082019050612ab66000830184612a92565b92915050565b612ac581612965565b8114612ad057600080fd5b50565b600081359050612ae281612abc565b92915050565b600060208284031215612afe57612afd6129a3565b5b6000612b0c84828501612ad3565b91505092915050565b60008115159050919050565b612b2a81612b15565b82525050565b612b39816129ad565b82525050565b612b48816129e6565b82525050565b6000608082019050612b636000830187612b21565b612b706020830186612a92565b612b7d6040830185612b30565b612b8a6060830184612b3f565b95945050505050565b612b9c81612a80565b8114612ba757600080fd5b50565b600081359050612bb981612b93565b92915050565b600060208284031215612bd557612bd46129a3565b5b6000612be384828501612baa565b91505092915050565b600081519050919050565b600082825260208201905092915050565b6000819050602082019050919050565b612c2181612965565b82525050565b6000612c338383612c18565b60208301905092915050565b6000602082019050919050565b6000612c5782612bec565b612c618185612bf7565b9350612c6c83612c08565b8060005b83811015612c9d578151612c848882612c27565b9750612c8f83612c3f565b925050600181019050612c70565b5085935050505092915050565b60006020820190508181036000830152612cc48184612c4c565b905092915050565b60008060408385031215612ce357612ce26129a3565b5b6000612cf185828601612a0b565b9250506020612d02858286016129d1565b9150509250929050565b600081519050919050565b600082825260208201905092915050565b6000819050602082019050919050565b612d41816129ad565b82525050565b612d5081612a80565b82525050565b612d5f816129e6565b82525050565b608082016000820151612d7b6000850182612d38565b506020820151612d8e6020850182612d47565b506040820151612da16040850182612c18565b506060820151612db46060850182612d56565b50505050565b6000612dc68383612d65565b60808301905092915050565b6000602082019050919050565b6000612dea82612d0c565b612df48185612d17565b9350612dff83612d28565b8060005b83811015612e30578151612e178882612dba565b9750612e2283612dd2565b925050600181019050612e03565b5085935050505092915050565b60006020820190508181036000830152612e578184612ddf565b905092915050565b600080fd5b6000601f19601f8301169050919050565b7f4e487b7100000000000000000000000000000000000000000000000000000000600052604160045260246000fd5b612ead82612e64565b810181811067ffffffffffffffff82111715612ecc57612ecb612e75565b5b80604052505050565b6000612edf612999565b9050612eeb8282612ea4565b919050565b600067ffffffffffffffff821115612f0b57612f0a612e75565b5b602082029050602081019050919050565b600080fd5b6000612f34612f2f84612ef0565b612ed5565b90508083825260208201905060208402830185811115612f5757612f56612f1c565b5b835b81811015612f805780612f6c8882612ad3565b845260208401935050602081019050612f59565b5050509392505050565b600082601f830112612f9f57612f9e612e5f565b5b8135612faf848260208601612f21565b91505092915050565b600080600080600080600080610100898b031215612fd957612fd86129a3565b5b600089013567ffffffffffffffff811115612ff757612ff66129a8565b5b6130038b828c01612f8a565b985050602089013567ffffffffffffffff811115613024576130236129a8565b5b6130308b828c01612f8a565b975050604089013567ffffffffffffffff811115613051576130506129a8565b5b61305d8b828c01612f8a565b965050606089013567ffffffffffffffff81111561307e5761307d6129a8565b5b61308a8b828c01612f8a565b955050608089013567ffffffffffffffff8111156130ab576130aa6129a8565b5b6130b78b828c01612f8a565b94505060a089013567ffffffffffffffff8111156130d8576130d76129a8565b5b6130e48b828c01612f8a565b93505060c089013567ffffffffffffffff811115613105576131046129a8565b5b6131118b828c01612f8a565b92505060e089013567ffffffffffffffff811115613132576131316129a8565b5b61313e8b828c01612f8a565b9150509295985092959890939650565b6000819050919050565b600061317361316e61316984612a60565b61314e565b612a60565b9050919050565b600061318582613158565b9050919050565b60006131978261317a565b9050919050565b6131a78161318c565b82525050565b60006020820190506131c2600083018461319e565b92915050565b60006020820190506131dd6000830184612b3f565b92915050565b6000602082840312156131f9576131f86129a3565b5b600061320784828501612a0b565b91505092915050565b60006020820190506132256000830184612b21565b92915050565b60006020820190506132406000830184612b30565b92915050565b600060808201905061325b6000830187612b30565b6132686020830186612a92565b613275604083018561296f565b6132826060830184612b3f565b95945050505050565b60006132968261317a565b9050919050565b6132a68161328b565b82525050565b60006020820190506132c1600083018461329d565b92915050565b600080600080608085870312156132e1576132e06129a3565b5b60006132ef87828801612baa565b945050602061330087828801612baa565b935050604061331187828801612ad3565b925050606061332287828801612ad3565b91505092959194509250565b600082825260208201905092915050565b7f4f776e61626c653a2063616c6c6572206973206e6f7420746865206f776e6572600082015250565b600061337560208361332e565b91506133808261333f565b602082019050919050565b600060208201905081810360008301526133a481613368565b9050919050565b7f54686973206c6f74746572792068617320616c7265616479206265656e20647260008201527f61776e0000000000000000000000000000000000000000000000000000000000602082015250565b600061340760238361332e565b9150613412826133ab565b604082019050919050565b60006020820190508181036000830152613436816133fa565b9050919050565b7f4e487b7100000000000000000000000000000000000000000000000000000000600052603260045260246000fd5b7f4e487b7100000000000000000000000000000000000000000000000000000000600052601160045260246000fd5b60006134a682612965565b91507fffffffffffffffffffffffffffffffffffffffffffffffffffffffffffffffff8214156134d9576134d861346c565b5b600182019050919050565b60006134ef82612965565b91506134fa83612965565b92508282101561350d5761350c61346c565b5b828203905092915050565b7f596f7520646964206e6f74207374616b65207468697320746f6b656e00000000600082015250565b600061354e601c8361332e565b915061355982613518565b602082019050919050565b6000602082019050818103600083015261357d81613541565b9050919050565b60006060820190506135996000830186612a92565b6135a66020830185612a92565b6135b3604083018461296f565b949350505050565b60006135c682612965565b915060008214156135da576135d961346c565b5b600182039050919050565b7f5374616b696e6720697320616c72656164792070617573656400000000000000600082015250565b600061361b60198361332e565b9150613626826135e5565b602082019050919050565b6000602082019050818103600083015261364a8161360e565b9050919050565b7f4e487b7100000000000000000000000000000000000000000000000000000000600052601260045260246000fd5b600061368b82612965565b915061369683612965565b9250826136a6576136a5613651565b5b828204905092915050565b60006136bc82612965565b91506136c783612965565b9250827fffffffffffffffffffffffffffffffffffffffffffffffffffffffffffffffff038211156136fc576136fb61346c565b5b828201905092915050565b600061371282612965565b915061371d83612965565b9250817fffffffffffffffffffffffffffffffffffffffffffffffffffffffffffffffff04831182151516156137565761375561346c565b5b828202905092915050565b600061376c826129e6565b9150613777836129e6565b92508282101561378a5761378961346c565b5b828203905092915050565b60006137a0826129e6565b91506137ab836129e6565b9250826137bb576137ba613651565b5b828206905092915050565b7f5374616b696e672069732063757272656e746c79207061757365640000000000600082015250565b60006137fc601b8361332e565b9150613807826137c6565b602082019050919050565b6000602082019050818103600083015261382b816137ef565b9050919050565b60008151905061384181612b93565b92915050565b60006020828403121561385d5761385c6129a3565b5b600061386b84828501613832565b91505092915050565b7f596f7520617265206e6f7420746865206f776e6572206f66207468697320746f60008201527f6b656e0000000000000000000000000000000000000000000000000000000000602082015250565b60006138d060238361332e565b91506138db82613874565b604082019050919050565b600060208201905081810360008301526138ff816138c3565b9050919050565b7f5374616b696e672068617320616c726561647920737461727465640000000000600082015250565b600061393c601b8361332e565b915061394782613906565b602082019050919050565b6000602082019050818103600083015261396b8161392f565b9050919050565b7f4f776e61626c653a206e6577206f776e657220697320746865207a65726f206160008201527f6464726573730000000000000000000000000000000000000000000000000000602082015250565b60006139ce60268361332e565b91506139d982613972565b604082019050919050565b600060208201905081810360008301526139fd816139c1565b9050919050565b6000613a0f82612965565b9150613a1a83612965565b925082613a2a57613a29613651565b5b828206905092915050565b60008160011c9050919050565b6000808291508390505b6001851115613a8c57808604811115613a6857613a6761346c565b5b6001851615613a775780820291505b8081029050613a8585613a35565b9450613a4c565b94509492505050565b600082613aa55760019050613b61565b81613ab35760009050613b61565b8160018114613ac95760028114613ad357613b02565b6001915050613b61565b60ff841115613ae557613ae461346c565b5b8360020a915084821115613afc57613afb61346c565b5b50613b61565b5060208310610133831016604e8410600b8410161715613b375782820a905083811115613b3257613b3161346c565b5b613b61565b613b448484846001613a42565b92509050818404811115613b5b57613b5a61346c565b5b81810290505b9392505050565b6000613b7382612965565b9150613b7e836129ad565b9250613bab7fffffffffffffffffffffffffffffffffffffffffffffffffffffffffffffffff8484613a95565b905092915050565b6000604082019050613bc86000830185612a92565b613bd5602083018461296f565b9392505050565b6000613be7826129ad565b915060ff821415613bfb57613bfa61346c565b5b60018201905091905056fea2646970667358221220a1570f30dae45e3829c4c136da1fa354ac87e00e479bb69e032ef95cc391fe6e64736f6c634300080a0033",
  "immutableReferences": {},
  "source": "// SPDX-License-Identifier: MIT\npragma solidity ^0.8.2;\n\nimport \"@openzeppelin/contracts/token/ERC20/IERC20.sol\";\nimport \"@openzeppelin/contracts/token/ERC721/IERC721Receiver.sol\";\nimport \"@openzeppelin/contracts/token/ERC721/IERC721.sol\";\nimport \"@openzeppelin/contracts/access/Ownable.sol\";\nimport \"@openzeppelin/contracts/utils/math/safemath.sol\";\n\ninterface IFungibleToken is IERC20 {\n    function mint(address to, uint256 amount) external;\n}\n\ncontract LotteryStake is Ownable {\n    \n    using SafeMath for uint8;\n    using SafeMath for uint16;\n    using SafeMath for uint256;\n\n    struct _DateTime {\n        uint16 year;\n        uint8 month;\n        uint8 day;\n        uint8 hour;\n        uint8 minute;\n        uint8 second;\n        uint8 weekday;\n    }\n\n    struct Points {\n        uint8 month;\n        address participant;\n        uint points;\n        uint16 year;\n    }\n\n    struct Lottery {\n        bool drawExecuted;\n        address drawWinner;\n        uint8 month;\n        uint16 year;\n    }\n\n    mapping (uint => uint) public checkpoints;     //tokenId => timestamp\n    mapping (uint => address) public deposits;     //tokenId => address\n    mapping (uint => Lottery) public lotteries;\n    Points[] public lotteryPoints;\n    \n    address[] tickets;\n\n    IFungibleToken public fungibleToken;\n    IERC721 public nonFungibleToken;\n    uint public nftSupply;\n    uint public secondsBeforeEarning;\n    bool public stakingPaused;\n    uint public stakedTokens;\n\n    uint constant DAY_IN_SECONDS = 86400; \n    uint constant DAILY_TOKEN_REWARD = 1;\n    uint8 constant E1_MULTIPLIER = 2;\n    uint8 constant E2_MULTIPLIER = 1;\n    uint constant LEAP_YEAR_IN_SECONDS = 31622400;\n    uint16 constant ORIGIN_YEAR = 1970;\n    uint8 constant S1 = 1;\n    uint8 constant S2 = 2;\n    uint8 constant S3 = 4;\n    uint8 constant S4 = 8;\n    uint constant YEAR_IN_SECONDS = 31536000;\n    \n    function initialize(\n        address _fungibleToken,\n        address _nonFungibleToken,\n        uint _nftSupply,\n        uint _secondsBeforeEarning\n    ) onlyOwner external   \n    {\n        fungibleToken = IFungibleToken(_fungibleToken);\n        nonFungibleToken = IERC721(_nonFungibleToken);\n        nftSupply = _nftSupply;\n        secondsBeforeEarning = _secondsBeforeEarning;\n        stakingPaused = true;\n    }\n\n    function awardPoints(Lottery storage lt, address recipient, uint256 points) internal {\n        Points storage val = lotteryPoints.push();\n        val.month = lt.month;\n        val.participant = recipient;\n        val.points = points;\n        val.year = lt.year;\n    }\n\n    function awardToken(address recipient) internal {\n        fungibleToken.mint(recipient, DAILY_TOKEN_REWARD * (uint256(10) ** 18));\n    }\n\n    function currentLottery() internal returns (Lottery storage lt) {\n        uint time = block.timestamp;\n        _DateTime memory dt = parseTimestamp(time);\n\n        uint index = dt.year.mul(100).add(dt.month);\n\n        lt = lotteries[index];\n        lt.year = dt.year;\n        lt.month = dt.month;\n        \n        return lt;\n    }\n\n    function changeNftSupply(uint supply) external onlyOwner {\n        nftSupply = supply;\n    }\n\n    function deposit(uint tokenId) external {\n        require(stakingPaused == false, \"Staking is currently paused\");\n        require(msg.sender == nonFungibleToken.ownerOf(tokenId), \"You are not the owner of this token\");\n        nonFungibleToken.transferFrom(msg.sender, address(this), tokenId);\n        deposits[tokenId] = msg.sender;\n        checkpoints[tokenId] = block.timestamp;\n        stakedTokens++;\n    }\n\n    function getDaysInMonth(uint8 month, uint16 year) public pure returns (uint8) {\n        if (month == 1 || month == 3 || month == 5 || month == 7 || month == 8 || month == 10 || month == 12) {\n            return 31;\n        }\n        else if (month == 4 || month == 6 || month == 9 || month == 11) {\n            return 30;\n        }\n        else if (isLeapYear(year)) {\n            return 29;\n        }\n        else {\n            return 28;\n        }\n    }\n\n    function getLotteryPoints(uint16 year, uint8 month) public view returns (Points[] memory) {\n        uint count = 0;\n\n        for (uint x = 0; x < lotteryPoints.length; x++) {\n            if (lotteryPoints[x].month == month && lotteryPoints[x].year == year) {\n                count++;\n            }\n        }\n        \n        Points[] memory points = new Points[](count);\n        uint y = 0;\n\n        for (uint x = 0; x < lotteryPoints.length; x++) {\n            if (lotteryPoints[x].month == month && lotteryPoints[x].year == year) {\n                points[y] = lotteryPoints[x];\n                y++;\n            }\n        }\n\n        return points;\n    }\n\n    function getYear(uint timestamp) public pure returns (uint16) {\n        uint secondsAccountedFor = 0;\n        uint16 year;\n        uint numLeapYears;\n\n        // Year\n        year = uint16(ORIGIN_YEAR + timestamp / YEAR_IN_SECONDS);\n        numLeapYears = leapYearsBefore(year) - leapYearsBefore(ORIGIN_YEAR);\n\n        secondsAccountedFor += LEAP_YEAR_IN_SECONDS * numLeapYears;\n        secondsAccountedFor += YEAR_IN_SECONDS * (year - ORIGIN_YEAR - numLeapYears);\n\n        while (secondsAccountedFor > timestamp) {\n            if (isLeapYear(uint16(year - 1))) {\n                secondsAccountedFor -= LEAP_YEAR_IN_SECONDS;\n            }\n            else {\n                secondsAccountedFor -= YEAR_IN_SECONDS;\n            }\n            year -= 1;\n        }\n        return year;\n    }\n\n    function isLeapYear(uint16 year) public pure returns (bool) {\n        if (year % 4 != 0) {\n                return false;\n        }\n        if (year % 100 != 0) {\n                return true;\n        }\n        if (year % 400 != 0) {\n                return false;\n        }\n        return true;\n    }\n\n    function leapYearsBefore(uint year) public pure returns (uint) {\n        year -= 1;\n        return year / 4 - year / 100 + year / 400;\n    }\n\n    function parseTimestamp(uint timestamp) internal pure returns (_DateTime memory dt) {\n        uint secondsAccountedFor = 0;\n        uint buf;\n        uint8 i;\n\n        // Year\n        dt.year = getYear(timestamp);\n        buf = leapYearsBefore(dt.year) - leapYearsBefore(ORIGIN_YEAR);\n\n        secondsAccountedFor += LEAP_YEAR_IN_SECONDS * buf;\n        secondsAccountedFor += YEAR_IN_SECONDS * (dt.year - ORIGIN_YEAR - buf);\n\n        // Month\n        uint secondsInMonth;\n        for (i = 1; i <= 12; i++) {\n            secondsInMonth = DAY_IN_SECONDS * getDaysInMonth(i, dt.year);\n            if (secondsInMonth + secondsAccountedFor > timestamp) {\n                dt.month = i;\n                break;\n            }\n            secondsAccountedFor += secondsInMonth;\n        }\n\n        // Day\n        for (i = 1; i <= getDaysInMonth(dt.month, dt.year); i++) {\n            if (DAY_IN_SECONDS + secondsAccountedFor > timestamp) {\n                dt.day = i;\n                break;\n            }\n            secondsAccountedFor += DAY_IN_SECONDS;\n        }\n    }\n\n    function payContractBalance(address payable winner) internal {\n        winner.transfer(address(this).balance);\n    }\n\n    function random(uint max) internal view returns (uint) {\n        return uint(blockhash(block.number - 1)) % max;\n    }\n\n    function randomDraw(uint8 month, uint16 year) external onlyOwner returns (address) {\n        uint index = year.mul(100).add(month);\n\n        Lottery storage lt = lotteries[index];\n        require(!lt.drawExecuted, \"This lottery has already been drawn\");\n        delete tickets;\n\n        for (uint x = 0; x < lotteryPoints.length; x++) {\n            if (lotteryPoints[x].month == month && lotteryPoints[x].year == year) {\n                for (uint y = 0; y < lotteryPoints[x].points; y++) {\n                    tickets.push(lotteryPoints[x].participant);\n                }\n            }\n        }\n\n        uint selectedNumber = random(tickets.length - 1);\n\n        lt.drawExecuted = true;\n        lt.drawWinner = tickets[selectedNumber];\n\n        delete tickets;\n\n        //pay the winner\n        payContractBalance(payable(lt.drawWinner));\n\n        return lt.drawWinner;\n    }\n\n    function reward(\n        uint[] memory s4e1, \n        uint[] memory s3e1, \n        uint[] memory s2e1,\n        uint[] memory s1e1,\n        uint[] memory s4e2, \n        uint[] memory s3e2, \n        uint[] memory s2e2,\n        uint[] memory s1e2\n    ) external onlyOwner {\n        Lottery storage lt = currentLottery();\n        \n        for (uint x = 0; x < nftSupply; x++) {\n            if (deposits[x] != address(0)) {\n                //if (checkpoints[x] <= block.timestamp.sub(secondsBeforeEarning)) {\n\n                    //4 star - edition 1\n                    for (uint s = 0; s < s4e1.length; s++) {\n                        if (x == s4e1[s]) {\n                            awardPoints(lt, deposits[x], E1_MULTIPLIER.mul(S4));\n                            awardToken(deposits[x]);\n                            break;\n                        }\n                    }\n\n                    //3 star - edition 1\n                    for (uint s = 0; s < s3e1.length; s++) {\n                        if (x == s3e1[s]) {\n                            awardPoints(lt, deposits[x], E1_MULTIPLIER.mul(S3));\n                            awardToken(deposits[x]);\n                            break;\n                        }\n                    }\n\n                    //2 star - edition 1\n                    for (uint s = 0; s < s2e1.length; s++) {\n                        if (x == s2e1[s]) {\n                            awardPoints(lt, deposits[x], E1_MULTIPLIER.mul(S2));\n                            awardToken(deposits[x]);\n                            break;\n                        }\n                    }\n\n                    //1 star - edition 1\n                    for (uint s = 0; s < s1e1.length; s++) {\n                        if (x == s1e1[s]) {\n                            awardPoints(lt, deposits[x], E1_MULTIPLIER.mul(S1));\n                            awardToken(deposits[x]);\n                            break;\n                        }\n                    }\n\n                    //4 star - edition 2\n                    for (uint s = 0; s < s4e2.length; s++) {\n                        if (x == s4e2[s]) {\n                            awardPoints(lt, deposits[x], E2_MULTIPLIER.mul(S4));\n                            awardToken(deposits[x]);\n                            break;\n                        }\n                    }\n\n                    //3 star - edition 2\n                    for (uint s = 0; s < s3e2.length; s++) {\n                        if (x == s3e2[s]) {\n                            awardPoints(lt, deposits[x], E2_MULTIPLIER.mul(S3));\n                            awardToken(deposits[x]);\n                            break;\n                        }\n                    }\n\n                    //2 star - edition 2\n                    for (uint s = 0; s < s2e2.length; s++) {\n                        if (x == s2e2[s]) {\n                            awardPoints(lt, deposits[x], E2_MULTIPLIER.mul(S2));\n                            awardToken(deposits[x]);\n                            break;\n                        }\n                    }\n\n                    //1 star - edition 2\n                    for (uint s = 0; s < s1e2.length; s++) {\n                        if (x == s1e2[s]) {\n                            awardPoints(lt, deposits[x], E2_MULTIPLIER.mul(S1));\n                            awardToken(deposits[x]);\n                            break;\n                        }\n                    }\n                //}\n            }\n        }\n    }\n\n    function stakingPause() external onlyOwner {\n        require(stakingPaused == false, \"Staking is already paused\");\n        stakingPaused = true;\n    }\n\n    function stakingStart() external onlyOwner {\n        require(stakingPaused == true, \"Staking has already started\");\n        stakingPaused = false;\n    }\n\n    function tokensStaked(address staker) external view returns (uint[] memory) {\n        uint[] memory results = new uint[](tokensCountStaked(staker));\n        uint index = 0;\n        for (uint x = 0; x < nftSupply; x++) {\n            if (deposits[x] == staker) {\n                results[index] = x;\n                index++;\n            }\n        }\n\n        return results;\n    }\n\n    function tokensCountStaked(address staker) internal view returns (uint) {\n        uint result = 0;\n        for (uint x = 0; x < nftSupply; x++) {\n            if (deposits[x] == staker) {\n                result++;\n            }\n        }\n        return result;\n    }\n\n    function withdraw(uint tokenId) external {\n        require(deposits[tokenId] == msg.sender, \"You did not stake this token\");\n        nonFungibleToken.transferFrom(address(this), msg.sender, tokenId);\n        delete deposits[tokenId];\n        delete checkpoints[tokenId];\n        stakedTokens--;\n    }\n}",
  "sourcePath": "/Users/warrenschwartz/Projects/MintedHistory_Lottery/lottery/contracts/LotteryStake.sol",
  "compiler": {
    "name": "solc",
    "version": "0.8.10+commit.fc410830.Emscripten.clang"
  },
  "schemaVersion": "3.4.3",
  "updatedAt": "2022-01-08T11:09:33.514Z",
  "devdoc": {
    "kind": "dev",
    "methods": {
      "owner()": {
        "details": "Returns the address of the current owner."
      },
      "renounceOwnership()": {
        "details": "Leaves the contract without owner. It will not be possible to call `onlyOwner` functions anymore. Can only be called by the current owner. NOTE: Renouncing ownership will leave the contract without an owner, thereby removing any functionality that is only available to the owner."
      },
      "transferOwnership(address)": {
        "details": "Transfers ownership of the contract to a new account (`newOwner`). Can only be called by the current owner."
      }
    },
    "version": 1
  },
  "userdoc": {
    "kind": "user",
    "methods": {},
    "version": 1
  }
}