{
  "contractName": "Points",
  "abi": [
    {
      "inputs": [
        {
          "internalType": "address",
          "name": "_lotteryContract",
          "type": "address"
        },
        {
          "internalType": "address",
          "name": "_tokenContract",
          "type": "address"
        }
      ],
      "stateMutability": "nonpayable",
      "type": "constructor"
    },
    {
      "anonymous": false,
      "inputs": [
        {
          "indexed": true,
          "internalType": "address",
          "name": "previousOwner",
          "type": "address"
        },
        {
          "indexed": true,
          "internalType": "address",
          "name": "newOwner",
          "type": "address"
        }
      ],
      "name": "OwnershipTransferred",
      "type": "event"
    },
    {
      "inputs": [
        {
          "internalType": "uint256",
          "name": "",
          "type": "uint256"
        }
      ],
      "name": "checkpointsRedeemed",
      "outputs": [
        {
          "internalType": "uint256",
          "name": "",
          "type": "uint256"
        }
      ],
      "stateMutability": "view",
      "type": "function"
    },
    {
      "inputs": [],
      "name": "lotteryContract",
      "outputs": [
        {
          "internalType": "contract ILottery",
          "name": "",
          "type": "address"
        }
      ],
      "stateMutability": "view",
      "type": "function"
    },
    {
      "inputs": [],
      "name": "owner",
      "outputs": [
        {
          "internalType": "address",
          "name": "",
          "type": "address"
        }
      ],
      "stateMutability": "view",
      "type": "function"
    },
    {
      "inputs": [],
      "name": "renounceOwnership",
      "outputs": [],
      "stateMutability": "nonpayable",
      "type": "function"
    },
    {
      "inputs": [
        {
          "internalType": "uint256",
          "name": "",
          "type": "uint256"
        }
      ],
      "name": "s1e1",
      "outputs": [
        {
          "internalType": "uint256",
          "name": "",
          "type": "uint256"
        }
      ],
      "stateMutability": "view",
      "type": "function"
    },
    {
      "inputs": [
        {
          "internalType": "uint256",
          "name": "",
          "type": "uint256"
        }
      ],
      "name": "s1e2",
      "outputs": [
        {
          "internalType": "uint256",
          "name": "",
          "type": "uint256"
        }
      ],
      "stateMutability": "view",
      "type": "function"
    },
    {
      "inputs": [
        {
          "internalType": "uint256",
          "name": "",
          "type": "uint256"
        }
      ],
      "name": "s2e1",
      "outputs": [
        {
          "internalType": "uint256",
          "name": "",
          "type": "uint256"
        }
      ],
      "stateMutability": "view",
      "type": "function"
    },
    {
      "inputs": [
        {
          "internalType": "uint256",
          "name": "",
          "type": "uint256"
        }
      ],
      "name": "s2e2",
      "outputs": [
        {
          "internalType": "uint256",
          "name": "",
          "type": "uint256"
        }
      ],
      "stateMutability": "view",
      "type": "function"
    },
    {
      "inputs": [
        {
          "internalType": "uint256",
          "name": "",
          "type": "uint256"
        }
      ],
      "name": "s3e1",
      "outputs": [
        {
          "internalType": "uint256",
          "name": "",
          "type": "uint256"
        }
      ],
      "stateMutability": "view",
      "type": "function"
    },
    {
      "inputs": [
        {
          "internalType": "uint256",
          "name": "",
          "type": "uint256"
        }
      ],
      "name": "s3e2",
      "outputs": [
        {
          "internalType": "uint256",
          "name": "",
          "type": "uint256"
        }
      ],
      "stateMutability": "view",
      "type": "function"
    },
    {
      "inputs": [
        {
          "internalType": "uint256",
          "name": "",
          "type": "uint256"
        }
      ],
      "name": "s4e1",
      "outputs": [
        {
          "internalType": "uint256",
          "name": "",
          "type": "uint256"
        }
      ],
      "stateMutability": "view",
      "type": "function"
    },
    {
      "inputs": [
        {
          "internalType": "uint256",
          "name": "",
          "type": "uint256"
        }
      ],
      "name": "s4e2",
      "outputs": [
        {
          "internalType": "uint256",
          "name": "",
          "type": "uint256"
        }
      ],
      "stateMutability": "view",
      "type": "function"
    },
    {
      "inputs": [],
      "name": "tokenContract",
      "outputs": [
        {
          "internalType": "contract IFungibleToken",
          "name": "",
          "type": "address"
        }
      ],
      "stateMutability": "view",
      "type": "function"
    },
    {
      "inputs": [
        {
          "internalType": "address",
          "name": "newOwner",
          "type": "address"
        }
      ],
      "name": "transferOwnership",
      "outputs": [],
      "stateMutability": "nonpayable",
      "type": "function"
    },
    {
      "inputs": [
        {
          "internalType": "uint16",
          "name": "",
          "type": "uint16"
        },
        {
          "internalType": "uint8",
          "name": "",
          "type": "uint8"
        }
      ],
      "name": "winners",
      "outputs": [
        {
          "internalType": "address",
          "name": "",
          "type": "address"
        }
      ],
      "stateMutability": "view",
      "type": "function"
    },
    {
      "inputs": [],
      "name": "fundLottery",
      "outputs": [],
      "stateMutability": "payable",
      "type": "function"
    },
    {
      "inputs": [
        {
          "internalType": "uint16",
          "name": "year",
          "type": "uint16"
        },
        {
          "internalType": "uint8",
          "name": "month",
          "type": "uint8"
        }
      ],
      "name": "getLeaderboard",
      "outputs": [
        {
          "components": [
            {
              "internalType": "address",
              "name": "holder",
              "type": "address"
            },
            {
              "internalType": "uint256",
              "name": "tokenId",
              "type": "uint256"
            },
            {
              "internalType": "uint256",
              "name": "points",
              "type": "uint256"
            }
          ],
          "internalType": "struct Points.Leaderboard[]",
          "name": "",
          "type": "tuple[]"
        }
      ],
      "stateMutability": "view",
      "type": "function"
    },
    {
      "inputs": [
        {
          "internalType": "uint256",
          "name": "tokenId",
          "type": "uint256"
        }
      ],
      "name": "getRedeemable",
      "outputs": [
        {
          "internalType": "uint256",
          "name": "",
          "type": "uint256"
        }
      ],
      "stateMutability": "view",
      "type": "function"
    },
    {
      "inputs": [
        {
          "internalType": "uint256",
          "name": "max",
          "type": "uint256"
        }
      ],
      "name": "random",
      "outputs": [
        {
          "internalType": "uint256",
          "name": "",
          "type": "uint256"
        }
      ],
      "stateMutability": "view",
      "type": "function"
    },
    {
      "inputs": [
        {
          "internalType": "uint256",
          "name": "tokenId",
          "type": "uint256"
        }
      ],
      "name": "redeem",
      "outputs": [],
      "stateMutability": "nonpayable",
      "type": "function"
    },
    {
      "inputs": [],
      "name": "redeemLottery",
      "outputs": [],
      "stateMutability": "nonpayable",
      "type": "function"
    },
    {
      "inputs": [],
      "name": "redeemLotteryAdmin",
      "outputs": [],
      "stateMutability": "nonpayable",
      "type": "function"
    },
    {
      "inputs": [
        {
          "internalType": "uint256[]",
          "name": "values",
          "type": "uint256[]"
        }
      ],
      "name": "set4e1",
      "outputs": [],
      "stateMutability": "nonpayable",
      "type": "function"
    },
    {
      "inputs": [
        {
          "internalType": "uint256[]",
          "name": "values",
          "type": "uint256[]"
        }
      ],
      "name": "set3e1",
      "outputs": [],
      "stateMutability": "nonpayable",
      "type": "function"
    },
    {
      "inputs": [
        {
          "internalType": "uint256[]",
          "name": "values",
          "type": "uint256[]"
        }
      ],
      "name": "set2e1",
      "outputs": [],
      "stateMutability": "nonpayable",
      "type": "function"
    },
    {
      "inputs": [
        {
          "internalType": "uint256[]",
          "name": "values",
          "type": "uint256[]"
        }
      ],
      "name": "set1e1",
      "outputs": [],
      "stateMutability": "nonpayable",
      "type": "function"
    },
    {
      "inputs": [
        {
          "internalType": "uint256[]",
          "name": "values",
          "type": "uint256[]"
        }
      ],
      "name": "set4e2",
      "outputs": [],
      "stateMutability": "nonpayable",
      "type": "function"
    },
    {
      "inputs": [
        {
          "internalType": "uint256[]",
          "name": "values",
          "type": "uint256[]"
        }
      ],
      "name": "set3e2",
      "outputs": [],
      "stateMutability": "nonpayable",
      "type": "function"
    },
    {
      "inputs": [
        {
          "internalType": "uint256[]",
          "name": "values",
          "type": "uint256[]"
        }
      ],
      "name": "set2e2",
      "outputs": [],
      "stateMutability": "nonpayable",
      "type": "function"
    },
    {
      "inputs": [
        {
          "internalType": "uint256[]",
          "name": "values",
          "type": "uint256[]"
        }
      ],
      "name": "set1e2",
      "outputs": [],
      "stateMutability": "nonpayable",
      "type": "function"
    },
    {
      "inputs": [
        {
          "internalType": "uint256",
          "name": "timestamp",
          "type": "uint256"
        }
      ],
      "name": "getYear",
      "outputs": [
        {
          "internalType": "uint16",
          "name": "",
          "type": "uint16"
        }
      ],
      "stateMutability": "pure",
      "type": "function"
    },
    {
      "inputs": [
        {
          "internalType": "uint16",
          "name": "year",
          "type": "uint16"
        }
      ],
      "name": "isLeapYear",
      "outputs": [
        {
          "internalType": "bool",
          "name": "",
          "type": "bool"
        }
      ],
      "stateMutability": "pure",
      "type": "function"
    },
    {
      "inputs": [
        {
          "internalType": "uint256",
          "name": "year",
          "type": "uint256"
        }
      ],
      "name": "leapYearsBefore",
      "outputs": [
        {
          "internalType": "uint256",
          "name": "",
          "type": "uint256"
        }
      ],
      "stateMutability": "pure",
      "type": "function"
    },
    {
      "inputs": [
        {
          "internalType": "uint256",
          "name": "year",
          "type": "uint256"
        },
        {
          "internalType": "uint256",
          "name": "month",
          "type": "uint256"
        }
      ],
      "name": "firstDayOfMonth",
      "outputs": [
        {
          "internalType": "uint256",
          "name": "",
          "type": "uint256"
        }
      ],
      "stateMutability": "pure",
      "type": "function"
    },
    {
      "inputs": [
        {
          "internalType": "uint8",
          "name": "month",
          "type": "uint8"
        },
        {
          "internalType": "uint16",
          "name": "year",
          "type": "uint16"
        }
      ],
      "name": "getDaysInMonth",
      "outputs": [
        {
          "internalType": "uint8",
          "name": "",
          "type": "uint8"
        }
      ],
      "stateMutability": "pure",
      "type": "function"
    },
    {
      "inputs": [
        {
          "internalType": "uint256",
          "name": "timestamp",
          "type": "uint256"
        }
      ],
      "name": "getHour",
      "outputs": [
        {
          "internalType": "uint8",
          "name": "",
          "type": "uint8"
        }
      ],
      "stateMutability": "pure",
      "type": "function"
    },
    {
      "inputs": [
        {
          "internalType": "uint256",
          "name": "timestamp",
          "type": "uint256"
        }
      ],
      "name": "getMinute",
      "outputs": [
        {
          "internalType": "uint8",
          "name": "",
          "type": "uint8"
        }
      ],
      "stateMutability": "pure",
      "type": "function"
    },
    {
      "inputs": [
        {
          "internalType": "uint256",
          "name": "timestamp",
          "type": "uint256"
        }
      ],
      "name": "getSecond",
      "outputs": [
        {
          "internalType": "uint8",
          "name": "",
          "type": "uint8"
        }
      ],
      "stateMutability": "pure",
      "type": "function"
    },
    {
      "inputs": [
        {
          "internalType": "uint16",
          "name": "year",
          "type": "uint16"
        },
        {
          "internalType": "uint8",
          "name": "month",
          "type": "uint8"
        },
        {
          "internalType": "address",
          "name": "winner",
          "type": "address"
        }
      ],
      "name": "setWinner",
      "outputs": [],
      "stateMutability": "nonpayable",
      "type": "function"
    }
  ],
  "bytecode": "0x60806040523480156200001157600080fd5b50604051620048c9380380620048c9833981810160405281019062000037919062000217565b620000576200004b620000e160201b60201c565b620000e960201b60201c565b81600160006101000a81548173ffffffffffffffffffffffffffffffffffffffff021916908373ffffffffffffffffffffffffffffffffffffffff16021790555080600260006101000a81548173ffffffffffffffffffffffffffffffffffffffff021916908373ffffffffffffffffffffffffffffffffffffffff16021790555050506200025e565b600033905090565b60008060009054906101000a900473ffffffffffffffffffffffffffffffffffffffff169050816000806101000a81548173ffffffffffffffffffffffffffffffffffffffff021916908373ffffffffffffffffffffffffffffffffffffffff1602179055508173ffffffffffffffffffffffffffffffffffffffff168173ffffffffffffffffffffffffffffffffffffffff167f8be0079c531659141344cd1fd0a4f28419497f9722a3daafe3b4186f6b6457e060405160405180910390a35050565b600080fd5b600073ffffffffffffffffffffffffffffffffffffffff82169050919050565b6000620001df82620001b2565b9050919050565b620001f181620001d2565b8114620001fd57600080fd5b50565b6000815190506200021181620001e6565b92915050565b60008060408385031215620002315762000230620001ad565b5b6000620002418582860162000200565b9250506020620002548582860162000200565b9150509250929050565b61465b806200026e6000396000f3fe6080604052600436106102305760003560e01c8063b238ad0e1161012e578063d25bd309116100ab578063eac0926f1161006f578063eac0926f146108d2578063f2fde38b1461090f578063f88e497114610938578063f8b4d92d1461094f578063fa93f8831461098c57610230565b8063d25bd309146107ef578063d8ff338214610818578063d9cc69e31461082f578063db006a751461086c578063e82e55cd1461089557610230565b8063c07f2aaf116100f2578063c07f2aaf146106e6578063c373e0be1461070f578063c43b084c1461074c578063d177d79a14610789578063d1e1a973146107c657610230565b8063b238ad0e146105fa578063b29c662a14610637578063b5cc453914610662578063b863bd371461066c578063b9e0b017146106a957610230565b80635c444cdc116101bc5780638da5cb5b116101805780638da5cb5b146104ef57806390e235891461051a57806392d6631314610543578063a6f0e57714610580578063b1999937146105bd57610230565b80635c444cdc146103e45780636061790314610421578063715018a61461045e5780637b2f3194146104755780638aa001fc146104b257610230565b8063347cab7511610203578063347cab75146102d957806337366ae3146103165780633e239e1a1461033f5780634bed279d1461037c57806355a373d6146103b957610230565b806311c4682e1461023557806320ef1f9f1461025e578063219d6635146102875780632a0e3f6d146102b0575b600080fd5b34801561024157600080fd5b5061025c60048036038101906102579190613605565b6109c9565b005b34801561026a57600080fd5b5061028560048036038101906102809190613605565b610aab565b005b34801561029357600080fd5b506102ae60048036038101906102a99190613605565b610b8d565b005b3480156102bc57600080fd5b506102d760048036038101906102d29190613605565b610c6f565b005b3480156102e557600080fd5b5061030060048036038101906102fb919061364e565b610d51565b60405161030d919061368a565b60405180910390f35b34801561032257600080fd5b5061033d60048036038101906103389190613605565b610d75565b005b34801561034b57600080fd5b506103666004803603810190610361919061364e565b610e57565b60405161037391906136c1565b60405180910390f35b34801561038857600080fd5b506103a3600480360381019061039e919061364e565b610e84565b6040516103b0919061368a565b60405180910390f35b3480156103c557600080fd5b506103ce610e9c565b6040516103db919061375b565b60405180910390f35b3480156103f057600080fd5b5061040b6004803603810190610406919061364e565b610ec2565b604051610418919061368a565b60405180910390f35b34801561042d57600080fd5b506104486004803603810190610443919061364e565b610ee6565b604051610455919061368a565b60405180910390f35b34801561046a57600080fd5b50610473610f0a565b005b34801561048157600080fd5b5061049c6004803603810190610497919061364e565b610f92565b6040516104a9919061368a565b60405180910390f35b3480156104be57600080fd5b506104d960048036038101906104d4919061364e565b610fb6565b6040516104e691906136c1565b60405180910390f35b3480156104fb57600080fd5b50610504610fcc565b6040516105119190613797565b60405180910390f35b34801561052657600080fd5b50610541600480360381019061053c9190613605565b610ff5565b005b34801561054f57600080fd5b5061056a6004803603810190610565919061364e565b6110d7565b60405161057791906137cf565b60405180910390f35b34801561058c57600080fd5b506105a760048036038101906105a29190613816565b6111ee565b6040516105b4919061385e565b60405180910390f35b3480156105c957600080fd5b506105e460048036038101906105df919061364e565b61125d565b6040516105f1919061368a565b60405180910390f35b34801561060657600080fd5b50610621600480360381019061061c91906138a5565b6112b1565b60405161062e91906136c1565b60405180910390f35b34801561064357600080fd5b5061064c61137d565b6040516106599190613906565b60405180910390f35b61066a6113a3565b005b34801561067857600080fd5b50610693600480360381019061068e919061364e565b6113a5565b6040516106a0919061368a565b60405180910390f35b3480156106b557600080fd5b506106d060048036038101906106cb919061364e565b6113ca565b6040516106dd919061368a565b60405180910390f35b3480156106f257600080fd5b5061070d60048036038101906107089190613605565b6113ee565b005b34801561071b57600080fd5b5061073660048036038101906107319190613921565b6114d0565b604051610743919061368a565b60405180910390f35b34801561075857600080fd5b50610773600480360381019061076e9190613961565b61162d565b6040516107809190613797565b60405180910390f35b34801561079557600080fd5b506107b060048036038101906107ab919061364e565b61166f565b6040516107bd919061368a565b60405180910390f35b3480156107d257600080fd5b506107ed60048036038101906107e891906139cd565b611693565b005b3480156107fb57600080fd5b5061081660048036038101906108119190613605565b611785565b005b34801561082457600080fd5b5061082d611867565b005b34801561083b57600080fd5b5061085660048036038101906108519190613961565b61192c565b6040516108639190613b2f565b60405180910390f35b34801561087857600080fd5b50610893600480360381019061088e919061364e565b612a2e565b005b3480156108a157600080fd5b506108bc60048036038101906108b7919061364e565b612c0d565b6040516108c9919061368a565b60405180910390f35b3480156108de57600080fd5b506108f960048036038101906108f4919061364e565b612e1a565b604051610906919061368a565b60405180910390f35b34801561091b57600080fd5b5061093660048036038101906109319190613b51565b612e3e565b005b34801561094457600080fd5b5061094d612f36565b005b34801561095b57600080fd5b506109766004803603810190610971919061364e565b61308e565b604051610983919061368a565b60405180910390f35b34801561099857600080fd5b506109b360048036038101906109ae919061364e565b6130b2565b6040516109c091906136c1565b60405180910390f35b6109d16130d3565b73ffffffffffffffffffffffffffffffffffffffff166109ef610fcc565b73ffffffffffffffffffffffffffffffffffffffff1614610a45576040517f08c379a0000000000000000000000000000000000000000000000000000000008152600401610a3c90613bdb565b60405180910390fd5b60005b8151811015610aa7576009828281518110610a6657610a65613bfb565b5b602002602001015190806001815401808255809150506001900390600052602060002001600090919091909150558080610a9f90613c59565b915050610a48565b5050565b610ab36130d3565b73ffffffffffffffffffffffffffffffffffffffff16610ad1610fcc565b73ffffffffffffffffffffffffffffffffffffffff1614610b27576040517f08c379a0000000000000000000000000000000000000000000000000000000008152600401610b1e90613bdb565b60405180910390fd5b60005b8151811015610b89576006828281518110610b4857610b47613bfb565b5b602002602001015190806001815401808255809150506001900390600052602060002001600090919091909150558080610b8190613c59565b915050610b2a565b5050565b610b956130d3565b73ffffffffffffffffffffffffffffffffffffffff16610bb3610fcc565b73ffffffffffffffffffffffffffffffffffffffff1614610c09576040517f08c379a0000000000000000000000000000000000000000000000000000000008152600401610c0090613bdb565b60405180910390fd5b60005b8151811015610c6b576007828281518110610c2a57610c29613bfb565b5b602002602001015190806001815401808255809150506001900390600052602060002001600090919091909150558080610c6390613c59565b915050610c0c565b5050565b610c776130d3565b73ffffffffffffffffffffffffffffffffffffffff16610c95610fcc565b73ffffffffffffffffffffffffffffffffffffffff1614610ceb576040517f08c379a0000000000000000000000000000000000000000000000000000000008152600401610ce290613bdb565b60405180910390fd5b60005b8151811015610d4d576008828281518110610d0c57610d0b613bfb565b5b602002602001015190806001815401808255809150506001900390600052602060002001600090919091909150558080610d4590613c59565b915050610cee565b5050565b60088181548110610d6157600080fd5b906000526020600020016000915090505481565b610d7d6130d3565b73ffffffffffffffffffffffffffffffffffffffff16610d9b610fcc565b73ffffffffffffffffffffffffffffffffffffffff1614610df1576040517f08c379a0000000000000000000000000000000000000000000000000000000008152600401610de890613bdb565b60405180910390fd5b60005b8151811015610e53576003828281518110610e1257610e11613bfb565b5b602002602001015190806001815401808255809150506001900390600052602060002001600090919091909150558080610e4b90613c59565b915050610df4565b5050565b60006018603c8084610e699190613cd1565b610e739190613cd1565b610e7d9190613d02565b9050919050565b600b6020528060005260406000206000915090505481565b600260009054906101000a900473ffffffffffffffffffffffffffffffffffffffff1681565b60098181548110610ed257600080fd5b906000526020600020016000915090505481565b60038181548110610ef657600080fd5b906000526020600020016000915090505481565b610f126130d3565b73ffffffffffffffffffffffffffffffffffffffff16610f30610fcc565b73ffffffffffffffffffffffffffffffffffffffff1614610f86576040517f08c379a0000000000000000000000000000000000000000000000000000000008152600401610f7d90613bdb565b60405180910390fd5b610f9060006130db565b565b60078181548110610fa257600080fd5b906000526020600020016000915090505481565b6000603c82610fc59190613d02565b9050919050565b60008060009054906101000a900473ffffffffffffffffffffffffffffffffffffffff16905090565b610ffd6130d3565b73ffffffffffffffffffffffffffffffffffffffff1661101b610fcc565b73ffffffffffffffffffffffffffffffffffffffff1614611071576040517f08c379a000000000000000000000000000000000000000000000000000000000815260040161106890613bdb565b60405180910390fd5b60005b81518110156110d357600a82828151811061109257611091613bfb565b5b6020026020010151908060018154018082558091505060019003906000526020600020016000909190919091505580806110cb90613c59565b915050611074565b5050565b600080600090506000806301e13380856110f19190613cd1565b6107b261ffff166111029190613d33565b91506111136107b261ffff1661125d565b6111208361ffff1661125d565b61112a9190613d89565b9050806301e2850061113c9190613dbd565b836111479190613d33565b9250806107b2836111589190613e17565b61ffff166111669190613d89565b6301e133806111759190613dbd565b836111809190613d33565b92505b848311156111e3576111a060018361119b9190613e17565b6111ee565b156111bc576301e28500836111b59190613d89565b92506111cf565b6301e13380836111cc9190613d89565b92505b6001826111dc9190613e17565b9150611183565b819350505050919050565b6000806004836111fe9190613e4b565b61ffff16146112105760009050611258565b600060648361121f9190613e4b565b61ffff16146112315760019050611258565b6000610190836112419190613e4b565b61ffff16146112535760009050611258565b600190505b919050565b600060018261126c9190613d89565b91506101908261127c9190613cd1565b6064836112899190613cd1565b6004846112969190613cd1565b6112a09190613d89565b6112aa9190613d33565b9050919050565b600060018360ff1614806112c8575060038360ff16145b806112d6575060058360ff16145b806112e4575060078360ff16145b806112f2575060088360ff16145b806113005750600a8360ff16145b8061130e5750600c8360ff16145b1561131c57601f9050611377565b60048360ff161480611331575060068360ff16145b8061133f575060098360ff16145b8061134d5750600b8360ff16145b1561135b57601e9050611377565b611364826111ee565b1561137257601d9050611377565b601c90505b92915050565b600160009054906101000a900473ffffffffffffffffffffffffffffffffffffffff1681565b565b6000816001436113b59190613d89565b4060001c6113c39190613d02565b9050919050565b600681815481106113da57600080fd5b906000526020600020016000915090505481565b6113f66130d3565b73ffffffffffffffffffffffffffffffffffffffff16611414610fcc565b73ffffffffffffffffffffffffffffffffffffffff161461146a576040517f08c379a000000000000000000000000000000000000000000000000000000000815260040161146190613bdb565b60405180910390fd5b60005b81518110156114cc57600582828151811061148b5761148a613bfb565b5b6020026020010151908060018154018082558091505060019003906000526020600020016000909190919091505580806114c490613c59565b91505061146d565b5050565b6000808390506000839050600060019050600062253d8c60046064600c600e876114fa9190613e86565b6115049190613f1a565b611324886115129190613f84565b61151c9190613f84565b6115269190613f1a565b60036115329190614018565b61153c9190613f1a565b600c80600c600e8861154e9190613e86565b6115589190613f1a565b6115629190614018565b60028761156f9190613e86565b6115799190613e86565b61016f6115869190614018565b6115909190613f1a565b6004600c600e886115a19190613e86565b6115ab9190613f1a565b6112c0896115b99190613f84565b6115c39190613f84565b6105b56115d09190614018565b6115da9190613f1a565b617d4b866115e89190613e86565b6115f29190613f84565b6115fc9190613f84565b6116069190613e86565b6116109190613e86565b905062015180816116219190613dbd565b94505050505092915050565b600c6020528160005260406000206020528060005260406000206000915091509054906101000a900473ffffffffffffffffffffffffffffffffffffffff1681565b6004818154811061167f57600080fd5b906000526020600020016000915090505481565b61169b6130d3565b73ffffffffffffffffffffffffffffffffffffffff166116b9610fcc565b73ffffffffffffffffffffffffffffffffffffffff161461170f576040517f08c379a000000000000000000000000000000000000000000000000000000000815260040161170690613bdb565b60405180910390fd5b80600c60008561ffff1661ffff16815260200190815260200160002060008460ff1660ff16815260200190815260200160002060006101000a81548173ffffffffffffffffffffffffffffffffffffffff021916908373ffffffffffffffffffffffffffffffffffffffff160217905550505050565b61178d6130d3565b73ffffffffffffffffffffffffffffffffffffffff166117ab610fcc565b73ffffffffffffffffffffffffffffffffffffffff1614611801576040517f08c379a00000000000000000000000000000000000000000000000000000000081526004016117f890613bdb565b60405180910390fd5b60005b815181101561186357600482828151811061182257611821613bfb565b5b60200260200101519080600181540180825580915050600190039060005260206000200160009091909190915055808061185b90613c59565b915050611804565b5050565b61186f6130d3565b73ffffffffffffffffffffffffffffffffffffffff1661188d610fcc565b73ffffffffffffffffffffffffffffffffffffffff16146118e3576040517f08c379a00000000000000000000000000000000000000000000000000000000081526004016118da90613bdb565b60405180910390fd5b3373ffffffffffffffffffffffffffffffffffffffff166108fc479081150290604051600060405180830381858888f19350505050158015611929573d6000803e3d6000fd5b50565b606060006119418461ffff168460ff166114d0565b9050828061194e9061412f565b935050600c8360ff16111561196c57838061196890614159565b9450505b600061197f8561ffff168560ff166114d0565b90506000805b600160009054906101000a900473ffffffffffffffffffffffffffffffffffffffff1673ffffffffffffffffffffffffffffffffffffffff166301790e016040518163ffffffff1660e01b8152600401602060405180830381865afa1580156119f2573d6000803e3d6000fd5b505050506040513d601f19601f82011682018060405250810190611a169190614199565b811015611b0e57600073ffffffffffffffffffffffffffffffffffffffff16600160009054906101000a900473ffffffffffffffffffffffffffffffffffffffff1673ffffffffffffffffffffffffffffffffffffffff1663b02c43d0836040518263ffffffff1660e01b8152600401611a90919061368a565b602060405180830381865afa158015611aad573d6000803e3d6000fd5b505050506040513d601f19601f82011682018060405250810190611ad191906141db565b73ffffffffffffffffffffffffffffffffffffffff1614611afb578180611af790613c59565b9250505b8080611b0690613c59565b915050611985565b5060008167ffffffffffffffff811115611b2b57611b2a61348c565b5b604051908082528060200260200182016040528015611b6457816020015b611b516133d8565b815260200190600190039081611b495790505b5090506000915060005b600160009054906101000a900473ffffffffffffffffffffffffffffffffffffffff1673ffffffffffffffffffffffffffffffffffffffff166301790e016040518163ffffffff1660e01b8152600401602060405180830381865afa158015611bdb573d6000803e3d6000fd5b505050506040513d601f19601f82011682018060405250810190611bff9190614199565b811015612a2057600073ffffffffffffffffffffffffffffffffffffffff16600160009054906101000a900473ffffffffffffffffffffffffffffffffffffffff1673ffffffffffffffffffffffffffffffffffffffff1663b02c43d0836040518263ffffffff1660e01b8152600401611c79919061368a565b602060405180830381865afa158015611c96573d6000803e3d6000fd5b505050506040513d601f19601f82011682018060405250810190611cba91906141db565b73ffffffffffffffffffffffffffffffffffffffff1614612a0d57600042905084811115611ce6578490505b600086600160009054906101000a900473ffffffffffffffffffffffffffffffffffffffff1673ffffffffffffffffffffffffffffffffffffffff1663b8a24252856040518263ffffffff1660e01b8152600401611d44919061368a565b602060405180830381865afa158015611d61573d6000803e3d6000fd5b505050506040513d601f19601f82011682018060405250810190611d859190614199565b1115611e4e57611e4762015180600160009054906101000a900473ffffffffffffffffffffffffffffffffffffffff1673ffffffffffffffffffffffffffffffffffffffff1663b8a24252866040518263ffffffff1660e01b8152600401611ded919061368a565b602060405180830381865afa158015611e0a573d6000803e3d6000fd5b505050506040513d601f19601f82011682018060405250810190611e2e9190614199565b84611e399190613d89565b61319f90919063ffffffff16565b9050611e72565b611e6f620151808884611e619190613d89565b61319f90919063ffffffff16565b90505b60005b600380549050811015611fe45760038181548110611e9657611e95613bfb565b5b9060005260206000200154841415611fd1576040518060600160405280600160009054906101000a900473ffffffffffffffffffffffffffffffffffffffff1673ffffffffffffffffffffffffffffffffffffffff1663b02c43d0876040518263ffffffff1660e01b8152600401611f0e919061368a565b602060405180830381865afa158015611f2b573d6000803e3d6000fd5b505050506040513d601f19601f82011682018060405250810190611f4f91906141db565b73ffffffffffffffffffffffffffffffffffffffff168152602001858152602001611f9d84611f8f600860ff16600260ff166131b590919063ffffffff16565b6131b590919063ffffffff16565b815250858781518110611fb357611fb2613bfb565b5b60200260200101819052508580611fc990613c59565b965050611fe4565b8080611fdc90613c59565b915050611e75565b5060005b600480549050811015612157576004818154811061200957612008613bfb565b5b9060005260206000200154841415612144576040518060600160405280600160009054906101000a900473ffffffffffffffffffffffffffffffffffffffff1673ffffffffffffffffffffffffffffffffffffffff1663b02c43d0876040518263ffffffff1660e01b8152600401612081919061368a565b602060405180830381865afa15801561209e573d6000803e3d6000fd5b505050506040513d601f19601f820116820180604052508101906120c291906141db565b73ffffffffffffffffffffffffffffffffffffffff16815260200185815260200161211084612102600460ff16600260ff166131b590919063ffffffff16565b6131b590919063ffffffff16565b81525085878151811061212657612125613bfb565b5b6020026020010181905250858061213c90613c59565b965050612157565b808061214f90613c59565b915050611fe8565b5060005b6005805490508110156122ca576005818154811061217c5761217b613bfb565b5b90600052602060002001548414156122b7576040518060600160405280600160009054906101000a900473ffffffffffffffffffffffffffffffffffffffff1673ffffffffffffffffffffffffffffffffffffffff1663b02c43d0876040518263ffffffff1660e01b81526004016121f4919061368a565b602060405180830381865afa158015612211573d6000803e3d6000fd5b505050506040513d601f19601f8201168201806040525081019061223591906141db565b73ffffffffffffffffffffffffffffffffffffffff16815260200185815260200161228384612275600260ff16600260ff166131b590919063ffffffff16565b6131b590919063ffffffff16565b81525085878151811061229957612298613bfb565b5b602002602001018190525085806122af90613c59565b9650506122ca565b80806122c290613c59565b91505061215b565b5060005b60068054905081101561243d57600681815481106122ef576122ee613bfb565b5b906000526020600020015484141561242a576040518060600160405280600160009054906101000a900473ffffffffffffffffffffffffffffffffffffffff1673ffffffffffffffffffffffffffffffffffffffff1663b02c43d0876040518263ffffffff1660e01b8152600401612367919061368a565b602060405180830381865afa158015612384573d6000803e3d6000fd5b505050506040513d601f19601f820116820180604052508101906123a891906141db565b73ffffffffffffffffffffffffffffffffffffffff1681526020018581526020016123f6846123e8600160ff16600260ff166131b590919063ffffffff16565b6131b590919063ffffffff16565b81525085878151811061240c5761240b613bfb565b5b6020026020010181905250858061242290613c59565b96505061243d565b808061243590613c59565b9150506122ce565b5060005b6007805490508110156125b0576007818154811061246257612461613bfb565b5b906000526020600020015484141561259d576040518060600160405280600160009054906101000a900473ffffffffffffffffffffffffffffffffffffffff1673ffffffffffffffffffffffffffffffffffffffff1663b02c43d0876040518263ffffffff1660e01b81526004016124da919061368a565b602060405180830381865afa1580156124f7573d6000803e3d6000fd5b505050506040513d601f19601f8201168201806040525081019061251b91906141db565b73ffffffffffffffffffffffffffffffffffffffff1681526020018581526020016125698461255b600860ff16600160ff166131b590919063ffffffff16565b6131b590919063ffffffff16565b81525085878151811061257f5761257e613bfb565b5b6020026020010181905250858061259590613c59565b9650506125b0565b80806125a890613c59565b915050612441565b5060005b60088054905081101561272357600881815481106125d5576125d4613bfb565b5b9060005260206000200154841415612710576040518060600160405280600160009054906101000a900473ffffffffffffffffffffffffffffffffffffffff1673ffffffffffffffffffffffffffffffffffffffff1663b02c43d0876040518263ffffffff1660e01b815260040161264d919061368a565b602060405180830381865afa15801561266a573d6000803e3d6000fd5b505050506040513d601f19601f8201168201806040525081019061268e91906141db565b73ffffffffffffffffffffffffffffffffffffffff1681526020018581526020016126dc846126ce600460ff16600160ff166131b590919063ffffffff16565b6131b590919063ffffffff16565b8152508587815181106126f2576126f1613bfb565b5b6020026020010181905250858061270890613c59565b965050612723565b808061271b90613c59565b9150506125b4565b5060005b600980549050811015612896576009818154811061274857612747613bfb565b5b9060005260206000200154841415612883576040518060600160405280600160009054906101000a900473ffffffffffffffffffffffffffffffffffffffff1673ffffffffffffffffffffffffffffffffffffffff1663b02c43d0876040518263ffffffff1660e01b81526004016127c0919061368a565b602060405180830381865afa1580156127dd573d6000803e3d6000fd5b505050506040513d601f19601f8201168201806040525081019061280191906141db565b73ffffffffffffffffffffffffffffffffffffffff16815260200185815260200161284f84612841600260ff16600160ff166131b590919063ffffffff16565b6131b590919063ffffffff16565b81525085878151811061286557612864613bfb565b5b6020026020010181905250858061287b90613c59565b965050612896565b808061288e90613c59565b915050612727565b5060005b600a80549050811015612a0957600a81815481106128bb576128ba613bfb565b5b90600052602060002001548414156129f6576040518060600160405280600160009054906101000a900473ffffffffffffffffffffffffffffffffffffffff1673ffffffffffffffffffffffffffffffffffffffff1663b02c43d0876040518263ffffffff1660e01b8152600401612933919061368a565b602060405180830381865afa158015612950573d6000803e3d6000fd5b505050506040513d601f19601f8201168201806040525081019061297491906141db565b73ffffffffffffffffffffffffffffffffffffffff1681526020018581526020016129c2846129b4600160ff16600160ff166131b590919063ffffffff16565b6131b590919063ffffffff16565b8152508587815181106129d8576129d7613bfb565b5b602002602001018190525085806129ee90613c59565b965050612a09565b8080612a0190613c59565b91505061289a565b5050505b8080612a1890613c59565b915050611b6e565b508094505050505092915050565b6000600160009054906101000a900473ffffffffffffffffffffffffffffffffffffffff1673ffffffffffffffffffffffffffffffffffffffff1663b02c43d0836040518263ffffffff1660e01b8152600401612a8b919061368a565b602060405180830381865afa158015612aa8573d6000803e3d6000fd5b505050506040513d601f19601f82011682018060405250810190612acc91906141db565b90503373ffffffffffffffffffffffffffffffffffffffff168173ffffffffffffffffffffffffffffffffffffffff1614612b3c576040517f08c379a0000000000000000000000000000000000000000000000000000000008152600401612b339061427a565b60405180910390fd5b6000612b4783612c0d565b9050600260009054906101000a900473ffffffffffffffffffffffffffffffffffffffff1673ffffffffffffffffffffffffffffffffffffffff166340c10f19336012600a612b9691906143cd565b84612ba19190613dbd565b6040518363ffffffff1660e01b8152600401612bbe929190614418565b600060405180830381600087803b158015612bd857600080fd5b505af1158015612bec573d6000803e3d6000fd5b5050505042600b600085815260200190815260200160002081905550505050565b600080600160009054906101000a900473ffffffffffffffffffffffffffffffffffffffff1673ffffffffffffffffffffffffffffffffffffffff1663b02c43d0846040518263ffffffff1660e01b8152600401612c6b919061368a565b602060405180830381865afa158015612c88573d6000803e3d6000fd5b505050506040513d601f19601f82011682018060405250810190612cac91906141db565b9050600073ffffffffffffffffffffffffffffffffffffffff168173ffffffffffffffffffffffffffffffffffffffff161415612d1e576040517f08c379a0000000000000000000000000000000000000000000000000000000008152600401612d159061448d565b60405180910390fd5b6000600b60008581526020019081526020016000205490506000600160009054906101000a900473ffffffffffffffffffffffffffffffffffffffff1673ffffffffffffffffffffffffffffffffffffffff1663b8a24252866040518263ffffffff1660e01b8152600401612d93919061368a565b602060405180830381865afa158015612db0573d6000803e3d6000fd5b505050506040513d601f19601f82011682018060405250810190612dd49190614199565b905081811115612de2578091505b6000612df783426131cb90919063ffffffff16565b9050612e0f620151808261319f90919063ffffffff16565b945050505050919050565b600a8181548110612e2a57600080fd5b906000526020600020016000915090505481565b612e466130d3565b73ffffffffffffffffffffffffffffffffffffffff16612e64610fcc565b73ffffffffffffffffffffffffffffffffffffffff1614612eba576040517f08c379a0000000000000000000000000000000000000000000000000000000008152600401612eb190613bdb565b60405180910390fd5b600073ffffffffffffffffffffffffffffffffffffffff168173ffffffffffffffffffffffffffffffffffffffff161415612f2a576040517f08c379a0000000000000000000000000000000000000000000000000000000008152600401612f219061451f565b60405180910390fd5b612f33816130db565b50565b6000612f41426131e1565b90506000816020015190506000826000015190508180612f609061453f565b92505060008260ff161415612f8257600c91508080612f7e90614569565b9150505b600c60008261ffff1661ffff16815260200190815260200160002060008360ff1660ff16815260200190815260200160002060009054906101000a900473ffffffffffffffffffffffffffffffffffffffff1673ffffffffffffffffffffffffffffffffffffffff163373ffffffffffffffffffffffffffffffffffffffff1614613042576040517f08c379a000000000000000000000000000000000000000000000000000000000815260040161303990614605565b60405180910390fd5b3373ffffffffffffffffffffffffffffffffffffffff166108fc479081150290604051600060405180830381858888f19350505050158015613088573d6000803e3d6000fd5b50505050565b6005818154811061309e57600080fd5b906000526020600020016000915090505481565b6000603c80836130c29190613cd1565b6130cc9190613d02565b9050919050565b600033905090565b60008060009054906101000a900473ffffffffffffffffffffffffffffffffffffffff169050816000806101000a81548173ffffffffffffffffffffffffffffffffffffffff021916908373ffffffffffffffffffffffffffffffffffffffff1602179055508173ffffffffffffffffffffffffffffffffffffffff168173ffffffffffffffffffffffffffffffffffffffff167f8be0079c531659141344cd1fd0a4f28419497f9722a3daafe3b4186f6b6457e060405160405180910390a35050565b600081836131ad9190613cd1565b905092915050565b600081836131c39190613dbd565b905092915050565b600081836131d99190613d89565b905092915050565b6131e961340f565b600080806131f6856110d7565b846000019061ffff16908161ffff16815250506132186107b261ffff1661125d565b613229856000015161ffff1661125d565b6132339190613d89565b9150816301e285006132459190613dbd565b836132509190613d33565b9250816107b285600001516132659190613e17565b61ffff166132739190613d89565b6301e133806132829190613dbd565b8361328d9190613d33565b92506000600191505b600c8260ff161161330d576132af8286600001516112b1565b60ff16620151806132c09190613dbd565b90508584826132cf9190613d33565b11156132ec5781856020019060ff16908160ff168152505061330d565b80846132f89190613d33565b935081806133059061412f565b925050613296565b600191505b613324856020015186600001516112b1565b60ff168260ff1611613381578584620151806133409190613d33565b111561335d5781856040019060ff16908160ff1681525050613381565b620151808461336c9190613d33565b935081806133799061412f565b925050613312565b61338a86610e57565b856060019060ff16908160ff16815250506133a4866130b2565b856080019060ff16908160ff16815250506133be86610fb6565b8560a0019060ff16908160ff168152505050505050919050565b6040518060600160405280600073ffffffffffffffffffffffffffffffffffffffff16815260200160008152602001600081525090565b6040518060e00160405280600061ffff168152602001600060ff168152602001600060ff168152602001600060ff168152602001600060ff168152602001600060ff168152602001600060ff1681525090565b6000604051905090565b600080fd5b600080fd5b600080fd5b6000601f19601f8301169050919050565b7f4e487b7100000000000000000000000000000000000000000000000000000000600052604160045260246000fd5b6134c48261347b565b810181811067ffffffffffffffff821117156134e3576134e261348c565b5b80604052505050565b60006134f6613462565b905061350282826134bb565b919050565b600067ffffffffffffffff8211156135225761352161348c565b5b602082029050602081019050919050565b600080fd5b6000819050919050565b61354b81613538565b811461355657600080fd5b50565b60008135905061356881613542565b92915050565b600061358161357c84613507565b6134ec565b905080838252602082019050602084028301858111156135a4576135a3613533565b5b835b818110156135cd57806135b98882613559565b8452602084019350506020810190506135a6565b5050509392505050565b600082601f8301126135ec576135eb613476565b5b81356135fc84826020860161356e565b91505092915050565b60006020828403121561361b5761361a61346c565b5b600082013567ffffffffffffffff81111561363957613638613471565b5b613645848285016135d7565b91505092915050565b6000602082840312156136645761366361346c565b5b600061367284828501613559565b91505092915050565b61368481613538565b82525050565b600060208201905061369f600083018461367b565b92915050565b600060ff82169050919050565b6136bb816136a5565b82525050565b60006020820190506136d660008301846136b2565b92915050565b600073ffffffffffffffffffffffffffffffffffffffff82169050919050565b6000819050919050565b600061372161371c613717846136dc565b6136fc565b6136dc565b9050919050565b600061373382613706565b9050919050565b600061374582613728565b9050919050565b6137558161373a565b82525050565b6000602082019050613770600083018461374c565b92915050565b6000613781826136dc565b9050919050565b61379181613776565b82525050565b60006020820190506137ac6000830184613788565b92915050565b600061ffff82169050919050565b6137c9816137b2565b82525050565b60006020820190506137e460008301846137c0565b92915050565b6137f3816137b2565b81146137fe57600080fd5b50565b600081359050613810816137ea565b92915050565b60006020828403121561382c5761382b61346c565b5b600061383a84828501613801565b91505092915050565b60008115159050919050565b61385881613843565b82525050565b6000602082019050613873600083018461384f565b92915050565b613882816136a5565b811461388d57600080fd5b50565b60008135905061389f81613879565b92915050565b600080604083850312156138bc576138bb61346c565b5b60006138ca85828601613890565b92505060206138db85828601613801565b9150509250929050565b60006138f082613728565b9050919050565b613900816138e5565b82525050565b600060208201905061391b60008301846138f7565b92915050565b600080604083850312156139385761393761346c565b5b600061394685828601613559565b925050602061395785828601613559565b9150509250929050565b600080604083850312156139785761397761346c565b5b600061398685828601613801565b925050602061399785828601613890565b9150509250929050565b6139aa81613776565b81146139b557600080fd5b50565b6000813590506139c7816139a1565b92915050565b6000806000606084860312156139e6576139e561346c565b5b60006139f486828701613801565b9350506020613a0586828701613890565b9250506040613a16868287016139b8565b9150509250925092565b600081519050919050565b600082825260208201905092915050565b6000819050602082019050919050565b613a5581613776565b82525050565b613a6481613538565b82525050565b606082016000820151613a806000850182613a4c565b506020820151613a936020850182613a5b565b506040820151613aa66040850182613a5b565b50505050565b6000613ab88383613a6a565b60608301905092915050565b6000602082019050919050565b6000613adc82613a20565b613ae68185613a2b565b9350613af183613a3c565b8060005b83811015613b22578151613b098882613aac565b9750613b1483613ac4565b925050600181019050613af5565b5085935050505092915050565b60006020820190508181036000830152613b498184613ad1565b905092915050565b600060208284031215613b6757613b6661346c565b5b6000613b75848285016139b8565b91505092915050565b600082825260208201905092915050565b7f4f776e61626c653a2063616c6c6572206973206e6f7420746865206f776e6572600082015250565b6000613bc5602083613b7e565b9150613bd082613b8f565b602082019050919050565b60006020820190508181036000830152613bf481613bb8565b9050919050565b7f4e487b7100000000000000000000000000000000000000000000000000000000600052603260045260246000fd5b7f4e487b7100000000000000000000000000000000000000000000000000000000600052601160045260246000fd5b6000613c6482613538565b91507fffffffffffffffffffffffffffffffffffffffffffffffffffffffffffffffff821415613c9757613c96613c2a565b5b600182019050919050565b7f4e487b7100000000000000000000000000000000000000000000000000000000600052601260045260246000fd5b6000613cdc82613538565b9150613ce783613538565b925082613cf757613cf6613ca2565b5b828204905092915050565b6000613d0d82613538565b9150613d1883613538565b925082613d2857613d27613ca2565b5b828206905092915050565b6000613d3e82613538565b9150613d4983613538565b9250827fffffffffffffffffffffffffffffffffffffffffffffffffffffffffffffffff03821115613d7e57613d7d613c2a565b5b828201905092915050565b6000613d9482613538565b9150613d9f83613538565b925082821015613db257613db1613c2a565b5b828203905092915050565b6000613dc882613538565b9150613dd383613538565b9250817fffffffffffffffffffffffffffffffffffffffffffffffffffffffffffffffff0483118215151615613e0c57613e0b613c2a565b5b828202905092915050565b6000613e22826137b2565b9150613e2d836137b2565b925082821015613e4057613e3f613c2a565b5b828203905092915050565b6000613e56826137b2565b9150613e61836137b2565b925082613e7157613e70613ca2565b5b828206905092915050565b6000819050919050565b6000613e9182613e7c565b9150613e9c83613e7c565b9250827f800000000000000000000000000000000000000000000000000000000000000001821260008412151615613ed757613ed6613c2a565b5b827f7fffffffffffffffffffffffffffffffffffffffffffffffffffffffffffffff018213600084121615613f0f57613f0e613c2a565b5b828203905092915050565b6000613f2582613e7c565b9150613f3083613e7c565b925082613f4057613f3f613ca2565b5b600160000383147f800000000000000000000000000000000000000000000000000000000000000083141615613f7957613f78613c2a565b5b828205905092915050565b6000613f8f82613e7c565b9150613f9a83613e7c565b9250817f7fffffffffffffffffffffffffffffffffffffffffffffffffffffffffffffff03831360008312151615613fd557613fd4613c2a565b5b817f800000000000000000000000000000000000000000000000000000000000000003831260008312161561400d5761400c613c2a565b5b828201905092915050565b600061402382613e7c565b915061402e83613e7c565b9250827f7fffffffffffffffffffffffffffffffffffffffffffffffffffffffffffffff048211600084136000841316161561406d5761406c613c2a565b5b817f800000000000000000000000000000000000000000000000000000000000000005831260008412600084131616156140aa576140a9613c2a565b5b827f800000000000000000000000000000000000000000000000000000000000000005821260008413600084121616156140e7576140e6613c2a565b5b827f7fffffffffffffffffffffffffffffffffffffffffffffffffffffffffffffff058212600084126000841216161561412457614123613c2a565b5b828202905092915050565b600061413a826136a5565b915060ff82141561414e5761414d613c2a565b5b600182019050919050565b6000614164826137b2565b915061ffff82141561417957614178613c2a565b5b600182019050919050565b60008151905061419381613542565b92915050565b6000602082840312156141af576141ae61346c565b5b60006141bd84828501614184565b91505092915050565b6000815190506141d5816139a1565b92915050565b6000602082840312156141f1576141f061346c565b5b60006141ff848285016141c6565b91505092915050565b7f596f7520617265206e6f7420746865206f776e6572206f66207468697320746f60008201527f6b656e0000000000000000000000000000000000000000000000000000000000602082015250565b6000614264602383613b7e565b915061426f82614208565b604082019050919050565b6000602082019050818103600083015261429381614257565b9050919050565b60008160011c9050919050565b6000808291508390505b60018511156142f1578086048111156142cd576142cc613c2a565b5b60018516156142dc5780820291505b80810290506142ea8561429a565b94506142b1565b94509492505050565b60008261430a57600190506143c6565b8161431857600090506143c6565b816001811461432e576002811461433857614367565b60019150506143c6565b60ff84111561434a57614349613c2a565b5b8360020a91508482111561436157614360613c2a565b5b506143c6565b5060208310610133831016604e8410600b841016171561439c5782820a90508381111561439757614396613c2a565b5b6143c6565b6143a984848460016142a7565b925090508184048111156143c0576143bf613c2a565b5b81810290505b9392505050565b60006143d882613538565b91506143e3836136a5565b92506144107fffffffffffffffffffffffffffffffffffffffffffffffffffffffffffffffff84846142fa565b905092915050565b600060408201905061442d6000830185613788565b61443a602083018461367b565b9392505050565b7f5468697320746f6b656e20686173206e6f74206265656e207374616b65640000600082015250565b6000614477601e83613b7e565b915061448282614441565b602082019050919050565b600060208201905081810360008301526144a68161446a565b9050919050565b7f4f776e61626c653a206e6577206f776e657220697320746865207a65726f206160008201527f6464726573730000000000000000000000000000000000000000000000000000602082015250565b6000614509602683613b7e565b9150614514826144ad565b604082019050919050565b60006020820190508181036000830152614538816144fc565b9050919050565b600061454a826136a5565b9150600082141561455e5761455d613c2a565b5b600182039050919050565b6000614574826137b2565b9150600082141561458857614587613c2a565b5b600182039050919050565b7f596f7520617265206e6f74207468652077696e6e6572206f6620746865206c6160008201527f7374206c6f747465727900000000000000000000000000000000000000000000602082015250565b60006145ef602a83613b7e565b91506145fa82614593565b604082019050919050565b6000602082019050818103600083015261461e816145e2565b905091905056fea2646970667358221220cddfe964d3fdca741e5f03b838771dba172576f9d65a9862471872f81fa5173264736f6c634300080a0033",
  "immutableReferences": {},
  "source": "// SPDX-License-Identifier: MIT\npragma solidity ^0.8.2;\n\nimport \"@openzeppelin/contracts/access/Ownable.sol\";\nimport \"@openzeppelin/contracts/utils/math/safemath.sol\";\nimport \"./IFungibleToken.sol\";\n\ninterface ILottery {\n    function checkpoints(uint256) external view returns (uint256);\n\n    function deposits(uint256) external view returns (address);\n\n    function tokensStaked(address staker)\n        external\n        view\n        returns (uint256[] memory);\n    \n    function nftSupply() external view returns (uint);\n}\n\ncontract Points is Ownable {\n    struct _DateTime {\n        uint16 year;\n        uint8 month;\n        uint8 day;\n        uint8 hour;\n        uint8 minute;\n        uint8 second;\n        uint8 weekday;\n    }\n\n    struct Leaderboard {\n      address holder;\n      uint tokenId;\n      uint points;\n    }\n\n    using SafeMath for uint8;\n    using SafeMath for uint16;\n    using SafeMath for uint256;\n\n    ILottery public lotteryContract;\n    IFungibleToken public tokenContract;\n\n    uint256[] public s4e1;\n    uint256[] public s3e1;\n    uint256[] public s2e1;\n    uint256[] public s1e1;\n    uint256[] public s4e2;\n    uint256[] public s3e2;\n    uint256[] public s2e2;\n    uint256[] public s1e2;\n\n    uint256 constant DAY_IN_SECONDS = 86400;\n    uint8 constant E1_MULTIPLIER = 2;\n    uint8 constant E2_MULTIPLIER = 1;\n    uint256 constant LEAP_YEAR_IN_SECONDS = 31622400;\n    uint16 constant ORIGIN_YEAR = 1970;\n    uint8 constant S1 = 1;\n    uint8 constant S2 = 2;\n    uint8 constant S3 = 4;\n    uint8 constant S4 = 8;\n    uint256 constant YEAR_IN_SECONDS = 31536000;\n\n    mapping(uint256 => uint256) public checkpointsRedeemed;\n    mapping(uint16 => mapping (uint8 => address)) public winners;\n\n    constructor(address _lotteryContract, address _tokenContract) {\n        lotteryContract = ILottery(_lotteryContract);\n        tokenContract = IFungibleToken(_tokenContract);\n    }\n\n    function fundLottery() payable external {\n\n    }\n\n    function getLeaderboard(uint16 year, uint8 month) public view returns (Leaderboard[] memory) {\n      uint startOfMonth = firstDayOfMonth(year, month);\n      month++;\n      if (month > 12) year++;\n      uint endOfMonth = firstDayOfMonth(year, month);\n      uint staked = 0;\n      for (uint y = 0; y < lotteryContract.nftSupply(); y++) {\n        if (lotteryContract.deposits(y) != address(0)) {\n          staked++;\n        }\n      }\n\n      Leaderboard[] memory results = new Leaderboard[](staked);\n\n      staked = 0;\n      for (uint x = 0; x < lotteryContract.nftSupply(); x++) {\n        if (lotteryContract.deposits(x) != address(0)) {\n          uint timestamp = block.timestamp;\n          if (timestamp > endOfMonth) {\n            timestamp = endOfMonth;\n          }\n          uint daysVested;\n          if (lotteryContract.checkpoints(x) > startOfMonth) {\n            daysVested = (timestamp - lotteryContract.checkpoints(x)).div(DAY_IN_SECONDS);\n          } else {\n            daysVested = (timestamp - startOfMonth).div(DAY_IN_SECONDS);\n          }\n          \n          //4 star - edition 1\n          for (uint s = 0; s < s4e1.length; s++) {\n            if (x == s4e1[s]) {\n              results[staked] = Leaderboard(lotteryContract.deposits(x), x, E1_MULTIPLIER.mul(S4).mul(daysVested));\n              staked++;\n              break;\n            }\n          }\n\n          //3 star - edition 1\n          for (uint s = 0; s < s3e1.length; s++) {\n            if (x == s3e1[s]) {\n              results[staked] = Leaderboard(lotteryContract.deposits(x), x, E1_MULTIPLIER.mul(S3).mul(daysVested));\n              staked++;\n              break;\n            }\n          }\n\n          //2 star - edition 1\n          for (uint s = 0; s < s2e1.length; s++) {\n            if (x == s2e1[s]) {\n              results[staked] = Leaderboard(lotteryContract.deposits(x), x, E1_MULTIPLIER.mul(S2).mul(daysVested));\n              staked++;\n              break;\n            }\n          }\n\n          //1 star - edition 1\n          for (uint s = 0; s < s1e1.length; s++) {\n            if (x == s1e1[s]) {\n              results[staked] = Leaderboard(lotteryContract.deposits(x), x, E1_MULTIPLIER.mul(S1).mul(daysVested));\n              staked++;\n              break;\n            }\n          }\n\n          //4 star - edition 2\n          for (uint s = 0; s < s4e2.length; s++) {\n            if (x == s4e2[s]) {\n              results[staked] = Leaderboard(lotteryContract.deposits(x), x, E2_MULTIPLIER.mul(S4).mul(daysVested));\n              staked++;\n              break;\n            }\n          }\n\n          //3 star - edition 2\n          for (uint s = 0; s < s3e2.length; s++) {\n            if (x == s3e2[s]) {\n              results[staked] = Leaderboard(lotteryContract.deposits(x), x, E2_MULTIPLIER.mul(S3).mul(daysVested));\n              staked++;\n              break;\n            }\n          }\n\n          //2 star - edition 2\n          for (uint s = 0; s < s2e2.length; s++) {\n            if (x == s2e2[s]) {\n              results[staked] = Leaderboard(lotteryContract.deposits(x), x, E2_MULTIPLIER.mul(S2).mul(daysVested));\n              staked++;\n              break;\n            }\n          }\n\n          //1 star - edition 2\n          for (uint s = 0; s < s1e2.length; s++) {\n            if (x == s1e2[s]) {\n              results[staked] = Leaderboard(lotteryContract.deposits(x), x, E2_MULTIPLIER.mul(S1).mul(daysVested));\n              staked++;\n              break;\n            }\n          }\n        }\n      }\n\n      return results;\n    }\n\n    function getRedeemable(uint256 tokenId) public view returns (uint256) {\n        address holder = lotteryContract.deposits(tokenId);\n        require(holder != address(0), \"This token has not been staked\");\n        uint256 lastRedeemed = checkpointsRedeemed[tokenId];\n        uint256 lastStaked = lotteryContract.checkpoints(tokenId);\n        if (lastStaked > lastRedeemed) {\n            lastRedeemed = lastStaked;\n        }\n        uint256 timeDifference = block.timestamp.sub(lastRedeemed);\n\n        return timeDifference.div(DAY_IN_SECONDS);\n    }\n\n    function random(uint max) public view returns (uint) {\n        return uint(blockhash(block.number - 1)) % max;\n    }\n\n    function redeem(uint256 tokenId) external {\n        address holder = lotteryContract.deposits(tokenId);\n        require(holder == msg.sender, \"You are not the owner of this token\");\n        uint256 eligible = getRedeemable(tokenId);\n        tokenContract.mint(msg.sender, eligible * (uint256(10)**18));\n        checkpointsRedeemed[tokenId] = block.timestamp;\n    }\n\n    function redeemLottery() external {\n      _DateTime memory timeNow = parseTimestamp(block.timestamp);\n      uint8 month = timeNow.month;\n      uint16 year = timeNow.year;\n      month--;\n      if (month == 0) {\n        month = 12;\n        year--;\n      }\n\n      require(msg.sender == winners[year][month], \"You are not the winner of the last lottery\");\n\n      payable(msg.sender).transfer(address(this).balance);\n    }\n\n    function redeemLotteryAdmin() external onlyOwner {\n      payable(msg.sender).transfer(address(this).balance);\n    }\n\n    function set4e1(uint256[] memory values) external onlyOwner {\n        for (uint256 x = 0; x < values.length; x++) {\n            s4e1.push(values[x]);\n        }\n    }\n\n    function set3e1(uint256[] memory values) external onlyOwner {\n        for (uint256 x = 0; x < values.length; x++) {\n            s3e1.push(values[x]);\n        }\n    }\n\n    function set2e1(uint256[] memory values) external onlyOwner {\n        for (uint256 x = 0; x < values.length; x++) {\n            s2e1.push(values[x]);\n        }\n    }\n\n    function set1e1(uint256[] memory values) external onlyOwner {\n        for (uint256 x = 0; x < values.length; x++) {\n            s1e1.push(values[x]);\n        }\n    }\n\n    function set4e2(uint256[] memory values) external onlyOwner {\n        for (uint256 x = 0; x < values.length; x++) {\n            s4e2.push(values[x]);\n        }\n    }\n\n    function set3e2(uint256[] memory values) external onlyOwner {\n        for (uint256 x = 0; x < values.length; x++) {\n            s3e2.push(values[x]);\n        }\n    }\n\n    function set2e2(uint256[] memory values) external onlyOwner {\n        for (uint256 x = 0; x < values.length; x++) {\n            s2e2.push(values[x]);\n        }\n    }\n\n    function set1e2(uint256[] memory values) external onlyOwner {\n        for (uint256 x = 0; x < values.length; x++) {\n            s1e2.push(values[x]);\n        }\n    }\n\n    //date functions\n    function getYear(uint256 timestamp) public pure returns (uint16) {\n        uint256 secondsAccountedFor = 0;\n        uint16 year;\n        uint256 numLeapYears;\n\n        // Year\n        year = uint16(ORIGIN_YEAR + timestamp / YEAR_IN_SECONDS);\n        numLeapYears = leapYearsBefore(year) - leapYearsBefore(ORIGIN_YEAR);\n\n        secondsAccountedFor += LEAP_YEAR_IN_SECONDS * numLeapYears;\n        secondsAccountedFor +=\n            YEAR_IN_SECONDS *\n            (year - ORIGIN_YEAR - numLeapYears);\n\n        while (secondsAccountedFor > timestamp) {\n            if (isLeapYear(uint16(year - 1))) {\n                secondsAccountedFor -= LEAP_YEAR_IN_SECONDS;\n            } else {\n                secondsAccountedFor -= YEAR_IN_SECONDS;\n            }\n            year -= 1;\n        }\n        return year;\n    }\n\n    function isLeapYear(uint16 year) public pure returns (bool) {\n        if (year % 4 != 0) {\n            return false;\n        }\n        if (year % 100 != 0) {\n            return true;\n        }\n        if (year % 400 != 0) {\n            return false;\n        }\n        return true;\n    }\n\n    function leapYearsBefore(uint256 year) public pure returns (uint256) {\n        year -= 1;\n        return year / 4 - year / 100 + year / 400;\n    }\n\n    function firstDayOfMonth(uint year, uint month) public pure returns (uint) {\n      int _year = int(year);\n      int _month = int(month);\n      int _day = 1;\n\n      int __days = _day\n          - 32075\n          + 1461 * (_year + 4800 + (_month - 14) / 12) / 4\n          + 367 * (_month - 2 - (_month - 14) / 12 * 12) / 12\n          - 3 * ((_year + 4900 + (_month - 14) / 12) / 100) / 4\n        - 2440588; //offset constant from 1970/1/1\n\n      return uint(__days) * DAY_IN_SECONDS;\n    }\n\n    function getDaysInMonth(uint8 month, uint16 year)\n        public\n        pure\n        returns (uint8)\n    {\n        if (\n            month == 1 ||\n            month == 3 ||\n            month == 5 ||\n            month == 7 ||\n            month == 8 ||\n            month == 10 ||\n            month == 12\n        ) {\n            return 31;\n        } else if (month == 4 || month == 6 || month == 9 || month == 11) {\n            return 30;\n        } else if (isLeapYear(year)) {\n            return 29;\n        } else {\n            return 28;\n        }\n    }\n\n    function getHour(uint timestamp) public pure returns (uint8) {\n      return uint8((timestamp / 60 / 60) % 24);\n    }\n\n    function getMinute(uint timestamp) public pure returns (uint8) {\n      return uint8((timestamp / 60) % 60);\n    }\n\n    function getSecond(uint timestamp) public pure returns (uint8) {\n      return uint8(timestamp % 60);\n    }\n\n    function parseTimestamp(uint256 timestamp)\n        internal\n        pure\n        returns (_DateTime memory dt)\n    {\n        uint256 secondsAccountedFor = 0;\n        uint256 buf;\n        uint8 i;\n\n        // Year\n        dt.year = getYear(timestamp);\n        buf = leapYearsBefore(dt.year) - leapYearsBefore(ORIGIN_YEAR);\n\n        secondsAccountedFor += LEAP_YEAR_IN_SECONDS * buf;\n        secondsAccountedFor += YEAR_IN_SECONDS * (dt.year - ORIGIN_YEAR - buf);\n\n        // Month\n        uint256 secondsInMonth;\n        for (i = 1; i <= 12; i++) {\n            secondsInMonth = DAY_IN_SECONDS * getDaysInMonth(i, dt.year);\n            if (secondsInMonth + secondsAccountedFor > timestamp) {\n                dt.month = i;\n                break;\n            }\n            secondsAccountedFor += secondsInMonth;\n        }\n\n        // Day\n        for (i = 1; i <= getDaysInMonth(dt.month, dt.year); i++) {\n            if (DAY_IN_SECONDS + secondsAccountedFor > timestamp) {\n                dt.day = i;\n                break;\n            }\n            secondsAccountedFor += DAY_IN_SECONDS;\n        }\n\n        // Hour\n        dt.hour = getHour(timestamp);\n\n        // Minute\n        dt.minute = getMinute(timestamp);\n\n        // Second\n        dt.second = getSecond(timestamp);\n    }\n\n    function setWinner(uint16 year, uint8 month, address winner) public onlyOwner {\n      winners[year][month] = winner;\n    }\n}\n",
  "sourcePath": "/Users/warrenschwartz/Projects/MintedHistory_Lottery/lottery/contracts/Points.sol",
  "compiler": {
    "name": "solc",
    "version": "0.8.10+commit.fc410830.Emscripten.clang"
  },
  "schemaVersion": "3.4.3",
  "updatedAt": "2022-02-04T10:33:50.437Z",
  "devdoc": {
    "kind": "dev",
    "methods": {
      "owner()": {
        "details": "Returns the address of the current owner."
      },
      "renounceOwnership()": {
        "details": "Leaves the contract without owner. It will not be possible to call `onlyOwner` functions anymore. Can only be called by the current owner. NOTE: Renouncing ownership will leave the contract without an owner, thereby removing any functionality that is only available to the owner."
      },
      "transferOwnership(address)": {
        "details": "Transfers ownership of the contract to a new account (`newOwner`). Can only be called by the current owner."
      }
    },
    "version": 1
  },
  "userdoc": {
    "kind": "user",
    "methods": {},
    "version": 1
  }
}