{
  "contractName": "Points",
  "abi": [
    {
      "inputs": [
        {
          "internalType": "address",
          "name": "_lotteryContract",
          "type": "address"
        },
        {
          "internalType": "address",
          "name": "_tokenContract",
          "type": "address"
        }
      ],
      "stateMutability": "nonpayable",
      "type": "constructor"
    },
    {
      "anonymous": false,
      "inputs": [
        {
          "indexed": true,
          "internalType": "address",
          "name": "previousOwner",
          "type": "address"
        },
        {
          "indexed": true,
          "internalType": "address",
          "name": "newOwner",
          "type": "address"
        }
      ],
      "name": "OwnershipTransferred",
      "type": "event"
    },
    {
      "inputs": [
        {
          "internalType": "uint256",
          "name": "",
          "type": "uint256"
        }
      ],
      "name": "checkpointsRedeemed",
      "outputs": [
        {
          "internalType": "uint256",
          "name": "",
          "type": "uint256"
        }
      ],
      "stateMutability": "view",
      "type": "function"
    },
    {
      "inputs": [],
      "name": "lotteryContract",
      "outputs": [
        {
          "internalType": "contract ILottery",
          "name": "",
          "type": "address"
        }
      ],
      "stateMutability": "view",
      "type": "function"
    },
    {
      "inputs": [],
      "name": "owner",
      "outputs": [
        {
          "internalType": "address",
          "name": "",
          "type": "address"
        }
      ],
      "stateMutability": "view",
      "type": "function"
    },
    {
      "inputs": [],
      "name": "renounceOwnership",
      "outputs": [],
      "stateMutability": "nonpayable",
      "type": "function"
    },
    {
      "inputs": [
        {
          "internalType": "uint256",
          "name": "",
          "type": "uint256"
        }
      ],
      "name": "s1e1",
      "outputs": [
        {
          "internalType": "uint256",
          "name": "",
          "type": "uint256"
        }
      ],
      "stateMutability": "view",
      "type": "function"
    },
    {
      "inputs": [
        {
          "internalType": "uint256",
          "name": "",
          "type": "uint256"
        }
      ],
      "name": "s1e2",
      "outputs": [
        {
          "internalType": "uint256",
          "name": "",
          "type": "uint256"
        }
      ],
      "stateMutability": "view",
      "type": "function"
    },
    {
      "inputs": [
        {
          "internalType": "uint256",
          "name": "",
          "type": "uint256"
        }
      ],
      "name": "s2e1",
      "outputs": [
        {
          "internalType": "uint256",
          "name": "",
          "type": "uint256"
        }
      ],
      "stateMutability": "view",
      "type": "function"
    },
    {
      "inputs": [
        {
          "internalType": "uint256",
          "name": "",
          "type": "uint256"
        }
      ],
      "name": "s2e2",
      "outputs": [
        {
          "internalType": "uint256",
          "name": "",
          "type": "uint256"
        }
      ],
      "stateMutability": "view",
      "type": "function"
    },
    {
      "inputs": [
        {
          "internalType": "uint256",
          "name": "",
          "type": "uint256"
        }
      ],
      "name": "s3e1",
      "outputs": [
        {
          "internalType": "uint256",
          "name": "",
          "type": "uint256"
        }
      ],
      "stateMutability": "view",
      "type": "function"
    },
    {
      "inputs": [
        {
          "internalType": "uint256",
          "name": "",
          "type": "uint256"
        }
      ],
      "name": "s3e2",
      "outputs": [
        {
          "internalType": "uint256",
          "name": "",
          "type": "uint256"
        }
      ],
      "stateMutability": "view",
      "type": "function"
    },
    {
      "inputs": [
        {
          "internalType": "uint256",
          "name": "",
          "type": "uint256"
        }
      ],
      "name": "s4e1",
      "outputs": [
        {
          "internalType": "uint256",
          "name": "",
          "type": "uint256"
        }
      ],
      "stateMutability": "view",
      "type": "function"
    },
    {
      "inputs": [
        {
          "internalType": "uint256",
          "name": "",
          "type": "uint256"
        }
      ],
      "name": "s4e2",
      "outputs": [
        {
          "internalType": "uint256",
          "name": "",
          "type": "uint256"
        }
      ],
      "stateMutability": "view",
      "type": "function"
    },
    {
      "inputs": [],
      "name": "tokenContract",
      "outputs": [
        {
          "internalType": "contract IFungibleToken",
          "name": "",
          "type": "address"
        }
      ],
      "stateMutability": "view",
      "type": "function"
    },
    {
      "inputs": [
        {
          "internalType": "address",
          "name": "newOwner",
          "type": "address"
        }
      ],
      "name": "transferOwnership",
      "outputs": [],
      "stateMutability": "nonpayable",
      "type": "function"
    },
    {
      "inputs": [],
      "name": "getLeaderboard",
      "outputs": [
        {
          "components": [
            {
              "internalType": "address",
              "name": "holder",
              "type": "address"
            },
            {
              "internalType": "uint256",
              "name": "tokenId",
              "type": "uint256"
            },
            {
              "internalType": "uint256",
              "name": "points",
              "type": "uint256"
            }
          ],
          "internalType": "struct Points.Leaderboard[]",
          "name": "",
          "type": "tuple[]"
        }
      ],
      "stateMutability": "view",
      "type": "function"
    },
    {
      "inputs": [
        {
          "internalType": "uint256",
          "name": "tokenId",
          "type": "uint256"
        }
      ],
      "name": "getRedeemable",
      "outputs": [
        {
          "internalType": "uint256",
          "name": "",
          "type": "uint256"
        }
      ],
      "stateMutability": "view",
      "type": "function"
    },
    {
      "inputs": [
        {
          "internalType": "uint256",
          "name": "tokenId",
          "type": "uint256"
        }
      ],
      "name": "redeem",
      "outputs": [],
      "stateMutability": "nonpayable",
      "type": "function"
    },
    {
      "inputs": [
        {
          "internalType": "uint256[]",
          "name": "values",
          "type": "uint256[]"
        }
      ],
      "name": "set4e1",
      "outputs": [],
      "stateMutability": "nonpayable",
      "type": "function"
    },
    {
      "inputs": [
        {
          "internalType": "uint256[]",
          "name": "values",
          "type": "uint256[]"
        }
      ],
      "name": "set3e1",
      "outputs": [],
      "stateMutability": "nonpayable",
      "type": "function"
    },
    {
      "inputs": [
        {
          "internalType": "uint256[]",
          "name": "values",
          "type": "uint256[]"
        }
      ],
      "name": "set2e1",
      "outputs": [],
      "stateMutability": "nonpayable",
      "type": "function"
    },
    {
      "inputs": [
        {
          "internalType": "uint256[]",
          "name": "values",
          "type": "uint256[]"
        }
      ],
      "name": "set1e1",
      "outputs": [],
      "stateMutability": "nonpayable",
      "type": "function"
    },
    {
      "inputs": [
        {
          "internalType": "uint256[]",
          "name": "values",
          "type": "uint256[]"
        }
      ],
      "name": "set4e2",
      "outputs": [],
      "stateMutability": "nonpayable",
      "type": "function"
    },
    {
      "inputs": [
        {
          "internalType": "uint256[]",
          "name": "values",
          "type": "uint256[]"
        }
      ],
      "name": "set3e2",
      "outputs": [],
      "stateMutability": "nonpayable",
      "type": "function"
    },
    {
      "inputs": [
        {
          "internalType": "uint256[]",
          "name": "values",
          "type": "uint256[]"
        }
      ],
      "name": "set2e2",
      "outputs": [],
      "stateMutability": "nonpayable",
      "type": "function"
    },
    {
      "inputs": [
        {
          "internalType": "uint256[]",
          "name": "values",
          "type": "uint256[]"
        }
      ],
      "name": "set1e2",
      "outputs": [],
      "stateMutability": "nonpayable",
      "type": "function"
    },
    {
      "inputs": [
        {
          "internalType": "uint256",
          "name": "timestamp",
          "type": "uint256"
        }
      ],
      "name": "getYear",
      "outputs": [
        {
          "internalType": "uint16",
          "name": "",
          "type": "uint16"
        }
      ],
      "stateMutability": "pure",
      "type": "function"
    },
    {
      "inputs": [
        {
          "internalType": "uint16",
          "name": "year",
          "type": "uint16"
        }
      ],
      "name": "isLeapYear",
      "outputs": [
        {
          "internalType": "bool",
          "name": "",
          "type": "bool"
        }
      ],
      "stateMutability": "pure",
      "type": "function"
    },
    {
      "inputs": [
        {
          "internalType": "uint256",
          "name": "year",
          "type": "uint256"
        }
      ],
      "name": "leapYearsBefore",
      "outputs": [
        {
          "internalType": "uint256",
          "name": "",
          "type": "uint256"
        }
      ],
      "stateMutability": "pure",
      "type": "function"
    },
    {
      "inputs": [],
      "name": "firstDayOfMonth",
      "outputs": [
        {
          "internalType": "uint256",
          "name": "",
          "type": "uint256"
        }
      ],
      "stateMutability": "view",
      "type": "function"
    },
    {
      "inputs": [
        {
          "internalType": "uint8",
          "name": "month",
          "type": "uint8"
        },
        {
          "internalType": "uint16",
          "name": "year",
          "type": "uint16"
        }
      ],
      "name": "getDaysInMonth",
      "outputs": [
        {
          "internalType": "uint8",
          "name": "",
          "type": "uint8"
        }
      ],
      "stateMutability": "pure",
      "type": "function"
    },
    {
      "inputs": [
        {
          "internalType": "uint256",
          "name": "timestamp",
          "type": "uint256"
        }
      ],
      "name": "getHour",
      "outputs": [
        {
          "internalType": "uint8",
          "name": "",
          "type": "uint8"
        }
      ],
      "stateMutability": "pure",
      "type": "function"
    },
    {
      "inputs": [
        {
          "internalType": "uint256",
          "name": "timestamp",
          "type": "uint256"
        }
      ],
      "name": "getMinute",
      "outputs": [
        {
          "internalType": "uint8",
          "name": "",
          "type": "uint8"
        }
      ],
      "stateMutability": "pure",
      "type": "function"
    },
    {
      "inputs": [
        {
          "internalType": "uint256",
          "name": "timestamp",
          "type": "uint256"
        }
      ],
      "name": "getSecond",
      "outputs": [
        {
          "internalType": "uint8",
          "name": "",
          "type": "uint8"
        }
      ],
      "stateMutability": "pure",
      "type": "function"
    }
  ],
  "bytecode": "0x60806040523480156200001157600080fd5b5060405162003be838038062003be8833981810160405281019062000037919062000217565b620000576200004b620000e160201b60201c565b620000e960201b60201c565b81600160006101000a81548173ffffffffffffffffffffffffffffffffffffffff021916908373ffffffffffffffffffffffffffffffffffffffff16021790555080600260006101000a81548173ffffffffffffffffffffffffffffffffffffffff021916908373ffffffffffffffffffffffffffffffffffffffff16021790555050506200025e565b600033905090565b60008060009054906101000a900473ffffffffffffffffffffffffffffffffffffffff169050816000806101000a81548173ffffffffffffffffffffffffffffffffffffffff021916908373ffffffffffffffffffffffffffffffffffffffff1602179055508173ffffffffffffffffffffffffffffffffffffffff168173ffffffffffffffffffffffffffffffffffffffff167f8be0079c531659141344cd1fd0a4f28419497f9722a3daafe3b4186f6b6457e060405160405180910390a35050565b600080fd5b600073ffffffffffffffffffffffffffffffffffffffff82169050919050565b6000620001df82620001b2565b9050919050565b620001f181620001d2565b8114620001fd57600080fd5b50565b6000815190506200021181620001e6565b92915050565b60008060408385031215620002315762000230620001ad565b5b6000620002418582860162000200565b9250506020620002548582860162000200565b9150509250929050565b61397a806200026e6000396000f3fe608060405234801561001057600080fd5b50600436106101fb5760003560e01c806390e235891161011a578063c07f2aaf116100ad578063e82e55cd1161007c578063e82e55cd1461060c578063eac0926f1461063c578063f2fde38b1461066c578063f8b4d92d14610688578063fa93f883146106b8576101fb565b8063c07f2aaf14610588578063d177d79a146105a4578063d25bd309146105d4578063db006a75146105f0576101fb565b8063b1999937116100e9578063b1999937146104da578063b238ad0e1461050a578063b29c662a1461053a578063b9e0b01714610558576101fb565b806390e235891461044057806392d663131461045c5780639384f3421461048c578063a6f0e577146104aa576101fb565b806355a373d611610192578063715018a611610161578063715018a6146103b85780637b2f3194146103c25780638aa001fc146103f25780638da5cb5b14610422576101fb565b806355a373d61461031c5780635c444cdc1461033a578063606179031461036a5780636d763a6e1461039a576101fb565b8063347cab75116101ce578063347cab751461027057806337366ae3146102a05780633e239e1a146102bc5780634bed279d146102ec576101fb565b806311c4682e1461020057806320ef1f9f1461021c578063219d6635146102385780632a0e3f6d14610254575b600080fd5b61021a60048036038101906102159190612dbb565b6106e8565b005b61023660048036038101906102319190612dbb565b6107ca565b005b610252600480360381019061024d9190612dbb565b6108ac565b005b61026e60048036038101906102699190612dbb565b61098e565b005b61028a60048036038101906102859190612e04565b610a70565b6040516102979190612e40565b60405180910390f35b6102ba60048036038101906102b59190612dbb565b610a94565b005b6102d660048036038101906102d19190612e04565b610b76565b6040516102e39190612e77565b60405180910390f35b61030660048036038101906103019190612e04565b610ba3565b6040516103139190612e40565b60405180910390f35b610324610bbb565b6040516103319190612f11565b60405180910390f35b610354600480360381019061034f9190612e04565b610be1565b6040516103619190612e40565b60405180910390f35b610384600480360381019061037f9190612e04565b610c05565b6040516103919190612e40565b60405180910390f35b6103a2610c29565b6040516103af919061304d565b60405180910390f35b6103c0611bf5565b005b6103dc60048036038101906103d79190612e04565b611c7d565b6040516103e99190612e40565b60405180910390f35b61040c60048036038101906104079190612e04565b611ca1565b6040516104199190612e77565b60405180910390f35b61042a611cb7565b604051610437919061307e565b60405180910390f35b61045a60048036038101906104559190612dbb565b611ce0565b005b61047660048036038101906104719190612e04565b611dc2565b60405161048391906130b6565b60405180910390f35b610494611ed9565b6040516104a19190612e40565b60405180910390f35b6104c460048036038101906104bf91906130fd565b611f7b565b6040516104d19190613145565b60405180910390f35b6104f460048036038101906104ef9190612e04565b611fea565b6040516105019190612e40565b60405180910390f35b610524600480360381019061051f919061318c565b61203e565b6040516105319190612e77565b60405180910390f35b61054261210a565b60405161054f91906131ed565b60405180910390f35b610572600480360381019061056d9190612e04565b612130565b60405161057f9190612e40565b60405180910390f35b6105a2600480360381019061059d9190612dbb565b612154565b005b6105be60048036038101906105b99190612e04565b612236565b6040516105cb9190612e40565b60405180910390f35b6105ee60048036038101906105e99190612dbb565b61225a565b005b61060a60048036038101906106059190612e04565b61233c565b005b61062660048036038101906106219190612e04565b61251b565b6040516106339190612e40565b60405180910390f35b61065660048036038101906106519190612e04565b612728565b6040516106639190612e40565b60405180910390f35b61068660048036038101906106819190613234565b61274c565b005b6106a2600480360381019061069d9190612e04565b612844565b6040516106af9190612e40565b60405180910390f35b6106d260048036038101906106cd9190612e04565b612868565b6040516106df9190612e77565b60405180910390f35b6106f0612889565b73ffffffffffffffffffffffffffffffffffffffff1661070e611cb7565b73ffffffffffffffffffffffffffffffffffffffff1614610764576040517f08c379a000000000000000000000000000000000000000000000000000000000815260040161075b906132be565b60405180910390fd5b60005b81518110156107c6576009828281518110610785576107846132de565b5b6020026020010151908060018154018082558091505060019003906000526020600020016000909190919091505580806107be9061333c565b915050610767565b5050565b6107d2612889565b73ffffffffffffffffffffffffffffffffffffffff166107f0611cb7565b73ffffffffffffffffffffffffffffffffffffffff1614610846576040517f08c379a000000000000000000000000000000000000000000000000000000000815260040161083d906132be565b60405180910390fd5b60005b81518110156108a8576006828281518110610867576108666132de565b5b6020026020010151908060018154018082558091505060019003906000526020600020016000909190919091505580806108a09061333c565b915050610849565b5050565b6108b4612889565b73ffffffffffffffffffffffffffffffffffffffff166108d2611cb7565b73ffffffffffffffffffffffffffffffffffffffff1614610928576040517f08c379a000000000000000000000000000000000000000000000000000000000815260040161091f906132be565b60405180910390fd5b60005b815181101561098a576007828281518110610949576109486132de565b5b6020026020010151908060018154018082558091505060019003906000526020600020016000909190919091505580806109829061333c565b91505061092b565b5050565b610996612889565b73ffffffffffffffffffffffffffffffffffffffff166109b4611cb7565b73ffffffffffffffffffffffffffffffffffffffff1614610a0a576040517f08c379a0000000000000000000000000000000000000000000000000000000008152600401610a01906132be565b60405180910390fd5b60005b8151811015610a6c576008828281518110610a2b57610a2a6132de565b5b602002602001015190806001815401808255809150506001900390600052602060002001600090919091909150558080610a649061333c565b915050610a0d565b5050565b60088181548110610a8057600080fd5b906000526020600020016000915090505481565b610a9c612889565b73ffffffffffffffffffffffffffffffffffffffff16610aba611cb7565b73ffffffffffffffffffffffffffffffffffffffff1614610b10576040517f08c379a0000000000000000000000000000000000000000000000000000000008152600401610b07906132be565b60405180910390fd5b60005b8151811015610b72576003828281518110610b3157610b306132de565b5b602002602001015190806001815401808255809150506001900390600052602060002001600090919091909150558080610b6a9061333c565b915050610b13565b5050565b60006018603c8084610b8891906133b4565b610b9291906133b4565b610b9c91906133e5565b9050919050565b600b6020528060005260406000206000915090505481565b600260009054906101000a900473ffffffffffffffffffffffffffffffffffffffff1681565b60098181548110610bf157600080fd5b906000526020600020016000915090505481565b60038181548110610c1557600080fd5b906000526020600020016000915090505481565b60606000805b600160009054906101000a900473ffffffffffffffffffffffffffffffffffffffff1673ffffffffffffffffffffffffffffffffffffffff166301790e016040518163ffffffff1660e01b8152600401602060405180830381865afa158015610c9c573d6000803e3d6000fd5b505050506040513d601f19601f82011682018060405250810190610cc0919061342b565b811015610db857600073ffffffffffffffffffffffffffffffffffffffff16600160009054906101000a900473ffffffffffffffffffffffffffffffffffffffff1673ffffffffffffffffffffffffffffffffffffffff1663b02c43d0836040518263ffffffff1660e01b8152600401610d3a9190612e40565b602060405180830381865afa158015610d57573d6000803e3d6000fd5b505050506040513d601f19601f82011682018060405250810190610d7b919061346d565b73ffffffffffffffffffffffffffffffffffffffff1614610da5578180610da19061333c565b9250505b8080610db09061333c565b915050610c2f565b5060008167ffffffffffffffff811115610dd557610dd4612c42565b5b604051908082528060200260200182016040528015610e0e57816020015b610dfb612b8e565b815260200190600190039081610df35790505b5090506000915060005b600160009054906101000a900473ffffffffffffffffffffffffffffffffffffffff1673ffffffffffffffffffffffffffffffffffffffff166301790e016040518163ffffffff1660e01b8152600401602060405180830381865afa158015610e85573d6000803e3d6000fd5b505050506040513d601f19601f82011682018060405250810190610ea9919061342b565b811015611bec57600073ffffffffffffffffffffffffffffffffffffffff16600160009054906101000a900473ffffffffffffffffffffffffffffffffffffffff1673ffffffffffffffffffffffffffffffffffffffff1663b02c43d0836040518263ffffffff1660e01b8152600401610f239190612e40565b602060405180830381865afa158015610f40573d6000803e3d6000fd5b505050506040513d601f19601f82011682018060405250810190610f64919061346d565b73ffffffffffffffffffffffffffffffffffffffff1614611bd957600061103d62015180600160009054906101000a900473ffffffffffffffffffffffffffffffffffffffff1673ffffffffffffffffffffffffffffffffffffffff1663b8a24252856040518263ffffffff1660e01b8152600401610fe39190612e40565b602060405180830381865afa158015611000573d6000803e3d6000fd5b505050506040513d601f19601f82011682018060405250810190611024919061342b565b4261102f919061349a565b61289190919063ffffffff16565b905060005b6003805490508110156111b15760038181548110611063576110626132de565b5b906000526020600020015483141561119e576040518060600160405280600160009054906101000a900473ffffffffffffffffffffffffffffffffffffffff1673ffffffffffffffffffffffffffffffffffffffff1663b02c43d0866040518263ffffffff1660e01b81526004016110db9190612e40565b602060405180830381865afa1580156110f8573d6000803e3d6000fd5b505050506040513d601f19601f8201168201806040525081019061111c919061346d565b73ffffffffffffffffffffffffffffffffffffffff16815260200184815260200161116a8461115c600860ff16600260ff166128a790919063ffffffff16565b6128a790919063ffffffff16565b8152508486815181106111805761117f6132de565b5b602002602001018190525084806111969061333c565b9550506111b1565b80806111a99061333c565b915050611042565b5060005b60048054905081101561132457600481815481106111d6576111d56132de565b5b9060005260206000200154831415611311576040518060600160405280600160009054906101000a900473ffffffffffffffffffffffffffffffffffffffff1673ffffffffffffffffffffffffffffffffffffffff1663b02c43d0866040518263ffffffff1660e01b815260040161124e9190612e40565b602060405180830381865afa15801561126b573d6000803e3d6000fd5b505050506040513d601f19601f8201168201806040525081019061128f919061346d565b73ffffffffffffffffffffffffffffffffffffffff1681526020018481526020016112dd846112cf600460ff16600260ff166128a790919063ffffffff16565b6128a790919063ffffffff16565b8152508486815181106112f3576112f26132de565b5b602002602001018190525084806113099061333c565b955050611324565b808061131c9061333c565b9150506111b5565b5060005b6005805490508110156114975760058181548110611349576113486132de565b5b9060005260206000200154831415611484576040518060600160405280600160009054906101000a900473ffffffffffffffffffffffffffffffffffffffff1673ffffffffffffffffffffffffffffffffffffffff1663b02c43d0866040518263ffffffff1660e01b81526004016113c19190612e40565b602060405180830381865afa1580156113de573d6000803e3d6000fd5b505050506040513d601f19601f82011682018060405250810190611402919061346d565b73ffffffffffffffffffffffffffffffffffffffff16815260200184815260200161145084611442600260ff16600260ff166128a790919063ffffffff16565b6128a790919063ffffffff16565b815250848681518110611466576114656132de565b5b6020026020010181905250848061147c9061333c565b955050611497565b808061148f9061333c565b915050611328565b5060005b60068054905081101561160a57600681815481106114bc576114bb6132de565b5b90600052602060002001548314156115f7576040518060600160405280600160009054906101000a900473ffffffffffffffffffffffffffffffffffffffff1673ffffffffffffffffffffffffffffffffffffffff1663b02c43d0866040518263ffffffff1660e01b81526004016115349190612e40565b602060405180830381865afa158015611551573d6000803e3d6000fd5b505050506040513d601f19601f82011682018060405250810190611575919061346d565b73ffffffffffffffffffffffffffffffffffffffff1681526020018481526020016115c3846115b5600160ff16600260ff166128a790919063ffffffff16565b6128a790919063ffffffff16565b8152508486815181106115d9576115d86132de565b5b602002602001018190525084806115ef9061333c565b95505061160a565b80806116029061333c565b91505061149b565b5060005b60078054905081101561177d576007818154811061162f5761162e6132de565b5b906000526020600020015483141561176a576040518060600160405280600160009054906101000a900473ffffffffffffffffffffffffffffffffffffffff1673ffffffffffffffffffffffffffffffffffffffff1663b02c43d0866040518263ffffffff1660e01b81526004016116a79190612e40565b602060405180830381865afa1580156116c4573d6000803e3d6000fd5b505050506040513d601f19601f820116820180604052508101906116e8919061346d565b73ffffffffffffffffffffffffffffffffffffffff16815260200184815260200161173684611728600860ff16600160ff166128a790919063ffffffff16565b6128a790919063ffffffff16565b81525084868151811061174c5761174b6132de565b5b602002602001018190525084806117629061333c565b95505061177d565b80806117759061333c565b91505061160e565b5060005b6008805490508110156118f057600881815481106117a2576117a16132de565b5b90600052602060002001548314156118dd576040518060600160405280600160009054906101000a900473ffffffffffffffffffffffffffffffffffffffff1673ffffffffffffffffffffffffffffffffffffffff1663b02c43d0866040518263ffffffff1660e01b815260040161181a9190612e40565b602060405180830381865afa158015611837573d6000803e3d6000fd5b505050506040513d601f19601f8201168201806040525081019061185b919061346d565b73ffffffffffffffffffffffffffffffffffffffff1681526020018481526020016118a98461189b600460ff16600160ff166128a790919063ffffffff16565b6128a790919063ffffffff16565b8152508486815181106118bf576118be6132de565b5b602002602001018190525084806118d59061333c565b9550506118f0565b80806118e89061333c565b915050611781565b5060005b600980549050811015611a635760098181548110611915576119146132de565b5b9060005260206000200154831415611a50576040518060600160405280600160009054906101000a900473ffffffffffffffffffffffffffffffffffffffff1673ffffffffffffffffffffffffffffffffffffffff1663b02c43d0866040518263ffffffff1660e01b815260040161198d9190612e40565b602060405180830381865afa1580156119aa573d6000803e3d6000fd5b505050506040513d601f19601f820116820180604052508101906119ce919061346d565b73ffffffffffffffffffffffffffffffffffffffff168152602001848152602001611a1c84611a0e600260ff16600160ff166128a790919063ffffffff16565b6128a790919063ffffffff16565b815250848681518110611a3257611a316132de565b5b60200260200101819052508480611a489061333c565b955050611a63565b8080611a5b9061333c565b9150506118f4565b5060005b600a80549050811015611bd657600a8181548110611a8857611a876132de565b5b9060005260206000200154831415611bc3576040518060600160405280600160009054906101000a900473ffffffffffffffffffffffffffffffffffffffff1673ffffffffffffffffffffffffffffffffffffffff1663b02c43d0866040518263ffffffff1660e01b8152600401611b009190612e40565b602060405180830381865afa158015611b1d573d6000803e3d6000fd5b505050506040513d601f19601f82011682018060405250810190611b41919061346d565b73ffffffffffffffffffffffffffffffffffffffff168152602001848152602001611b8f84611b81600160ff16600160ff166128a790919063ffffffff16565b6128a790919063ffffffff16565b815250848681518110611ba557611ba46132de565b5b60200260200101819052508480611bbb9061333c565b955050611bd6565b8080611bce9061333c565b915050611a67565b50505b8080611be49061333c565b915050610e18565b50809250505090565b611bfd612889565b73ffffffffffffffffffffffffffffffffffffffff16611c1b611cb7565b73ffffffffffffffffffffffffffffffffffffffff1614611c71576040517f08c379a0000000000000000000000000000000000000000000000000000000008152600401611c68906132be565b60405180910390fd5b611c7b60006128bd565b565b60078181548110611c8d57600080fd5b906000526020600020016000915090505481565b6000603c82611cb091906133e5565b9050919050565b60008060009054906101000a900473ffffffffffffffffffffffffffffffffffffffff16905090565b611ce8612889565b73ffffffffffffffffffffffffffffffffffffffff16611d06611cb7565b73ffffffffffffffffffffffffffffffffffffffff1614611d5c576040517f08c379a0000000000000000000000000000000000000000000000000000000008152600401611d53906132be565b60405180910390fd5b60005b8151811015611dbe57600a828281518110611d7d57611d7c6132de565b5b602002602001015190806001815401808255809150506001900390600052602060002001600090919091909150558080611db69061333c565b915050611d5f565b5050565b600080600090506000806301e1338085611ddc91906133b4565b6107b261ffff16611ded91906134ce565b9150611dfe6107b261ffff16611fea565b611e0b8361ffff16611fea565b611e15919061349a565b9050806301e28500611e279190613524565b83611e3291906134ce565b9250806107b283611e43919061357e565b61ffff16611e51919061349a565b6301e13380611e609190613524565b83611e6b91906134ce565b92505b84831115611ece57611e8b600183611e86919061357e565b611f7b565b15611ea7576301e2850083611ea0919061349a565b9250611eba565b6301e1338083611eb7919061349a565b92505b600182611ec7919061357e565b9150611e6e565b819350505050919050565b6000804290506000611eea82612981565b9050620151806001826040015160ff16611f04919061349a565b611f0e9190613524565b82611f19919061349a565b9150610e10816060015160ff16611f309190613524565b82611f3b919061349a565b9150603c816080015160ff16611f519190613524565b82611f5c919061349a565b91508060a0015160ff1682611f71919061349a565b9150819250505090565b600080600483611f8b91906135b2565b61ffff1614611f9d5760009050611fe5565b6000606483611fac91906135b2565b61ffff1614611fbe5760019050611fe5565b600061019083611fce91906135b2565b61ffff1614611fe05760009050611fe5565b600190505b919050565b6000600182611ff9919061349a565b91506101908261200991906133b4565b60648361201691906133b4565b60048461202391906133b4565b61202d919061349a565b61203791906134ce565b9050919050565b600060018360ff161480612055575060038360ff16145b80612063575060058360ff16145b80612071575060078360ff16145b8061207f575060088360ff16145b8061208d5750600a8360ff16145b8061209b5750600c8360ff16145b156120a957601f9050612104565b60048360ff1614806120be575060068360ff16145b806120cc575060098360ff16145b806120da5750600b8360ff16145b156120e857601e9050612104565b6120f182611f7b565b156120ff57601d9050612104565b601c90505b92915050565b600160009054906101000a900473ffffffffffffffffffffffffffffffffffffffff1681565b6006818154811061214057600080fd5b906000526020600020016000915090505481565b61215c612889565b73ffffffffffffffffffffffffffffffffffffffff1661217a611cb7565b73ffffffffffffffffffffffffffffffffffffffff16146121d0576040517f08c379a00000000000000000000000000000000000000000000000000000000081526004016121c7906132be565b60405180910390fd5b60005b81518110156122325760058282815181106121f1576121f06132de565b5b60200260200101519080600181540180825580915050600190039060005260206000200160009091909190915055808061222a9061333c565b9150506121d3565b5050565b6004818154811061224657600080fd5b906000526020600020016000915090505481565b612262612889565b73ffffffffffffffffffffffffffffffffffffffff16612280611cb7565b73ffffffffffffffffffffffffffffffffffffffff16146122d6576040517f08c379a00000000000000000000000000000000000000000000000000000000081526004016122cd906132be565b60405180910390fd5b60005b81518110156123385760048282815181106122f7576122f66132de565b5b6020026020010151908060018154018082558091505060019003906000526020600020016000909190919091505580806123309061333c565b9150506122d9565b5050565b6000600160009054906101000a900473ffffffffffffffffffffffffffffffffffffffff1673ffffffffffffffffffffffffffffffffffffffff1663b02c43d0836040518263ffffffff1660e01b81526004016123999190612e40565b602060405180830381865afa1580156123b6573d6000803e3d6000fd5b505050506040513d601f19601f820116820180604052508101906123da919061346d565b90503373ffffffffffffffffffffffffffffffffffffffff168173ffffffffffffffffffffffffffffffffffffffff161461244a576040517f08c379a000000000000000000000000000000000000000000000000000000000815260040161244190613655565b60405180910390fd5b60006124558361251b565b9050600260009054906101000a900473ffffffffffffffffffffffffffffffffffffffff1673ffffffffffffffffffffffffffffffffffffffff166340c10f19336012600a6124a491906137a8565b846124af9190613524565b6040518363ffffffff1660e01b81526004016124cc9291906137f3565b600060405180830381600087803b1580156124e657600080fd5b505af11580156124fa573d6000803e3d6000fd5b5050505042600b600085815260200190815260200160002081905550505050565b600080600160009054906101000a900473ffffffffffffffffffffffffffffffffffffffff1673ffffffffffffffffffffffffffffffffffffffff1663b02c43d0846040518263ffffffff1660e01b81526004016125799190612e40565b602060405180830381865afa158015612596573d6000803e3d6000fd5b505050506040513d601f19601f820116820180604052508101906125ba919061346d565b9050600073ffffffffffffffffffffffffffffffffffffffff168173ffffffffffffffffffffffffffffffffffffffff16141561262c576040517f08c379a000000000000000000000000000000000000000000000000000000000815260040161262390613868565b60405180910390fd5b6000600b60008581526020019081526020016000205490506000600160009054906101000a900473ffffffffffffffffffffffffffffffffffffffff1673ffffffffffffffffffffffffffffffffffffffff1663b8a24252866040518263ffffffff1660e01b81526004016126a19190612e40565b602060405180830381865afa1580156126be573d6000803e3d6000fd5b505050506040513d601f19601f820116820180604052508101906126e2919061342b565b9050818111156126f0578091505b60006127058342612b7890919063ffffffff16565b905061271d620151808261289190919063ffffffff16565b945050505050919050565b600a818154811061273857600080fd5b906000526020600020016000915090505481565b612754612889565b73ffffffffffffffffffffffffffffffffffffffff16612772611cb7565b73ffffffffffffffffffffffffffffffffffffffff16146127c8576040517f08c379a00000000000000000000000000000000000000000000000000000000081526004016127bf906132be565b60405180910390fd5b600073ffffffffffffffffffffffffffffffffffffffff168173ffffffffffffffffffffffffffffffffffffffff161415612838576040517f08c379a000000000000000000000000000000000000000000000000000000000815260040161282f906138fa565b60405180910390fd5b612841816128bd565b50565b6005818154811061285457600080fd5b906000526020600020016000915090505481565b6000603c808361287891906133b4565b61288291906133e5565b9050919050565b600033905090565b6000818361289f91906133b4565b905092915050565b600081836128b59190613524565b905092915050565b60008060009054906101000a900473ffffffffffffffffffffffffffffffffffffffff169050816000806101000a81548173ffffffffffffffffffffffffffffffffffffffff021916908373ffffffffffffffffffffffffffffffffffffffff1602179055508173ffffffffffffffffffffffffffffffffffffffff168173ffffffffffffffffffffffffffffffffffffffff167f8be0079c531659141344cd1fd0a4f28419497f9722a3daafe3b4186f6b6457e060405160405180910390a35050565b612989612bc5565b6000808061299685611dc2565b846000019061ffff16908161ffff16815250506129b86107b261ffff16611fea565b6129c9856000015161ffff16611fea565b6129d3919061349a565b9150816301e285006129e59190613524565b836129f091906134ce565b9250816107b28560000151612a05919061357e565b61ffff16612a13919061349a565b6301e13380612a229190613524565b83612a2d91906134ce565b92506000600191505b600c8260ff1611612aad57612a4f82866000015161203e565b60ff1662015180612a609190613524565b9050858482612a6f91906134ce565b1115612a8c5781856020019060ff16908160ff1681525050612aad565b8084612a9891906134ce565b93508180612aa59061391a565b925050612a36565b600191505b612ac48560200151866000015161203e565b60ff168260ff1611612b2157858462015180612ae091906134ce565b1115612afd5781856040019060ff16908160ff1681525050612b21565b6201518084612b0c91906134ce565b93508180612b199061391a565b925050612ab2565b612b2a86610b76565b856060019060ff16908160ff1681525050612b4486612868565b856080019060ff16908160ff1681525050612b5e86611ca1565b8560a0019060ff16908160ff168152505050505050919050565b60008183612b86919061349a565b905092915050565b6040518060600160405280600073ffffffffffffffffffffffffffffffffffffffff16815260200160008152602001600081525090565b6040518060e00160405280600061ffff168152602001600060ff168152602001600060ff168152602001600060ff168152602001600060ff168152602001600060ff168152602001600060ff1681525090565b6000604051905090565b600080fd5b600080fd5b600080fd5b6000601f19601f8301169050919050565b7f4e487b7100000000000000000000000000000000000000000000000000000000600052604160045260246000fd5b612c7a82612c31565b810181811067ffffffffffffffff82111715612c9957612c98612c42565b5b80604052505050565b6000612cac612c18565b9050612cb88282612c71565b919050565b600067ffffffffffffffff821115612cd857612cd7612c42565b5b602082029050602081019050919050565b600080fd5b6000819050919050565b612d0181612cee565b8114612d0c57600080fd5b50565b600081359050612d1e81612cf8565b92915050565b6000612d37612d3284612cbd565b612ca2565b90508083825260208201905060208402830185811115612d5a57612d59612ce9565b5b835b81811015612d835780612d6f8882612d0f565b845260208401935050602081019050612d5c565b5050509392505050565b600082601f830112612da257612da1612c2c565b5b8135612db2848260208601612d24565b91505092915050565b600060208284031215612dd157612dd0612c22565b5b600082013567ffffffffffffffff811115612def57612dee612c27565b5b612dfb84828501612d8d565b91505092915050565b600060208284031215612e1a57612e19612c22565b5b6000612e2884828501612d0f565b91505092915050565b612e3a81612cee565b82525050565b6000602082019050612e556000830184612e31565b92915050565b600060ff82169050919050565b612e7181612e5b565b82525050565b6000602082019050612e8c6000830184612e68565b92915050565b600073ffffffffffffffffffffffffffffffffffffffff82169050919050565b6000819050919050565b6000612ed7612ed2612ecd84612e92565b612eb2565b612e92565b9050919050565b6000612ee982612ebc565b9050919050565b6000612efb82612ede565b9050919050565b612f0b81612ef0565b82525050565b6000602082019050612f266000830184612f02565b92915050565b600081519050919050565b600082825260208201905092915050565b6000819050602082019050919050565b6000612f6382612e92565b9050919050565b612f7381612f58565b82525050565b612f8281612cee565b82525050565b606082016000820151612f9e6000850182612f6a565b506020820151612fb16020850182612f79565b506040820151612fc46040850182612f79565b50505050565b6000612fd68383612f88565b60608301905092915050565b6000602082019050919050565b6000612ffa82612f2c565b6130048185612f37565b935061300f83612f48565b8060005b838110156130405781516130278882612fca565b975061303283612fe2565b925050600181019050613013565b5085935050505092915050565b600060208201905081810360008301526130678184612fef565b905092915050565b61307881612f58565b82525050565b6000602082019050613093600083018461306f565b92915050565b600061ffff82169050919050565b6130b081613099565b82525050565b60006020820190506130cb60008301846130a7565b92915050565b6130da81613099565b81146130e557600080fd5b50565b6000813590506130f7816130d1565b92915050565b60006020828403121561311357613112612c22565b5b6000613121848285016130e8565b91505092915050565b60008115159050919050565b61313f8161312a565b82525050565b600060208201905061315a6000830184613136565b92915050565b61316981612e5b565b811461317457600080fd5b50565b60008135905061318681613160565b92915050565b600080604083850312156131a3576131a2612c22565b5b60006131b185828601613177565b92505060206131c2858286016130e8565b9150509250929050565b60006131d782612ede565b9050919050565b6131e7816131cc565b82525050565b600060208201905061320260008301846131de565b92915050565b61321181612f58565b811461321c57600080fd5b50565b60008135905061322e81613208565b92915050565b60006020828403121561324a57613249612c22565b5b60006132588482850161321f565b91505092915050565b600082825260208201905092915050565b7f4f776e61626c653a2063616c6c6572206973206e6f7420746865206f776e6572600082015250565b60006132a8602083613261565b91506132b382613272565b602082019050919050565b600060208201905081810360008301526132d78161329b565b9050919050565b7f4e487b7100000000000000000000000000000000000000000000000000000000600052603260045260246000fd5b7f4e487b7100000000000000000000000000000000000000000000000000000000600052601160045260246000fd5b600061334782612cee565b91507fffffffffffffffffffffffffffffffffffffffffffffffffffffffffffffffff82141561337a5761337961330d565b5b600182019050919050565b7f4e487b7100000000000000000000000000000000000000000000000000000000600052601260045260246000fd5b60006133bf82612cee565b91506133ca83612cee565b9250826133da576133d9613385565b5b828204905092915050565b60006133f082612cee565b91506133fb83612cee565b92508261340b5761340a613385565b5b828206905092915050565b60008151905061342581612cf8565b92915050565b60006020828403121561344157613440612c22565b5b600061344f84828501613416565b91505092915050565b60008151905061346781613208565b92915050565b60006020828403121561348357613482612c22565b5b600061349184828501613458565b91505092915050565b60006134a582612cee565b91506134b083612cee565b9250828210156134c3576134c261330d565b5b828203905092915050565b60006134d982612cee565b91506134e483612cee565b9250827fffffffffffffffffffffffffffffffffffffffffffffffffffffffffffffffff038211156135195761351861330d565b5b828201905092915050565b600061352f82612cee565b915061353a83612cee565b9250817fffffffffffffffffffffffffffffffffffffffffffffffffffffffffffffffff04831182151516156135735761357261330d565b5b828202905092915050565b600061358982613099565b915061359483613099565b9250828210156135a7576135a661330d565b5b828203905092915050565b60006135bd82613099565b91506135c883613099565b9250826135d8576135d7613385565b5b828206905092915050565b7f596f7520617265206e6f7420746865206f776e6572206f66207468697320746f60008201527f6b656e0000000000000000000000000000000000000000000000000000000000602082015250565b600061363f602383613261565b915061364a826135e3565b604082019050919050565b6000602082019050818103600083015261366e81613632565b9050919050565b60008160011c9050919050565b6000808291508390505b60018511156136cc578086048111156136a8576136a761330d565b5b60018516156136b75780820291505b80810290506136c585613675565b945061368c565b94509492505050565b6000826136e557600190506137a1565b816136f357600090506137a1565b8160018114613709576002811461371357613742565b60019150506137a1565b60ff8411156137255761372461330d565b5b8360020a91508482111561373c5761373b61330d565b5b506137a1565b5060208310610133831016604e8410600b84101617156137775782820a9050838111156137725761377161330d565b5b6137a1565b6137848484846001613682565b9250905081840481111561379b5761379a61330d565b5b81810290505b9392505050565b60006137b382612cee565b91506137be83612e5b565b92506137eb7fffffffffffffffffffffffffffffffffffffffffffffffffffffffffffffffff84846136d5565b905092915050565b6000604082019050613808600083018561306f565b6138156020830184612e31565b9392505050565b7f5468697320746f6b656e20686173206e6f74206265656e207374616b65640000600082015250565b6000613852601e83613261565b915061385d8261381c565b602082019050919050565b6000602082019050818103600083015261388181613845565b9050919050565b7f4f776e61626c653a206e6577206f776e657220697320746865207a65726f206160008201527f6464726573730000000000000000000000000000000000000000000000000000602082015250565b60006138e4602683613261565b91506138ef82613888565b604082019050919050565b60006020820190508181036000830152613913816138d7565b9050919050565b600061392582612e5b565b915060ff8214156139395761393861330d565b5b60018201905091905056fea264697066735822122025d36069833e1c93ac52084a55ba76a619a7a89b337b86d015b1925990ca944564736f6c634300080a0033",
  "immutableReferences": {},
  "source": "// SPDX-License-Identifier: MIT\npragma solidity ^0.8.2;\n\nimport \"@openzeppelin/contracts/access/Ownable.sol\";\nimport \"@openzeppelin/contracts/utils/math/safemath.sol\";\nimport \"./IFungibleToken.sol\";\n\ninterface ILottery {\n    function checkpoints(uint256) external view returns (uint256);\n\n    function deposits(uint256) external view returns (address);\n\n    function tokensStaked(address staker)\n        external\n        view\n        returns (uint256[] memory);\n    \n    function nftSupply() external view returns (uint);\n}\n\ncontract Points is Ownable {\n    struct _DateTime {\n        uint16 year;\n        uint8 month;\n        uint8 day;\n        uint8 hour;\n        uint8 minute;\n        uint8 second;\n        uint8 weekday;\n    }\n\n    struct Leaderboard {\n      address holder;\n      uint tokenId;\n      uint points;\n    }\n\n    using SafeMath for uint8;\n    using SafeMath for uint16;\n    using SafeMath for uint256;\n\n    ILottery public lotteryContract;\n    IFungibleToken public tokenContract;\n\n    uint256[] public s4e1;\n    uint256[] public s3e1;\n    uint256[] public s2e1;\n    uint256[] public s1e1;\n    uint256[] public s4e2;\n    uint256[] public s3e2;\n    uint256[] public s2e2;\n    uint256[] public s1e2;\n\n    uint256 constant DAY_IN_SECONDS = 86400;\n    uint8 constant E1_MULTIPLIER = 2;\n    uint8 constant E2_MULTIPLIER = 1;\n    uint256 constant LEAP_YEAR_IN_SECONDS = 31622400;\n    uint16 constant ORIGIN_YEAR = 1970;\n    uint8 constant S1 = 1;\n    uint8 constant S2 = 2;\n    uint8 constant S3 = 4;\n    uint8 constant S4 = 8;\n    uint256 constant YEAR_IN_SECONDS = 31536000;\n\n    mapping(uint256 => uint256) public checkpointsRedeemed;\n\n    constructor(address _lotteryContract, address _tokenContract) {\n        lotteryContract = ILottery(_lotteryContract);\n        tokenContract = IFungibleToken(_tokenContract);\n    }\n\n    function getLeaderboard() public view returns (Leaderboard[] memory) {\n      uint staked = 0;\n      for (uint y = 0; y < lotteryContract.nftSupply(); y++) {\n        if (lotteryContract.deposits(y) != address(0)) {\n          staked++;\n        }\n      }\n\n      Leaderboard[] memory results = new Leaderboard[](staked);\n\n      staked = 0;\n      for (uint x = 0; x < lotteryContract.nftSupply(); x++) {\n        if (lotteryContract.deposits(x) != address(0)) {\n          uint daysVested = (block.timestamp - lotteryContract.checkpoints(x)).div(DAY_IN_SECONDS);\n          \n          //4 star - edition 1\n          for (uint s = 0; s < s4e1.length; s++) {\n            if (x == s4e1[s]) {\n              results[staked] = Leaderboard(lotteryContract.deposits(x), x, E1_MULTIPLIER.mul(S4).mul(daysVested));\n              staked++;\n              break;\n            }\n          }\n\n          //3 star - edition 1\n          for (uint s = 0; s < s3e1.length; s++) {\n            if (x == s3e1[s]) {\n              results[staked] = Leaderboard(lotteryContract.deposits(x), x, E1_MULTIPLIER.mul(S3).mul(daysVested));\n              staked++;\n              break;\n            }\n          }\n\n          //2 star - edition 1\n          for (uint s = 0; s < s2e1.length; s++) {\n            if (x == s2e1[s]) {\n              results[staked] = Leaderboard(lotteryContract.deposits(x), x, E1_MULTIPLIER.mul(S2).mul(daysVested));\n              staked++;\n              break;\n            }\n          }\n\n          //1 star - edition 1\n          for (uint s = 0; s < s1e1.length; s++) {\n            if (x == s1e1[s]) {\n              results[staked] = Leaderboard(lotteryContract.deposits(x), x, E1_MULTIPLIER.mul(S1).mul(daysVested));\n              staked++;\n              break;\n            }\n          }\n\n          //4 star - edition 2\n          for (uint s = 0; s < s4e2.length; s++) {\n            if (x == s4e2[s]) {\n              results[staked] = Leaderboard(lotteryContract.deposits(x), x, E2_MULTIPLIER.mul(S4).mul(daysVested));\n              staked++;\n              break;\n            }\n          }\n\n          //3 star - edition 2\n          for (uint s = 0; s < s3e2.length; s++) {\n            if (x == s3e2[s]) {\n              results[staked] = Leaderboard(lotteryContract.deposits(x), x, E2_MULTIPLIER.mul(S3).mul(daysVested));\n              staked++;\n              break;\n            }\n          }\n\n          //2 star - edition 2\n          for (uint s = 0; s < s2e2.length; s++) {\n            if (x == s2e2[s]) {\n              results[staked] = Leaderboard(lotteryContract.deposits(x), x, E2_MULTIPLIER.mul(S2).mul(daysVested));\n              staked++;\n              break;\n            }\n          }\n\n          //1 star - edition 2\n          for (uint s = 0; s < s1e2.length; s++) {\n            if (x == s1e2[s]) {\n              results[staked] = Leaderboard(lotteryContract.deposits(x), x, E2_MULTIPLIER.mul(S1).mul(daysVested));\n              staked++;\n              break;\n            }\n          }\n        }\n      }\n\n      return results;\n    }\n\n    function getRedeemable(uint256 tokenId) public view returns (uint256) {\n        address holder = lotteryContract.deposits(tokenId);\n        require(holder != address(0), \"This token has not been staked\");\n        uint256 lastRedeemed = checkpointsRedeemed[tokenId];\n        uint256 lastStaked = lotteryContract.checkpoints(tokenId);\n        if (lastStaked > lastRedeemed) {\n            lastRedeemed = lastStaked;\n        }\n        uint256 timeDifference = block.timestamp.sub(lastRedeemed);\n\n        return timeDifference.div(DAY_IN_SECONDS);\n    }\n\n    function redeem(uint256 tokenId) external {\n        address holder = lotteryContract.deposits(tokenId);\n        require(holder == msg.sender, \"You are not the owner of this token\");\n        uint256 eligible = getRedeemable(tokenId);\n        tokenContract.mint(msg.sender, eligible * (uint256(10)**18));\n        checkpointsRedeemed[tokenId] = block.timestamp;\n    }\n\n    function set4e1(uint256[] memory values) external onlyOwner {\n        for (uint256 x = 0; x < values.length; x++) {\n            s4e1.push(values[x]);\n        }\n    }\n\n    function set3e1(uint256[] memory values) external onlyOwner {\n        for (uint256 x = 0; x < values.length; x++) {\n            s3e1.push(values[x]);\n        }\n    }\n\n    function set2e1(uint256[] memory values) external onlyOwner {\n        for (uint256 x = 0; x < values.length; x++) {\n            s2e1.push(values[x]);\n        }\n    }\n\n    function set1e1(uint256[] memory values) external onlyOwner {\n        for (uint256 x = 0; x < values.length; x++) {\n            s1e1.push(values[x]);\n        }\n    }\n\n    function set4e2(uint256[] memory values) external onlyOwner {\n        for (uint256 x = 0; x < values.length; x++) {\n            s4e2.push(values[x]);\n        }\n    }\n\n    function set3e2(uint256[] memory values) external onlyOwner {\n        for (uint256 x = 0; x < values.length; x++) {\n            s3e2.push(values[x]);\n        }\n    }\n\n    function set2e2(uint256[] memory values) external onlyOwner {\n        for (uint256 x = 0; x < values.length; x++) {\n            s2e2.push(values[x]);\n        }\n    }\n\n    function set1e2(uint256[] memory values) external onlyOwner {\n        for (uint256 x = 0; x < values.length; x++) {\n            s1e2.push(values[x]);\n        }\n    }\n\n    //date functions\n    function getYear(uint256 timestamp) public pure returns (uint16) {\n        uint256 secondsAccountedFor = 0;\n        uint16 year;\n        uint256 numLeapYears;\n\n        // Year\n        year = uint16(ORIGIN_YEAR + timestamp / YEAR_IN_SECONDS);\n        numLeapYears = leapYearsBefore(year) - leapYearsBefore(ORIGIN_YEAR);\n\n        secondsAccountedFor += LEAP_YEAR_IN_SECONDS * numLeapYears;\n        secondsAccountedFor +=\n            YEAR_IN_SECONDS *\n            (year - ORIGIN_YEAR - numLeapYears);\n\n        while (secondsAccountedFor > timestamp) {\n            if (isLeapYear(uint16(year - 1))) {\n                secondsAccountedFor -= LEAP_YEAR_IN_SECONDS;\n            } else {\n                secondsAccountedFor -= YEAR_IN_SECONDS;\n            }\n            year -= 1;\n        }\n        return year;\n    }\n\n    function isLeapYear(uint16 year) public pure returns (bool) {\n        if (year % 4 != 0) {\n            return false;\n        }\n        if (year % 100 != 0) {\n            return true;\n        }\n        if (year % 400 != 0) {\n            return false;\n        }\n        return true;\n    }\n\n    function leapYearsBefore(uint256 year) public pure returns (uint256) {\n        year -= 1;\n        return year / 4 - year / 100 + year / 400;\n    }\n\n    function firstDayOfMonth() public view returns (uint) {\n      uint timeNow = block.timestamp;\n      _DateTime memory today = parseTimestamp(timeNow);\n      timeNow = timeNow - ((uint(today.day) - 1) * DAY_IN_SECONDS);\n      timeNow = timeNow - (uint(today.hour) * 3600);\n      timeNow = timeNow - (uint(today.minute) * 60);\n      timeNow = timeNow - uint(today.second);\n\n      return timeNow;\n    }\n\n    function getDaysInMonth(uint8 month, uint16 year)\n        public\n        pure\n        returns (uint8)\n    {\n        if (\n            month == 1 ||\n            month == 3 ||\n            month == 5 ||\n            month == 7 ||\n            month == 8 ||\n            month == 10 ||\n            month == 12\n        ) {\n            return 31;\n        } else if (month == 4 || month == 6 || month == 9 || month == 11) {\n            return 30;\n        } else if (isLeapYear(year)) {\n            return 29;\n        } else {\n            return 28;\n        }\n    }\n\n    function getHour(uint timestamp) public pure returns (uint8) {\n      return uint8((timestamp / 60 / 60) % 24);\n    }\n\n    function getMinute(uint timestamp) public pure returns (uint8) {\n      return uint8((timestamp / 60) % 60);\n    }\n\n    function getSecond(uint timestamp) public pure returns (uint8) {\n      return uint8(timestamp % 60);\n    }\n\n    function parseTimestamp(uint256 timestamp)\n        internal\n        pure\n        returns (_DateTime memory dt)\n    {\n        uint256 secondsAccountedFor = 0;\n        uint256 buf;\n        uint8 i;\n\n        // Year\n        dt.year = getYear(timestamp);\n        buf = leapYearsBefore(dt.year) - leapYearsBefore(ORIGIN_YEAR);\n\n        secondsAccountedFor += LEAP_YEAR_IN_SECONDS * buf;\n        secondsAccountedFor += YEAR_IN_SECONDS * (dt.year - ORIGIN_YEAR - buf);\n\n        // Month\n        uint256 secondsInMonth;\n        for (i = 1; i <= 12; i++) {\n            secondsInMonth = DAY_IN_SECONDS * getDaysInMonth(i, dt.year);\n            if (secondsInMonth + secondsAccountedFor > timestamp) {\n                dt.month = i;\n                break;\n            }\n            secondsAccountedFor += secondsInMonth;\n        }\n\n        // Day\n        for (i = 1; i <= getDaysInMonth(dt.month, dt.year); i++) {\n            if (DAY_IN_SECONDS + secondsAccountedFor > timestamp) {\n                dt.day = i;\n                break;\n            }\n            secondsAccountedFor += DAY_IN_SECONDS;\n        }\n\n        // Hour\n        dt.hour = getHour(timestamp);\n\n        // Minute\n        dt.minute = getMinute(timestamp);\n\n        // Second\n        dt.second = getSecond(timestamp);\n    }\n}\n",
  "sourcePath": "/Users/warrenschwartz/Projects/MintedHistory_Lottery/lottery/contracts/Points.sol",
  "compiler": {
    "name": "solc",
    "version": "0.8.10+commit.fc410830.Emscripten.clang"
  },
  "schemaVersion": "3.4.3",
  "updatedAt": "2022-01-16T03:02:15.264Z",
  "devdoc": {
    "kind": "dev",
    "methods": {
      "owner()": {
        "details": "Returns the address of the current owner."
      },
      "renounceOwnership()": {
        "details": "Leaves the contract without owner. It will not be possible to call `onlyOwner` functions anymore. Can only be called by the current owner. NOTE: Renouncing ownership will leave the contract without an owner, thereby removing any functionality that is only available to the owner."
      },
      "transferOwnership(address)": {
        "details": "Transfers ownership of the contract to a new account (`newOwner`). Can only be called by the current owner."
      }
    },
    "version": 1
  },
  "userdoc": {
    "kind": "user",
    "methods": {},
    "version": 1
  }
}